{
    "_format": "hh-sol-artifact-1",
    "contractName": "CloneFactory",
    "sourceName": "contracts/CloneFactory.sol",
    "abi": [
        {
            "anonymous": false,
            "inputs": [
                {
                    "indexed": false,
                    "internalType": "uint8",
                    "name": "version",
                    "type": "uint8"
                }
            ],
            "name": "Initialized",
            "type": "event"
        },
        {
            "anonymous": false,
            "inputs": [
                {
                    "indexed": true,
                    "internalType": "address",
                    "name": "_address",
                    "type": "address"
                }
            ],
            "name": "clonefactoryContractPurchased",
            "type": "event"
        },
        {
            "anonymous": false,
            "inputs": [
                {
                    "indexed": true,
                    "internalType": "address",
                    "name": "_address",
                    "type": "address"
                },
                {
                    "indexed": false,
                    "internalType": "string",
                    "name": "_pubkey",
                    "type": "string"
                }
            ],
            "name": "contractCreated",
            "type": "event"
        },
        {
            "anonymous": false,
            "inputs": [
                {
                    "indexed": false,
                    "internalType": "address",
                    "name": "_address",
                    "type": "address"
                },
                {
                    "indexed": false,
                    "internalType": "bool",
                    "name": "_isDeleted",
                    "type": "bool"
                }
            ],
            "name": "contractDeleteUpdated",
            "type": "event"
        },
        {
            "anonymous": false,
            "inputs": [
                {
                    "indexed": true,
                    "internalType": "address",
                    "name": "_address",
                    "type": "address"
                }
            ],
            "name": "purchaseInfoUpdated",
            "type": "event"
        },
        {
            "inputs": [],
            "name": "baseImplementation",
            "outputs": [
                {
                    "internalType": "address",
                    "name": "",
                    "type": "address"
                }
            ],
            "stateMutability": "view",
            "type": "function"
        },
        {
            "inputs": [
                {
                    "internalType": "address",
                    "name": "_address",
                    "type": "address"
                }
            ],
            "name": "checkWhitelist",
            "outputs": [
                {
                    "internalType": "bool",
                    "name": "",
                    "type": "bool"
                }
            ],
            "stateMutability": "view",
            "type": "function"
        },
        {
            "inputs": [],
            "name": "getContractList",
            "outputs": [
                {
                    "internalType": "address[]",
                    "name": "",
                    "type": "address[]"
                }
            ],
            "stateMutability": "view",
            "type": "function"
        },
        {
            "inputs": [
                {
                    "internalType": "address",
                    "name": "_baseImplementation",
                    "type": "address"
                },
                {
                    "internalType": "address",
                    "name": "_lumerin",
                    "type": "address"
                },
                {
                    "internalType": "address",
                    "name": "_feeRecipient",
                    "type": "address"
                }
            ],
            "name": "initialize",
            "outputs": [],
            "stateMutability": "nonpayable",
            "type": "function"
        },
        {
            "inputs": [
                {
                    "internalType": "address",
                    "name": "",
                    "type": "address"
                }
            ],
            "name": "isContractDead",
            "outputs": [
                {
                    "internalType": "bool",
                    "name": "",
                    "type": "bool"
                }
            ],
            "stateMutability": "view",
            "type": "function"
        },
        {
            "inputs": [],
            "name": "lumerin",
            "outputs": [
                {
                    "internalType": "contract Lumerin",
                    "name": "",
                    "type": "address"
                }
            ],
            "stateMutability": "view",
            "type": "function"
        },
        {
            "inputs": [],
            "name": "marketplaceFee",
            "outputs": [
                {
                    "internalType": "uint256",
                    "name": "",
                    "type": "uint256"
                }
            ],
            "stateMutability": "view",
            "type": "function"
        },
        {
            "inputs": [],
            "name": "noMoreWhitelist",
            "outputs": [
                {
                    "internalType": "bool",
                    "name": "",
                    "type": "bool"
                }
            ],
            "stateMutability": "view",
            "type": "function"
        },
        {
            "inputs": [],
            "name": "owner",
            "outputs": [
                {
                    "internalType": "address",
                    "name": "",
                    "type": "address"
                }
            ],
            "stateMutability": "view",
            "type": "function"
        },
        {
            "inputs": [],
            "name": "payMarketplaceFee",
            "outputs": [
                {
                    "internalType": "bool",
                    "name": "",
                    "type": "bool"
                }
            ],
            "stateMutability": "payable",
            "type": "function"
        },
        {
            "inputs": [
                {
                    "internalType": "uint256",
                    "name": "",
                    "type": "uint256"
                }
            ],
            "name": "rentalContracts",
            "outputs": [
                {
                    "internalType": "address",
                    "name": "",
                    "type": "address"
                }
            ],
            "stateMutability": "view",
            "type": "function"
        },
        {
            "inputs": [
                {
                    "internalType": "address",
                    "name": "_address",
                    "type": "address"
                }
            ],
            "name": "setAddToWhitelist",
            "outputs": [],
            "stateMutability": "nonpayable",
            "type": "function"
        },
        {
            "inputs": [
                {
                    "internalType": "address",
                    "name": "_contractAddress",
                    "type": "address"
                },
                {
                    "internalType": "bool",
                    "name": "_isDeleted",
                    "type": "bool"
                }
            ],
            "name": "setContractDeleted",
            "outputs": [],
            "stateMutability": "nonpayable",
            "type": "function"
        },
        {
            "inputs": [
                {
                    "internalType": "uint256",
                    "name": "_price",
                    "type": "uint256"
                },
                {
                    "internalType": "uint256",
                    "name": "_limit",
                    "type": "uint256"
                },
                {
                    "internalType": "uint256",
                    "name": "_speed",
                    "type": "uint256"
                },
                {
                    "internalType": "uint256",
                    "name": "_length",
                    "type": "uint256"
                },
                {
                    "internalType": "address",
                    "name": "_validator",
                    "type": "address"
                },
                {
                    "internalType": "string",
                    "name": "_pubKey",
                    "type": "string"
                }
            ],
            "name": "setCreateNewRentalContract",
            "outputs": [
                {
                    "internalType": "address",
                    "name": "",
                    "type": "address"
                }
            ],
            "stateMutability": "payable",
            "type": "function"
        },
        {
            "inputs": [
                {
                    "internalType": "uint256",
                    "name": "_price",
                    "type": "uint256"
                },
                {
                    "internalType": "uint256",
                    "name": "_limit",
                    "type": "uint256"
                },
                {
                    "internalType": "uint256",
                    "name": "_speed",
                    "type": "uint256"
                },
                {
                    "internalType": "uint256",
                    "name": "_length",
                    "type": "uint256"
                },
                {
                    "internalType": "int8",
                    "name": "_profitTarget",
                    "type": "int8"
                },
                {
                    "internalType": "address",
                    "name": "_validator",
                    "type": "address"
                },
                {
                    "internalType": "string",
                    "name": "_pubKey",
                    "type": "string"
                }
            ],
            "name": "setCreateNewRentalContractV2",
            "outputs": [
                {
                    "internalType": "address",
                    "name": "",
                    "type": "address"
                }
            ],
            "stateMutability": "payable",
            "type": "function"
        },
        {
            "inputs": [],
            "name": "setDisableWhitelist",
            "outputs": [],
            "stateMutability": "nonpayable",
            "type": "function"
        },
        {
            "inputs": [
                {
                    "internalType": "uint256",
                    "name": "fee",
                    "type": "uint256"
                },
                {
                    "internalType": "address",
                    "name": "recipient",
                    "type": "address"
                }
            ],
            "name": "setMarketplaceFeeRecipient",
            "outputs": [],
            "stateMutability": "nonpayable",
            "type": "function"
        },
        {
            "inputs": [
                {
                    "internalType": "address",
                    "name": "_contractAddress",
                    "type": "address"
                },
                {
                    "internalType": "string",
                    "name": "_cipherText",
                    "type": "string"
                },
                {
                    "internalType": "uint32",
                    "name": "termsVersion",
                    "type": "uint32"
                }
            ],
            "name": "setPurchaseRentalContract",
            "outputs": [],
            "stateMutability": "payable",
            "type": "function"
        },
        {
            "inputs": [
                {
                    "internalType": "address",
                    "name": "_contractAddress",
                    "type": "address"
                },
                {
                    "internalType": "address",
                    "name": "_validatorAddress",
                    "type": "address"
                },
                {
                    "internalType": "string",
                    "name": "_encrValidatorURL",
                    "type": "string"
                },
                {
                    "internalType": "string",
                    "name": "_encrDestURL",
                    "type": "string"
                },
                {
                    "internalType": "uint32",
                    "name": "termsVersion",
                    "type": "uint32"
                }
            ],
            "name": "setPurchaseRentalContractV2",
            "outputs": [],
            "stateMutability": "payable",
            "type": "function"
        },
        {
            "inputs": [
                {
                    "internalType": "address",
                    "name": "_address",
                    "type": "address"
                }
            ],
            "name": "setRemoveFromWhitelist",
            "outputs": [],
            "stateMutability": "nonpayable",
            "type": "function"
        },
        {
            "inputs": [
                {
                    "internalType": "address",
                    "name": "_contractAddress",
                    "type": "address"
                },
                {
                    "internalType": "uint256",
                    "name": "_price",
                    "type": "uint256"
                },
                {
                    "internalType": "uint256",
                    "name": "_limit",
                    "type": "uint256"
                },
                {
                    "internalType": "uint256",
                    "name": "_speed",
                    "type": "uint256"
                },
                {
                    "internalType": "uint256",
                    "name": "_length",
                    "type": "uint256"
                }
            ],
            "name": "setUpdateContractInformation",
            "outputs": [],
            "stateMutability": "payable",
            "type": "function"
        },
        {
            "inputs": [
                {
                    "internalType": "address",
                    "name": "_contractAddress",
                    "type": "address"
                },
                {
                    "internalType": "uint256",
                    "name": "_price",
                    "type": "uint256"
                },
                {
                    "internalType": "uint256",
                    "name": "_limit",
                    "type": "uint256"
                },
                {
                    "internalType": "uint256",
                    "name": "_speed",
                    "type": "uint256"
                },
                {
                    "internalType": "uint256",
                    "name": "_length",
                    "type": "uint256"
                },
                {
                    "internalType": "int8",
                    "name": "_profitTarget",
                    "type": "int8"
                }
            ],
            "name": "setUpdateContractInformationV2",
            "outputs": [],
            "stateMutability": "nonpayable",
            "type": "function"
        },
        {
            "inputs": [
                {
                    "internalType": "address",
                    "name": "",
                    "type": "address"
                }
            ],
            "name": "whitelist",
            "outputs": [
                {
                    "internalType": "bool",
                    "name": "",
                    "type": "bool"
                }
            ],
            "stateMutability": "view",
            "type": "function"
        }
    ],
    "bytecode": "0x608060405234801561001057600080fd5b506126da806100206000396000f3fe6080604052600436106200015b5760003560e01c806399acac8c11620000c5578063bd80a1c91162000078578063bd80a1c914620003ab578063c0c53b8b14620003df578063e32e24501462000404578063e61089711462000427578063e80b04b4146200044f578063ee878a4a146200047457600080fd5b806399acac8c14620002da5780639b19251a1462000301578063a2ebe7491462000335578063a762f7f11462000357578063aafcc02a146200037c578063b312b94b146200039357600080fd5b80633af4158f116200011e5780633af4158f146200022057806353da020614620002375780636a166964146200025c5780638664aa51146200027c5780638671268614620002a15780638da5cb5b14620002b857600080fd5b80631088f93f1462000160578063164c1976146200017f5780631950c21814620001a65780632e1e8a9314620001cb5780633a6738b214620001fb575b600080fd5b6200016a6200048b565b60405190151581526020015b60405180910390f35b3480156200018c57600080fd5b50620001a46200019e36600462001580565b6200053b565b005b348015620001b357600080fd5b506200016a620001c536600462001580565b62000589565b620001e2620001dc36600462001603565b620005c6565b6040516001600160a01b03909116815260200162000176565b3480156200020857600080fd5b50620001a46200021a3660046200169a565b62000651565b620001a46200023136600462001710565b62000669565b3480156200024457600080fd5b50620001e262000256366004620017c6565b62000710565b3480156200026957600080fd5b5060055460405190815260200162000176565b3480156200028957600080fd5b50620001a46200029b366004620017ef565b6200073b565b620001e2620002b23660046200182d565b620008cf565b348015620002c557600080fd5b50600254620001e2906001600160a01b031681565b348015620002e757600080fd5b50620002f26200095a565b604051620001769190620018b0565b3480156200030e57600080fd5b506200016a6200032036600462001580565b60076020526000908152604090205460ff1681565b3480156200034257600080fd5b50600154620001e2906001600160a01b031681565b3480156200036457600080fd5b50620001a46200037636600462001580565b620009c2565b620001a46200038d366004620018ff565b62000a13565b348015620003a057600080fd5b50620001a462000a2b565b348015620003b857600080fd5b506200016a620003ca36600462001580565b60086020526000908152604090205460ff1681565b348015620003ec57600080fd5b50620001a4620003fe36600462001946565b62000a6d565b3480156200041157600080fd5b506002546200016a90600160a01b900460ff1681565b3480156200043457600080fd5b50600054620001e2906201000090046001600160a01b031681565b3480156200045c57600080fd5b50620001a46200046e36600462001998565b62000be5565b620001a462000485366004620019c0565b62000c39565b600554600090341015620004bc5760405162461bcd60e51b8152600401620004b39062001a30565b60405180910390fd5b6006546005546040516000926001600160a01b031691908381818185875af1925050503d80600081146200050d576040519150601f19603f3d011682016040523d82523d6000602084013e62000512565b606091505b5050905080620005365760405162461bcd60e51b8152600401620004b39062001a7d565b905090565b6002546001600160a01b03163314620005685760405162461bcd60e51b8152600401620004b39062001ac2565b6001600160a01b03166000908152600760205260409020805460ff19169055565b600254600090600160a01b900460ff1615620005a757506001919050565b506001600160a01b031660009081526007602052604090205460ff1690565b3360009081526007602052604081205460ff1680620005ee5750600254600160a01b900460ff165b6200060d5760405162461bcd60e51b8152600401620004b39062001af2565b600554341015620006325760405162461bcd60e51b8152600401620004b39062001a30565b62000644898989898989898962000cb2565b9998505050505050505050565b6200066186868686868662000e5c565b505050505050565b6005543410156200068e5760405162461bcd60e51b8152600401620004b39062001a30565b62000707878787878080601f01602080910402602001604051908101604052809392919081815260200183838082843760009201919091525050604080516020601f8b01819004810282018101909252898152925089915088908190840183828082843760009201919091525088925062000fe3915050565b50505050505050565b600381815481106200072157600080fd5b6000918252602090912001546001600160a01b0316905081565b6001600160a01b03821660009081526004602052604090205460ff16620007765760405162461bcd60e51b8152600401620004b39062001b44565b6000829050806001600160a01b03166308551a536040518163ffffffff1660e01b8152600401602060405180830381865afa158015620007ba573d6000803e3d6000fd5b505050506040513d601f19601f82011682018060405250810190620007e0919062001b7b565b6001600160a01b0316336001600160a01b031614806200080a57506002546001600160a01b031633145b620008295760405162461bcd60e51b8152600401620004b39062001ac2565b604051630567d91f60e41b815282151560048201526001600160a01b0384169063567d91f090602401600060405180830381600087803b1580156200086d57600080fd5b505af115801562000882573d6000803e3d6000fd5b5050604080516001600160a01b038716815285151560208201527f94706a90834905eb13df4134bd7c40e90c8218fbe9ded8631b8062c7bd4a5a06935001905060405180910390a1505050565b3360009081526007602052604081205460ff1680620008f75750600254600160a01b900460ff165b620009165760405162461bcd60e51b8152600401620004b39062001af2565b6005543410156200093b5760405162461bcd60e51b8152600401620004b39062001a30565b6200094e88888888600089898962000cb2565b98975050505050505050565b606060006003805480602002602001604051908101604052809291908181526020018280548015620009b657602002820191906000526020600020905b81546001600160a01b0316815260019091019060200180831162000997575b50939695505050505050565b6002546001600160a01b03163314620009ef5760405162461bcd60e51b8152600401620004b39062001ac2565b6001600160a01b03166000908152600760205260409020805460ff19166001179055565b62000a248585858585600062000e5c565b5050505050565b6002546001600160a01b0316331462000a585760405162461bcd60e51b8152600401620004b39062001ac2565b6002805460ff60a01b1916600160a01b179055565b600054610100900460ff161580801562000a8e5750600054600160ff909116105b8062000aaa5750303b15801562000aaa575060005460ff166001145b62000b0f5760405162461bcd60e51b815260206004820152602e60248201527f496e697469616c697a61626c653a20636f6e747261637420697320616c72656160448201526d191e481a5b9a5d1a585b1a5e995960921b6064820152608401620004b3565b6000805460ff19166001179055801562000b33576000805461ff0019166101001790555b600080546001600160a01b03808616620100000262010000600160b01b031990921691909117909155600180548683166001600160a01b0319918216179091556002805482163317905565b5e620f480006005556006805492851692909116919091179055801562000bdf576000805461ff0019169055604051600181527f7f26b83ff96e1f2b6a682f133852f6798a09c465da95921460cefb38474024989060200160405180910390a15b50505050565b6002546001600160a01b0316331462000c125760405162461bcd60e51b8152600401620004b39062001ac2565b600591909155600680546001600160a01b0319166001600160a01b03909216919091179055565b60055434101562000c5e5760405162461bcd60e51b8152600401620004b39062001a30565b62000bdf84600085858080601f01602080910402602001604051908101604052809392919081815260200183838082843760009201829052506040805160208101909152908152925087915062000fe39050565b60008062000cbf6200048b565b90508062000ce15760405162461bcd60e51b8152600401620004b39062001a7d565b6000632ffe554560e01b8b8b8b8b8b33600060029054906101000a90046001600160a01b0316308e8e8e60405160240162000d279b9a9998979695949392919062001bc4565b60408051601f198184030181529181526020820180516001600160e01b03166001600160e01b03199094169390931790925260015491519092506000916001600160a01b031690839062000d7b9062001559565b62000d8892919062001c82565b604051809103906000f08015801562000da5573d6000803e3d6000fd5b506003805460018082019092557fc2575a0e9e593c00f959f8c92f12db2869c3395a3b0502d05e2516446f71f85b0180546001600160a01b0319166001600160a01b03841690811790915560008181526004602052604090819020805460ff1916909317909255905191925082917f1b08e1646439b7521399d47f93ab6b1ebc92803e155d0b2f2ad2d4702a0508049062000e44908a908a9062001cb0565b60405180910390a29c9b505050505050505050505050565b6001600160a01b03861660009081526004602052604090205460ff1662000e975760405162461bcd60e51b8152600401620004b39062001b44565b6000869050806001600160a01b03166308551a536040518163ffffffff1660e01b8152600401602060405180830381865afa15801562000edb573d6000803e3d6000fd5b505050506040513d601f19601f8201168201806040525081019062000f01919062001b7b565b6001600160a01b0316336001600160a01b03161462000f345760405162461bcd60e51b8152600401620004b39062001ac2565b604051635408d78f60e11b815260048101879052602481018690526044810185905260648101849052600083900b60848201526001600160a01b0388169063a811af1e9060a401600060405180830381600087803b15801562000f9657600080fd5b505af115801562000fab573d6000803e3d6000fd5b50506040513092507f7865b2bbe0087425b223d9cf674d8d5328e31546b364da98c36db21193c17d559150600090a250505050505050565b6001600160a01b03851660009081526004602052604090205460ff166200101e5760405162461bcd60e51b8152600401620004b39062001b44565b6000859050806001600160a01b031663d7efb6b76040518163ffffffff1660e01b8152600401602060405180830381865afa15801562001062573d6000803e3d6000fd5b505050506040513d601f19601f8201168201806040525081019062001088919062001cc6565b15620010d75760405162461bcd60e51b815260206004820181905260248201527f63616e6e6f742070757263686173652064656c6574656420636f6e74726163746044820152606401620004b3565b336001600160a01b0316816001600160a01b03166308551a536040518163ffffffff1660e01b8152600401602060405180830381865afa15801562001120573d6000803e3d6000fd5b505050506040513d601f19601f8201168201806040525081019062001146919062001b7b565b6001600160a01b031603620011a85760405162461bcd60e51b815260206004820152602160248201527f63616e6e6f7420707572636861736520796f7572206f776e20636f6e747261636044820152601d60fa1b6064820152608401620004b3565b600080826001600160a01b031663d50256256040518163ffffffff1660e01b815260040160c060405180830381865afa158015620011ea573d6000803e3d6000fd5b505050506040513d601f19601f8201168201806040525081019062001210919062001ce6565b50945050505091508363ffffffff168163ffffffff16146200128a5760405162461bcd60e51b815260206004820152602c60248201527f63616e6e6f742070757263686173652c20636f6e7472616374207465726d732060448201526b1dd95c99481d5c19185d195960a21b6064820152608401620004b3565b6000620012966200048b565b905080620012f65760405162461bcd60e51b815260206004820152602660248201527f4661696c656420746f20706179206d61726b6574706c6163652070757263686160448201526573652066656560d01b6064820152608401620004b3565b60008054604051636eb1769f60e11b81523360048201523060248201528592916201000090046001600160a01b03169063dd62ed3e90604401602060405180830381865afa1580156200134d573d6000803e3d6000fd5b505050506040513d601f19601f8201168201806040525081019062001373919062001d3c565b905081811015620013d65760405162461bcd60e51b815260206004820152602660248201527f6e6f7420617574686f72697a656420746f207370656e642072657175697265646044820152652066756e647360d01b6064820152608401620004b3565b600080546040516323b872dd60e01b81523360048201526001600160a01b038e811660248301526044820189905262010000909204909116906323b872dd906064016020604051808303816000875af115801562001438573d6000803e3d6000fd5b505050506040513d601f19601f820116820180604052508101906200145e919062001cc6565b905080620014af5760405162461bcd60e51b815260206004820152601760248201527f6c756d6572696e207472616e73666572206661696c65640000000000000000006044820152606401620004b3565b866001600160a01b03166385f45a298b8b338f6040518563ffffffff1660e01b8152600401620014e3949392919062001d56565b600060405180830381600087803b158015620014fe57600080fd5b505af115801562001513573d6000803e3d6000fd5b50506040516001600160a01b038f1692507fbf1df41b401a1bb8d9bd03fb6fe59b6ced0e61a76cdd3d3d511b4d06eb2cdebe9150600090a2505050505050505050505050565b6109008062001da583390190565b6001600160a01b03811681146200157d57600080fd5b50565b6000602082840312156200159357600080fd5b8135620015a08162001567565b9392505050565b8060000b81146200157d57600080fd5b60008083601f840112620015ca57600080fd5b50813567ffffffffffffffff811115620015e357600080fd5b602083019150836020828501011115620015fc57600080fd5b9250929050565b60008060008060008060008060e0898b0312156200162057600080fd5b8835975060208901359650604089013595506060890135945060808901356200164981620015a7565b935060a08901356200165b8162001567565b925060c089013567ffffffffffffffff8111156200167857600080fd5b620016868b828c01620015b7565b999c989b5096995094979396929594505050565b60008060008060008060c08789031215620016b457600080fd5b8635620016c18162001567565b95506020870135945060408701359350606087013592506080870135915060a0870135620016ef81620015a7565b809150509295509295509295565b63ffffffff811681146200157d57600080fd5b600080600080600080600060a0888a0312156200172c57600080fd5b8735620017398162001567565b965060208801356200174b8162001567565b9550604088013567ffffffffffffffff808211156200176957600080fd5b620017778b838c01620015b7565b909750955060608a01359150808211156200179157600080fd5b50620017a08a828b01620015b7565b9094509250506080880135620017b681620016fd565b8091505092959891949750929550565b600060208284031215620017d957600080fd5b5035919050565b80151581146200157d57600080fd5b600080604083850312156200180357600080fd5b8235620018108162001567565b915060208301356200182281620017e0565b809150509250929050565b600080600080600080600060c0888a0312156200184957600080fd5b873596506020880135955060408801359450606088013593506080880135620018728162001567565b925060a088013567ffffffffffffffff8111156200188f57600080fd5b6200189d8a828b01620015b7565b989b979a50959850939692959293505050565b6020808252825182820181905260009190848201906040850190845b81811015620018f35783516001600160a01b031683529284019291840191600101620018cc565b50909695505050505050565b600080600080600060a086880312156200191857600080fd5b8535620019258162001567565b97602087013597506040870135966060810135965060800135945092505050565b6000806000606084860312156200195c57600080fd5b8335620019698162001567565b925060208401356200197b8162001567565b915060408401356200198d8162001567565b809150509250925092565b60008060408385031215620019ac57600080fd5b823591506020830135620018228162001567565b60008060008060608587031215620019d757600080fd5b8435620019e48162001567565b9350602085013567ffffffffffffffff81111562001a0157600080fd5b62001a0f87828801620015b7565b909450925050604085013562001a2581620016fd565b939692955090935050565b6020808252602d908201527f496e73756666696369656e74204554482070726f766964656420666f72206d6160408201526c726b6574706c6163652066656560981b606082015260800190565b60208082526025908201527f4661696c656420746f20706179206d61726b6574706c616365206c697374696e604082015264672066656560d81b606082015260800190565b6020808252601690820152751e5bdd48185c99481b9bdd08185d5d1a1bdc9a5e995960521b604082015260600190565b60208082526032908201527f796f7520617265206e6f7420616e20617070726f7665642073656c6c6572206f6040820152716e2074686973206d61726b6574706c61636560701b606082015260800190565b60208082526018908201527f756e6b6e6f776e20636f6e747261637420616464726573730000000000000000604082015260600190565b60006020828403121562001b8e57600080fd5b8151620015a08162001567565b81835281816020850137506000828201602090810191909152601f909101601f19169091010190565b8b8152602081018b9052604081018a905260608101899052600088810b60808301526001600160a01b0388811660a084015287811660c084015286811660e08401528516610100830152610140610120830181905262001c28838201858762001b9b565b9e9d5050505050505050505050505050565b6000815180845260005b8181101562001c625760208185018101518683018201520162001c44565b506000602082860101526020601f19601f83011685010191505092915050565b6001600160a01b038316815260406020820181905260009062001ca89083018462001c3a565b949350505050565b60208152600062001ca860208301848662001b9b565b60006020828403121562001cd957600080fd5b8151620015a081620017e0565b60008060008060008060c0878903121562001d0057600080fd5b86519550602087015194506040870151935060608701519250608087015162001d2981620016fd565b60a0880151909250620016ef81620015a7565b60006020828403121562001d4f57600080fd5b5051919050565b60808152600062001d6b608083018762001c3a565b828103602084015262001d7f818762001c3a565b6001600160a01b0395861660408501529390941660609092019190915250939250505056fe60806040526040516109003803806109008339810160408190526100229161045b565b61002e82826000610035565b5050610585565b61003e83610100565b6040516001600160a01b038416907f1cf3b03a6cf19fa2baba4df148e9dcabedea7f8a5c07840e207e5c089be95d3e90600090a260008251118061007f5750805b156100fb576100f9836001600160a01b0316635c60da1b6040518163ffffffff1660e01b8152600401602060405180830381865afa1580156100c5573d6000803e3d6000fd5b505050506040513d601f19601f820116820180604052508101906100e9919061051b565b836102a360201b6100291760201c565b505b505050565b610113816102cf60201b6100551760201c565b6101725760405162461bcd60e51b815260206004820152602560248201527f455243313936373a206e657720626561636f6e206973206e6f74206120636f6e6044820152641d1c9858dd60da1b60648201526084015b60405180910390fd5b6101e6816001600160a01b0316635c60da1b6040518163ffffffff1660e01b8152600401602060405180830381865afa1580156101b3573d6000803e3d6000fd5b505050506040513d601f19601f820116820180604052508101906101d7919061051b565b6102cf60201b6100551760201c565b61024b5760405162461bcd60e51b815260206004820152603060248201527f455243313936373a20626561636f6e20696d706c656d656e746174696f6e206960448201526f1cc81b9bdd08184818dbdb9d1c9858dd60821b6064820152608401610169565b806102827fa3f0ad74e5423aebfd80d3ef4346578335a9a72aeaee59ff6cb3582b35133d5060001b6102de60201b6100641760201c565b80546001600160a01b0319166001600160a01b039290921691909117905550565b60606102c883836040518060600160405280602781526020016108d9602791396102e1565b9392505050565b6001600160a01b03163b151590565b90565b6060600080856001600160a01b0316856040516102fe9190610536565b600060405180830381855af49150503d8060008114610339576040519150601f19603f3d011682016040523d82523d6000602084013e61033e565b606091505b5090925090506103508683838761035a565b9695505050505050565b606083156103c95782516000036103c2576001600160a01b0385163b6103c25760405162461bcd60e51b815260206004820152601d60248201527f416464726573733a2063616c6c20746f206e6f6e2d636f6e74726163740000006044820152606401610169565b50816103d3565b6103d383836103db565b949350505050565b8151156103eb5781518083602001fd5b8060405162461bcd60e51b81526004016101699190610552565b80516001600160a01b038116811461041c57600080fd5b919050565b634e487b7160e01b600052604160045260246000fd5b60005b8381101561045257818101518382015260200161043a565b50506000910152565b6000806040838503121561046e57600080fd5b61047783610405565b60208401519092506001600160401b038082111561049457600080fd5b818501915085601f8301126104a857600080fd5b8151818111156104ba576104ba610421565b604051601f8201601f19908116603f011681019083821181831017156104e2576104e2610421565b816040528281528860208487010111156104fb57600080fd5b61050c836020830160208801610437565b80955050505050509250929050565b60006020828403121561052d57600080fd5b6102c882610405565b60008251610548818460208701610437565b9190910192915050565b6020815260008251806020840152610571816040850160208701610437565b601f01601f19169190910160400192915050565b610345806105946000396000f3fe60806040523661001357610011610017565b005b6100115b610027610022610067565b610100565b565b606061004e83836040518060600160405280602781526020016102e960279139610124565b9392505050565b6001600160a01b03163b151590565b90565b600061009a7fa3f0ad74e5423aebfd80d3ef4346578335a9a72aeaee59ff6cb3582b35133d50546001600160a01b031690565b6001600160a01b0316635c60da1b6040518163ffffffff1660e01b8152600401602060405180830381865afa1580156100d7573d6000803e3d6000fd5b505050506040513d601f19601f820116820180604052508101906100fb919061024c565b905090565b3660008037600080366000845af43d6000803e80801561011f573d6000f35b3d6000fd5b6060600080856001600160a01b0316856040516101419190610299565b600060405180830381855af49150503d806000811461017c576040519150601f19603f3d011682016040523d82523d6000602084013e610181565b606091505b50915091506101928683838761019c565b9695505050505050565b60608315610210578251600003610209576001600160a01b0385163b6102095760405162461bcd60e51b815260206004820152601d60248201527f416464726573733a2063616c6c20746f206e6f6e2d636f6e747261637400000060448201526064015b60405180910390fd5b508161021a565b61021a8383610222565b949350505050565b8151156102325781518083602001fd5b8060405162461bcd60e51b815260040161020091906102b5565b60006020828403121561025e57600080fd5b81516001600160a01b038116811461004e57600080fd5b60005b83811015610290578181015183820152602001610278565b50506000910152565b600082516102ab818460208701610275565b9190910192915050565b60208152600082518060208401526102d4816040850160208701610275565b601f01601f1916919091016040019291505056fe416464726573733a206c6f772d6c6576656c2064656c65676174652063616c6c206661696c6564a2646970667358221220d9a3f265ad3bf9a517efea13cdf18fed440218e98ffd0e7cb456c7072e0769d464736f6c63430008120033416464726573733a206c6f772d6c6576656c2064656c65676174652063616c6c206661696c6564a26469706673582212203966c742ddd70a94592709cb3141055a3b7f14fdfb15df7a922e15e051af87fa64736f6c63430008120033",
    "linkReferences": {},
    "deployedLinkReferences": {}
}