{
    "_format": "hh-sol-artifact-1",
    "contractName": "CloneFactory",
    "sourceName": "contracts/CloneFactory.sol",
    "abi": [
        {
            "anonymous": false,
            "inputs": [
                {
                    "indexed": false,
                    "internalType": "uint8",
                    "name": "version",
                    "type": "uint8"
                }
            ],
            "name": "Initialized",
            "type": "event"
        },
        {
            "anonymous": false,
            "inputs": [
                {
                    "indexed": true,
                    "internalType": "address",
                    "name": "_address",
                    "type": "address"
                }
            ],
            "name": "clonefactoryContractPurchased",
            "type": "event"
        },
        {
            "anonymous": false,
            "inputs": [
                {
                    "indexed": true,
                    "internalType": "address",
                    "name": "_address",
                    "type": "address"
                },
                {
                    "indexed": false,
                    "internalType": "string",
                    "name": "_pubkey",
                    "type": "string"
                }
            ],
            "name": "contractCreated",
            "type": "event"
        },
        {
            "anonymous": false,
            "inputs": [
                {
                    "indexed": false,
                    "internalType": "address",
                    "name": "_address",
                    "type": "address"
                },
                {
                    "indexed": false,
                    "internalType": "bool",
                    "name": "_isDeleted",
                    "type": "bool"
                }
            ],
            "name": "contractDeleteUpdated",
            "type": "event"
        },
        {
            "anonymous": false,
            "inputs": [
                {
                    "indexed": true,
                    "internalType": "address",
                    "name": "_address",
                    "type": "address"
                }
            ],
            "name": "purchaseInfoUpdated",
            "type": "event"
        },
        {
            "inputs": [],
            "name": "baseImplementation",
            "outputs": [
                {
                    "internalType": "address",
                    "name": "",
                    "type": "address"
                }
            ],
            "stateMutability": "view",
            "type": "function"
        },
        {
            "inputs": [
                {
                    "internalType": "address",
                    "name": "_address",
                    "type": "address"
                }
            ],
            "name": "checkWhitelist",
            "outputs": [
                {
                    "internalType": "bool",
                    "name": "",
                    "type": "bool"
                }
            ],
            "stateMutability": "view",
            "type": "function"
        },
        {
            "inputs": [],
            "name": "getContractList",
            "outputs": [
                {
                    "internalType": "address[]",
                    "name": "",
                    "type": "address[]"
                }
            ],
            "stateMutability": "view",
            "type": "function"
        },
        {
            "inputs": [
                {
                    "internalType": "address",
                    "name": "_baseImplementation",
                    "type": "address"
                },
                {
                    "internalType": "address",
                    "name": "_lumerin",
                    "type": "address"
                },
                {
                    "internalType": "address",
                    "name": "_feeRecipient",
                    "type": "address"
                }
            ],
            "name": "initialize",
            "outputs": [],
            "stateMutability": "nonpayable",
            "type": "function"
        },
        {
            "inputs": [
                {
                    "internalType": "address",
                    "name": "",
                    "type": "address"
                }
            ],
            "name": "isContractDead",
            "outputs": [
                {
                    "internalType": "bool",
                    "name": "",
                    "type": "bool"
                }
            ],
            "stateMutability": "view",
            "type": "function"
        },
        {
            "inputs": [],
            "name": "lumerin",
            "outputs": [
                {
                    "internalType": "contract Lumerin",
                    "name": "",
                    "type": "address"
                }
            ],
            "stateMutability": "view",
            "type": "function"
        },
        {
            "inputs": [],
            "name": "marketplaceFee",
            "outputs": [
                {
                    "internalType": "uint256",
                    "name": "",
                    "type": "uint256"
                }
            ],
            "stateMutability": "view",
            "type": "function"
        },
        {
            "inputs": [],
            "name": "noMoreWhitelist",
            "outputs": [
                {
                    "internalType": "bool",
                    "name": "",
                    "type": "bool"
                }
            ],
            "stateMutability": "view",
            "type": "function"
        },
        {
            "inputs": [],
            "name": "owner",
            "outputs": [
                {
                    "internalType": "address",
                    "name": "",
                    "type": "address"
                }
            ],
            "stateMutability": "view",
            "type": "function"
        },
        {
            "inputs": [],
            "name": "payMarketplaceFee",
            "outputs": [
                {
                    "internalType": "bool",
                    "name": "",
                    "type": "bool"
                }
            ],
            "stateMutability": "payable",
            "type": "function"
        },
        {
            "inputs": [
                {
                    "internalType": "uint256",
                    "name": "",
                    "type": "uint256"
                }
            ],
            "name": "rentalContracts",
            "outputs": [
                {
                    "internalType": "address",
                    "name": "",
                    "type": "address"
                }
            ],
            "stateMutability": "view",
            "type": "function"
        },
        {
            "inputs": [
                {
                    "internalType": "address",
                    "name": "_address",
                    "type": "address"
                }
            ],
            "name": "setAddToWhitelist",
            "outputs": [],
            "stateMutability": "nonpayable",
            "type": "function"
        },
        {
            "inputs": [
                {
                    "internalType": "address",
                    "name": "_contractAddress",
                    "type": "address"
                },
                {
                    "internalType": "bool",
                    "name": "_isDeleted",
                    "type": "bool"
                }
            ],
            "name": "setContractDeleted",
            "outputs": [],
            "stateMutability": "nonpayable",
            "type": "function"
        },
        {
            "inputs": [
                {
                    "internalType": "uint256",
                    "name": "_price",
                    "type": "uint256"
                },
                {
                    "internalType": "uint256",
                    "name": "_limit",
                    "type": "uint256"
                },
                {
                    "internalType": "uint256",
                    "name": "_speed",
                    "type": "uint256"
                },
                {
                    "internalType": "uint256",
                    "name": "_length",
                    "type": "uint256"
                },
                {
                    "internalType": "address",
                    "name": "_validator",
                    "type": "address"
                },
                {
                    "internalType": "string",
                    "name": "_pubKey",
                    "type": "string"
                }
            ],
            "name": "setCreateNewRentalContract",
            "outputs": [
                {
                    "internalType": "address",
                    "name": "",
                    "type": "address"
                }
            ],
            "stateMutability": "payable",
            "type": "function"
        },
        {
            "inputs": [
                {
                    "internalType": "uint256",
                    "name": "_price",
                    "type": "uint256"
                },
                {
                    "internalType": "uint256",
                    "name": "_limit",
                    "type": "uint256"
                },
                {
                    "internalType": "uint256",
                    "name": "_speed",
                    "type": "uint256"
                },
                {
                    "internalType": "uint256",
                    "name": "_length",
                    "type": "uint256"
                },
                {
                    "internalType": "int8",
                    "name": "_profitTarget",
                    "type": "int8"
                },
                {
                    "internalType": "address",
                    "name": "_validator",
                    "type": "address"
                },
                {
                    "internalType": "string",
                    "name": "_pubKey",
                    "type": "string"
                }
            ],
            "name": "setCreateNewRentalContractV2",
            "outputs": [
                {
                    "internalType": "address",
                    "name": "",
                    "type": "address"
                }
            ],
            "stateMutability": "payable",
            "type": "function"
        },
        {
            "inputs": [],
            "name": "setDisableWhitelist",
            "outputs": [],
            "stateMutability": "nonpayable",
            "type": "function"
        },
        {
            "inputs": [
                {
                    "internalType": "uint256",
                    "name": "fee",
                    "type": "uint256"
                },
                {
                    "internalType": "address",
                    "name": "recipient",
                    "type": "address"
                }
            ],
            "name": "setMarketplaceFeeRecipient",
            "outputs": [],
            "stateMutability": "nonpayable",
            "type": "function"
        },
        {
            "inputs": [
                {
                    "internalType": "address",
                    "name": "_contractAddress",
                    "type": "address"
                },
                {
                    "internalType": "string",
                    "name": "_cipherText",
                    "type": "string"
                },
                {
                    "internalType": "uint32",
                    "name": "termsVersion",
                    "type": "uint32"
                }
            ],
            "name": "setPurchaseRentalContract",
            "outputs": [],
            "stateMutability": "payable",
            "type": "function"
        },
        {
            "inputs": [
                {
                    "internalType": "address",
                    "name": "_address",
                    "type": "address"
                }
            ],
            "name": "setRemoveFromWhitelist",
            "outputs": [],
            "stateMutability": "nonpayable",
            "type": "function"
        },
        {
            "inputs": [
                {
                    "internalType": "address",
                    "name": "_contractAddress",
                    "type": "address"
                },
                {
                    "internalType": "uint256",
                    "name": "_price",
                    "type": "uint256"
                },
                {
                    "internalType": "uint256",
                    "name": "_limit",
                    "type": "uint256"
                },
                {
                    "internalType": "uint256",
                    "name": "_speed",
                    "type": "uint256"
                },
                {
                    "internalType": "uint256",
                    "name": "_length",
                    "type": "uint256"
                }
            ],
            "name": "setUpdateContractInformation",
            "outputs": [],
            "stateMutability": "payable",
            "type": "function"
        },
        {
            "inputs": [
                {
                    "internalType": "address",
                    "name": "_contractAddress",
                    "type": "address"
                },
                {
                    "internalType": "uint256",
                    "name": "_price",
                    "type": "uint256"
                },
                {
                    "internalType": "uint256",
                    "name": "_limit",
                    "type": "uint256"
                },
                {
                    "internalType": "uint256",
                    "name": "_speed",
                    "type": "uint256"
                },
                {
                    "internalType": "uint256",
                    "name": "_length",
                    "type": "uint256"
                },
                {
                    "internalType": "int8",
                    "name": "_profitTarget",
                    "type": "int8"
                }
            ],
            "name": "setUpdateContractInformationV2",
            "outputs": [],
            "stateMutability": "nonpayable",
            "type": "function"
        },
        {
            "inputs": [
                {
                    "internalType": "address",
                    "name": "",
                    "type": "address"
                }
            ],
            "name": "whitelist",
            "outputs": [
                {
                    "internalType": "bool",
                    "name": "",
                    "type": "bool"
                }
            ],
            "stateMutability": "view",
            "type": "function"
        }
    ],
    "bytecode": "0x608060405234801561001057600080fd5b506124d5806100206000396000f3fe6080604052600436106200014f5760003560e01c80639b19251a11620000b9578063bd80a1c91162000078578063bd80a1c91462000388578063c0c53b8b14620003bc578063e32e245014620003e1578063e61089711462000404578063e80b04b4146200042c578063ee878a4a146200045157600080fd5b80639b19251a14620002de578063a2ebe7491462000312578063a762f7f11462000334578063aafcc02a1462000359578063b312b94b146200037057600080fd5b806353da0206116200011257806353da020614620002145780636a16696414620002395780638664aa51146200025957806386712686146200027e5780638da5cb5b146200029557806399acac8c14620002b757600080fd5b80631088f93f1462000154578063164c197614620001735780631950c218146200019a5780632e1e8a9314620001bf5780633a6738b214620001ef575b600080fd5b6200015e62000468565b60405190151581526020015b60405180910390f35b3480156200018057600080fd5b5062000198620001923660046200145f565b62000518565b005b348015620001a757600080fd5b506200015e620001b93660046200145f565b62000566565b620001d6620001d0366004620014e2565b620005a3565b6040516001600160a01b0390911681526020016200016a565b348015620001fc57600080fd5b50620001986200020e36600462001579565b6200062e565b3480156200022157600080fd5b50620001d662000233366004620015dc565b62000646565b3480156200024657600080fd5b506005546040519081526020016200016a565b3480156200026657600080fd5b50620001986200027836600462001605565b62000671565b620001d66200028f36600462001643565b62000805565b348015620002a257600080fd5b50600254620001d6906001600160a01b031681565b348015620002c457600080fd5b50620002cf62000890565b6040516200016a9190620016c6565b348015620002eb57600080fd5b506200015e620002fd3660046200145f565b60076020526000908152604090205460ff1681565b3480156200031f57600080fd5b50600154620001d6906001600160a01b031681565b3480156200034157600080fd5b5062000198620003533660046200145f565b620008f8565b620001986200036a36600462001715565b62000949565b3480156200037d57600080fd5b506200019862000961565b3480156200039557600080fd5b506200015e620003a73660046200145f565b60086020526000908152604090205460ff1681565b348015620003c957600080fd5b5062000198620003db3660046200175c565b620009a3565b348015620003ee57600080fd5b506002546200015e90600160a01b900460ff1681565b3480156200041157600080fd5b50600054620001d6906201000090046001600160a01b031681565b3480156200043957600080fd5b50620001986200044b366004620017ae565b62000b1b565b6200019862000462366004620017e9565b62000b6f565b600554600090341015620004995760405162461bcd60e51b8152600401620004909062001859565b60405180910390fd5b6006546005546040516000926001600160a01b031691908381818185875af1925050503d8060008114620004ea576040519150601f19603f3d011682016040523d82523d6000602084013e620004ef565b606091505b5050905080620005135760405162461bcd60e51b81526004016200049090620018a6565b905090565b6002546001600160a01b03163314620005455760405162461bcd60e51b81526004016200049090620018eb565b6001600160a01b03166000908152600760205260409020805460ff19169055565b600254600090600160a01b900460ff16156200058457506001919050565b506001600160a01b031660009081526007602052604090205460ff1690565b3360009081526007602052604081205460ff1680620005cb5750600254600160a01b900460ff165b620005ea5760405162461bcd60e51b815260040162000490906200191b565b6005543410156200060f5760405162461bcd60e51b8152600401620004909062001859565b62000621898989898989898962001107565b9998505050505050505050565b6200063e868686868686620012b1565b505050505050565b600381815481106200065757600080fd5b6000918252602090912001546001600160a01b0316905081565b6001600160a01b03821660009081526004602052604090205460ff16620006ac5760405162461bcd60e51b815260040162000490906200196d565b6000829050806001600160a01b03166308551a536040518163ffffffff1660e01b8152600401602060405180830381865afa158015620006f0573d6000803e3d6000fd5b505050506040513d601f19601f82011682018060405250810190620007169190620019a4565b6001600160a01b0316336001600160a01b031614806200074057506002546001600160a01b031633145b6200075f5760405162461bcd60e51b81526004016200049090620018eb565b604051630567d91f60e41b815282151560048201526001600160a01b0384169063567d91f090602401600060405180830381600087803b158015620007a357600080fd5b505af1158015620007b8573d6000803e3d6000fd5b5050604080516001600160a01b038716815285151560208201527f94706a90834905eb13df4134bd7c40e90c8218fbe9ded8631b8062c7bd4a5a06935001905060405180910390a1505050565b3360009081526007602052604081205460ff16806200082d5750600254600160a01b900460ff165b6200084c5760405162461bcd60e51b815260040162000490906200191b565b600554341015620008715760405162461bcd60e51b8152600401620004909062001859565b6200088488888888600089898962001107565b98975050505050505050565b606060006003805480602002602001604051908101604052809291908181526020018280548015620008ec57602002820191906000526020600020905b81546001600160a01b03168152600190910190602001808311620008cd575b50939695505050505050565b6002546001600160a01b03163314620009255760405162461bcd60e51b81526004016200049090620018eb565b6001600160a01b03166000908152600760205260409020805460ff19166001179055565b6200095a85858585856000620012b1565b5050505050565b6002546001600160a01b031633146200098e5760405162461bcd60e51b81526004016200049090620018eb565b6002805460ff60a01b1916600160a01b179055565b600054610100900460ff1615808015620009c45750600054600160ff909116105b80620009e05750303b158015620009e0575060005460ff166001145b62000a455760405162461bcd60e51b815260206004820152602e60248201527f496e697469616c697a61626c653a20636f6e747261637420697320616c72656160448201526d191e481a5b9a5d1a585b1a5e995960921b606482015260840162000490565b6000805460ff19166001179055801562000a69576000805461ff0019166101001790555b600080546001600160a01b03808616620100000262010000600160b01b031990921691909117909155600180548683166001600160a01b0319918216179091556002805482163317905565b5e620f480006005556006805492851692909116919091179055801562000b15576000805461ff0019169055604051600181527f7f26b83ff96e1f2b6a682f133852f6798a09c465da95921460cefb38474024989060200160405180910390a15b50505050565b6002546001600160a01b0316331462000b485760405162461bcd60e51b81526004016200049090620018eb565b600591909155600680546001600160a01b0319166001600160a01b03909216919091179055565b60055434101562000b945760405162461bcd60e51b8152600401620004909062001859565b6001600160a01b03841660009081526004602052604090205460ff1662000bcf5760405162461bcd60e51b815260040162000490906200196d565b6000849050806001600160a01b031663d7efb6b76040518163ffffffff1660e01b8152600401602060405180830381865afa15801562000c13573d6000803e3d6000fd5b505050506040513d601f19601f8201168201806040525081019062000c399190620019c4565b1562000c885760405162461bcd60e51b815260206004820181905260248201527f63616e6e6f742070757263686173652064656c6574656420636f6e7472616374604482015260640162000490565b336001600160a01b0316816001600160a01b03166308551a536040518163ffffffff1660e01b8152600401602060405180830381865afa15801562000cd1573d6000803e3d6000fd5b505050506040513d601f19601f8201168201806040525081019062000cf79190620019a4565b6001600160a01b03160362000d595760405162461bcd60e51b815260206004820152602160248201527f63616e6e6f7420707572636861736520796f7572206f776e20636f6e747261636044820152601d60fa1b606482015260840162000490565b600080826001600160a01b031663d50256256040518163ffffffff1660e01b815260040160c060405180830381865afa15801562000d9b573d6000803e3d6000fd5b505050506040513d601f19601f8201168201806040525081019062000dc19190620019e4565b50945050505091508363ffffffff168163ffffffff161462000e3b5760405162461bcd60e51b815260206004820152602c60248201527f63616e6e6f742070757263686173652c20636f6e7472616374207465726d732060448201526b1dd95c99481d5c19185d195960a21b606482015260840162000490565b600062000e4762000468565b90508062000ea75760405162461bcd60e51b815260206004820152602660248201527f4661696c656420746f20706179206d61726b6574706c6163652070757263686160448201526573652066656560d01b606482015260840162000490565b60008054604051636eb1769f60e11b81523360048201523060248201528592916201000090046001600160a01b03169063dd62ed3e90604401602060405180830381865afa15801562000efe573d6000803e3d6000fd5b505050506040513d601f19601f8201168201806040525081019062000f24919062001a3a565b90508181101562000f875760405162461bcd60e51b815260206004820152602660248201527f6e6f7420617574686f72697a656420746f207370656e642072657175697265646044820152652066756e647360d01b606482015260840162000490565b600080546040516323b872dd60e01b81523360048201526001600160a01b038d811660248301526044820189905262010000909204909116906323b872dd906064016020604051808303816000875af115801562000fe9573d6000803e3d6000fd5b505050506040513d601f19601f820116820180604052508101906200100f9190620019c4565b905080620010605760405162461bcd60e51b815260206004820152601760248201527f6c756d6572696e207472616e73666572206661696c6564000000000000000000604482015260640162000490565b604051636ee58df960e11b81526001600160a01b0388169063ddcb1bf29062001092908d908d90339060040162001a7d565b600060405180830381600087803b158015620010ad57600080fd5b505af1158015620010c2573d6000803e3d6000fd5b50506040516001600160a01b038e1692507fbf1df41b401a1bb8d9bd03fb6fe59b6ced0e61a76cdd3d3d511b4d06eb2cdebe9150600090a25050505050505050505050565b6000806200111462000468565b905080620011365760405162461bcd60e51b81526004016200049090620018a6565b6000632ffe554560e01b8b8b8b8b8b33600060029054906101000a90046001600160a01b0316308e8e8e6040516024016200117c9b9a9998979695949392919062001aab565b60408051601f198184030181529181526020820180516001600160e01b03166001600160e01b03199094169390931790925260015491519092506000916001600160a01b0316908390620011d09062001438565b620011dd92919062001b21565b604051809103906000f080158015620011fa573d6000803e3d6000fd5b506003805460018082019092557fc2575a0e9e593c00f959f8c92f12db2869c3395a3b0502d05e2516446f71f85b0180546001600160a01b0319166001600160a01b03841690811790915560008181526004602052604090819020805460ff1916909317909255905191925082917f1b08e1646439b7521399d47f93ab6b1ebc92803e155d0b2f2ad2d4702a0508049062001299908a908a9062001b81565b60405180910390a29c9b505050505050505050505050565b6001600160a01b03861660009081526004602052604090205460ff16620012ec5760405162461bcd60e51b815260040162000490906200196d565b6000869050806001600160a01b03166308551a536040518163ffffffff1660e01b8152600401602060405180830381865afa15801562001330573d6000803e3d6000fd5b505050506040513d601f19601f82011682018060405250810190620013569190620019a4565b6001600160a01b0316336001600160a01b031614620013895760405162461bcd60e51b81526004016200049090620018eb565b604051635408d78f60e11b815260048101879052602481018690526044810185905260648101849052600083900b60848201526001600160a01b0388169063a811af1e9060a401600060405180830381600087803b158015620013eb57600080fd5b505af115801562001400573d6000803e3d6000fd5b50506040513092507f7865b2bbe0087425b223d9cf674d8d5328e31546b364da98c36db21193c17d559150600090a250505050505050565b6109008062001ba083390190565b6001600160a01b03811681146200145c57600080fd5b50565b6000602082840312156200147257600080fd5b81356200147f8162001446565b9392505050565b8060000b81146200145c57600080fd5b60008083601f840112620014a957600080fd5b50813567ffffffffffffffff811115620014c257600080fd5b602083019150836020828501011115620014db57600080fd5b9250929050565b60008060008060008060008060e0898b031215620014ff57600080fd5b883597506020890135965060408901359550606089013594506080890135620015288162001486565b935060a08901356200153a8162001446565b925060c089013567ffffffffffffffff8111156200155757600080fd5b620015658b828c0162001496565b999c989b5096995094979396929594505050565b60008060008060008060c087890312156200159357600080fd5b8635620015a08162001446565b95506020870135945060408701359350606087013592506080870135915060a0870135620015ce8162001486565b809150509295509295509295565b600060208284031215620015ef57600080fd5b5035919050565b80151581146200145c57600080fd5b600080604083850312156200161957600080fd5b8235620016268162001446565b915060208301356200163881620015f6565b809150509250929050565b600080600080600080600060c0888a0312156200165f57600080fd5b873596506020880135955060408801359450606088013593506080880135620016888162001446565b925060a088013567ffffffffffffffff811115620016a557600080fd5b620016b38a828b0162001496565b989b979a50959850939692959293505050565b6020808252825182820181905260009190848201906040850190845b81811015620017095783516001600160a01b031683529284019291840191600101620016e2565b50909695505050505050565b600080600080600060a086880312156200172e57600080fd5b85356200173b8162001446565b97602087013597506040870135966060810135965060800135945092505050565b6000806000606084860312156200177257600080fd5b83356200177f8162001446565b92506020840135620017918162001446565b91506040840135620017a38162001446565b809150509250925092565b60008060408385031215620017c257600080fd5b823591506020830135620016388162001446565b63ffffffff811681146200145c57600080fd5b600080600080606085870312156200180057600080fd5b84356200180d8162001446565b9350602085013567ffffffffffffffff8111156200182a57600080fd5b620018388782880162001496565b90945092505060408501356200184e81620017d6565b939692955090935050565b6020808252602d908201527f496e73756666696369656e74204554482070726f766964656420666f72206d6160408201526c726b6574706c6163652066656560981b606082015260800190565b60208082526025908201527f4661696c656420746f20706179206d61726b6574706c616365206c697374696e604082015264672066656560d81b606082015260800190565b6020808252601690820152751e5bdd48185c99481b9bdd08185d5d1a1bdc9a5e995960521b604082015260600190565b60208082526032908201527f796f7520617265206e6f7420616e20617070726f7665642073656c6c6572206f6040820152716e2074686973206d61726b6574706c61636560701b606082015260800190565b60208082526018908201527f756e6b6e6f776e20636f6e747261637420616464726573730000000000000000604082015260600190565b600060208284031215620019b757600080fd5b81516200147f8162001446565b600060208284031215620019d757600080fd5b81516200147f81620015f6565b60008060008060008060c08789031215620019fe57600080fd5b86519550602087015194506040870151935060608701519250608087015162001a2781620017d6565b60a0880151909250620015ce8162001486565b60006020828403121562001a4d57600080fd5b5051919050565b81835281816020850137506000828201602090810191909152601f909101601f19169091010190565b60408152600062001a9360408301858762001a54565b905060018060a01b0383166020830152949350505050565b8b8152602081018b9052604081018a905260608101899052600088810b60808301526001600160a01b0388811660a084015287811660c084015286811660e08401528516610100830152610140610120830181905262001b0f838201858762001a54565b9e9d5050505050505050505050505050565b60018060a01b038316815260006020604081840152835180604085015260005b8181101562001b5f5785810183015185820160600152820162001b41565b506000606082860101526060601f19601f830116850101925050509392505050565b60208152600062001b9760208301848662001a54565b94935050505056fe60806040526040516109003803806109008339810160408190526100229161045b565b61002e82826000610035565b5050610585565b61003e83610100565b6040516001600160a01b038416907f1cf3b03a6cf19fa2baba4df148e9dcabedea7f8a5c07840e207e5c089be95d3e90600090a260008251118061007f5750805b156100fb576100f9836001600160a01b0316635c60da1b6040518163ffffffff1660e01b8152600401602060405180830381865afa1580156100c5573d6000803e3d6000fd5b505050506040513d601f19601f820116820180604052508101906100e9919061051b565b836102a360201b6100291760201c565b505b505050565b610113816102cf60201b6100551760201c565b6101725760405162461bcd60e51b815260206004820152602560248201527f455243313936373a206e657720626561636f6e206973206e6f74206120636f6e6044820152641d1c9858dd60da1b60648201526084015b60405180910390fd5b6101e6816001600160a01b0316635c60da1b6040518163ffffffff1660e01b8152600401602060405180830381865afa1580156101b3573d6000803e3d6000fd5b505050506040513d601f19601f820116820180604052508101906101d7919061051b565b6102cf60201b6100551760201c565b61024b5760405162461bcd60e51b815260206004820152603060248201527f455243313936373a20626561636f6e20696d706c656d656e746174696f6e206960448201526f1cc81b9bdd08184818dbdb9d1c9858dd60821b6064820152608401610169565b806102827fa3f0ad74e5423aebfd80d3ef4346578335a9a72aeaee59ff6cb3582b35133d5060001b6102de60201b6100641760201c565b80546001600160a01b0319166001600160a01b039290921691909117905550565b60606102c883836040518060600160405280602781526020016108d9602791396102e1565b9392505050565b6001600160a01b03163b151590565b90565b6060600080856001600160a01b0316856040516102fe9190610536565b600060405180830381855af49150503d8060008114610339576040519150601f19603f3d011682016040523d82523d6000602084013e61033e565b606091505b5090925090506103508683838761035a565b9695505050505050565b606083156103c95782516000036103c2576001600160a01b0385163b6103c25760405162461bcd60e51b815260206004820152601d60248201527f416464726573733a2063616c6c20746f206e6f6e2d636f6e74726163740000006044820152606401610169565b50816103d3565b6103d383836103db565b949350505050565b8151156103eb5781518083602001fd5b8060405162461bcd60e51b81526004016101699190610552565b80516001600160a01b038116811461041c57600080fd5b919050565b634e487b7160e01b600052604160045260246000fd5b60005b8381101561045257818101518382015260200161043a565b50506000910152565b6000806040838503121561046e57600080fd5b61047783610405565b60208401519092506001600160401b038082111561049457600080fd5b818501915085601f8301126104a857600080fd5b8151818111156104ba576104ba610421565b604051601f8201601f19908116603f011681019083821181831017156104e2576104e2610421565b816040528281528860208487010111156104fb57600080fd5b61050c836020830160208801610437565b80955050505050509250929050565b60006020828403121561052d57600080fd5b6102c882610405565b60008251610548818460208701610437565b9190910192915050565b6020815260008251806020840152610571816040850160208701610437565b601f01601f19169190910160400192915050565b610345806105946000396000f3fe60806040523661001357610011610017565b005b6100115b610027610022610067565b610100565b565b606061004e83836040518060600160405280602781526020016102e960279139610124565b9392505050565b6001600160a01b03163b151590565b90565b600061009a7fa3f0ad74e5423aebfd80d3ef4346578335a9a72aeaee59ff6cb3582b35133d50546001600160a01b031690565b6001600160a01b0316635c60da1b6040518163ffffffff1660e01b8152600401602060405180830381865afa1580156100d7573d6000803e3d6000fd5b505050506040513d601f19601f820116820180604052508101906100fb919061024c565b905090565b3660008037600080366000845af43d6000803e80801561011f573d6000f35b3d6000fd5b6060600080856001600160a01b0316856040516101419190610299565b600060405180830381855af49150503d806000811461017c576040519150601f19603f3d011682016040523d82523d6000602084013e610181565b606091505b50915091506101928683838761019c565b9695505050505050565b60608315610210578251600003610209576001600160a01b0385163b6102095760405162461bcd60e51b815260206004820152601d60248201527f416464726573733a2063616c6c20746f206e6f6e2d636f6e747261637400000060448201526064015b60405180910390fd5b508161021a565b61021a8383610222565b949350505050565b8151156102325781518083602001fd5b8060405162461bcd60e51b815260040161020091906102b5565b60006020828403121561025e57600080fd5b81516001600160a01b038116811461004e57600080fd5b60005b83811015610290578181015183820152602001610278565b50506000910152565b600082516102ab818460208701610275565b9190910192915050565b60208152600082518060208401526102d4816040850160208701610275565b601f01601f1916919091016040019291505056fe416464726573733a206c6f772d6c6576656c2064656c65676174652063616c6c206661696c6564a2646970667358221220d9a3f265ad3bf9a517efea13cdf18fed440218e98ffd0e7cb456c7072e0769d464736f6c63430008120033416464726573733a206c6f772d6c6576656c2064656c65676174652063616c6c206661696c6564a26469706673582212205d8b6fef40211c4a611a9287c9d74122a65648be21ffb608112a6f9aba46002d64736f6c63430008120033",
    "linkReferences": {},
    "deployedLinkReferences": {}
}