{
    "_format": "hh-sol-artifact-1",
    "contractName": "CloneFactory",
    "sourceName": "contracts/CloneFactory.sol",
    "abi": [
        {
            "anonymous": false,
            "inputs": [
                {
                    "indexed": false,
                    "internalType": "uint8",
                    "name": "version",
                    "type": "uint8"
                }
            ],
            "name": "Initialized",
            "type": "event"
        },
        {
            "anonymous": false,
            "inputs": [
                {
                    "indexed": true,
                    "internalType": "address",
                    "name": "_address",
                    "type": "address"
                }
            ],
            "name": "clonefactoryContractPurchased",
            "type": "event"
        },
        {
            "anonymous": false,
            "inputs": [
                {
                    "indexed": true,
                    "internalType": "address",
                    "name": "_address",
                    "type": "address"
                },
                {
                    "indexed": false,
                    "internalType": "string",
                    "name": "_pubkey",
                    "type": "string"
                }
            ],
            "name": "contractCreated",
            "type": "event"
        },
        {
            "anonymous": false,
            "inputs": [
                {
                    "indexed": false,
                    "internalType": "address",
                    "name": "_address",
                    "type": "address"
                },
                {
                    "indexed": false,
                    "internalType": "bool",
                    "name": "_isDeleted",
                    "type": "bool"
                }
            ],
            "name": "contractDeleteUpdated",
            "type": "event"
        },
        {
            "anonymous": false,
            "inputs": [
                {
                    "indexed": true,
                    "internalType": "address",
                    "name": "_address",
                    "type": "address"
                }
            ],
            "name": "purchaseInfoUpdated",
            "type": "event"
        },
        {
            "inputs": [],
            "name": "baseImplementation",
            "outputs": [
                {
                    "internalType": "address",
                    "name": "",
                    "type": "address"
                }
            ],
            "stateMutability": "view",
            "type": "function"
        },
        {
            "inputs": [
                {
                    "internalType": "address",
                    "name": "_address",
                    "type": "address"
                }
            ],
            "name": "checkWhitelist",
            "outputs": [
                {
                    "internalType": "bool",
                    "name": "",
                    "type": "bool"
                }
            ],
            "stateMutability": "view",
            "type": "function"
        },
        {
            "inputs": [],
            "name": "getContractList",
            "outputs": [
                {
                    "internalType": "address[]",
                    "name": "",
                    "type": "address[]"
                }
            ],
            "stateMutability": "view",
            "type": "function"
        },
        {
            "inputs": [
                {
                    "internalType": "address",
                    "name": "_baseImplementation",
                    "type": "address"
                },
                {
                    "internalType": "address",
                    "name": "_lumerin",
                    "type": "address"
                },
                {
                    "internalType": "address",
                    "name": "_feeRecipient",
                    "type": "address"
                }
            ],
            "name": "initialize",
            "outputs": [],
            "stateMutability": "nonpayable",
            "type": "function"
        },
        {
            "inputs": [
                {
                    "internalType": "address",
                    "name": "",
                    "type": "address"
                }
            ],
            "name": "isContractDead",
            "outputs": [
                {
                    "internalType": "bool",
                    "name": "",
                    "type": "bool"
                }
            ],
            "stateMutability": "view",
            "type": "function"
        },
        {
            "inputs": [],
            "name": "lumerin",
            "outputs": [
                {
                    "internalType": "contract Lumerin",
                    "name": "",
                    "type": "address"
                }
            ],
            "stateMutability": "view",
            "type": "function"
        },
        {
            "inputs": [],
            "name": "marketplaceFee",
            "outputs": [
                {
                    "internalType": "uint256",
                    "name": "",
                    "type": "uint256"
                }
            ],
            "stateMutability": "view",
            "type": "function"
        },
        {
            "inputs": [],
            "name": "noMoreWhitelist",
            "outputs": [
                {
                    "internalType": "bool",
                    "name": "",
                    "type": "bool"
                }
            ],
            "stateMutability": "view",
            "type": "function"
        },
        {
            "inputs": [],
            "name": "owner",
            "outputs": [
                {
                    "internalType": "address",
                    "name": "",
                    "type": "address"
                }
            ],
            "stateMutability": "view",
            "type": "function"
        },
        {
            "inputs": [],
            "name": "payMarketplaceFee",
            "outputs": [
                {
                    "internalType": "bool",
                    "name": "",
                    "type": "bool"
                }
            ],
            "stateMutability": "payable",
            "type": "function"
        },
        {
            "inputs": [
                {
                    "internalType": "uint256",
                    "name": "",
                    "type": "uint256"
                }
            ],
            "name": "rentalContracts",
            "outputs": [
                {
                    "internalType": "address",
                    "name": "",
                    "type": "address"
                }
            ],
            "stateMutability": "view",
            "type": "function"
        },
        {
            "inputs": [
                {
                    "internalType": "address",
                    "name": "_address",
                    "type": "address"
                }
            ],
            "name": "setAddToWhitelist",
            "outputs": [],
            "stateMutability": "nonpayable",
            "type": "function"
        },
        {
            "inputs": [
                {
                    "internalType": "address",
                    "name": "_contractAddress",
                    "type": "address"
                },
                {
                    "internalType": "bool",
                    "name": "_isDeleted",
                    "type": "bool"
                }
            ],
            "name": "setContractDeleted",
            "outputs": [],
            "stateMutability": "nonpayable",
            "type": "function"
        },
        {
            "inputs": [
                {
                    "internalType": "uint256",
                    "name": "_price",
                    "type": "uint256"
                },
                {
                    "internalType": "uint256",
                    "name": "_limit",
                    "type": "uint256"
                },
                {
                    "internalType": "uint256",
                    "name": "_speed",
                    "type": "uint256"
                },
                {
                    "internalType": "uint256",
                    "name": "_length",
                    "type": "uint256"
                },
                {
                    "internalType": "address",
                    "name": "_validator",
                    "type": "address"
                },
                {
                    "internalType": "string",
                    "name": "_pubKey",
                    "type": "string"
                }
            ],
            "name": "setCreateNewRentalContract",
            "outputs": [
                {
                    "internalType": "address",
                    "name": "",
                    "type": "address"
                }
            ],
            "stateMutability": "payable",
            "type": "function"
        },
        {
            "inputs": [
                {
                    "internalType": "uint256",
                    "name": "_price",
                    "type": "uint256"
                },
                {
                    "internalType": "uint256",
                    "name": "_limit",
                    "type": "uint256"
                },
                {
                    "internalType": "uint256",
                    "name": "_speed",
                    "type": "uint256"
                },
                {
                    "internalType": "uint256",
                    "name": "_length",
                    "type": "uint256"
                },
                {
                    "internalType": "int8",
                    "name": "_profitTarget",
                    "type": "int8"
                },
                {
                    "internalType": "address",
                    "name": "_validator",
                    "type": "address"
                },
                {
                    "internalType": "string",
                    "name": "_pubKey",
                    "type": "string"
                }
            ],
            "name": "setCreateNewRentalContractV2",
            "outputs": [
                {
                    "internalType": "address",
                    "name": "",
                    "type": "address"
                }
            ],
            "stateMutability": "payable",
            "type": "function"
        },
        {
            "inputs": [],
            "name": "setDisableWhitelist",
            "outputs": [],
            "stateMutability": "nonpayable",
            "type": "function"
        },
        {
            "inputs": [
                {
                    "internalType": "uint256",
                    "name": "fee",
                    "type": "uint256"
                },
                {
                    "internalType": "address",
                    "name": "recipient",
                    "type": "address"
                }
            ],
            "name": "setMarketplaceFeeRecipient",
            "outputs": [],
            "stateMutability": "nonpayable",
            "type": "function"
        },
        {
            "inputs": [
                {
                    "internalType": "address",
                    "name": "_contractAddress",
                    "type": "address"
                },
                {
                    "internalType": "string",
                    "name": "_cipherText",
                    "type": "string"
                },
                {
                    "internalType": "uint32",
                    "name": "termsVersion",
                    "type": "uint32"
                }
            ],
            "name": "setPurchaseRentalContract",
            "outputs": [],
            "stateMutability": "payable",
            "type": "function"
        },
        {
            "inputs": [
                {
                    "internalType": "address",
                    "name": "_address",
                    "type": "address"
                }
            ],
            "name": "setRemoveFromWhitelist",
            "outputs": [],
            "stateMutability": "nonpayable",
            "type": "function"
        },
        {
            "inputs": [
                {
                    "internalType": "address",
                    "name": "_contractAddress",
                    "type": "address"
                },
                {
                    "internalType": "uint256",
                    "name": "_price",
                    "type": "uint256"
                },
                {
                    "internalType": "uint256",
                    "name": "_limit",
                    "type": "uint256"
                },
                {
                    "internalType": "uint256",
                    "name": "_speed",
                    "type": "uint256"
                },
                {
                    "internalType": "uint256",
                    "name": "_length",
                    "type": "uint256"
                },
                {
                    "internalType": "int8",
                    "name": "_profitTarget",
                    "type": "int8"
                }
            ],
            "name": "setUpdateContractInformation",
            "outputs": [],
            "stateMutability": "nonpayable",
            "type": "function"
        },
        {
            "inputs": [
                {
                    "internalType": "address",
                    "name": "",
                    "type": "address"
                }
            ],
            "name": "whitelist",
            "outputs": [
                {
                    "internalType": "bool",
                    "name": "",
                    "type": "bool"
                }
            ],
            "stateMutability": "view",
            "type": "function"
        }
    ],
    "bytecode": "0x608060405234801561001057600080fd5b5061243b806100206000396000f3fe608060405260043610620001435760003560e01c806399acac8c11620000b9578063bd80a1c91162000078578063bd80a1c91462000365578063c0c53b8b1462000399578063e32e245014620003be578063e610897114620003e1578063e80b04b41462000409578063ee878a4a146200042e57600080fd5b806399acac8c14620002ab5780639b19251a14620002d2578063a2ebe7491462000306578063a762f7f11462000328578063b312b94b146200034d57600080fd5b80636a16696411620001065780636a16696414620002085780638664aa51146200022857806386712686146200024d5780638da5cb5b14620002645780638e1f1ced146200028657600080fd5b80631088f93f1462000148578063164c197614620001675780631950c218146200018e5780632e1e8a9314620001b357806353da020614620001e3575b600080fd5b6200015262000445565b60405190151581526020015b60405180910390f35b3480156200017457600080fd5b506200018c620001863660046200140c565b620004f5565b005b3480156200019b57600080fd5b5062000152620001ad3660046200140c565b62000543565b620001ca620001c43660046200148f565b62000580565b6040516001600160a01b0390911681526020016200015e565b348015620001f057600080fd5b50620001ca6200020236600462001526565b6200060b565b3480156200021557600080fd5b506005546040519081526020016200015e565b3480156200023557600080fd5b506200018c620002473660046200154f565b62000636565b620001ca6200025e3660046200158d565b620007ca565b3480156200027157600080fd5b50600254620001ca906001600160a01b031681565b3480156200029357600080fd5b506200018c620002a536600462001610565b62000855565b348015620002b857600080fd5b50620002c3620009dc565b6040516200015e919062001673565b348015620002df57600080fd5b5062000152620002f13660046200140c565b60076020526000908152604090205460ff1681565b3480156200031357600080fd5b50600154620001ca906001600160a01b031681565b3480156200033557600080fd5b506200018c620003473660046200140c565b62000a44565b3480156200035a57600080fd5b506200018c62000a95565b3480156200037257600080fd5b5062000152620003843660046200140c565b60086020526000908152604090205460ff1681565b348015620003a657600080fd5b506200018c620003b8366004620016c2565b62000ad7565b348015620003cb57600080fd5b506002546200015290600160a01b900460ff1681565b348015620003ee57600080fd5b50600054620001ca906201000090046001600160a01b031681565b3480156200041657600080fd5b506200018c6200042836600462001714565b62000c4f565b6200018c6200043f3660046200174f565b62000ca3565b600554600090341015620004765760405162461bcd60e51b81526004016200046d90620017bf565b60405180910390fd5b6006546005546040516000926001600160a01b031691908381818185875af1925050503d8060008114620004c7576040519150601f19603f3d011682016040523d82523d6000602084013e620004cc565b606091505b5050905080620004f05760405162461bcd60e51b81526004016200046d906200180c565b905090565b6002546001600160a01b03163314620005225760405162461bcd60e51b81526004016200046d9062001851565b6001600160a01b03166000908152600760205260409020805460ff19169055565b600254600090600160a01b900460ff16156200056157506001919050565b506001600160a01b031660009081526007602052604090205460ff1690565b3360009081526007602052604081205460ff1680620005a85750600254600160a01b900460ff165b620005c75760405162461bcd60e51b81526004016200046d9062001881565b600554341015620005ec5760405162461bcd60e51b81526004016200046d90620017bf565b620005fe89898989898989896200123b565b9998505050505050505050565b600381815481106200061c57600080fd5b6000918252602090912001546001600160a01b0316905081565b6001600160a01b03821660009081526004602052604090205460ff16620006715760405162461bcd60e51b81526004016200046d90620018d3565b6000829050806001600160a01b03166308551a536040518163ffffffff1660e01b8152600401602060405180830381865afa158015620006b5573d6000803e3d6000fd5b505050506040513d601f19601f82011682018060405250810190620006db91906200190a565b6001600160a01b0316336001600160a01b031614806200070557506002546001600160a01b031633145b620007245760405162461bcd60e51b81526004016200046d9062001851565b604051630567d91f60e41b815282151560048201526001600160a01b0384169063567d91f090602401600060405180830381600087803b1580156200076857600080fd5b505af11580156200077d573d6000803e3d6000fd5b5050604080516001600160a01b038716815285151560208201527f94706a90834905eb13df4134bd7c40e90c8218fbe9ded8631b8062c7bd4a5a06935001905060405180910390a1505050565b3360009081526007602052604081205460ff1680620007f25750600254600160a01b900460ff165b620008115760405162461bcd60e51b81526004016200046d9062001881565b600554341015620008365760405162461bcd60e51b81526004016200046d90620017bf565b620008498888888860008989896200123b565b98975050505050505050565b6001600160a01b03861660009081526004602052604090205460ff16620008905760405162461bcd60e51b81526004016200046d90620018d3565b6000869050806001600160a01b03166308551a536040518163ffffffff1660e01b8152600401602060405180830381865afa158015620008d4573d6000803e3d6000fd5b505050506040513d601f19601f82011682018060405250810190620008fa91906200190a565b6001600160a01b0316336001600160a01b0316146200092d5760405162461bcd60e51b81526004016200046d9062001851565b604051635408d78f60e11b815260048101879052602481018690526044810185905260648101849052600083900b60848201526001600160a01b0388169063a811af1e9060a401600060405180830381600087803b1580156200098f57600080fd5b505af1158015620009a4573d6000803e3d6000fd5b50506040513092507f7865b2bbe0087425b223d9cf674d8d5328e31546b364da98c36db21193c17d559150600090a250505050505050565b60606000600380548060200260200160405190810160405280929190818152602001828054801562000a3857602002820191906000526020600020905b81546001600160a01b0316815260019091019060200180831162000a19575b50939695505050505050565b6002546001600160a01b0316331462000a715760405162461bcd60e51b81526004016200046d9062001851565b6001600160a01b03166000908152600760205260409020805460ff19166001179055565b6002546001600160a01b0316331462000ac25760405162461bcd60e51b81526004016200046d9062001851565b6002805460ff60a01b1916600160a01b179055565b600054610100900460ff161580801562000af85750600054600160ff909116105b8062000b145750303b15801562000b14575060005460ff166001145b62000b795760405162461bcd60e51b815260206004820152602e60248201527f496e697469616c697a61626c653a20636f6e747261637420697320616c72656160448201526d191e481a5b9a5d1a585b1a5e995960921b60648201526084016200046d565b6000805460ff19166001179055801562000b9d576000805461ff0019166101001790555b600080546001600160a01b03808616620100000262010000600160b01b031990921691909117909155600180548683166001600160a01b0319918216179091556002805482163317905565b5e620f480006005556006805492851692909116919091179055801562000c49576000805461ff0019169055604051600181527f7f26b83ff96e1f2b6a682f133852f6798a09c465da95921460cefb38474024989060200160405180910390a15b50505050565b6002546001600160a01b0316331462000c7c5760405162461bcd60e51b81526004016200046d9062001851565b600591909155600680546001600160a01b0319166001600160a01b03909216919091179055565b60055434101562000cc85760405162461bcd60e51b81526004016200046d90620017bf565b6001600160a01b03841660009081526004602052604090205460ff1662000d035760405162461bcd60e51b81526004016200046d90620018d3565b6000849050806001600160a01b031663d7efb6b76040518163ffffffff1660e01b8152600401602060405180830381865afa15801562000d47573d6000803e3d6000fd5b505050506040513d601f19601f8201168201806040525081019062000d6d91906200192a565b1562000dbc5760405162461bcd60e51b815260206004820181905260248201527f63616e6e6f742070757263686173652064656c6574656420636f6e747261637460448201526064016200046d565b336001600160a01b0316816001600160a01b03166308551a536040518163ffffffff1660e01b8152600401602060405180830381865afa15801562000e05573d6000803e3d6000fd5b505050506040513d601f19601f8201168201806040525081019062000e2b91906200190a565b6001600160a01b03160362000e8d5760405162461bcd60e51b815260206004820152602160248201527f63616e6e6f7420707572636861736520796f7572206f776e20636f6e747261636044820152601d60fa1b60648201526084016200046d565b600080826001600160a01b031663d50256256040518163ffffffff1660e01b815260040160c060405180830381865afa15801562000ecf573d6000803e3d6000fd5b505050506040513d601f19601f8201168201806040525081019062000ef591906200194a565b50945050505091508363ffffffff168163ffffffff161462000f6f5760405162461bcd60e51b815260206004820152602c60248201527f63616e6e6f742070757263686173652c20636f6e7472616374207465726d732060448201526b1dd95c99481d5c19185d195960a21b60648201526084016200046d565b600062000f7b62000445565b90508062000fdb5760405162461bcd60e51b815260206004820152602660248201527f4661696c656420746f20706179206d61726b6574706c6163652070757263686160448201526573652066656560d01b60648201526084016200046d565b60008054604051636eb1769f60e11b81523360048201523060248201528592916201000090046001600160a01b03169063dd62ed3e90604401602060405180830381865afa15801562001032573d6000803e3d6000fd5b505050506040513d601f19601f82011682018060405250810190620010589190620019a0565b905081811015620010bb5760405162461bcd60e51b815260206004820152602660248201527f6e6f7420617574686f72697a656420746f207370656e642072657175697265646044820152652066756e647360d01b60648201526084016200046d565b600080546040516323b872dd60e01b81523360048201526001600160a01b038d811660248301526044820189905262010000909204909116906323b872dd906064016020604051808303816000875af11580156200111d573d6000803e3d6000fd5b505050506040513d601f19601f820116820180604052508101906200114391906200192a565b905080620011945760405162461bcd60e51b815260206004820152601760248201527f6c756d6572696e207472616e73666572206661696c656400000000000000000060448201526064016200046d565b604051636ee58df960e11b81526001600160a01b0388169063ddcb1bf290620011c6908d908d903390600401620019e3565b600060405180830381600087803b158015620011e157600080fd5b505af1158015620011f6573d6000803e3d6000fd5b50506040516001600160a01b038e1692507fbf1df41b401a1bb8d9bd03fb6fe59b6ced0e61a76cdd3d3d511b4d06eb2cdebe9150600090a25050505050505050505050565b6000806200124862000445565b9050806200126a5760405162461bcd60e51b81526004016200046d906200180c565b6000632ffe554560e01b8b8b8b8b8b33600060029054906101000a90046001600160a01b0316308e8e8e604051602401620012b09b9a9998979695949392919062001a11565b60408051601f198184030181529181526020820180516001600160e01b03166001600160e01b03199094169390931790925260015491519092506000916001600160a01b03169083906200130490620013e5565b6200131192919062001a87565b604051809103906000f0801580156200132e573d6000803e3d6000fd5b506003805460018082019092557fc2575a0e9e593c00f959f8c92f12db2869c3395a3b0502d05e2516446f71f85b0180546001600160a01b0319166001600160a01b03841690811790915560008181526004602052604090819020805460ff1916909317909255905191925082917f1b08e1646439b7521399d47f93ab6b1ebc92803e155d0b2f2ad2d4702a05080490620013cd908a908a9062001ae7565b60405180910390a29c9b505050505050505050505050565b6109008062001b0683390190565b6001600160a01b03811681146200140957600080fd5b50565b6000602082840312156200141f57600080fd5b81356200142c81620013f3565b9392505050565b8060000b81146200140957600080fd5b60008083601f8401126200145657600080fd5b50813567ffffffffffffffff8111156200146f57600080fd5b6020830191508360208285010111156200148857600080fd5b9250929050565b60008060008060008060008060e0898b031215620014ac57600080fd5b883597506020890135965060408901359550606089013594506080890135620014d58162001433565b935060a0890135620014e781620013f3565b925060c089013567ffffffffffffffff8111156200150457600080fd5b620015128b828c0162001443565b999c989b5096995094979396929594505050565b6000602082840312156200153957600080fd5b5035919050565b80151581146200140957600080fd5b600080604083850312156200156357600080fd5b82356200157081620013f3565b91506020830135620015828162001540565b809150509250929050565b600080600080600080600060c0888a031215620015a957600080fd5b873596506020880135955060408801359450606088013593506080880135620015d281620013f3565b925060a088013567ffffffffffffffff811115620015ef57600080fd5b620015fd8a828b0162001443565b989b979a50959850939692959293505050565b60008060008060008060c087890312156200162a57600080fd5b86356200163781620013f3565b95506020870135945060408701359350606087013592506080870135915060a0870135620016658162001433565b809150509295509295509295565b6020808252825182820181905260009190848201906040850190845b81811015620016b65783516001600160a01b0316835292840192918401916001016200168f565b50909695505050505050565b600080600060608486031215620016d857600080fd5b8335620016e581620013f3565b92506020840135620016f781620013f3565b915060408401356200170981620013f3565b809150509250925092565b600080604083850312156200172857600080fd5b8235915060208301356200158281620013f3565b63ffffffff811681146200140957600080fd5b600080600080606085870312156200176657600080fd5b84356200177381620013f3565b9350602085013567ffffffffffffffff8111156200179057600080fd5b6200179e8782880162001443565b9094509250506040850135620017b4816200173c565b939692955090935050565b6020808252602d908201527f496e73756666696369656e74204554482070726f766964656420666f72206d6160408201526c726b6574706c6163652066656560981b606082015260800190565b60208082526025908201527f4661696c656420746f20706179206d61726b6574706c616365206c697374696e604082015264672066656560d81b606082015260800190565b6020808252601690820152751e5bdd48185c99481b9bdd08185d5d1a1bdc9a5e995960521b604082015260600190565b60208082526032908201527f796f7520617265206e6f7420616e20617070726f7665642073656c6c6572206f6040820152716e2074686973206d61726b6574706c61636560701b606082015260800190565b60208082526018908201527f756e6b6e6f776e20636f6e747261637420616464726573730000000000000000604082015260600190565b6000602082840312156200191d57600080fd5b81516200142c81620013f3565b6000602082840312156200193d57600080fd5b81516200142c8162001540565b60008060008060008060c087890312156200196457600080fd5b8651955060208701519450604087015193506060870151925060808701516200198d816200173c565b60a0880151909250620016658162001433565b600060208284031215620019b357600080fd5b5051919050565b81835281816020850137506000828201602090810191909152601f909101601f19169091010190565b604081526000620019f9604083018587620019ba565b905060018060a01b0383166020830152949350505050565b8b8152602081018b9052604081018a905260608101899052600088810b60808301526001600160a01b0388811660a084015287811660c084015286811660e08401528516610100830152610140610120830181905262001a758382018587620019ba565b9e9d5050505050505050505050505050565b60018060a01b038316815260006020604081840152835180604085015260005b8181101562001ac55785810183015185820160600152820162001aa7565b506000606082860101526060601f19601f830116850101925050509392505050565b60208152600062001afd602083018486620019ba565b94935050505056fe60806040526040516109003803806109008339810160408190526100229161045b565b61002e82826000610035565b5050610585565b61003e83610100565b6040516001600160a01b038416907f1cf3b03a6cf19fa2baba4df148e9dcabedea7f8a5c07840e207e5c089be95d3e90600090a260008251118061007f5750805b156100fb576100f9836001600160a01b0316635c60da1b6040518163ffffffff1660e01b8152600401602060405180830381865afa1580156100c5573d6000803e3d6000fd5b505050506040513d601f19601f820116820180604052508101906100e9919061051b565b836102a360201b6100291760201c565b505b505050565b610113816102cf60201b6100551760201c565b6101725760405162461bcd60e51b815260206004820152602560248201527f455243313936373a206e657720626561636f6e206973206e6f74206120636f6e6044820152641d1c9858dd60da1b60648201526084015b60405180910390fd5b6101e6816001600160a01b0316635c60da1b6040518163ffffffff1660e01b8152600401602060405180830381865afa1580156101b3573d6000803e3d6000fd5b505050506040513d601f19601f820116820180604052508101906101d7919061051b565b6102cf60201b6100551760201c565b61024b5760405162461bcd60e51b815260206004820152603060248201527f455243313936373a20626561636f6e20696d706c656d656e746174696f6e206960448201526f1cc81b9bdd08184818dbdb9d1c9858dd60821b6064820152608401610169565b806102827fa3f0ad74e5423aebfd80d3ef4346578335a9a72aeaee59ff6cb3582b35133d5060001b6102de60201b6100641760201c565b80546001600160a01b0319166001600160a01b039290921691909117905550565b60606102c883836040518060600160405280602781526020016108d9602791396102e1565b9392505050565b6001600160a01b03163b151590565b90565b6060600080856001600160a01b0316856040516102fe9190610536565b600060405180830381855af49150503d8060008114610339576040519150601f19603f3d011682016040523d82523d6000602084013e61033e565b606091505b5090925090506103508683838761035a565b9695505050505050565b606083156103c95782516000036103c2576001600160a01b0385163b6103c25760405162461bcd60e51b815260206004820152601d60248201527f416464726573733a2063616c6c20746f206e6f6e2d636f6e74726163740000006044820152606401610169565b50816103d3565b6103d383836103db565b949350505050565b8151156103eb5781518083602001fd5b8060405162461bcd60e51b81526004016101699190610552565b80516001600160a01b038116811461041c57600080fd5b919050565b634e487b7160e01b600052604160045260246000fd5b60005b8381101561045257818101518382015260200161043a565b50506000910152565b6000806040838503121561046e57600080fd5b61047783610405565b60208401519092506001600160401b038082111561049457600080fd5b818501915085601f8301126104a857600080fd5b8151818111156104ba576104ba610421565b604051601f8201601f19908116603f011681019083821181831017156104e2576104e2610421565b816040528281528860208487010111156104fb57600080fd5b61050c836020830160208801610437565b80955050505050509250929050565b60006020828403121561052d57600080fd5b6102c882610405565b60008251610548818460208701610437565b9190910192915050565b6020815260008251806020840152610571816040850160208701610437565b601f01601f19169190910160400192915050565b610345806105946000396000f3fe60806040523661001357610011610017565b005b6100115b610027610022610067565b610100565b565b606061004e83836040518060600160405280602781526020016102e960279139610124565b9392505050565b6001600160a01b03163b151590565b90565b600061009a7fa3f0ad74e5423aebfd80d3ef4346578335a9a72aeaee59ff6cb3582b35133d50546001600160a01b031690565b6001600160a01b0316635c60da1b6040518163ffffffff1660e01b8152600401602060405180830381865afa1580156100d7573d6000803e3d6000fd5b505050506040513d601f19601f820116820180604052508101906100fb919061024c565b905090565b3660008037600080366000845af43d6000803e80801561011f573d6000f35b3d6000fd5b6060600080856001600160a01b0316856040516101419190610299565b600060405180830381855af49150503d806000811461017c576040519150601f19603f3d011682016040523d82523d6000602084013e610181565b606091505b50915091506101928683838761019c565b9695505050505050565b60608315610210578251600003610209576001600160a01b0385163b6102095760405162461bcd60e51b815260206004820152601d60248201527f416464726573733a2063616c6c20746f206e6f6e2d636f6e747261637400000060448201526064015b60405180910390fd5b508161021a565b61021a8383610222565b949350505050565b8151156102325781518083602001fd5b8060405162461bcd60e51b815260040161020091906102b5565b60006020828403121561025e57600080fd5b81516001600160a01b038116811461004e57600080fd5b60005b83811015610290578181015183820152602001610278565b50506000910152565b600082516102ab818460208701610275565b9190910192915050565b60208152600082518060208401526102d4816040850160208701610275565b601f01601f1916919091016040019291505056fe416464726573733a206c6f772d6c6576656c2064656c65676174652063616c6c206661696c6564a2646970667358221220d9a3f265ad3bf9a517efea13cdf18fed440218e98ffd0e7cb456c7072e0769d464736f6c63430008120033416464726573733a206c6f772d6c6576656c2064656c65676174652063616c6c206661696c6564a2646970667358221220dfadbf5785f8a0a7f3d7dc2d09335bcfca908ea4538b8ad88aea22823d88e75e64736f6c63430008120033",
    "linkReferences": {},
    "deployedLinkReferences": {}
}