{
    "_format": "hh-sol-artifact-1",
    "contractName": "CloneFactory",
    "sourceName": "contracts/marketplace/CloneFactory.sol",
    "abi": [
        {
            "inputs": [
                {
                    "internalType": "address",
                    "name": "target",
                    "type": "address"
                }
            ],
            "name": "AddressEmptyCode",
            "type": "error"
        },
        {
            "inputs": [
                {
                    "internalType": "address",
                    "name": "implementation",
                    "type": "address"
                }
            ],
            "name": "ERC1967InvalidImplementation",
            "type": "error"
        },
        {
            "inputs": [],
            "name": "ERC1967NonPayable",
            "type": "error"
        },
        {
            "inputs": [],
            "name": "FailedCall",
            "type": "error"
        },
        {
            "inputs": [],
            "name": "InvalidInitialization",
            "type": "error"
        },
        {
            "inputs": [],
            "name": "NotInitializing",
            "type": "error"
        },
        {
            "inputs": [
                {
                    "internalType": "address",
                    "name": "owner",
                    "type": "address"
                }
            ],
            "name": "OwnableInvalidOwner",
            "type": "error"
        },
        {
            "inputs": [
                {
                    "internalType": "address",
                    "name": "account",
                    "type": "address"
                }
            ],
            "name": "OwnableUnauthorizedAccount",
            "type": "error"
        },
        {
            "inputs": [
                {
                    "internalType": "address",
                    "name": "token",
                    "type": "address"
                }
            ],
            "name": "SafeERC20FailedOperation",
            "type": "error"
        },
        {
            "inputs": [],
            "name": "UUPSUnauthorizedCallContext",
            "type": "error"
        },
        {
            "inputs": [
                {
                    "internalType": "bytes32",
                    "name": "slot",
                    "type": "bytes32"
                }
            ],
            "name": "UUPSUnsupportedProxiableUUID",
            "type": "error"
        },
        {
            "anonymous": false,
            "inputs": [
                {
                    "indexed": false,
                    "internalType": "uint64",
                    "name": "version",
                    "type": "uint64"
                }
            ],
            "name": "Initialized",
            "type": "event"
        },
        {
            "anonymous": false,
            "inputs": [
                {
                    "indexed": true,
                    "internalType": "address",
                    "name": "previousOwner",
                    "type": "address"
                },
                {
                    "indexed": true,
                    "internalType": "address",
                    "name": "newOwner",
                    "type": "address"
                }
            ],
            "name": "OwnershipTransferred",
            "type": "event"
        },
        {
            "anonymous": false,
            "inputs": [
                {
                    "indexed": true,
                    "internalType": "address",
                    "name": "implementation",
                    "type": "address"
                }
            ],
            "name": "Upgraded",
            "type": "event"
        },
        {
            "anonymous": false,
            "inputs": [
                {
                    "indexed": true,
                    "internalType": "address",
                    "name": "_address",
                    "type": "address"
                },
                {
                    "indexed": true,
                    "internalType": "address",
                    "name": "_validator",
                    "type": "address"
                }
            ],
            "name": "clonefactoryContractPurchased",
            "type": "event"
        },
        {
            "anonymous": false,
            "inputs": [
                {
                    "indexed": true,
                    "internalType": "address",
                    "name": "_address",
                    "type": "address"
                },
                {
                    "indexed": false,
                    "internalType": "string",
                    "name": "_pubkey",
                    "type": "string"
                }
            ],
            "name": "contractCreated",
            "type": "event"
        },
        {
            "anonymous": false,
            "inputs": [
                {
                    "indexed": false,
                    "internalType": "address",
                    "name": "_address",
                    "type": "address"
                },
                {
                    "indexed": false,
                    "internalType": "bool",
                    "name": "_isDeleted",
                    "type": "bool"
                }
            ],
            "name": "contractDeleteUpdated",
            "type": "event"
        },
        {
            "anonymous": false,
            "inputs": [
                {
                    "indexed": true,
                    "internalType": "address",
                    "name": "_address",
                    "type": "address"
                }
            ],
            "name": "purchaseInfoUpdated",
            "type": "event"
        },
        {
            "anonymous": false,
            "inputs": [
                {
                    "indexed": false,
                    "internalType": "uint256",
                    "name": "_validatorFeeRateScaled",
                    "type": "uint256"
                }
            ],
            "name": "validatorFeeRateUpdated",
            "type": "event"
        },
        {
            "inputs": [],
            "name": "UPGRADE_INTERFACE_VERSION",
            "outputs": [
                {
                    "internalType": "string",
                    "name": "",
                    "type": "string"
                }
            ],
            "stateMutability": "view",
            "type": "function"
        },
        {
            "inputs": [],
            "name": "VALIDATOR_FEE_DECIMALS",
            "outputs": [
                {
                    "internalType": "uint8",
                    "name": "",
                    "type": "uint8"
                }
            ],
            "stateMutability": "view",
            "type": "function"
        },
        {
            "inputs": [],
            "name": "VERSION",
            "outputs": [
                {
                    "internalType": "string",
                    "name": "",
                    "type": "string"
                }
            ],
            "stateMutability": "view",
            "type": "function"
        },
        {
            "inputs": [],
            "name": "baseImplementation",
            "outputs": [
                {
                    "internalType": "address",
                    "name": "",
                    "type": "address"
                }
            ],
            "stateMutability": "view",
            "type": "function"
        },
        {
            "inputs": [],
            "name": "feeToken",
            "outputs": [
                {
                    "internalType": "contract IERC20",
                    "name": "",
                    "type": "address"
                }
            ],
            "stateMutability": "view",
            "type": "function"
        },
        {
            "inputs": [],
            "name": "getContractList",
            "outputs": [
                {
                    "internalType": "address[]",
                    "name": "",
                    "type": "address[]"
                }
            ],
            "stateMutability": "view",
            "type": "function"
        },
        {
            "inputs": [],
            "name": "hashrateOracle",
            "outputs": [
                {
                    "internalType": "address",
                    "name": "",
                    "type": "address"
                }
            ],
            "stateMutability": "view",
            "type": "function"
        },
        {
            "inputs": [
                {
                    "internalType": "address",
                    "name": "_baseImplementation",
                    "type": "address"
                },
                {
                    "internalType": "address",
                    "name": "_hashrateOracle",
                    "type": "address"
                },
                {
                    "internalType": "address",
                    "name": "_paymentToken",
                    "type": "address"
                },
                {
                    "internalType": "address",
                    "name": "_feeToken",
                    "type": "address"
                },
                {
                    "internalType": "uint256",
                    "name": "_validatorFeeRateScaled",
                    "type": "uint256"
                }
            ],
            "name": "initialize",
            "outputs": [],
            "stateMutability": "nonpayable",
            "type": "function"
        },
        {
            "inputs": [
                {
                    "internalType": "address",
                    "name": "",
                    "type": "address"
                }
            ],
            "name": "isContractDead",
            "outputs": [
                {
                    "internalType": "bool",
                    "name": "",
                    "type": "bool"
                }
            ],
            "stateMutability": "view",
            "type": "function"
        },
        {
            "inputs": [],
            "name": "owner",
            "outputs": [
                {
                    "internalType": "address",
                    "name": "",
                    "type": "address"
                }
            ],
            "stateMutability": "view",
            "type": "function"
        },
        {
            "inputs": [],
            "name": "paymentToken",
            "outputs": [
                {
                    "internalType": "contract IERC20",
                    "name": "",
                    "type": "address"
                }
            ],
            "stateMutability": "view",
            "type": "function"
        },
        {
            "inputs": [],
            "name": "proxiableUUID",
            "outputs": [
                {
                    "internalType": "bytes32",
                    "name": "",
                    "type": "bytes32"
                }
            ],
            "stateMutability": "view",
            "type": "function"
        },
        {
            "inputs": [],
            "name": "renounceOwnership",
            "outputs": [],
            "stateMutability": "nonpayable",
            "type": "function"
        },
        {
            "inputs": [
                {
                    "internalType": "uint256",
                    "name": "",
                    "type": "uint256"
                }
            ],
            "name": "rentalContracts",
            "outputs": [
                {
                    "internalType": "address",
                    "name": "",
                    "type": "address"
                }
            ],
            "stateMutability": "view",
            "type": "function"
        },
        {
            "inputs": [
                {
                    "internalType": "address",
                    "name": "_contractAddress",
                    "type": "address"
                },
                {
                    "internalType": "bool",
                    "name": "_isDeleted",
                    "type": "bool"
                }
            ],
            "name": "setContractDeleted",
            "outputs": [],
            "stateMutability": "nonpayable",
            "type": "function"
        },
        {
            "inputs": [
                {
                    "internalType": "uint256",
                    "name": "",
                    "type": "uint256"
                },
                {
                    "internalType": "uint256",
                    "name": "",
                    "type": "uint256"
                },
                {
                    "internalType": "uint256",
                    "name": "_speed",
                    "type": "uint256"
                },
                {
                    "internalType": "uint256",
                    "name": "_length",
                    "type": "uint256"
                },
                {
                    "internalType": "int8",
                    "name": "_profitTarget",
                    "type": "int8"
                },
                {
                    "internalType": "address",
                    "name": "",
                    "type": "address"
                },
                {
                    "internalType": "string",
                    "name": "_pubKey",
                    "type": "string"
                }
            ],
            "name": "setCreateNewRentalContractV2",
            "outputs": [
                {
                    "internalType": "address",
                    "name": "",
                    "type": "address"
                }
            ],
            "stateMutability": "payable",
            "type": "function"
        },
        {
            "inputs": [
                {
                    "internalType": "address",
                    "name": "_contractAddress",
                    "type": "address"
                },
                {
                    "internalType": "address",
                    "name": "_validatorAddress",
                    "type": "address"
                },
                {
                    "internalType": "string",
                    "name": "_encrValidatorURL",
                    "type": "string"
                },
                {
                    "internalType": "string",
                    "name": "_encrDestURL",
                    "type": "string"
                },
                {
                    "internalType": "uint32",
                    "name": "termsVersion",
                    "type": "uint32"
                }
            ],
            "name": "setPurchaseRentalContractV2",
            "outputs": [],
            "stateMutability": "payable",
            "type": "function"
        },
        {
            "inputs": [
                {
                    "internalType": "address",
                    "name": "_contractAddress",
                    "type": "address"
                },
                {
                    "internalType": "uint256",
                    "name": "",
                    "type": "uint256"
                },
                {
                    "internalType": "uint256",
                    "name": "",
                    "type": "uint256"
                },
                {
                    "internalType": "uint256",
                    "name": "_speed",
                    "type": "uint256"
                },
                {
                    "internalType": "uint256",
                    "name": "_length",
                    "type": "uint256"
                },
                {
                    "internalType": "int8",
                    "name": "_profitTarget",
                    "type": "int8"
                }
            ],
            "name": "setUpdateContractInformationV2",
            "outputs": [],
            "stateMutability": "nonpayable",
            "type": "function"
        },
        {
            "inputs": [
                {
                    "internalType": "uint256",
                    "name": "_validatorFeeRateScaled",
                    "type": "uint256"
                }
            ],
            "name": "setValidatorFeeRate",
            "outputs": [],
            "stateMutability": "nonpayable",
            "type": "function"
        },
        {
            "inputs": [
                {
                    "internalType": "address",
                    "name": "newOwner",
                    "type": "address"
                }
            ],
            "name": "transferOwnership",
            "outputs": [],
            "stateMutability": "nonpayable",
            "type": "function"
        },
        {
            "inputs": [
                {
                    "internalType": "address",
                    "name": "newImplementation",
                    "type": "address"
                },
                {
                    "internalType": "bytes",
                    "name": "data",
                    "type": "bytes"
                }
            ],
            "name": "upgradeToAndCall",
            "outputs": [],
            "stateMutability": "payable",
            "type": "function"
        },
        {
            "inputs": [],
            "name": "validatorFeeRateScaled",
            "outputs": [
                {
                    "internalType": "uint256",
                    "name": "",
                    "type": "uint256"
                }
            ],
            "stateMutability": "view",
            "type": "function"
        }
    ],
    "bytecode": "0x60a060405230608052348015601357600080fd5b506080516123a261003d6000396000818161111701528181611140015261128601526123a26000f3fe6080604052600436106101355760003560e01c80638da5cb5b116100ab578063ad3cb1cc1161006f578063ad3cb1cc1461031e578063bd80a1c91461035c578063f2fde38b1461039c578063f7013ef6146103bc578063f87c68b9146103dc578063ffa1ad74146103fc57600080fd5b80638da5cb5b1461029157806393feb7bd146102a657806399acac8c146102c65780639e3a9bb8146102e8578063a2ebe749146102fe57600080fd5b806352d1902d116100fd57806352d1902d146101d257806353da0206146101f5578063647846a514610215578063715018a6146102355780637cbcd50d1461024a5780638664aa511461027157600080fd5b80632e1e8a931461013a5780633013ce291461016a5780633a6738b21461018a5780633af4158f146101ac5780634f1ef286146101bf575b600080fd5b61014d6101483660046116f4565b61042d565b6040516001600160a01b0390911681526020015b60405180910390f35b34801561017657600080fd5b5060005461014d906001600160a01b031681565b34801561019657600080fd5b506101aa6101a5366004611783565b610449565b005b6101aa6101ba3660046117f3565b61045d565b6101aa6101cd3660046118b7565b6104dd565b3480156101de57600080fd5b506101e76104fc565b604051908152602001610161565b34801561020157600080fd5b5061014d610210366004611983565b610519565b34801561022157600080fd5b5060015461014d906001600160a01b031681565b34801561024157600080fd5b506101aa610543565b34801561025657600080fd5b5061025f601281565b60405160ff9091168152602001610161565b34801561027d57600080fd5b506101aa61028c3660046119aa565b610557565b34801561029d57600080fd5b5061014d6106f6565b3480156102b257600080fd5b506101aa6102c1366004611983565b610724565b3480156102d257600080fd5b506102db6107a1565b60405161016191906119e3565b3480156102f457600080fd5b506101e760075481565b34801561030a57600080fd5b5060025461014d906001600160a01b031681565b34801561032a57600080fd5b5061034f604051806040016040528060058152602001640352e302e360dc1b81525081565b6040516101619190611a7f565b34801561036857600080fd5b5061038c610377366004611a92565b60066020526000908152604090205460ff1681565b6040519015158152602001610161565b3480156103a857600080fd5b506101aa6103b7366004611a92565b610803565b3480156103c857600080fd5b506101aa6103d7366004611aaf565b61083e565b3480156103e857600080fd5b5060035461014d906001600160a01b031681565b34801561040857600080fd5b5061034f60405180604001604052806005815260200164191718171960d91b81525081565b600061043c87878786866109a9565b9998505050505050505050565b61045586848484610b3e565b505050505050565b6104d4878787878080601f01602080910402602001604051908101604052809392919081815260200183838082843760009201919091525050604080516020601f8b018190048102820181019092528981529250899150889081908401838280828437600092019190915250889250610caa915050565b50505050505050565b6104e561110c565b6104ee826111b1565b6104f882826111b9565b5050565b600061050661127b565b5060008051602061234d83398151915290565b6004818154811061052957600080fd5b6000918252602090912001546001600160a01b0316905081565b61054b6112c4565b61055560006112f6565b565b6001600160a01b03821660009081526005602052604090205460ff166105985760405162461bcd60e51b815260040161058f90611b13565b60405180910390fd5b6000829050806001600160a01b03166308551a536040518163ffffffff1660e01b8152600401602060405180830381865afa1580156105db573d6000803e3d6000fd5b505050506040513d601f19601f820116820180604052508101906105ff9190611b4a565b6001600160a01b0316336001600160a01b0316148061063657506106216106f6565b6001600160a01b0316336001600160a01b0316145b6106525760405162461bcd60e51b815260040161058f90611b67565b604051630567d91f60e41b815282151560048201526001600160a01b0384169063567d91f090602401600060405180830381600087803b15801561069557600080fd5b505af11580156106a9573d6000803e3d6000fd5b5050604080516001600160a01b038716815285151560208201527f94706a90834905eb13df4134bd7c40e90c8218fbe9ded8631b8062c7bd4a5a06935001905060405180910390a1505050565b7f9016d09d72d40fdae2fd8ceac6b6234c7706214fd39c1cd1e609a0528c199300546001600160a01b031690565b61072c6106f6565b6001600160a01b0316336001600160a01b03161461075c5760405162461bcd60e51b815260040161058f90611b67565b806007541461079e5760078190556040518181527fa765cde4b738d0ceba8998592a4ba3c70577da605d79b49decf1067cfb6bf08f9060200160405180910390a15b50565b606060048054806020026020016040519081016040528092919081815260200182805480156107f957602002820191906000526020600020905b81546001600160a01b031681526001909101906020018083116107db575b5050505050905090565b61080b6112c4565b6001600160a01b03811661083557604051631e4fbdf760e01b81526000600482015260240161058f565b61079e816112f6565b7ff0c57e16840df040f15088dc2f81fe391c3923bec73e23a9662efc9c229c6a008054600160401b810460ff16159067ffffffffffffffff166000811580156108845750825b905060008267ffffffffffffffff1660011480156108a15750303b155b9050811580156108af575080155b156108cd5760405163f92ee8a960e01b815260040160405180910390fd5b845467ffffffffffffffff1916600117855583156108f757845460ff60401b1916600160401b1785555b61090033611367565b610908611378565b600080546001600160a01b03808b166001600160a01b031992831617909255600180548a8416908316179055600380548c841690831617905560028054928d16929091169190911790556007869055831561099d57845460ff60401b19168555604051600181527fc7f505b2f371ae2175ee4913f4499e1f2633a7b5936321eed1cdaeb6115181d29060200160405180910390a15b50505050505050505050565b600080633988a0d860e01b30600360009054906101000a90046001600160a01b031660008054906101000a90046001600160a01b0316600160009054906101000a90046001600160a01b03163389898e8e8e604051602401610a149a99989796959493929190611bc0565b60408051601f198184030181529181526020820180516001600160e01b03166001600160e01b03199094169390931790925260025491519092506000916001600160a01b0316908390610a669061167a565b610a71929190611c2c565b604051809103906000f080158015610a8d573d6000803e3d6000fd5b506004805460018082019092557f8a35acfbc15ff81a39ae7d344fd709f28e8600b4aa8c65c6b64bfe7fe36bd19b0180546001600160a01b0319166001600160a01b03841690811790915560008181526005602052604090819020805460ff1916909317909255905191925082917f1b08e1646439b7521399d47f93ab6b1ebc92803e155d0b2f2ad2d4702a05080490610b2a9089908990611c58565b60405180910390a298975050505050505050565b6001600160a01b03841660009081526005602052604090205460ff16610b765760405162461bcd60e51b815260040161058f90611b13565b6000849050806001600160a01b03166308551a536040518163ffffffff1660e01b8152600401602060405180830381865afa158015610bb9573d6000803e3d6000fd5b505050506040513d601f19601f82011682018060405250810190610bdd9190611b4a565b6001600160a01b0316336001600160a01b031614610c0d5760405162461bcd60e51b815260040161058f90611b67565b604051631c7cf3d560e21b81526004810185905260248101849052600083900b60448201526001600160a01b038616906371f3cf5490606401600060405180830381600087803b158015610c6057600080fd5b505af1158015610c74573d6000803e3d6000fd5b50506040513092507f7865b2bbe0087425b223d9cf674d8d5328e31546b364da98c36db21193c17d559150600090a25050505050565b6001600160a01b03851660009081526005602052604090205460ff16610ce25760405162461bcd60e51b815260040161058f90611b13565b6000859050806001600160a01b031663d7efb6b76040518163ffffffff1660e01b8152600401602060405180830381865afa158015610d25573d6000803e3d6000fd5b505050506040513d601f19601f82011682018060405250810190610d499190611c6c565b15610d965760405162461bcd60e51b815260206004820181905260248201527f63616e6e6f742070757263686173652064656c6574656420636f6e7472616374604482015260640161058f565b336001600160a01b0316816001600160a01b03166308551a536040518163ffffffff1660e01b8152600401602060405180830381865afa158015610dde573d6000803e3d6000fd5b505050506040513d601f19601f82011682018060405250810190610e029190611b4a565b6001600160a01b031603610e625760405162461bcd60e51b815260206004820152602160248201527f63616e6e6f7420707572636861736520796f7572206f776e20636f6e747261636044820152601d60fa1b606482015260840161058f565b6000816001600160a01b031663a4e275666040518163ffffffff1660e01b815260040160c060405180830381865afa158015610ea2573d6000803e3d6000fd5b505050506040513d601f19601f82011682018060405250810190610ec69190611c89565b509450505063ffffffff83166000039150610f47905057816001600160a01b031663d50256256040518163ffffffff1660e01b815260040160c060405180830381865afa158015610f1b573d6000803e3d6000fd5b505050506040513d601f19601f82011682018060405250810190610f3f9190611c89565b509450505050505b8263ffffffff168163ffffffff1614610fb75760405162461bcd60e51b815260206004820152602c60248201527f63616e6e6f742070757263686173652c20636f6e7472616374207465726d732060448201526b1dd95c99481d5c19185d195960a21b606482015260840161058f565b600080836001600160a01b03166310ad14626040518163ffffffff1660e01b81526004016040805180830381865afa158015610ff7573d6000803e3d6000fd5b505050506040513d601f19601f8201168201806040525081019061101b9190611cdc565b6000549193509150611038906001600160a01b0316338b85611380565b6001600160a01b0388161561105f5760015461105f906001600160a01b0316338b84611380565b836001600160a01b0316636a3df6eb888885338d6007546040518763ffffffff1660e01b815260040161109796959493929190611d00565b600060405180830381600087803b1580156110b157600080fd5b505af11580156110c5573d6000803e3d6000fd5b50506040516001600160a01b03808c1693508c1691507fff1dec24325264c678c99ba82c9b203272dc942010bfb7941b47a7291788475390600090a3505050505050505050565b306001600160a01b037f000000000000000000000000000000000000000000000000000000000000000016148061119357507f00000000000000000000000000000000000000000000000000000000000000006001600160a01b031661118760008051602061234d833981519152546001600160a01b031690565b6001600160a01b031614155b156105555760405163703e46dd60e11b815260040160405180910390fd5b61079e6112c4565b816001600160a01b03166352d1902d6040518163ffffffff1660e01b8152600401602060405180830381865afa925050508015611213575060408051601f3d908101601f1916820190925261121091810190611d52565b60015b61123b57604051634c9c8ce360e01b81526001600160a01b038316600482015260240161058f565b60008051602061234d833981519152811461126c57604051632a87526960e21b81526004810182905260240161058f565b61127683836113e0565b505050565b306001600160a01b037f000000000000000000000000000000000000000000000000000000000000000016146105555760405163703e46dd60e11b815260040160405180910390fd5b336112cd6106f6565b6001600160a01b0316146105555760405163118cdaa760e01b815233600482015260240161058f565b7f9016d09d72d40fdae2fd8ceac6b6234c7706214fd39c1cd1e609a0528c19930080546001600160a01b031981166001600160a01b03848116918217845560405192169182907f8be0079c531659141344cd1fd0a4f28419497f9722a3daafe3b4186f6b6457e090600090a3505050565b61136f611436565b61079e8161147f565b610555611436565b604080516001600160a01b0385811660248301528416604482015260648082018490528251808303909101815260849091019091526020810180516001600160e01b03166323b872dd60e01b1790526113da908590611487565b50505050565b6113e9826114f8565b6040516001600160a01b038316907fbc7cd75a20ee27fd9adebab32041f755214dbc6bffa90cc0225b39da2e5c2d3b90600090a280511561142e57611276828261155d565b6104f86115d3565b7ff0c57e16840df040f15088dc2f81fe391c3923bec73e23a9662efc9c229c6a0054600160401b900460ff1661055557604051631afcd79f60e31b815260040160405180910390fd5b61080b611436565b600080602060008451602086016000885af1806114aa576040513d6000823e3d81fd5b50506000513d915081156114c25780600114156114cf565b6001600160a01b0384163b155b156113da57604051635274afe760e01b81526001600160a01b038516600482015260240161058f565b806001600160a01b03163b60000361152e57604051634c9c8ce360e01b81526001600160a01b038216600482015260240161058f565b60008051602061234d83398151915280546001600160a01b0319166001600160a01b0392909216919091179055565b6060600080846001600160a01b03168460405161157a9190611d6b565b600060405180830381855af49150503d80600081146115b5576040519150601f19603f3d011682016040523d82523d6000602084013e6115ba565b606091505b50915091506115ca8583836115f2565b95945050505050565b34156105555760405163b398979f60e01b815260040160405180910390fd5b6060826116075761160282611651565b61164a565b815115801561161e57506001600160a01b0384163b155b1561164757604051639996b31560e01b81526001600160a01b038516600482015260240161058f565b50805b9392505050565b8051156116615780518082602001fd5b60405163d6bda27560e01b815260040160405180910390fd5b6105c580611d8883390190565b8060000b811461079e57600080fd5b6001600160a01b038116811461079e57600080fd5b60008083601f8401126116bd57600080fd5b50813567ffffffffffffffff8111156116d557600080fd5b6020830191508360208285010111156116ed57600080fd5b9250929050565b60008060008060008060008060e0898b03121561171057600080fd5b88359750602089013596506040890135955060608901359450608089013561173781611687565b935060a089013561174781611696565b925060c089013567ffffffffffffffff81111561176357600080fd5b61176f8b828c016116ab565b999c989b5096995094979396929594505050565b60008060008060008060c0878903121561179c57600080fd5b86356117a781611696565b95506020870135945060408701359350606087013592506080870135915060a08701356117d381611687565b809150509295509295509295565b63ffffffff8116811461079e57600080fd5b600080600080600080600060a0888a03121561180e57600080fd5b873561181981611696565b9650602088013561182981611696565b9550604088013567ffffffffffffffff81111561184557600080fd5b6118518a828b016116ab565b909650945050606088013567ffffffffffffffff81111561187157600080fd5b61187d8a828b016116ab565b9094509250506080880135611891816117e1565b8091505092959891949750929550565b634e487b7160e01b600052604160045260246000fd5b600080604083850312156118ca57600080fd5b82356118d581611696565b9150602083013567ffffffffffffffff8111156118f157600080fd5b8301601f8101851361190257600080fd5b803567ffffffffffffffff81111561191c5761191c6118a1565b604051601f8201601f19908116603f0116810167ffffffffffffffff8111828210171561194b5761194b6118a1565b60405281815282820160200187101561196357600080fd5b816020840160208301376000602083830101528093505050509250929050565b60006020828403121561199557600080fd5b5035919050565b801515811461079e57600080fd5b600080604083850312156119bd57600080fd5b82356119c881611696565b915060208301356119d88161199c565b809150509250929050565b602080825282518282018190526000918401906040840190835b81811015611a245783516001600160a01b03168352602093840193909201916001016119fd565b509095945050505050565b60005b83811015611a4a578181015183820152602001611a32565b50506000910152565b60008151808452611a6b816020860160208601611a2f565b601f01601f19169290920160200192915050565b60208152600061164a6020830184611a53565b600060208284031215611aa457600080fd5b813561164a81611696565b600080600080600060a08688031215611ac757600080fd5b8535611ad281611696565b94506020860135611ae281611696565b93506040860135611af281611696565b92506060860135611b0281611696565b949793965091946080013592915050565b60208082526018908201527f756e6b6e6f776e20636f6e747261637420616464726573730000000000000000604082015260600190565b600060208284031215611b5c57600080fd5b815161164a81611696565b6020808252601690820152751e5bdd48185c99481b9bdd08185d5d1a1bdc9a5e995960521b604082015260600190565b81835281816020850137506000828201602090810191909152601f909101601f19169091010190565b6001600160a01b038b811682528a81166020830152898116604083015288811660608301528716608082015261012060a08201819052600090611c069083018789611b97565b60c08301959095525060e081019290925260000b61010090910152979650505050505050565b6001600160a01b0383168152604060208201819052600090611c5090830184611a53565b949350505050565b602081526000611c50602083018486611b97565b600060208284031215611c7e57600080fd5b815161164a8161199c565b60008060008060008060c08789031215611ca257600080fd5b86516020880151604089015160608a015160808b015193995091975095509350611ccb816117e1565b60a08801519092506117d381611687565b60008060408385031215611cef57600080fd5b505080516020909101519092909150565b60c081526000611d1360c0830189611a53565b8281036020840152611d258189611a53565b604084019790975250506001600160a01b03938416606082015291909216608082015260a0015292915050565b600060208284031215611d6457600080fd5b5051919050565b60008251611d7d818460208701611a2f565b919091019291505056fe60a06040526040516105c53803806105c583398101604081905261002291610387565b61002c828261003e565b506001600160a01b0316608052610484565b610047826100fe565b6040516001600160a01b038316907f1cf3b03a6cf19fa2baba4df148e9dcabedea7f8a5c07840e207e5c089be95d3e90600090a28051156100f2576100ed826001600160a01b0316635c60da1b6040518163ffffffff1660e01b8152600401602060405180830381865afa1580156100c3573d6000803e3d6000fd5b505050506040513d601f19601f820116820180604052508101906100e7919061044d565b82610211565b505050565b6100fa610288565b5050565b806001600160a01b03163b60000361013957604051631933b43b60e21b81526001600160a01b03821660048201526024015b60405180910390fd5b807fa3f0ad74e5423aebfd80d3ef4346578335a9a72aeaee59ff6cb3582b35133d5080546001600160a01b0319166001600160a01b0392831617905560408051635c60da1b60e01b81529051600092841691635c60da1b9160048083019260209291908290030181865afa1580156101b5573d6000803e3d6000fd5b505050506040513d601f19601f820116820180604052508101906101d9919061044d565b9050806001600160a01b03163b6000036100fa57604051634c9c8ce360e01b81526001600160a01b0382166004820152602401610130565b6060600080846001600160a01b03168460405161022e9190610468565b600060405180830381855af49150503d8060008114610269576040519150601f19603f3d011682016040523d82523d6000602084013e61026e565b606091505b50909250905061027f8583836102a9565b95945050505050565b34156102a75760405163b398979f60e01b815260040160405180910390fd5b565b6060826102be576102b982610308565b610301565b81511580156102d557506001600160a01b0384163b155b156102fe57604051639996b31560e01b81526001600160a01b0385166004820152602401610130565b50805b9392505050565b8051156103185780518082602001fd5b60405163d6bda27560e01b815260040160405180910390fd5b80516001600160a01b038116811461034857600080fd5b919050565b634e487b7160e01b600052604160045260246000fd5b60005b8381101561037e578181015183820152602001610366565b50506000910152565b6000806040838503121561039a57600080fd5b6103a383610331565b60208401519092506001600160401b038111156103bf57600080fd5b8301601f810185136103d057600080fd5b80516001600160401b038111156103e9576103e961034d565b604051601f8201601f19908116603f011681016001600160401b03811182821017156104175761041761034d565b60405281815282820160200187101561042f57600080fd5b610440826020830160208601610363565b8093505050509250929050565b60006020828403121561045f57600080fd5b61030182610331565b6000825161047a818460208701610363565b9190910192915050565b60805161012761049e6000396000601e01526101276000f3fe6080604052600a600c565b005b60186014601a565b60a0565b565b60007f00000000000000000000000000000000000000000000000000000000000000006001600160a01b0316635c60da1b6040518163ffffffff1660e01b8152600401602060405180830381865afa1580156079573d6000803e3d6000fd5b505050506040513d601f19601f82011682018060405250810190609b919060c3565b905090565b3660008037600080366000845af43d6000803e80801560be573d6000f35b3d6000fd5b60006020828403121560d457600080fd5b81516001600160a01b038116811460ea57600080fd5b939250505056fea264697066735822122069f7874ab3d04b535b350050405dd39fa659d24f1adca0d8fea1694b6d324ce964736f6c634300081a0033360894a13ba1a3210667c828492db98dca3e2076cc3735a920a3ca505d382bbca2646970667358221220c7928a0b5934d7a1a8154c88ce586e7fb68d5c2809bbc2fb2225535cf5152d5264736f6c634300081a0033",
    "linkReferences": {},
    "deployedLinkReferences": {}
}