{
    "_format": "hh-sol-artifact-1",
    "contractName": "CloneFactory",
    "sourceName": "contracts/marketplace/CloneFactory.sol",
    "abi": [
        {
            "inputs": [
                {
                    "internalType": "address",
                    "name": "target",
                    "type": "address"
                }
            ],
            "name": "AddressEmptyCode",
            "type": "error"
        },
        {
            "inputs": [
                {
                    "internalType": "address",
                    "name": "implementation",
                    "type": "address"
                }
            ],
            "name": "ERC1967InvalidImplementation",
            "type": "error"
        },
        {
            "inputs": [],
            "name": "ERC1967NonPayable",
            "type": "error"
        },
        {
            "inputs": [],
            "name": "FailedCall",
            "type": "error"
        },
        {
            "inputs": [],
            "name": "InvalidInitialization",
            "type": "error"
        },
        {
            "inputs": [],
            "name": "NotInitializing",
            "type": "error"
        },
        {
            "inputs": [
                {
                    "internalType": "address",
                    "name": "owner",
                    "type": "address"
                }
            ],
            "name": "OwnableInvalidOwner",
            "type": "error"
        },
        {
            "inputs": [
                {
                    "internalType": "address",
                    "name": "account",
                    "type": "address"
                }
            ],
            "name": "OwnableUnauthorizedAccount",
            "type": "error"
        },
        {
            "inputs": [
                {
                    "internalType": "address",
                    "name": "token",
                    "type": "address"
                }
            ],
            "name": "SafeERC20FailedOperation",
            "type": "error"
        },
        {
            "inputs": [],
            "name": "UUPSUnauthorizedCallContext",
            "type": "error"
        },
        {
            "inputs": [
                {
                    "internalType": "bytes32",
                    "name": "slot",
                    "type": "bytes32"
                }
            ],
            "name": "UUPSUnsupportedProxiableUUID",
            "type": "error"
        },
        {
            "anonymous": false,
            "inputs": [
                {
                    "indexed": false,
                    "internalType": "uint64",
                    "name": "version",
                    "type": "uint64"
                }
            ],
            "name": "Initialized",
            "type": "event"
        },
        {
            "anonymous": false,
            "inputs": [
                {
                    "indexed": true,
                    "internalType": "address",
                    "name": "previousOwner",
                    "type": "address"
                },
                {
                    "indexed": true,
                    "internalType": "address",
                    "name": "newOwner",
                    "type": "address"
                }
            ],
            "name": "OwnershipTransferred",
            "type": "event"
        },
        {
            "anonymous": false,
            "inputs": [
                {
                    "indexed": true,
                    "internalType": "address",
                    "name": "implementation",
                    "type": "address"
                }
            ],
            "name": "Upgraded",
            "type": "event"
        },
        {
            "anonymous": false,
            "inputs": [
                {
                    "indexed": true,
                    "internalType": "address",
                    "name": "_address",
                    "type": "address"
                },
                {
                    "indexed": true,
                    "internalType": "address",
                    "name": "_validator",
                    "type": "address"
                }
            ],
            "name": "clonefactoryContractPurchased",
            "type": "event"
        },
        {
            "anonymous": false,
            "inputs": [
                {
                    "indexed": true,
                    "internalType": "address",
                    "name": "_address",
                    "type": "address"
                },
                {
                    "indexed": false,
                    "internalType": "string",
                    "name": "_pubkey",
                    "type": "string"
                }
            ],
            "name": "contractCreated",
            "type": "event"
        },
        {
            "anonymous": false,
            "inputs": [
                {
                    "indexed": false,
                    "internalType": "address",
                    "name": "_address",
                    "type": "address"
                },
                {
                    "indexed": false,
                    "internalType": "bool",
                    "name": "_isDeleted",
                    "type": "bool"
                }
            ],
            "name": "contractDeleteUpdated",
            "type": "event"
        },
        {
            "anonymous": false,
            "inputs": [
                {
                    "indexed": true,
                    "internalType": "address",
                    "name": "_address",
                    "type": "address"
                }
            ],
            "name": "purchaseInfoUpdated",
            "type": "event"
        },
        {
            "anonymous": false,
            "inputs": [
                {
                    "indexed": false,
                    "internalType": "uint256",
                    "name": "_validatorFeeRateScaled",
                    "type": "uint256"
                }
            ],
            "name": "validatorFeeRateUpdated",
            "type": "event"
        },
        {
            "inputs": [],
            "name": "UPGRADE_INTERFACE_VERSION",
            "outputs": [
                {
                    "internalType": "string",
                    "name": "",
                    "type": "string"
                }
            ],
            "stateMutability": "view",
            "type": "function"
        },
        {
            "inputs": [],
            "name": "VALIDATOR_FEE_DECIMALS",
            "outputs": [
                {
                    "internalType": "uint8",
                    "name": "",
                    "type": "uint8"
                }
            ],
            "stateMutability": "view",
            "type": "function"
        },
        {
            "inputs": [],
            "name": "VERSION",
            "outputs": [
                {
                    "internalType": "string",
                    "name": "",
                    "type": "string"
                }
            ],
            "stateMutability": "view",
            "type": "function"
        },
        {
            "inputs": [],
            "name": "baseImplementation",
            "outputs": [
                {
                    "internalType": "address",
                    "name": "",
                    "type": "address"
                }
            ],
            "stateMutability": "view",
            "type": "function"
        },
        {
            "inputs": [],
            "name": "feeToken",
            "outputs": [
                {
                    "internalType": "contract IERC20",
                    "name": "",
                    "type": "address"
                }
            ],
            "stateMutability": "view",
            "type": "function"
        },
        {
            "inputs": [],
            "name": "getContractList",
            "outputs": [
                {
                    "internalType": "address[]",
                    "name": "",
                    "type": "address[]"
                }
            ],
            "stateMutability": "view",
            "type": "function"
        },
        {
            "inputs": [
                {
                    "internalType": "uint256",
                    "name": "_offset",
                    "type": "uint256"
                },
                {
                    "internalType": "uint8",
                    "name": "_limit",
                    "type": "uint8"
                }
            ],
            "name": "getSellers",
            "outputs": [
                {
                    "internalType": "address[]",
                    "name": "",
                    "type": "address[]"
                }
            ],
            "stateMutability": "view",
            "type": "function"
        },
        {
            "inputs": [],
            "name": "hashrateOracle",
            "outputs": [
                {
                    "internalType": "address",
                    "name": "",
                    "type": "address"
                }
            ],
            "stateMutability": "view",
            "type": "function"
        },
        {
            "inputs": [
                {
                    "internalType": "address",
                    "name": "_baseImplementation",
                    "type": "address"
                },
                {
                    "internalType": "address",
                    "name": "_hashrateOracle",
                    "type": "address"
                },
                {
                    "internalType": "address",
                    "name": "_paymentToken",
                    "type": "address"
                },
                {
                    "internalType": "address",
                    "name": "_feeToken",
                    "type": "address"
                },
                {
                    "internalType": "uint256",
                    "name": "_validatorFeeRateScaled",
                    "type": "uint256"
                },
                {
                    "internalType": "uint256",
                    "name": "_minSellerStake",
                    "type": "uint256"
                }
            ],
            "name": "initialize",
            "outputs": [],
            "stateMutability": "nonpayable",
            "type": "function"
        },
        {
            "inputs": [
                {
                    "internalType": "address",
                    "name": "",
                    "type": "address"
                }
            ],
            "name": "isContractDead",
            "outputs": [
                {
                    "internalType": "bool",
                    "name": "",
                    "type": "bool"
                }
            ],
            "stateMutability": "view",
            "type": "function"
        },
        {
            "inputs": [],
            "name": "minSellerStake",
            "outputs": [
                {
                    "internalType": "uint256",
                    "name": "",
                    "type": "uint256"
                }
            ],
            "stateMutability": "view",
            "type": "function"
        },
        {
            "inputs": [],
            "name": "owner",
            "outputs": [
                {
                    "internalType": "address",
                    "name": "",
                    "type": "address"
                }
            ],
            "stateMutability": "view",
            "type": "function"
        },
        {
            "inputs": [],
            "name": "paymentToken",
            "outputs": [
                {
                    "internalType": "contract IERC20",
                    "name": "",
                    "type": "address"
                }
            ],
            "stateMutability": "view",
            "type": "function"
        },
        {
            "inputs": [],
            "name": "proxiableUUID",
            "outputs": [
                {
                    "internalType": "bytes32",
                    "name": "",
                    "type": "bytes32"
                }
            ],
            "stateMutability": "view",
            "type": "function"
        },
        {
            "inputs": [],
            "name": "renounceOwnership",
            "outputs": [],
            "stateMutability": "nonpayable",
            "type": "function"
        },
        {
            "inputs": [
                {
                    "internalType": "uint256",
                    "name": "",
                    "type": "uint256"
                }
            ],
            "name": "rentalContracts",
            "outputs": [
                {
                    "internalType": "address",
                    "name": "",
                    "type": "address"
                }
            ],
            "stateMutability": "view",
            "type": "function"
        },
        {
            "inputs": [
                {
                    "internalType": "address",
                    "name": "_seller",
                    "type": "address"
                }
            ],
            "name": "sellerByAddress",
            "outputs": [
                {
                    "components": [
                        {
                            "internalType": "uint256",
                            "name": "stake",
                            "type": "uint256"
                        }
                    ],
                    "internalType": "struct CloneFactory.Seller",
                    "name": "seller",
                    "type": "tuple"
                },
                {
                    "internalType": "bool",
                    "name": "isActive",
                    "type": "bool"
                },
                {
                    "internalType": "bool",
                    "name": "isRegistered",
                    "type": "bool"
                }
            ],
            "stateMutability": "view",
            "type": "function"
        },
        {
            "inputs": [],
            "name": "sellerDeregister",
            "outputs": [],
            "stateMutability": "nonpayable",
            "type": "function"
        },
        {
            "inputs": [
                {
                    "internalType": "uint256",
                    "name": "_stake",
                    "type": "uint256"
                }
            ],
            "name": "sellerRegister",
            "outputs": [],
            "stateMutability": "nonpayable",
            "type": "function"
        },
        {
            "inputs": [
                {
                    "internalType": "address[]",
                    "name": "_contractAddresses",
                    "type": "address[]"
                },
                {
                    "internalType": "bool",
                    "name": "_isDeleted",
                    "type": "bool"
                }
            ],
            "name": "setContractsDeleted",
            "outputs": [],
            "stateMutability": "nonpayable",
            "type": "function"
        },
        {
            "inputs": [
                {
                    "internalType": "uint256",
                    "name": "",
                    "type": "uint256"
                },
                {
                    "internalType": "uint256",
                    "name": "",
                    "type": "uint256"
                },
                {
                    "internalType": "uint256",
                    "name": "_speed",
                    "type": "uint256"
                },
                {
                    "internalType": "uint256",
                    "name": "_length",
                    "type": "uint256"
                },
                {
                    "internalType": "int8",
                    "name": "_profitTarget",
                    "type": "int8"
                },
                {
                    "internalType": "address",
                    "name": "",
                    "type": "address"
                },
                {
                    "internalType": "string",
                    "name": "_pubKey",
                    "type": "string"
                }
            ],
            "name": "setCreateNewRentalContractV2",
            "outputs": [
                {
                    "internalType": "address",
                    "name": "",
                    "type": "address"
                }
            ],
            "stateMutability": "payable",
            "type": "function"
        },
        {
            "inputs": [
                {
                    "internalType": "uint256",
                    "name": "_minSellerStake",
                    "type": "uint256"
                }
            ],
            "name": "setMinSellerStake",
            "outputs": [],
            "stateMutability": "nonpayable",
            "type": "function"
        },
        {
            "inputs": [
                {
                    "internalType": "address",
                    "name": "_contractAddress",
                    "type": "address"
                },
                {
                    "internalType": "address",
                    "name": "_validatorAddress",
                    "type": "address"
                },
                {
                    "internalType": "string",
                    "name": "_encrValidatorURL",
                    "type": "string"
                },
                {
                    "internalType": "string",
                    "name": "_encrDestURL",
                    "type": "string"
                },
                {
                    "internalType": "uint32",
                    "name": "termsVersion",
                    "type": "uint32"
                }
            ],
            "name": "setPurchaseRentalContractV2",
            "outputs": [],
            "stateMutability": "payable",
            "type": "function"
        },
        {
            "inputs": [
                {
                    "internalType": "address",
                    "name": "_contractAddress",
                    "type": "address"
                },
                {
                    "internalType": "uint256",
                    "name": "",
                    "type": "uint256"
                },
                {
                    "internalType": "uint256",
                    "name": "",
                    "type": "uint256"
                },
                {
                    "internalType": "uint256",
                    "name": "_speed",
                    "type": "uint256"
                },
                {
                    "internalType": "uint256",
                    "name": "_length",
                    "type": "uint256"
                },
                {
                    "internalType": "int8",
                    "name": "_profitTarget",
                    "type": "int8"
                }
            ],
            "name": "setUpdateContractInformationV2",
            "outputs": [],
            "stateMutability": "nonpayable",
            "type": "function"
        },
        {
            "inputs": [
                {
                    "internalType": "uint256",
                    "name": "_validatorFeeRateScaled",
                    "type": "uint256"
                }
            ],
            "name": "setValidatorFeeRate",
            "outputs": [],
            "stateMutability": "nonpayable",
            "type": "function"
        },
        {
            "inputs": [
                {
                    "internalType": "address",
                    "name": "newOwner",
                    "type": "address"
                }
            ],
            "name": "transferOwnership",
            "outputs": [],
            "stateMutability": "nonpayable",
            "type": "function"
        },
        {
            "inputs": [
                {
                    "internalType": "address",
                    "name": "newImplementation",
                    "type": "address"
                },
                {
                    "internalType": "bytes",
                    "name": "data",
                    "type": "bytes"
                }
            ],
            "name": "upgradeToAndCall",
            "outputs": [],
            "stateMutability": "payable",
            "type": "function"
        },
        {
            "inputs": [],
            "name": "validatorFeeRateScaled",
            "outputs": [
                {
                    "internalType": "uint256",
                    "name": "",
                    "type": "uint256"
                }
            ],
            "stateMutability": "view",
            "type": "function"
        }
    ],
    "bytecode": "0x60a060405230608052348015601357600080fd5b50608051612d5161003d60003960008181611698015281816116c101526118020152612d516000f3fe6080604052600436106101b75760003560e01c80638da5cb5b116100ec578063bd80a1c91161008a578063f6d7b09711610064578063f6d7b097146104e7578063f87c68b914610507578063fc6743c414610527578063ffa1ad741461054757600080fd5b8063bd80a1c914610467578063d7c41c79146104a7578063f2fde38b146104c757600080fd5b80639e3a9bb8116100c65780639e3a9bb8146103dd578063a2ebe749146103f3578063ad3cb1cc14610413578063b12d23c01461045157600080fd5b80638da5cb5b1461038657806393feb7bd1461039b57806399acac8c146103bb57600080fd5b806352d1902d11610159578063647846a511610133578063647846a51461030a578063715018a61461032a5780637cbcd50d1461033f5780638d3728a21461036657600080fd5b806352d1902d1461028957806353da0206146102ac57806357364d44146102cc57600080fd5b80633a6738b2116101955780633a6738b21461022e5780633af4158f1461024e5780634afa526f146102615780634f1ef2861461027657600080fd5b806308727ec0146101bc5780632e1e8a93146101de5780633013ce291461020e575b600080fd5b3480156101c857600080fd5b506101dc6101d7366004611f22565b610578565b005b6101f16101ec366004612018565b610777565b6040516001600160a01b0390911681526020015b60405180910390f35b34801561021a57600080fd5b506000546101f1906001600160a01b031681565b34801561023a57600080fd5b506101dc6102493660046120a7565b610793565b6101dc61025c366004612117565b6107a7565b34801561026d57600080fd5b506101dc610827565b6101dc6102843660046121db565b6108ff565b34801561029557600080fd5b5061029e61091e565b604051908152602001610205565b3480156102b857600080fd5b506101f16102c73660046122a7565b61093b565b3480156102d857600080fd5b506102ec6102e73660046122c0565b610965565b60408051935184529115156020840152151590820152606001610205565b34801561031657600080fd5b506001546101f1906001600160a01b031681565b34801561033657600080fd5b506101dc6109bd565b34801561034b57600080fd5b50610354601281565b60405160ff9091168152602001610205565b34801561037257600080fd5b506101dc6103813660046122a7565b6109d1565b34801561039257600080fd5b506101f1610a0e565b3480156103a757600080fd5b506101dc6103b63660046122a7565b610a3c565b3480156103c757600080fd5b506103d0610ab9565b60405161020591906122dd565b3480156103e957600080fd5b5061029e60075481565b3480156103ff57600080fd5b506002546101f1906001600160a01b031681565b34801561041f57600080fd5b50610444604051806040016040528060058152602001640352e302e360dc1b81525081565b6040516102059190612379565b34801561045d57600080fd5b5061029e600c5481565b34801561047357600080fd5b506104976104823660046122c0565b60066020526000908152604090205460ff1681565b6040519015158152602001610205565b3480156104b357600080fd5b506101dc6104c236600461238c565b610b1b565b3480156104d357600080fd5b506101dc6104e23660046122c0565b610c8c565b3480156104f357600080fd5b506103d06105023660046123fa565b610cc7565b34801561051357600080fd5b506003546101f1906001600160a01b031681565b34801561053357600080fd5b506101dc6105423660046122a7565b610ce1565b34801561055357600080fd5b5061044460405180604001604052806005815260200164191718171b60d91b81525081565b60005b8281101561077157600084848381811061059757610597612430565b90506020020160208101906105ac91906122c0565b6001600160a01b03811660009081526005602052604090205490915060ff166105f05760405162461bcd60e51b81526004016105e790612446565b60405180910390fd5b6000819050806001600160a01b03166308551a536040518163ffffffff1660e01b8152600401602060405180830381865afa158015610633573d6000803e3d6000fd5b505050506040513d601f19601f82011682018060405250810190610657919061247d565b6001600160a01b0316336001600160a01b0316148061068e5750610679610a0e565b6001600160a01b0316336001600160a01b0316145b6106aa5760405162461bcd60e51b81526004016105e79061249a565b604051630567d91f60e41b815284151560048201526001600160a01b0382169063567d91f090602401600060405180830381600087803b1580156106ed57600080fd5b505af1158015610701573d6000803e3d6000fd5b50505050831561071a576107153383610d9f565b610724565b6107243383610ded565b604080516001600160a01b038416815285151560208201527f94706a90834905eb13df4134bd7c40e90c8218fbe9ded8631b8062c7bd4a5a06910160405180910390a1505060010161057b565b50505050565b60006107868787878686610e3b565b9998505050505050505050565b61079f86848484610fb8565b505050505050565b61081e878787878080601f01602080910402602001604051908101604052809392919081815260200183838082843760009201919091525050604080516020601f8b01819004810282018101909252898152925089915088908190840183828082843760009201919091525088925061112d915050565b50505050505050565b33600061083382610965565b92505050806108545760405162461bcd60e51b81526004016105e7906124ca565b6001600160a01b03821660009081526009602052604081206108759061160f565b11156108ba5760405162461bcd60e51b815260206004820152601460248201527373656c6c65722068617320636f6e74726163747360601b60448201526064016105e7565b6001600160a01b038216600090815260086020526040812080549190556108e2600a84611619565b506001546108fa906001600160a01b0316848361162e565b505050565b61090761168d565b61091082611732565b61091a828261173a565b5050565b60006109286117f7565b50600080516020612cfc83398151915290565b6004818154811061094b57600080fd5b6000918252602090912001546001600160a01b0316905081565b6040805160208101909152600081526001600160a01b0382166000908152600860205260408120600c54815483929111156109a1600a87611840565b6040805160208101909152925483529196909550909350915050565b6109c5611862565b6109cf6000611894565b565b6109d9610a0e565b6001600160a01b0316336001600160a01b031614610a095760405162461bcd60e51b81526004016105e79061249a565b600c55565b7f9016d09d72d40fdae2fd8ceac6b6234c7706214fd39c1cd1e609a0528c199300546001600160a01b031690565b610a44610a0e565b6001600160a01b0316336001600160a01b031614610a745760405162461bcd60e51b81526004016105e79061249a565b8060075414610ab65760078190556040518181527fa765cde4b738d0ceba8998592a4ba3c70577da605d79b49decf1067cfb6bf08f9060200160405180910390a15b50565b60606004805480602002602001604051908101604052809291908181526020018280548015610b1157602002820191906000526020600020905b81546001600160a01b03168152600190910190602001808311610af3575b5050505050905090565b7ff0c57e16840df040f15088dc2f81fe391c3923bec73e23a9662efc9c229c6a008054600160401b810460ff16159067ffffffffffffffff16600081158015610b615750825b905060008267ffffffffffffffff166001148015610b7e5750303b155b905081158015610b8c575080155b15610baa5760405163f92ee8a960e01b815260040160405180910390fd5b845467ffffffffffffffff191660011785558315610bd457845460ff60401b1916600160401b1785555b610bdd33611905565b610be5611916565b600080546001600160a01b03808c166001600160a01b031992831617909255600180548b8416908316179055600380548d841690831617905560028054928e16929091169190911790556007879055600c8690558315610c7f57845460ff60401b19168555604051600181527fc7f505b2f371ae2175ee4913f4499e1f2633a7b5936321eed1cdaeb6115181d29060200160405180910390a15b5050505050505050505050565b610c94611862565b6001600160a01b038116610cbe57604051631e4fbdf760e01b8152600060048201526024016105e7565b610ab681611894565b6060610cd8600a8460ff851661191e565b90505b92915050565b3360008181526008602052604081208054849290610d0090849061250a565b9091555050600c546001600160a01b0382166000908152600860205260409020541015610d7b5760405162461bcd60e51b815260206004820152602360248201527f7374616b65206973206c657373207468616e207265717569726564206d696e696044820152626d756d60e81b60648201526084016105e7565b610d86600a826119dd565b5060015461091a906001600160a01b03168230856119f2565b6000610daa83610965565b9250505080610dcb5760405162461bcd60e51b81526004016105e7906124ca565b6001600160a01b03831660009081526009602052604090206107719083611619565b6000610df883610965565b9250505080610e195760405162461bcd60e51b81526004016105e7906124ca565b6001600160a01b038316600090815260096020526040902061077190836119dd565b6003546000805460015491928392630731141b60e31b9230926001600160a01b039081169291811691163389898e8e8e604051602401610e849a99989796959493929190612546565b60408051601f198184030181529181526020820180516001600160e01b03166001600160e01b03199094169390931790925260025491519092506000916001600160a01b0316908390610ed690611f07565b610ee19291906125b2565b604051809103906000f080158015610efd573d6000803e3d6000fd5b506004805460018082019092557f8a35acfbc15ff81a39ae7d344fd709f28e8600b4aa8c65c6b64bfe7fe36bd19b0180546001600160a01b0319166001600160a01b03841690811790915560008181526005602052604090819020805460ff1916909317909255905191925082917f1b08e1646439b7521399d47f93ab6b1ebc92803e155d0b2f2ad2d4702a05080490610f9a90899089906125de565b60405180910390a2610fac3382610ded565b98975050505050505050565b6001600160a01b03841660009081526005602052604090205460ff16610ff05760405162461bcd60e51b81526004016105e790612446565b6000849050806001600160a01b03166308551a536040518163ffffffff1660e01b8152600401602060405180830381865afa158015611033573d6000803e3d6000fd5b505050506040513d601f19601f82011682018060405250810190611057919061247d565b6001600160a01b0316336001600160a01b0316146110875760405162461bcd60e51b81526004016105e79061249a565b604051631c7cf3d560e21b81526004810185905260248101849052600083900b60448201526001600160a01b038616906371f3cf5490606401600060405180830381600087803b1580156110da57600080fd5b505af11580156110ee573d6000803e3d6000fd5b50506040516001600160a01b03881692507f7865b2bbe0087425b223d9cf674d8d5328e31546b364da98c36db21193c17d559150600090a25050505050565b6001600160a01b03851660009081526005602052604090205460ff166111655760405162461bcd60e51b81526004016105e790612446565b6000859050806001600160a01b031663d7efb6b76040518163ffffffff1660e01b8152600401602060405180830381865afa1580156111a8573d6000803e3d6000fd5b505050506040513d601f19601f820116820180604052508101906111cc91906125f2565b156112195760405162461bcd60e51b815260206004820181905260248201527f63616e6e6f742070757263686173652064656c6574656420636f6e747261637460448201526064016105e7565b336001600160a01b0316816001600160a01b03166308551a536040518163ffffffff1660e01b8152600401602060405180830381865afa158015611261573d6000803e3d6000fd5b505050506040513d601f19601f82011682018060405250810190611285919061247d565b6001600160a01b0316036112e55760405162461bcd60e51b815260206004820152602160248201527f63616e6e6f7420707572636861736520796f7572206f776e20636f6e747261636044820152601d60fa1b60648201526084016105e7565b61134f816001600160a01b03166308551a536040518163ffffffff1660e01b8152600401602060405180830381865afa158015611326573d6000803e3d6000fd5b505050506040513d601f19601f8201168201806040525081019061134a919061247d565b611a2b565b6000816001600160a01b031663a4e275666040518163ffffffff1660e01b815260040160c060405180830381865afa15801561138f573d6000803e3d6000fd5b505050506040513d601f19601f820116820180604052508101906113b3919061260f565b509450505063ffffffff83166000039150611434905057816001600160a01b031663d50256256040518163ffffffff1660e01b815260040160c060405180830381865afa158015611408573d6000803e3d6000fd5b505050506040513d601f19601f8201168201806040525081019061142c919061260f565b509450505050505b8263ffffffff168163ffffffff16146114a45760405162461bcd60e51b815260206004820152602c60248201527f63616e6e6f742070757263686173652c20636f6e7472616374207465726d732060448201526b1dd95c99481d5c19185d195960a21b60648201526084016105e7565b600080836001600160a01b03166310ad14626040518163ffffffff1660e01b81526004016040805180830381865afa1580156114e4573d6000803e3d6000fd5b505050506040513d601f19601f820116820180604052508101906115089190612662565b91509150836001600160a01b0316636a3df6eb888885338d6007546040518763ffffffff1660e01b815260040161154496959493929190612686565b600060405180830381600087803b15801561155e57600080fd5b505af1158015611572573d6000803e3d6000fd5b505060005461158f92506001600160a01b03169050338b856119f2565b6001600160a01b038816158015906115a75750600081115b156115c4576001546115c4906001600160a01b0316338b846119f2565b876001600160a01b0316896001600160a01b03167fff1dec24325264c678c99ba82c9b203272dc942010bfb7941b47a7291788475360405160405180910390a3505050505050505050565b6000610cdb825490565b6000610cd8836001600160a01b038416611acd565b6040516001600160a01b038381166024830152604482018390526108fa91859182169063a9059cbb906064015b604051602081830303815290604052915060e01b6020820180516001600160e01b038381831617835250505050611bc0565b306001600160a01b037f000000000000000000000000000000000000000000000000000000000000000016148061171457507f00000000000000000000000000000000000000000000000000000000000000006001600160a01b0316611708600080516020612cfc833981519152546001600160a01b031690565b6001600160a01b031614155b156109cf5760405163703e46dd60e11b815260040160405180910390fd5b610ab6611862565b816001600160a01b03166352d1902d6040518163ffffffff1660e01b8152600401602060405180830381865afa925050508015611794575060408051601f3d908101601f19168201909252611791918101906126d8565b60015b6117bc57604051634c9c8ce360e01b81526001600160a01b03831660048201526024016105e7565b600080516020612cfc83398151915281146117ed57604051632a87526960e21b8152600481018290526024016105e7565b6108fa8383611c31565b306001600160a01b037f000000000000000000000000000000000000000000000000000000000000000016146109cf5760405163703e46dd60e11b815260040160405180910390fd5b6001600160a01b03811660009081526001830160205260408120541515610cd8565b3361186b610a0e565b6001600160a01b0316146109cf5760405163118cdaa760e01b81523360048201526024016105e7565b7f9016d09d72d40fdae2fd8ceac6b6234c7706214fd39c1cd1e609a0528c19930080546001600160a01b031981166001600160a01b03848116918217845560405192169182907f8be0079c531659141344cd1fd0a4f28419497f9722a3daafe3b4186f6b6457e090600090a3505050565b61190d611c87565b610ab681611cd0565b6109cf611c87565b6060600061193561192e8661160f565b8585611cd8565b905061194184826126f1565b67ffffffffffffffff811115611959576119596121c5565b604051908082528060200260200182016040528015611982578160200160208202803683370190505b509150835b818110156119d4576119998682611d03565b836119a487846126f1565b815181106119b4576119b4612430565b6001600160a01b0390921660209283029190910190910152600101611987565b50509392505050565b6000610cd8836001600160a01b038416611d0f565b6040516001600160a01b0384811660248301528381166044830152606482018390526107719186918216906323b872dd9060840161165b565b600080611a3783610965565b925092505080611a895760405162461bcd60e51b815260206004820152601860248201527f73656c6c6572206973206e6f742072656769737465726564000000000000000060448201526064016105e7565b816108fa5760405162461bcd60e51b815260206004820152601460248201527373656c6c6572206973206e6f742061637469766560601b60448201526064016105e7565b60008181526001830160205260408120548015611bb6576000611af16001836126f1565b8554909150600090611b05906001906126f1565b9050808214611b6a576000866000018281548110611b2557611b25612430565b9060005260206000200154905080876000018481548110611b4857611b48612430565b6000918252602080832090910192909255918252600188019052604090208390555b8554869080611b7b57611b7b612704565b600190038181906000526020600020016000905590558560010160008681526020019081526020016000206000905560019350505050610cdb565b6000915050610cdb565b600080602060008451602086016000885af180611be3576040513d6000823e3d81fd5b50506000513d91508115611bfb578060011415611c08565b6001600160a01b0384163b155b1561077157604051635274afe760e01b81526001600160a01b03851660048201526024016105e7565b611c3a82611d5e565b6040516001600160a01b038316907fbc7cd75a20ee27fd9adebab32041f755214dbc6bffa90cc0225b39da2e5c2d3b90600090a2805115611c7f576108fa8282611dc3565b61091a611e39565b7ff0c57e16840df040f15088dc2f81fe391c3923bec73e23a9662efc9c229c6a0054600160401b900460ff166109cf57604051631afcd79f60e31b815260040160405180910390fd5b610c94611c87565b6000611ce4828461250a565b905083811115611cf15750825b80831115611cfc5750815b9392505050565b6000610cd88383611e58565b6000818152600183016020526040812054611d5657508154600181810184556000848152602080822090930184905584548482528286019093526040902091909155610cdb565b506000610cdb565b806001600160a01b03163b600003611d9457604051634c9c8ce360e01b81526001600160a01b03821660048201526024016105e7565b600080516020612cfc83398151915280546001600160a01b0319166001600160a01b0392909216919091179055565b6060600080846001600160a01b031684604051611de0919061271a565b600060405180830381855af49150503d8060008114611e1b576040519150601f19603f3d011682016040523d82523d6000602084013e611e20565b606091505b5091509150611e30858383611e82565b95945050505050565b34156109cf5760405163b398979f60e01b815260040160405180910390fd5b6000826000018281548110611e6f57611e6f612430565b9060005260206000200154905092915050565b606082611e9757611e9282611ede565b611cfc565b8151158015611eae57506001600160a01b0384163b155b15611ed757604051639996b31560e01b81526001600160a01b03851660048201526024016105e7565b5080611cfc565b805115611eee5780518082602001fd5b60405163d6bda27560e01b815260040160405180910390fd5b6105c58061273783390190565b8015158114610ab657600080fd5b600080600060408486031215611f3757600080fd5b833567ffffffffffffffff811115611f4e57600080fd5b8401601f81018613611f5f57600080fd5b803567ffffffffffffffff811115611f7657600080fd5b8660208260051b8401011115611f8b57600080fd5b602091820194509250840135611fa081611f14565b809150509250925092565b8060000b8114610ab657600080fd5b6001600160a01b0381168114610ab657600080fd5b60008083601f840112611fe157600080fd5b50813567ffffffffffffffff811115611ff957600080fd5b60208301915083602082850101111561201157600080fd5b9250929050565b60008060008060008060008060e0898b03121561203457600080fd5b88359750602089013596506040890135955060608901359450608089013561205b81611fab565b935060a089013561206b81611fba565b925060c089013567ffffffffffffffff81111561208757600080fd5b6120938b828c01611fcf565b999c989b5096995094979396929594505050565b60008060008060008060c087890312156120c057600080fd5b86356120cb81611fba565b95506020870135945060408701359350606087013592506080870135915060a08701356120f781611fab565b809150509295509295509295565b63ffffffff81168114610ab657600080fd5b600080600080600080600060a0888a03121561213257600080fd5b873561213d81611fba565b9650602088013561214d81611fba565b9550604088013567ffffffffffffffff81111561216957600080fd5b6121758a828b01611fcf565b909650945050606088013567ffffffffffffffff81111561219557600080fd5b6121a18a828b01611fcf565b90945092505060808801356121b581612105565b8091505092959891949750929550565b634e487b7160e01b600052604160045260246000fd5b600080604083850312156121ee57600080fd5b82356121f981611fba565b9150602083013567ffffffffffffffff81111561221557600080fd5b8301601f8101851361222657600080fd5b803567ffffffffffffffff811115612240576122406121c5565b604051601f8201601f19908116603f0116810167ffffffffffffffff8111828210171561226f5761226f6121c5565b60405281815282820160200187101561228757600080fd5b816020840160208301376000602083830101528093505050509250929050565b6000602082840312156122b957600080fd5b5035919050565b6000602082840312156122d257600080fd5b8135611cfc81611fba565b602080825282518282018190526000918401906040840190835b8181101561231e5783516001600160a01b03168352602093840193909201916001016122f7565b509095945050505050565b60005b8381101561234457818101518382015260200161232c565b50506000910152565b60008151808452612365816020860160208601612329565b601f01601f19169290920160200192915050565b602081526000610cd8602083018461234d565b60008060008060008060c087890312156123a557600080fd5b86356123b081611fba565b955060208701356123c081611fba565b945060408701356123d081611fba565b935060608701356123e081611fba565b9598949750929560808101359460a0909101359350915050565b6000806040838503121561240d57600080fd5b82359150602083013560ff8116811461242557600080fd5b809150509250929050565b634e487b7160e01b600052603260045260246000fd5b60208082526018908201527f756e6b6e6f776e20636f6e747261637420616464726573730000000000000000604082015260600190565b60006020828403121561248f57600080fd5b8151611cfc81611fba565b6020808252601690820152751e5bdd48185c99481b9bdd08185d5d1a1bdc9a5e995960521b604082015260600190565b60208082526010908201526f1cd95b1b195c881b9bdd08199bdd5b9960821b604082015260600190565b634e487b7160e01b600052601160045260246000fd5b80820180821115610cdb57610cdb6124f4565b81835281816020850137506000828201602090810191909152601f909101601f19169091010190565b6001600160a01b038b811682528a81166020830152898116604083015288811660608301528716608082015261012060a0820181905260009061258c908301878961251d565b60c08301959095525060e081019290925260000b61010090910152979650505050505050565b6001600160a01b03831681526040602082018190526000906125d69083018461234d565b949350505050565b6020815260006125d660208301848661251d565b60006020828403121561260457600080fd5b8151611cfc81611f14565b60008060008060008060c0878903121561262857600080fd5b86516020880151604089015160608a015160808b01519399509197509550935061265181612105565b60a08801519092506120f781611fab565b6000806040838503121561267557600080fd5b505080516020909101519092909150565b60c08152600061269960c083018961234d565b82810360208401526126ab818961234d565b604084019790975250506001600160a01b03938416606082015291909216608082015260a0015292915050565b6000602082840312156126ea57600080fd5b5051919050565b81810381811115610cdb57610cdb6124f4565b634e487b7160e01b600052603160045260246000fd5b6000825161272c818460208701612329565b919091019291505056fe60a06040526040516105c53803806105c583398101604081905261002291610387565b61002c828261003e565b506001600160a01b0316608052610484565b610047826100fe565b6040516001600160a01b038316907f1cf3b03a6cf19fa2baba4df148e9dcabedea7f8a5c07840e207e5c089be95d3e90600090a28051156100f2576100ed826001600160a01b0316635c60da1b6040518163ffffffff1660e01b8152600401602060405180830381865afa1580156100c3573d6000803e3d6000fd5b505050506040513d601f19601f820116820180604052508101906100e7919061044d565b82610211565b505050565b6100fa610288565b5050565b806001600160a01b03163b60000361013957604051631933b43b60e21b81526001600160a01b03821660048201526024015b60405180910390fd5b807fa3f0ad74e5423aebfd80d3ef4346578335a9a72aeaee59ff6cb3582b35133d5080546001600160a01b0319166001600160a01b0392831617905560408051635c60da1b60e01b81529051600092841691635c60da1b9160048083019260209291908290030181865afa1580156101b5573d6000803e3d6000fd5b505050506040513d601f19601f820116820180604052508101906101d9919061044d565b9050806001600160a01b03163b6000036100fa57604051634c9c8ce360e01b81526001600160a01b0382166004820152602401610130565b6060600080846001600160a01b03168460405161022e9190610468565b600060405180830381855af49150503d8060008114610269576040519150601f19603f3d011682016040523d82523d6000602084013e61026e565b606091505b50909250905061027f8583836102a9565b95945050505050565b34156102a75760405163b398979f60e01b815260040160405180910390fd5b565b6060826102be576102b982610308565b610301565b81511580156102d557506001600160a01b0384163b155b156102fe57604051639996b31560e01b81526001600160a01b0385166004820152602401610130565b50805b9392505050565b8051156103185780518082602001fd5b60405163d6bda27560e01b815260040160405180910390fd5b80516001600160a01b038116811461034857600080fd5b919050565b634e487b7160e01b600052604160045260246000fd5b60005b8381101561037e578181015183820152602001610366565b50506000910152565b6000806040838503121561039a57600080fd5b6103a383610331565b60208401519092506001600160401b038111156103bf57600080fd5b8301601f810185136103d057600080fd5b80516001600160401b038111156103e9576103e961034d565b604051601f8201601f19908116603f011681016001600160401b03811182821017156104175761041761034d565b60405281815282820160200187101561042f57600080fd5b610440826020830160208601610363565b8093505050509250929050565b60006020828403121561045f57600080fd5b61030182610331565b6000825161047a818460208701610363565b9190910192915050565b60805161012761049e6000396000601e01526101276000f3fe6080604052600a600c565b005b60186014601a565b60a0565b565b60007f00000000000000000000000000000000000000000000000000000000000000006001600160a01b0316635c60da1b6040518163ffffffff1660e01b8152600401602060405180830381865afa1580156079573d6000803e3d6000fd5b505050506040513d601f19601f82011682018060405250810190609b919060c3565b905090565b3660008037600080366000845af43d6000803e80801560be573d6000f35b3d6000fd5b60006020828403121560d457600080fd5b81516001600160a01b038116811460ea57600080fd5b939250505056fea2646970667358221220ec26542f844f7280061ddf89bdb737947258f6e949b72c3904bb385b01bda38064736f6c634300081a0033360894a13ba1a3210667c828492db98dca3e2076cc3735a920a3ca505d382bbca26469706673582212207dad7f6bfa2bffc3c529f222cbdf6e7827da0c7b4be570c298a3474daf0f3dfc64736f6c634300081a0033",
    "linkReferences": {},
    "deployedLinkReferences": {}
}