{
    "_format": "hh-sol-artifact-1",
    "contractName": "CloneFactory",
    "sourceName": "contracts/marketplace/CloneFactory.sol",
    "abi": [
        {
            "inputs": [],
            "stateMutability": "nonpayable",
            "type": "constructor"
        },
        {
            "inputs": [
                {
                    "internalType": "address",
                    "name": "target",
                    "type": "address"
                }
            ],
            "name": "AddressEmptyCode",
            "type": "error"
        },
        {
            "inputs": [
                {
                    "internalType": "address",
                    "name": "implementation",
                    "type": "address"
                }
            ],
            "name": "ERC1967InvalidImplementation",
            "type": "error"
        },
        {
            "inputs": [],
            "name": "ERC1967NonPayable",
            "type": "error"
        },
        {
            "inputs": [],
            "name": "FailedCall",
            "type": "error"
        },
        {
            "inputs": [],
            "name": "InvalidInitialization",
            "type": "error"
        },
        {
            "inputs": [],
            "name": "NotInitializing",
            "type": "error"
        },
        {
            "inputs": [
                {
                    "internalType": "address",
                    "name": "owner",
                    "type": "address"
                }
            ],
            "name": "OwnableInvalidOwner",
            "type": "error"
        },
        {
            "inputs": [
                {
                    "internalType": "address",
                    "name": "account",
                    "type": "address"
                }
            ],
            "name": "OwnableUnauthorizedAccount",
            "type": "error"
        },
        {
            "inputs": [
                {
                    "internalType": "address",
                    "name": "token",
                    "type": "address"
                }
            ],
            "name": "SafeERC20FailedOperation",
            "type": "error"
        },
        {
            "inputs": [],
            "name": "UUPSUnauthorizedCallContext",
            "type": "error"
        },
        {
            "inputs": [
                {
                    "internalType": "bytes32",
                    "name": "slot",
                    "type": "bytes32"
                }
            ],
            "name": "UUPSUnsupportedProxiableUUID",
            "type": "error"
        },
        {
            "anonymous": false,
            "inputs": [
                {
                    "indexed": false,
                    "internalType": "uint64",
                    "name": "version",
                    "type": "uint64"
                }
            ],
            "name": "Initialized",
            "type": "event"
        },
        {
            "anonymous": false,
            "inputs": [
                {
                    "indexed": true,
                    "internalType": "address",
                    "name": "previousOwner",
                    "type": "address"
                },
                {
                    "indexed": true,
                    "internalType": "address",
                    "name": "newOwner",
                    "type": "address"
                }
            ],
            "name": "OwnershipTransferred",
            "type": "event"
        },
        {
            "anonymous": false,
            "inputs": [
                {
                    "indexed": true,
                    "internalType": "address",
                    "name": "implementation",
                    "type": "address"
                }
            ],
            "name": "Upgraded",
            "type": "event"
        },
        {
            "anonymous": false,
            "inputs": [
                {
                    "indexed": true,
                    "internalType": "address",
                    "name": "_address",
                    "type": "address"
                },
                {
                    "indexed": true,
                    "internalType": "address",
                    "name": "_validator",
                    "type": "address"
                }
            ],
            "name": "clonefactoryContractPurchased",
            "type": "event"
        },
        {
            "anonymous": false,
            "inputs": [
                {
                    "indexed": true,
                    "internalType": "address",
                    "name": "_address",
                    "type": "address"
                },
                {
                    "indexed": false,
                    "internalType": "string",
                    "name": "_pubkey",
                    "type": "string"
                }
            ],
            "name": "contractCreated",
            "type": "event"
        },
        {
            "anonymous": false,
            "inputs": [
                {
                    "indexed": false,
                    "internalType": "address",
                    "name": "_address",
                    "type": "address"
                },
                {
                    "indexed": false,
                    "internalType": "bool",
                    "name": "_isDeleted",
                    "type": "bool"
                }
            ],
            "name": "contractDeleteUpdated",
            "type": "event"
        },
        {
            "anonymous": false,
            "inputs": [
                {
                    "indexed": true,
                    "internalType": "address",
                    "name": "_address",
                    "type": "address"
                }
            ],
            "name": "contractHardDeleted",
            "type": "event"
        },
        {
            "anonymous": false,
            "inputs": [
                {
                    "indexed": true,
                    "internalType": "address",
                    "name": "_address",
                    "type": "address"
                }
            ],
            "name": "purchaseInfoUpdated",
            "type": "event"
        },
        {
            "anonymous": false,
            "inputs": [
                {
                    "indexed": false,
                    "internalType": "uint256",
                    "name": "_validatorFeeRateScaled",
                    "type": "uint256"
                }
            ],
            "name": "validatorFeeRateUpdated",
            "type": "event"
        },
        {
            "inputs": [],
            "name": "UPGRADE_INTERFACE_VERSION",
            "outputs": [
                {
                    "internalType": "string",
                    "name": "",
                    "type": "string"
                }
            ],
            "stateMutability": "view",
            "type": "function"
        },
        {
            "inputs": [],
            "name": "VALIDATOR_FEE_DECIMALS",
            "outputs": [
                {
                    "internalType": "uint8",
                    "name": "",
                    "type": "uint8"
                }
            ],
            "stateMutability": "view",
            "type": "function"
        },
        {
            "inputs": [],
            "name": "VERSION",
            "outputs": [
                {
                    "internalType": "string",
                    "name": "",
                    "type": "string"
                }
            ],
            "stateMutability": "view",
            "type": "function"
        },
        {
            "inputs": [],
            "name": "baseImplementation",
            "outputs": [
                {
                    "internalType": "address",
                    "name": "",
                    "type": "address"
                }
            ],
            "stateMutability": "view",
            "type": "function"
        },
        {
            "inputs": [
                {
                    "internalType": "uint256",
                    "name": "_index",
                    "type": "uint256"
                },
                {
                    "internalType": "address",
                    "name": "_address",
                    "type": "address"
                }
            ],
            "name": "contractHardDelete",
            "outputs": [],
            "stateMutability": "nonpayable",
            "type": "function"
        },
        {
            "inputs": [],
            "name": "feeToken",
            "outputs": [
                {
                    "internalType": "contract IERC20",
                    "name": "",
                    "type": "address"
                }
            ],
            "stateMutability": "view",
            "type": "function"
        },
        {
            "inputs": [],
            "name": "getContractDurationInterval",
            "outputs": [
                {
                    "internalType": "uint32",
                    "name": "",
                    "type": "uint32"
                },
                {
                    "internalType": "uint32",
                    "name": "",
                    "type": "uint32"
                }
            ],
            "stateMutability": "view",
            "type": "function"
        },
        {
            "inputs": [],
            "name": "getContractList",
            "outputs": [
                {
                    "internalType": "address[]",
                    "name": "",
                    "type": "address[]"
                }
            ],
            "stateMutability": "view",
            "type": "function"
        },
        {
            "inputs": [
                {
                    "internalType": "uint256",
                    "name": "_offset",
                    "type": "uint256"
                },
                {
                    "internalType": "uint8",
                    "name": "_limit",
                    "type": "uint8"
                }
            ],
            "name": "getSellers",
            "outputs": [
                {
                    "internalType": "address[]",
                    "name": "",
                    "type": "address[]"
                }
            ],
            "stateMutability": "view",
            "type": "function"
        },
        {
            "inputs": [],
            "name": "hashrateOracle",
            "outputs": [
                {
                    "internalType": "address",
                    "name": "",
                    "type": "address"
                }
            ],
            "stateMutability": "view",
            "type": "function"
        },
        {
            "inputs": [
                {
                    "internalType": "address",
                    "name": "_baseImplementation",
                    "type": "address"
                },
                {
                    "internalType": "address",
                    "name": "_hashrateOracle",
                    "type": "address"
                },
                {
                    "internalType": "address",
                    "name": "_paymentToken",
                    "type": "address"
                },
                {
                    "internalType": "address",
                    "name": "_feeToken",
                    "type": "address"
                },
                {
                    "internalType": "uint256",
                    "name": "_validatorFeeRateScaled",
                    "type": "uint256"
                },
                {
                    "internalType": "uint256",
                    "name": "_minSellerStake",
                    "type": "uint256"
                },
                {
                    "internalType": "uint32",
                    "name": "_minContractDuration",
                    "type": "uint32"
                },
                {
                    "internalType": "uint32",
                    "name": "_maxContractDuration",
                    "type": "uint32"
                }
            ],
            "name": "initialize",
            "outputs": [],
            "stateMutability": "nonpayable",
            "type": "function"
        },
        {
            "inputs": [],
            "name": "minSellerStake",
            "outputs": [
                {
                    "internalType": "uint256",
                    "name": "",
                    "type": "uint256"
                }
            ],
            "stateMutability": "view",
            "type": "function"
        },
        {
            "inputs": [],
            "name": "owner",
            "outputs": [
                {
                    "internalType": "address",
                    "name": "",
                    "type": "address"
                }
            ],
            "stateMutability": "view",
            "type": "function"
        },
        {
            "inputs": [],
            "name": "paymentToken",
            "outputs": [
                {
                    "internalType": "contract IERC20",
                    "name": "",
                    "type": "address"
                }
            ],
            "stateMutability": "view",
            "type": "function"
        },
        {
            "inputs": [],
            "name": "proxiableUUID",
            "outputs": [
                {
                    "internalType": "bytes32",
                    "name": "",
                    "type": "bytes32"
                }
            ],
            "stateMutability": "view",
            "type": "function"
        },
        {
            "inputs": [],
            "name": "renounceOwnership",
            "outputs": [],
            "stateMutability": "nonpayable",
            "type": "function"
        },
        {
            "inputs": [
                {
                    "internalType": "uint256",
                    "name": "",
                    "type": "uint256"
                }
            ],
            "name": "rentalContracts",
            "outputs": [
                {
                    "internalType": "address",
                    "name": "",
                    "type": "address"
                }
            ],
            "stateMutability": "view",
            "type": "function"
        },
        {
            "inputs": [
                {
                    "internalType": "address",
                    "name": "_seller",
                    "type": "address"
                }
            ],
            "name": "sellerByAddress",
            "outputs": [
                {
                    "components": [
                        {
                            "internalType": "uint256",
                            "name": "stake",
                            "type": "uint256"
                        }
                    ],
                    "internalType": "struct CloneFactory.Seller",
                    "name": "seller",
                    "type": "tuple"
                },
                {
                    "internalType": "bool",
                    "name": "isActive",
                    "type": "bool"
                },
                {
                    "internalType": "bool",
                    "name": "isRegistered",
                    "type": "bool"
                }
            ],
            "stateMutability": "view",
            "type": "function"
        },
        {
            "inputs": [],
            "name": "sellerDeregister",
            "outputs": [],
            "stateMutability": "nonpayable",
            "type": "function"
        },
        {
            "inputs": [
                {
                    "internalType": "uint256",
                    "name": "_stake",
                    "type": "uint256"
                }
            ],
            "name": "sellerRegister",
            "outputs": [],
            "stateMutability": "nonpayable",
            "type": "function"
        },
        {
            "inputs": [
                {
                    "internalType": "uint32",
                    "name": "_min",
                    "type": "uint32"
                },
                {
                    "internalType": "uint32",
                    "name": "_max",
                    "type": "uint32"
                }
            ],
            "name": "setContractDurationInterval",
            "outputs": [],
            "stateMutability": "nonpayable",
            "type": "function"
        },
        {
            "inputs": [
                {
                    "internalType": "address[]",
                    "name": "_contractAddresses",
                    "type": "address[]"
                },
                {
                    "internalType": "bool",
                    "name": "_isDeleted",
                    "type": "bool"
                }
            ],
            "name": "setContractsDeleted",
            "outputs": [],
            "stateMutability": "nonpayable",
            "type": "function"
        },
        {
            "inputs": [
                {
                    "internalType": "uint256",
                    "name": "",
                    "type": "uint256"
                },
                {
                    "internalType": "uint256",
                    "name": "",
                    "type": "uint256"
                },
                {
                    "internalType": "uint256",
                    "name": "_speed",
                    "type": "uint256"
                },
                {
                    "internalType": "uint256",
                    "name": "_length",
                    "type": "uint256"
                },
                {
                    "internalType": "int8",
                    "name": "_profitTarget",
                    "type": "int8"
                },
                {
                    "internalType": "address",
                    "name": "",
                    "type": "address"
                },
                {
                    "internalType": "string",
                    "name": "_pubKey",
                    "type": "string"
                }
            ],
            "name": "setCreateNewRentalContractV2",
            "outputs": [
                {
                    "internalType": "address",
                    "name": "",
                    "type": "address"
                }
            ],
            "stateMutability": "payable",
            "type": "function"
        },
        {
            "inputs": [
                {
                    "internalType": "address",
                    "name": "_hashrateOracle",
                    "type": "address"
                }
            ],
            "name": "setHashrateOracle",
            "outputs": [],
            "stateMutability": "nonpayable",
            "type": "function"
        },
        {
            "inputs": [
                {
                    "internalType": "uint256",
                    "name": "_minSellerStake",
                    "type": "uint256"
                }
            ],
            "name": "setMinSellerStake",
            "outputs": [],
            "stateMutability": "nonpayable",
            "type": "function"
        },
        {
            "inputs": [
                {
                    "internalType": "address",
                    "name": "_contractAddress",
                    "type": "address"
                },
                {
                    "internalType": "address",
                    "name": "_validatorAddress",
                    "type": "address"
                },
                {
                    "internalType": "string",
                    "name": "_encrValidatorURL",
                    "type": "string"
                },
                {
                    "internalType": "string",
                    "name": "_encrDestURL",
                    "type": "string"
                },
                {
                    "internalType": "uint32",
                    "name": "termsVersion",
                    "type": "uint32"
                }
            ],
            "name": "setPurchaseRentalContractV2",
            "outputs": [],
            "stateMutability": "payable",
            "type": "function"
        },
        {
            "inputs": [
                {
                    "internalType": "address",
                    "name": "_contractAddress",
                    "type": "address"
                },
                {
                    "internalType": "uint256",
                    "name": "",
                    "type": "uint256"
                },
                {
                    "internalType": "uint256",
                    "name": "",
                    "type": "uint256"
                },
                {
                    "internalType": "uint256",
                    "name": "_speed",
                    "type": "uint256"
                },
                {
                    "internalType": "uint256",
                    "name": "_length",
                    "type": "uint256"
                },
                {
                    "internalType": "int8",
                    "name": "_profitTarget",
                    "type": "int8"
                }
            ],
            "name": "setUpdateContractInformationV2",
            "outputs": [],
            "stateMutability": "nonpayable",
            "type": "function"
        },
        {
            "inputs": [
                {
                    "internalType": "uint256",
                    "name": "_validatorFeeRateScaled",
                    "type": "uint256"
                }
            ],
            "name": "setValidatorFeeRate",
            "outputs": [],
            "stateMutability": "nonpayable",
            "type": "function"
        },
        {
            "inputs": [
                {
                    "internalType": "address",
                    "name": "newOwner",
                    "type": "address"
                }
            ],
            "name": "transferOwnership",
            "outputs": [],
            "stateMutability": "nonpayable",
            "type": "function"
        },
        {
            "inputs": [
                {
                    "internalType": "address",
                    "name": "newImplementation",
                    "type": "address"
                },
                {
                    "internalType": "bytes",
                    "name": "data",
                    "type": "bytes"
                }
            ],
            "name": "upgradeToAndCall",
            "outputs": [],
            "stateMutability": "payable",
            "type": "function"
        },
        {
            "inputs": [],
            "name": "validatorFeeRateScaled",
            "outputs": [
                {
                    "internalType": "uint256",
                    "name": "",
                    "type": "uint256"
                }
            ],
            "stateMutability": "view",
            "type": "function"
        }
    ],
    "bytecode": "0x60a06040523060805234801561001457600080fd5b5061001d610022565b6100d4565b7ff0c57e16840df040f15088dc2f81fe391c3923bec73e23a9662efc9c229c6a00805468010000000000000000900460ff16156100725760405163f92ee8a960e01b815260040160405180910390fd5b80546001600160401b03908116146100d15780546001600160401b0319166001600160401b0390811782556040519081527fc7f505b2f371ae2175ee4913f4499e1f2633a7b5936321eed1cdaeb6115181d29060200160405180910390a15b50565b6080516132706100fd60003960008181611c0f01528181611c380152611d7901526132706000f3fe6080604052600436106101d85760003560e01c80638d3728a211610102578063b12d23c011610095578063f6d7b09711610064578063f6d7b0971461055d578063f87c68b91461057d578063fc6743c41461059d578063ffa1ad74146105bd57600080fd5b8063b12d23c0146104e7578063dd10fbd8146104fd578063f0f554621461051d578063f2fde38b1461053d57600080fd5b806399acac8c116100d157806399acac8c146104515780639e3a9bb814610473578063a2ebe74914610489578063ad3cb1cc146104a957600080fd5b80638d3728a2146103dc5780638da5cb5b146103fc57806393feb7bd1461041157806395e6b78d1461043157600080fd5b806352d1902d1161017a578063647846a511610149578063647846a5146103605780636beb183514610380578063715018a6146103a05780637cbcd50d146103b557600080fd5b806352d1902d146102aa578063531ae12d146102cd57806353da02061461030257806357364d441461032257600080fd5b80633a6738b2116101b65780633a6738b21461024f5780633af4158f1461026f5780634afa526f146102825780634f1ef2861461029757600080fd5b806308727ec0146101dd5780632e1e8a93146101ff5780633013ce291461022f575b600080fd5b3480156101e957600080fd5b506101fd6101f83660046123eb565b6105ee565b005b61021261020d3660046124e1565b6107f1565b6040516001600160a01b0390911681526020015b60405180910390f35b34801561023b57600080fd5b50600054610212906001600160a01b031681565b34801561025b57600080fd5b506101fd61026a366004612570565b610991565b6101fd61027d3660046125e0565b610b1a565b34801561028e57600080fd5b506101fd611005565b6101fd6102a53660046126a4565b6110b9565b3480156102b657600080fd5b506102bf6110d4565b604051908152602001610226565b3480156102d957600080fd5b506008546040805163ffffffff8084168252640100000000909304909216602083015201610226565b34801561030e57600080fd5b5061021261031d366004612770565b6110f1565b34801561032e57600080fd5b5061034261033d366004612789565b61111b565b60408051935184529115156020840152151590820152606001610226565b34801561036c57600080fd5b50600154610212906001600160a01b031681565b34801561038c57600080fd5b506101fd61039b3660046127a6565b611173565b3480156103ac57600080fd5b506101fd61137d565b3480156103c157600080fd5b506103ca601281565b60405160ff9091168152602001610226565b3480156103e857600080fd5b506101fd6103f7366004612770565b611391565b34801561040857600080fd5b506102126113ce565b34801561041d57600080fd5b506101fd61042c366004612770565b6113fc565b34801561043d57600080fd5b506101fd61044c36600461283d565b611479565b34801561045d57600080fd5b506104666114e1565b6040516102269190612876565b34801561047f57600080fd5b506102bf60075481565b34801561049557600080fd5b50600254610212906001600160a01b031681565b3480156104b557600080fd5b506104da604051806040016040528060058152602001640352e302e360dc1b81525081565b6040516102269190612912565b3480156104f357600080fd5b506102bf600d5481565b34801561050957600080fd5b506101fd610518366004612925565b611543565b34801561052957600080fd5b506101fd610538366004612789565b61181f565b34801561054957600080fd5b506101fd610558366004612789565b611879565b34801561056957600080fd5b5061046661057836600461294a565b6118b4565b34801561058957600080fd5b50600354610212906001600160a01b031681565b3480156105a957600080fd5b506101fd6105b8366004612770565b6118ce565b3480156105c957600080fd5b506104da60405180604001604052806005815260200164322e302e3760d81b81525081565b60005b828110156107eb57600084848381811061060d5761060d612975565b90506020020160208101906106229190612789565b6001600160a01b03811660009081526005602052604090205490915060ff166106665760405162461bcd60e51b815260040161065d9061298b565b60405180910390fd5b6000819050806001600160a01b03166308551a536040518163ffffffff1660e01b8152600401602060405180830381865afa1580156106a9573d6000803e3d6000fd5b505050506040513d601f19601f820116820180604052508101906106cd91906129c2565b6001600160a01b0316336001600160a01b0316148061070457506106ef6113ce565b6001600160a01b0316336001600160a01b0316145b6107205760405162461bcd60e51b815260040161065d906129df565b604080516001600160a01b038416815285151560208201527f94706a90834905eb13df4134bd7c40e90c8218fbe9ded8631b8062c7bd4a5a06910160405180910390a1831561077857610773338361198c565b610782565b61078233836119bc565b604051630567d91f60e41b815284151560048201526001600160a01b0382169063567d91f090602401600060405180830381600087803b1580156107c557600080fd5b505af11580156107d9573d6000803e3d6000fd5b5050600190940193506105f192505050565b50505050565b6000610801336119e7565b6119e7565b61080a86611a84565b600354600080546001549192630731141b60e31b9230926001600160a01b039283169290811691163389898f8f8f6040516024016108519a99989796959493929190612a38565b60408051601f198184030181529181526020820180516001600160e01b03166001600160e01b03199094169390931790925260025491519092506000916001600160a01b03169083906108a3906123d0565b6108ae929190612aa4565b604051809103906000f0801580156108ca573d6000803e3d6000fd5b5090506000819050806001600160a01b03167f1b08e1646439b7521399d47f93ab6b1ebc92803e155d0b2f2ad2d4702a050804878760405161090d929190612ad0565b60405180910390a26004805460018082019092557f8a35acfbc15ff81a39ae7d344fd709f28e8600b4aa8c65c6b64bfe7fe36bd19b0180546001600160a01b0319166001600160a01b0384169081179091556000908152600560205260409020805460ff1916909117905561098233826119bc565b9b9a5050505050505050505050565b61099a33611af6565b6109a382611a84565b6001600160a01b03861660009081526005602052604090205460ff166109db5760405162461bcd60e51b815260040161065d9061298b565b6000869050806001600160a01b03166308551a536040518163ffffffff1660e01b8152600401602060405180830381865afa158015610a1e573d6000803e3d6000fd5b505050506040513d601f19601f82011682018060405250810190610a4291906129c2565b6001600160a01b0316336001600160a01b031614610a725760405162461bcd60e51b815260040161065d906129df565b6040516001600160a01b038816907f7865b2bbe0087425b223d9cf674d8d5328e31546b364da98c36db21193c17d5590600090a2604051631c7cf3d560e21b81526004810185905260248101849052600083900b60448201526001600160a01b038816906371f3cf5490606401600060405180830381600087803b158015610af957600080fd5b505af1158015610b0d573d6000803e3d6000fd5b5050505050505050505050565b6001600160a01b038716600090815260056020526040902054879060ff16610b545760405162461bcd60e51b815260040161065d9061298b565b806001600160a01b031663d7efb6b76040518163ffffffff1660e01b8152600401602060405180830381865afa158015610b92573d6000803e3d6000fd5b505050506040513d601f19601f82011682018060405250810190610bb69190612ae4565b15610c035760405162461bcd60e51b815260206004820181905260248201527f63616e6e6f742070757263686173652064656c6574656420636f6e7472616374604482015260640161065d565b336001600160a01b0316816001600160a01b03166308551a536040518163ffffffff1660e01b8152600401602060405180830381865afa158015610c4b573d6000803e3d6000fd5b505050506040513d601f19601f82011682018060405250810190610c6f91906129c2565b6001600160a01b031603610ccf5760405162461bcd60e51b815260206004820152602160248201527f63616e6e6f7420707572636861736520796f7572206f776e20636f6e747261636044820152601d60fa1b606482015260840161065d565b610d34816001600160a01b03166308551a536040518163ffffffff1660e01b8152600401602060405180830381865afa158015610d10573d6000803e3d6000fd5b505050506040513d601f19601f820116820180604052508101906107fc91906129c2565b6000816001600160a01b031663a4e275666040518163ffffffff1660e01b815260040160c060405180830381865afa158015610d74573d6000803e3d6000fd5b505050506040513d601f19601f82011682018060405250810190610d989190612b01565b509450505063ffffffff83166000039150610e19905057816001600160a01b031663d50256256040518163ffffffff1660e01b815260040160c060405180830381865afa158015610ded573d6000803e3d6000fd5b505050506040513d601f19601f82011682018060405250810190610e119190612b01565b509450505050505b8263ffffffff168163ffffffff1614610e895760405162461bcd60e51b815260206004820152602c60248201527f63616e6e6f742070757263686173652c20636f6e7472616374207465726d732060448201526b1dd95c99481d5c19185d195960a21b606482015260840161065d565b5050856001600160a01b0316876001600160a01b03167fff1dec24325264c678c99ba82c9b203272dc942010bfb7941b47a7291788475360405160405180910390a3600080886001600160a01b03166310ad14626040518163ffffffff1660e01b81526004016040805180830381865afa158015610f0b573d6000803e3d6000fd5b505050506040513d601f19601f82011682018060405250810190610f2f9190612b54565b91509150886001600160a01b0316636a3df6eb8888888887610f4e3390565b8f6007546040518963ffffffff1660e01b8152600401610f75989796959493929190612b78565b600060405180830381600087803b158015610f8f57600080fd5b505af1158015610fa3573d6000803e3d6000fd5b50505050610fc5610fb13390565b6000546001600160a01b0316908b85611b4d565b6001600160a01b03881615801590610fdd5750600081115b15610ffa57610ffa336001546001600160a01b0316908b84611b4d565b505050505050505050565b3361100f81611af6565b6001600160a01b0381166000908152600a6020526040812061103090611bb4565b11156110755760405162461bcd60e51b815260206004820152601460248201527373656c6c65722068617320636f6e74726163747360601b604482015260640161065d565b6001600160a01b0381166000908152600960205260408120805491905561109d600b83611bbe565b506001546110b5906001600160a01b03168383611bd3565b5050565b6110c1611c04565b6110ca82611ca9565b6110b58282611cb1565b60006110de611d6e565b5060008051602061321b83398151915290565b6004818154811061110157600080fd5b6000918252602090912001546001600160a01b0316905081565b6040805160208101909152600081526001600160a01b0382166000908152600960205260408120600d5481548392911115611157600b87611db7565b6040805160208101909152925483529196909550909350915050565b7ff0c57e16840df040f15088dc2f81fe391c3923bec73e23a9662efc9c229c6a008054600160401b810460ff16159067ffffffffffffffff166000811580156111b95750825b905060008267ffffffffffffffff1660011480156111d65750303b155b9050811580156111e4575080155b156112025760405163f92ee8a960e01b815260040160405180910390fd5b845467ffffffffffffffff19166001178555831561122c57845460ff60401b1916600160401b1785555b61123533611dd9565b61123d611dea565b8a6000806101000a8154816001600160a01b0302191690836001600160a01b0316021790555089600160006101000a8154816001600160a01b0302191690836001600160a01b031602179055508b600360006101000a8154816001600160a01b0302191690836001600160a01b031602179055508c600260006101000a8154816001600160a01b0302191690836001600160a01b031602179055508860078190555087600d8190555086600860006101000a81548163ffffffff021916908363ffffffff16021790555085600860046101000a81548163ffffffff021916908363ffffffff160217905550831561136e57845460ff60401b19168555604051600181527fc7f505b2f371ae2175ee4913f4499e1f2633a7b5936321eed1cdaeb6115181d29060200160405180910390a15b50505050505050505050505050565b611385611df2565b61138f6000611e24565b565b6113996113ce565b6001600160a01b0316336001600160a01b0316146113c95760405162461bcd60e51b815260040161065d906129df565b600d55565b7f9016d09d72d40fdae2fd8ceac6b6234c7706214fd39c1cd1e609a0528c199300546001600160a01b031690565b6114046113ce565b6001600160a01b0316336001600160a01b0316146114345760405162461bcd60e51b815260040161065d906129df565b80600754146114765760078190556040518181527fa765cde4b738d0ceba8998592a4ba3c70577da605d79b49decf1067cfb6bf08f9060200160405180910390a15b50565b6114816113ce565b6001600160a01b0316336001600160a01b0316146114b15760405162461bcd60e51b815260040161065d906129df565b6008805463ffffffff9283166401000000000267ffffffffffffffff199091169290931691909117919091179055565b6060600480548060200260200160405190810160405280929190818152602001828054801561153957602002820191906000526020600020905b81546001600160a01b0316815260019091019060200180831161151b575b5050505050905090565b600454821061158a5760405162461bcd60e51b8152602060048201526013602482015272696e646578206f7574206f6620626f756e647360681b604482015260640161065d565b60006004838154811061159f5761159f612975565b6000918252602090912001546001600160a01b039081169150821681146116085760405162461bcd60e51b815260206004820152601960248201527f636f6e74726163742061646472657373206d69736d6174636800000000000000604482015260640161065d565b60008190506000816001600160a01b03166308551a536040518163ffffffff1660e01b8152600401602060405180830381865afa15801561164d573d6000803e3d6000fd5b505050506040513d601f19601f8201168201806040525081019061167191906129c2565b9050336001600160a01b03821614806116a2575061168d6113ce565b6001600160a01b0316336001600160a01b0316145b6116be5760405162461bcd60e51b815260040161065d906129df565b6116c8818461198c565b6001600160a01b0383166000908152600560205260409020805460ff19169055600480546116f890600190612be4565b8154811061170857611708612975565b600091825260209091200154600480546001600160a01b03909216918790811061173457611734612975565b9060005260206000200160006101000a8154816001600160a01b0302191690836001600160a01b03160217905550600480548061177357611773612bf7565b600082815260208120820160001990810180546001600160a01b03191690559091019091556040516001600160a01b038516917f4aa35bed19905c9f8456f7cde36306d10516bf490a71f22b11421e94c9794b8191a2604051630567d91f60e41b8152600160048201526001600160a01b0383169063567d91f090602401600060405180830381600087803b15801561180b57600080fd5b505af1158015610ffa573d6000803e3d6000fd5b6118276113ce565b6001600160a01b0316336001600160a01b0316146118575760405162461bcd60e51b815260040161065d906129df565b600380546001600160a01b0319166001600160a01b0392909216919091179055565b611881611df2565b6001600160a01b0381166118ab57604051631e4fbdf760e01b81526000600482015260240161065d565b61147681611e24565b60606118c5600b8460ff8516611e95565b90505b92915050565b33600081815260096020526040812080548492906118ed908490612c0d565b9091555050600d546001600160a01b03821660009081526009602052604090205410156119685760405162461bcd60e51b815260206004820152602360248201527f7374616b65206973206c657373207468616e207265717569726564206d696e696044820152626d756d60e81b606482015260840161065d565b611973600b82611f54565b506001546110b5906001600160a01b0316823085611b4d565b61199582611af6565b6001600160a01b0382166000908152600a602052604090206119b79082611bbe565b505050565b6119c5826119e7565b6001600160a01b0382166000908152600a602052604090206119b79082611f54565b6000806119f38361111b565b925092505080611a405760405162461bcd60e51b81526020600482015260186024820152771cd95b1b195c881a5cc81b9bdd081c9959da5cdd195c995960421b604482015260640161065d565b816119b75760405162461bcd60e51b815260206004820152601460248201527373656c6c6572206973206e6f742061637469766560601b604482015260640161065d565b611a8d81611f69565b6114765760405162461bcd60e51b815260206004820152603460248201527f636f6e7472616374206475726174696f6e206973206e6f742077697468696e206044820152731d1a1948185b1b1bddd959081a5b9d195c9d985b60621b606482015260840161065d565b6000611b018261111b565b92505050806110b55760405162461bcd60e51b81526020600482015260186024820152771cd95b1b195c881a5cc81b9bdd081c9959da5cdd195c995960421b604482015260640161065d565b6040516001600160a01b0384811660248301528381166044830152606482018390526107eb9186918216906323b872dd906084015b604051602081830303815290604052915060e01b6020820180516001600160e01b038381831617835250505050611f96565b60006118c8825490565b60006118c5836001600160a01b038416612007565b6040516001600160a01b038381166024830152604482018390526119b791859182169063a9059cbb90606401611b82565b306001600160a01b037f0000000000000000000000000000000000000000000000000000000000000000161480611c8b57507f00000000000000000000000000000000000000000000000000000000000000006001600160a01b0316611c7f60008051602061321b833981519152546001600160a01b031690565b6001600160a01b031614155b1561138f5760405163703e46dd60e11b815260040160405180910390fd5b611476611df2565b816001600160a01b03166352d1902d6040518163ffffffff1660e01b8152600401602060405180830381865afa925050508015611d0b575060408051601f3d908101601f19168201909252611d0891810190612c20565b60015b611d3357604051634c9c8ce360e01b81526001600160a01b038316600482015260240161065d565b60008051602061321b8339815191528114611d6457604051632a87526960e21b81526004810182905260240161065d565b6119b783836120fa565b306001600160a01b037f0000000000000000000000000000000000000000000000000000000000000000161461138f5760405163703e46dd60e11b815260040160405180910390fd5b6001600160a01b038116600090815260018301602052604081205415156118c5565b611de1612150565b61147681612199565b61138f612150565b33611dfb6113ce565b6001600160a01b03161461138f5760405163118cdaa760e01b815233600482015260240161065d565b7f9016d09d72d40fdae2fd8ceac6b6234c7706214fd39c1cd1e609a0528c19930080546001600160a01b031981166001600160a01b03848116918217845560405192169182907f8be0079c531659141344cd1fd0a4f28419497f9722a3daafe3b4186f6b6457e090600090a3505050565b60606000611eac611ea586611bb4565b85856121a1565b9050611eb88482612be4565b67ffffffffffffffff811115611ed057611ed061268e565b604051908082528060200260200182016040528015611ef9578160200160208202803683370190505b509150835b81811015611f4b57611f1086826121cc565b83611f1b8784612be4565b81518110611f2b57611f2b612975565b6001600160a01b0390921660209283029190910190910152600101611efe565b50509392505050565b60006118c5836001600160a01b0384166121d8565b60085460009063ffffffff1682108015906118c8575050600854640100000000900463ffffffff16101590565b600080602060008451602086016000885af180611fb9576040513d6000823e3d81fd5b50506000513d91508115611fd1578060011415611fde565b6001600160a01b0384163b155b156107eb57604051635274afe760e01b81526001600160a01b038516600482015260240161065d565b600081815260018301602052604081205480156120f057600061202b600183612be4565b855490915060009061203f90600190612be4565b90508082146120a457600086600001828154811061205f5761205f612975565b906000526020600020015490508087600001848154811061208257612082612975565b6000918252602080832090910192909255918252600188019052604090208390555b85548690806120b5576120b5612bf7565b6001900381819060005260206000200160009055905585600101600086815260200190815260200160002060009055600193505050506118c8565b60009150506118c8565b61210382612227565b6040516001600160a01b038316907fbc7cd75a20ee27fd9adebab32041f755214dbc6bffa90cc0225b39da2e5c2d3b90600090a2805115612148576119b7828261228c565b6110b5612302565b7ff0c57e16840df040f15088dc2f81fe391c3923bec73e23a9662efc9c229c6a0054600160401b900460ff1661138f57604051631afcd79f60e31b815260040160405180910390fd5b611881612150565b60006121ad8284612c0d565b9050838111156121ba5750825b808311156121c55750815b9392505050565b60006118c58383612321565b600081815260018301602052604081205461221f575081546001818101845560008481526020808220909301849055845484825282860190935260409020919091556118c8565b5060006118c8565b806001600160a01b03163b60000361225d57604051634c9c8ce360e01b81526001600160a01b038216600482015260240161065d565b60008051602061321b83398151915280546001600160a01b0319166001600160a01b0392909216919091179055565b6060600080846001600160a01b0316846040516122a99190612c39565b600060405180830381855af49150503d80600081146122e4576040519150601f19603f3d011682016040523d82523d6000602084013e6122e9565b606091505b50915091506122f985838361234b565b95945050505050565b341561138f5760405163b398979f60e01b815260040160405180910390fd5b600082600001828154811061233857612338612975565b9060005260206000200154905092915050565b6060826123605761235b826123a7565b6121c5565b815115801561237757506001600160a01b0384163b155b156123a057604051639996b31560e01b81526001600160a01b038516600482015260240161065d565b50806121c5565b8051156123b75780518082602001fd5b60405163d6bda27560e01b815260040160405180910390fd5b6105c580612c5683390190565b801515811461147657600080fd5b60008060006040848603121561240057600080fd5b833567ffffffffffffffff81111561241757600080fd5b8401601f8101861361242857600080fd5b803567ffffffffffffffff81111561243f57600080fd5b8660208260051b840101111561245457600080fd5b602091820194509250840135612469816123dd565b809150509250925092565b8060000b811461147657600080fd5b6001600160a01b038116811461147657600080fd5b60008083601f8401126124aa57600080fd5b50813567ffffffffffffffff8111156124c257600080fd5b6020830191508360208285010111156124da57600080fd5b9250929050565b60008060008060008060008060e0898b0312156124fd57600080fd5b88359750602089013596506040890135955060608901359450608089013561252481612474565b935060a089013561253481612483565b925060c089013567ffffffffffffffff81111561255057600080fd5b61255c8b828c01612498565b999c989b5096995094979396929594505050565b60008060008060008060c0878903121561258957600080fd5b863561259481612483565b95506020870135945060408701359350606087013592506080870135915060a08701356125c081612474565b809150509295509295509295565b63ffffffff8116811461147657600080fd5b600080600080600080600060a0888a0312156125fb57600080fd5b873561260681612483565b9650602088013561261681612483565b9550604088013567ffffffffffffffff81111561263257600080fd5b61263e8a828b01612498565b909650945050606088013567ffffffffffffffff81111561265e57600080fd5b61266a8a828b01612498565b909450925050608088013561267e816125ce565b8091505092959891949750929550565b634e487b7160e01b600052604160045260246000fd5b600080604083850312156126b757600080fd5b82356126c281612483565b9150602083013567ffffffffffffffff8111156126de57600080fd5b8301601f810185136126ef57600080fd5b803567ffffffffffffffff8111156127095761270961268e565b604051601f8201601f19908116603f0116810167ffffffffffffffff811182821017156127385761273861268e565b60405281815282820160200187101561275057600080fd5b816020840160208301376000602083830101528093505050509250929050565b60006020828403121561278257600080fd5b5035919050565b60006020828403121561279b57600080fd5b81356121c581612483565b600080600080600080600080610100898b0312156127c357600080fd5b88356127ce81612483565b975060208901356127de81612483565b965060408901356127ee81612483565b955060608901356127fe81612483565b94506080890135935060a0890135925060c089013561281c816125ce565b915060e089013561282c816125ce565b809150509295985092959890939650565b6000806040838503121561285057600080fd5b823561285b816125ce565b9150602083013561286b816125ce565b809150509250929050565b602080825282518282018190526000918401906040840190835b818110156128b75783516001600160a01b0316835260209384019390920191600101612890565b509095945050505050565b60005b838110156128dd5781810151838201526020016128c5565b50506000910152565b600081518084526128fe8160208601602086016128c2565b601f01601f19169290920160200192915050565b6020815260006118c560208301846128e6565b6000806040838503121561293857600080fd5b82359150602083013561286b81612483565b6000806040838503121561295d57600080fd5b82359150602083013560ff8116811461286b57600080fd5b634e487b7160e01b600052603260045260246000fd5b60208082526018908201527f756e6b6e6f776e20636f6e747261637420616464726573730000000000000000604082015260600190565b6000602082840312156129d457600080fd5b81516121c581612483565b6020808252601690820152751e5bdd48185c99481b9bdd08185d5d1a1bdc9a5e995960521b604082015260600190565b81835281816020850137506000828201602090810191909152601f909101601f19169091010190565b6001600160a01b038b811682528a81166020830152898116604083015288811660608301528716608082015261012060a08201819052600090612a7e9083018789612a0f565b60c08301959095525060e081019290925260000b61010090910152979650505050505050565b6001600160a01b0383168152604060208201819052600090612ac8908301846128e6565b949350505050565b602081526000612ac8602083018486612a0f565b600060208284031215612af657600080fd5b81516121c5816123dd565b60008060008060008060c08789031215612b1a57600080fd5b86516020880151604089015160608a015160808b015193995091975095509350612b43816125ce565b60a08801519092506125c081612474565b60008060408385031215612b6757600080fd5b505080516020909101519092909150565b60c081526000612b8c60c083018a8c612a0f565b8281036020840152612b9f81898b612a0f565b604084019790975250506001600160a01b03938416606082015291909216608082015260a00152949350505050565b634e487b7160e01b600052601160045260246000fd5b818103818111156118c8576118c8612bce565b634e487b7160e01b600052603160045260246000fd5b808201808211156118c8576118c8612bce565b600060208284031215612c3257600080fd5b5051919050565b60008251612c4b8184602087016128c2565b919091019291505056fe60a06040526040516105c53803806105c583398101604081905261002291610387565b61002c828261003e565b506001600160a01b0316608052610484565b610047826100fe565b6040516001600160a01b038316907f1cf3b03a6cf19fa2baba4df148e9dcabedea7f8a5c07840e207e5c089be95d3e90600090a28051156100f2576100ed826001600160a01b0316635c60da1b6040518163ffffffff1660e01b8152600401602060405180830381865afa1580156100c3573d6000803e3d6000fd5b505050506040513d601f19601f820116820180604052508101906100e7919061044d565b82610211565b505050565b6100fa610288565b5050565b806001600160a01b03163b60000361013957604051631933b43b60e21b81526001600160a01b03821660048201526024015b60405180910390fd5b807fa3f0ad74e5423aebfd80d3ef4346578335a9a72aeaee59ff6cb3582b35133d5080546001600160a01b0319166001600160a01b0392831617905560408051635c60da1b60e01b81529051600092841691635c60da1b9160048083019260209291908290030181865afa1580156101b5573d6000803e3d6000fd5b505050506040513d601f19601f820116820180604052508101906101d9919061044d565b9050806001600160a01b03163b6000036100fa57604051634c9c8ce360e01b81526001600160a01b0382166004820152602401610130565b6060600080846001600160a01b03168460405161022e9190610468565b600060405180830381855af49150503d8060008114610269576040519150601f19603f3d011682016040523d82523d6000602084013e61026e565b606091505b50909250905061027f8583836102a9565b95945050505050565b34156102a75760405163b398979f60e01b815260040160405180910390fd5b565b6060826102be576102b982610308565b610301565b81511580156102d557506001600160a01b0384163b155b156102fe57604051639996b31560e01b81526001600160a01b0385166004820152602401610130565b50805b9392505050565b8051156103185780518082602001fd5b60405163d6bda27560e01b815260040160405180910390fd5b80516001600160a01b038116811461034857600080fd5b919050565b634e487b7160e01b600052604160045260246000fd5b60005b8381101561037e578181015183820152602001610366565b50506000910152565b6000806040838503121561039a57600080fd5b6103a383610331565b60208401519092506001600160401b038111156103bf57600080fd5b8301601f810185136103d057600080fd5b80516001600160401b038111156103e9576103e961034d565b604051601f8201601f19908116603f011681016001600160401b03811182821017156104175761041761034d565b60405281815282820160200187101561042f57600080fd5b610440826020830160208601610363565b8093505050509250929050565b60006020828403121561045f57600080fd5b61030182610331565b6000825161047a818460208701610363565b9190910192915050565b60805161012761049e6000396000601e01526101276000f3fe6080604052600a600c565b005b60186014601a565b60a0565b565b60007f00000000000000000000000000000000000000000000000000000000000000006001600160a01b0316635c60da1b6040518163ffffffff1660e01b8152600401602060405180830381865afa1580156079573d6000803e3d6000fd5b505050506040513d601f19601f82011682018060405250810190609b919060c3565b905090565b3660008037600080366000845af43d6000803e80801560be573d6000f35b3d6000fd5b60006020828403121560d457600080fd5b81516001600160a01b038116811460ea57600080fd5b939250505056fea2646970667358221220ec26542f844f7280061ddf89bdb737947258f6e949b72c3904bb385b01bda38064736f6c634300081a0033360894a13ba1a3210667c828492db98dca3e2076cc3735a920a3ca505d382bbca2646970667358221220ff0b0b077cf6bdfb5835d7e589a06dbd70478c44742a5e71bc0bc94e9428126164736f6c634300081a0033",
    "linkReferences": {},
    "deployedLinkReferences": {}
}