{
    "_format": "hh-sol-artifact-1",
    "contractName": "CloneFactory",
    "sourceName": "contracts/CloneFactory.sol",
    "abi": [
        {
            "anonymous": false,
            "inputs": [
                {
                    "indexed": false,
                    "internalType": "uint8",
                    "name": "version",
                    "type": "uint8"
                }
            ],
            "name": "Initialized",
            "type": "event"
        },
        {
            "anonymous": false,
            "inputs": [
                {
                    "indexed": true,
                    "internalType": "address",
                    "name": "_address",
                    "type": "address"
                }
            ],
            "name": "clonefactoryContractPurchased",
            "type": "event"
        },
        {
            "anonymous": false,
            "inputs": [
                {
                    "indexed": true,
                    "internalType": "address",
                    "name": "_address",
                    "type": "address"
                },
                {
                    "indexed": false,
                    "internalType": "string",
                    "name": "_pubkey",
                    "type": "string"
                }
            ],
            "name": "contractCreated",
            "type": "event"
        },
        {
            "anonymous": false,
            "inputs": [
                {
                    "indexed": false,
                    "internalType": "address",
                    "name": "_address",
                    "type": "address"
                },
                {
                    "indexed": false,
                    "internalType": "bool",
                    "name": "_isDeleted",
                    "type": "bool"
                }
            ],
            "name": "contractDeleteUpdated",
            "type": "event"
        },
        {
            "anonymous": false,
            "inputs": [
                {
                    "indexed": true,
                    "internalType": "address",
                    "name": "_address",
                    "type": "address"
                }
            ],
            "name": "purchaseInfoUpdated",
            "type": "event"
        },
        {
            "inputs": [],
            "name": "baseImplementation",
            "outputs": [
                {
                    "internalType": "address",
                    "name": "",
                    "type": "address"
                }
            ],
            "stateMutability": "view",
            "type": "function"
        },
        {
            "inputs": [
                {
                    "internalType": "address",
                    "name": "_address",
                    "type": "address"
                }
            ],
            "name": "checkWhitelist",
            "outputs": [
                {
                    "internalType": "bool",
                    "name": "",
                    "type": "bool"
                }
            ],
            "stateMutability": "view",
            "type": "function"
        },
        {
            "inputs": [],
            "name": "getContractList",
            "outputs": [
                {
                    "internalType": "address[]",
                    "name": "",
                    "type": "address[]"
                }
            ],
            "stateMutability": "view",
            "type": "function"
        },
        {
            "inputs": [
                {
                    "internalType": "address",
                    "name": "_baseImplementation",
                    "type": "address"
                },
                {
                    "internalType": "address",
                    "name": "_lumerin",
                    "type": "address"
                },
                {
                    "internalType": "address",
                    "name": "_feeRecipient",
                    "type": "address"
                }
            ],
            "name": "initialize",
            "outputs": [],
            "stateMutability": "nonpayable",
            "type": "function"
        },
        {
            "inputs": [
                {
                    "internalType": "address",
                    "name": "",
                    "type": "address"
                }
            ],
            "name": "isContractDead",
            "outputs": [
                {
                    "internalType": "bool",
                    "name": "",
                    "type": "bool"
                }
            ],
            "stateMutability": "view",
            "type": "function"
        },
        {
            "inputs": [],
            "name": "marketplaceFee",
            "outputs": [
                {
                    "internalType": "uint256",
                    "name": "",
                    "type": "uint256"
                }
            ],
            "stateMutability": "view",
            "type": "function"
        },
        {
            "inputs": [],
            "name": "noMoreWhitelist",
            "outputs": [
                {
                    "internalType": "bool",
                    "name": "",
                    "type": "bool"
                }
            ],
            "stateMutability": "view",
            "type": "function"
        },
        {
            "inputs": [],
            "name": "owner",
            "outputs": [
                {
                    "internalType": "address",
                    "name": "",
                    "type": "address"
                }
            ],
            "stateMutability": "view",
            "type": "function"
        },
        {
            "inputs": [],
            "name": "payMarketplaceFee",
            "outputs": [
                {
                    "internalType": "bool",
                    "name": "",
                    "type": "bool"
                }
            ],
            "stateMutability": "payable",
            "type": "function"
        },
        {
            "inputs": [
                {
                    "internalType": "uint256",
                    "name": "",
                    "type": "uint256"
                }
            ],
            "name": "rentalContracts",
            "outputs": [
                {
                    "internalType": "address",
                    "name": "",
                    "type": "address"
                }
            ],
            "stateMutability": "view",
            "type": "function"
        },
        {
            "inputs": [
                {
                    "internalType": "address",
                    "name": "_address",
                    "type": "address"
                }
            ],
            "name": "setAddToWhitelist",
            "outputs": [],
            "stateMutability": "nonpayable",
            "type": "function"
        },
        {
            "inputs": [
                {
                    "internalType": "address",
                    "name": "_contractAddress",
                    "type": "address"
                },
                {
                    "internalType": "bool",
                    "name": "_isDeleted",
                    "type": "bool"
                }
            ],
            "name": "setContractDeleted",
            "outputs": [],
            "stateMutability": "nonpayable",
            "type": "function"
        },
        {
            "inputs": [
                {
                    "internalType": "uint256",
                    "name": "_price",
                    "type": "uint256"
                },
                {
                    "internalType": "uint256",
                    "name": "_limit",
                    "type": "uint256"
                },
                {
                    "internalType": "uint256",
                    "name": "_speed",
                    "type": "uint256"
                },
                {
                    "internalType": "uint256",
                    "name": "_length",
                    "type": "uint256"
                },
                {
                    "internalType": "address",
                    "name": "_validator",
                    "type": "address"
                },
                {
                    "internalType": "string",
                    "name": "_pubKey",
                    "type": "string"
                }
            ],
            "name": "setCreateNewRentalContract",
            "outputs": [
                {
                    "internalType": "address",
                    "name": "",
                    "type": "address"
                }
            ],
            "stateMutability": "payable",
            "type": "function"
        },
        {
            "inputs": [],
            "name": "setDisableWhitelist",
            "outputs": [],
            "stateMutability": "nonpayable",
            "type": "function"
        },
        {
            "inputs": [
                {
                    "internalType": "uint256",
                    "name": "fee",
                    "type": "uint256"
                },
                {
                    "internalType": "address",
                    "name": "recipient",
                    "type": "address"
                }
            ],
            "name": "setMarketplaceFeeRecipient",
            "outputs": [],
            "stateMutability": "nonpayable",
            "type": "function"
        },
        {
            "inputs": [
                {
                    "internalType": "address",
                    "name": "_contractAddress",
                    "type": "address"
                },
                {
                    "internalType": "string",
                    "name": "_cipherText",
                    "type": "string"
                },
                {
                    "internalType": "uint32",
                    "name": "termsVersion",
                    "type": "uint32"
                }
            ],
            "name": "setPurchaseRentalContract",
            "outputs": [],
            "stateMutability": "payable",
            "type": "function"
        },
        {
            "inputs": [
                {
                    "internalType": "address",
                    "name": "_address",
                    "type": "address"
                }
            ],
            "name": "setRemoveFromWhitelist",
            "outputs": [],
            "stateMutability": "nonpayable",
            "type": "function"
        },
        {
            "inputs": [
                {
                    "internalType": "address",
                    "name": "_contractAddress",
                    "type": "address"
                },
                {
                    "internalType": "uint256",
                    "name": "_price",
                    "type": "uint256"
                },
                {
                    "internalType": "uint256",
                    "name": "_limit",
                    "type": "uint256"
                },
                {
                    "internalType": "uint256",
                    "name": "_speed",
                    "type": "uint256"
                },
                {
                    "internalType": "uint256",
                    "name": "_length",
                    "type": "uint256"
                }
            ],
            "name": "setUpdateContractInformation",
            "outputs": [],
            "stateMutability": "payable",
            "type": "function"
        },
        {
            "inputs": [
                {
                    "internalType": "address",
                    "name": "",
                    "type": "address"
                }
            ],
            "name": "whitelist",
            "outputs": [
                {
                    "internalType": "bool",
                    "name": "",
                    "type": "bool"
                }
            ],
            "stateMutability": "view",
            "type": "function"
        }
    ],
    "bytecode": "0x608060405234801561001057600080fd5b50612292806100206000396000f3fe6080604052600436106200012b5760003560e01c80639b19251a11620000ad578063bd80a1c9116200006c578063bd80a1c91462000328578063c0c53b8b146200035c578063e32e24501462000381578063e80b04b414620003a4578063ee878a4a14620003c957600080fd5b80639b19251a146200027e578063a2ebe74914620002b2578063a762f7f114620002d4578063aafcc02a14620002f9578063b312b94b146200031057600080fd5b80636a16696411620000fa5780636a16696414620001d95780638664aa5114620001f957806386712686146200021e5780638da5cb5b146200023557806399acac8c146200025757600080fd5b80631088f93f1462000130578063164c1976146200014f5780631950c218146200017657806353da0206146200019b575b600080fd5b6200013a620003e0565b60405190151581526020015b60405180910390f35b3480156200015c57600080fd5b50620001746200016e36600462001387565b62000490565b005b3480156200018357600080fd5b506200013a6200019536600462001387565b620004de565b348015620001a857600080fd5b50620001c0620001ba366004620013ae565b6200051b565b6040516001600160a01b03909116815260200162000146565b348015620001e657600080fd5b5060055460405190815260200162000146565b3480156200020657600080fd5b506200017462000218366004620013d7565b62000546565b620001c06200022f36600462001461565b620006da565b3480156200024257600080fd5b50600254620001c0906001600160a01b031681565b3480156200026457600080fd5b506200026f62000932565b604051620001469190620014e4565b3480156200028b57600080fd5b506200013a6200029d36600462001387565b60076020526000908152604090205460ff1681565b348015620002bf57600080fd5b50600154620001c0906001600160a01b031681565b348015620002e157600080fd5b5062000174620002f336600462001387565b6200099a565b620001746200030a36600462001533565b620009eb565b3480156200031d57600080fd5b506200017462000bbb565b3480156200033557600080fd5b506200013a6200034736600462001387565b60086020526000908152604090205460ff1681565b3480156200036957600080fd5b50620001746200037b3660046200157a565b62000bfd565b3480156200038e57600080fd5b506002546200013a90600160a01b900460ff1681565b348015620003b157600080fd5b5062000174620003c3366004620015cc565b62000d75565b62000174620003da36600462001607565b62000dc9565b600554600090341015620004115760405162461bcd60e51b8152600401620004089062001677565b60405180910390fd5b6006546005546040516000926001600160a01b031691908381818185875af1925050503d806000811462000462576040519150601f19603f3d011682016040523d82523d6000602084013e62000467565b606091505b50509050806200048b5760405162461bcd60e51b81526004016200040890620016c4565b905090565b6002546001600160a01b03163314620004bd5760405162461bcd60e51b8152600401620004089062001709565b6001600160a01b03166000908152600760205260409020805460ff19169055565b600254600090600160a01b900460ff1615620004fc57506001919050565b506001600160a01b031660009081526007602052604090205460ff1690565b600381815481106200052c57600080fd5b6000918252602090912001546001600160a01b0316905081565b6001600160a01b03821660009081526004602052604090205460ff16620005815760405162461bcd60e51b8152600401620004089062001739565b6000829050806001600160a01b03166308551a536040518163ffffffff1660e01b8152600401602060405180830381865afa158015620005c5573d6000803e3d6000fd5b505050506040513d601f19601f82011682018060405250810190620005eb919062001770565b6001600160a01b0316336001600160a01b031614806200061557506002546001600160a01b031633145b620006345760405162461bcd60e51b8152600401620004089062001709565b604051630567d91f60e41b815282151560048201526001600160a01b0384169063567d91f090602401600060405180830381600087803b1580156200067857600080fd5b505af11580156200068d573d6000803e3d6000fd5b5050604080516001600160a01b038716815285151560208201527f94706a90834905eb13df4134bd7c40e90c8218fbe9ded8631b8062c7bd4a5a06935001905060405180910390a1505050565b3360009081526007602052604081205460ff1680620007025750600254600160a01b900460ff165b6200076b5760405162461bcd60e51b815260206004820152603260248201527f796f7520617265206e6f7420616e20617070726f7665642073656c6c6572206f6044820152716e2074686973206d61726b6574706c61636560701b606482015260840162000408565b600554341015620007905760405162461bcd60e51b8152600401620004089062001677565b60006200079c620003e0565b905080620007be5760405162461bcd60e51b81526004016200040890620016c4565b60008054604051637f31d93f60e11b91620007fe918d918d918d918d9133916201000090046001600160a01b03169030908f908f908f90602401620017b9565b60408051601f198184030181529181526020820180516001600160e01b03166001600160e01b03199094169390931790925260015491519092506000916001600160a01b0316908390620008529062001360565b6200085f92919062001826565b604051809103906000f0801580156200087c573d6000803e3d6000fd5b506003805460018082019092557fc2575a0e9e593c00f959f8c92f12db2869c3395a3b0502d05e2516446f71f85b0180546001600160a01b0319166001600160a01b03841690811790915560008181526004602052604090819020805460ff1916909317909255905191925082917f1b08e1646439b7521399d47f93ab6b1ebc92803e155d0b2f2ad2d4702a050804906200091b908a908a9062001886565b60405180910390a29b9a5050505050505050505050565b6060600060038054806020026020016040519081016040528092919081815260200182805480156200098e57602002820191906000526020600020905b81546001600160a01b031681526001909101906020018083116200096f575b50939695505050505050565b6002546001600160a01b03163314620009c75760405162461bcd60e51b8152600401620004089062001709565b6001600160a01b03166000908152600760205260409020805460ff19166001179055565b60055434101562000a105760405162461bcd60e51b8152600401620004089062001677565b6001600160a01b03851660009081526004602052604090205460ff1662000a4b5760405162461bcd60e51b8152600401620004089062001739565b6000859050806001600160a01b03166308551a536040518163ffffffff1660e01b8152600401602060405180830381865afa15801562000a8f573d6000803e3d6000fd5b505050506040513d601f19601f8201168201806040525081019062000ab5919062001770565b6001600160a01b0316336001600160a01b03161462000ae85760405162461bcd60e51b8152600401620004089062001709565b600062000af4620003e0565b90508062000b165760405162461bcd60e51b81526004016200040890620016c4565b604051637f47427d60e11b8152600481018790526024810186905260448101859052606481018490526001600160a01b0388169063fe8e84fa90608401600060405180830381600087803b15801562000b6e57600080fd5b505af115801562000b83573d6000803e3d6000fd5b50506040513092507f7865b2bbe0087425b223d9cf674d8d5328e31546b364da98c36db21193c17d559150600090a250505050505050565b6002546001600160a01b0316331462000be85760405162461bcd60e51b8152600401620004089062001709565b6002805460ff60a01b1916600160a01b179055565b600054610100900460ff161580801562000c1e5750600054600160ff909116105b8062000c3a5750303b15801562000c3a575060005460ff166001145b62000c9f5760405162461bcd60e51b815260206004820152602e60248201527f496e697469616c697a61626c653a20636f6e747261637420697320616c72656160448201526d191e481a5b9a5d1a585b1a5e995960921b606482015260840162000408565b6000805460ff19166001179055801562000cc3576000805461ff0019166101001790555b600080546001600160a01b03808616620100000262010000600160b01b031990921691909117909155600180548683166001600160a01b0319918216179091556002805482163317905565b5e620f480006005556006805492851692909116919091179055801562000d6f576000805461ff0019169055604051600181527f7f26b83ff96e1f2b6a682f133852f6798a09c465da95921460cefb38474024989060200160405180910390a15b50505050565b6002546001600160a01b0316331462000da25760405162461bcd60e51b8152600401620004089062001709565b600591909155600680546001600160a01b0319166001600160a01b03909216919091179055565b60055434101562000dee5760405162461bcd60e51b8152600401620004089062001677565b6001600160a01b03841660009081526004602052604090205460ff1662000e295760405162461bcd60e51b8152600401620004089062001739565b6000849050806001600160a01b031663d7efb6b76040518163ffffffff1660e01b8152600401602060405180830381865afa15801562000e6d573d6000803e3d6000fd5b505050506040513d601f19601f8201168201806040525081019062000e939190620018a4565b1562000ee25760405162461bcd60e51b815260206004820181905260248201527f63616e6e6f742070757263686173652064656c6574656420636f6e7472616374604482015260640162000408565b336001600160a01b0316816001600160a01b03166308551a536040518163ffffffff1660e01b8152600401602060405180830381865afa15801562000f2b573d6000803e3d6000fd5b505050506040513d601f19601f8201168201806040525081019062000f51919062001770565b6001600160a01b03160362000fb35760405162461bcd60e51b815260206004820152602160248201527f63616e6e6f7420707572636861736520796f7572206f776e20636f6e747261636044820152601d60fa1b606482015260840162000408565b600080826001600160a01b031663d50256256040518163ffffffff1660e01b815260040160a060405180830381865afa15801562000ff5573d6000803e3d6000fd5b505050506040513d601f19601f820116820180604052508101906200101b9190620018c4565b945050505091508363ffffffff168163ffffffff1614620010945760405162461bcd60e51b815260206004820152602c60248201527f63616e6e6f742070757263686173652c20636f6e7472616374207465726d732060448201526b1dd95c99481d5c19185d195960a21b606482015260840162000408565b6000620010a0620003e0565b905080620011005760405162461bcd60e51b815260206004820152602660248201527f4661696c656420746f20706179206d61726b6574706c6163652070757263686160448201526573652066656560d01b606482015260840162000408565b60008054604051636eb1769f60e11b81523360048201523060248201528592916201000090046001600160a01b03169063dd62ed3e90604401602060405180830381865afa15801562001157573d6000803e3d6000fd5b505050506040513d601f19601f820116820180604052508101906200117d919062001914565b905081811015620011e05760405162461bcd60e51b815260206004820152602660248201527f6e6f7420617574686f72697a656420746f207370656e642072657175697265646044820152652066756e647360d01b606482015260840162000408565b600080546040516323b872dd60e01b81523360048201526001600160a01b038d811660248301526044820189905262010000909204909116906323b872dd906064016020604051808303816000875af115801562001242573d6000803e3d6000fd5b505050506040513d601f19601f82011682018060405250810190620012689190620018a4565b905080620012b95760405162461bcd60e51b815260206004820152601760248201527f6c756d6572696e207472616e73666572206661696c6564000000000000000000604482015260640162000408565b604051636ee58df960e11b81526001600160a01b0388169063ddcb1bf290620012eb908d908d9033906004016200192e565b600060405180830381600087803b1580156200130657600080fd5b505af11580156200131b573d6000803e3d6000fd5b50506040516001600160a01b038e1692507fbf1df41b401a1bb8d9bd03fb6fe59b6ced0e61a76cdd3d3d511b4d06eb2cdebe9150600090a25050505050505050505050565b610900806200195d83390190565b6001600160a01b03811681146200138457600080fd5b50565b6000602082840312156200139a57600080fd5b8135620013a7816200136e565b9392505050565b600060208284031215620013c157600080fd5b5035919050565b80151581146200138457600080fd5b60008060408385031215620013eb57600080fd5b8235620013f8816200136e565b915060208301356200140a81620013c8565b809150509250929050565b60008083601f8401126200142857600080fd5b50813567ffffffffffffffff8111156200144157600080fd5b6020830191508360208285010111156200145a57600080fd5b9250929050565b600080600080600080600060c0888a0312156200147d57600080fd5b873596506020880135955060408801359450606088013593506080880135620014a6816200136e565b925060a088013567ffffffffffffffff811115620014c357600080fd5b620014d18a828b0162001415565b989b979a50959850939692959293505050565b6020808252825182820181905260009190848201906040850190845b81811015620015275783516001600160a01b03168352928401929184019160010162001500565b50909695505050505050565b600080600080600060a086880312156200154c57600080fd5b853562001559816200136e565b97602087013597506040870135966060810135965060800135945092505050565b6000806000606084860312156200159057600080fd5b83356200159d816200136e565b92506020840135620015af816200136e565b91506040840135620015c1816200136e565b809150509250925092565b60008060408385031215620015e057600080fd5b8235915060208301356200140a816200136e565b63ffffffff811681146200138457600080fd5b600080600080606085870312156200161e57600080fd5b84356200162b816200136e565b9350602085013567ffffffffffffffff8111156200164857600080fd5b620016568782880162001415565b90945092505060408501356200166c81620015f4565b939692955090935050565b6020808252602d908201527f496e73756666696369656e74204554482070726f766964656420666f72206d6160408201526c726b6574706c6163652066656560981b606082015260800190565b60208082526025908201527f4661696c656420746f20706179206d61726b6574706c616365206c697374696e604082015264672066656560d81b606082015260800190565b6020808252601690820152751e5bdd48185c99481b9bdd08185d5d1a1bdc9a5e995960521b604082015260600190565b60208082526018908201527f756e6b6e6f776e20636f6e747261637420616464726573730000000000000000604082015260600190565b6000602082840312156200178357600080fd5b8151620013a7816200136e565b81835281816020850137506000828201602090810191909152601f909101601f19169091010190565b8a8152602081018a905260408101899052606081018890526001600160a01b03878116608083015286811660a083015285811660c0830152841660e0820152610120610100820181905260009062001815838201858762001790565b9d9c50505050505050505050505050565b60018060a01b038316815260006020604081840152835180604085015260005b81811015620018645785810183015185820160600152820162001846565b506000606082860101526060601f19601f830116850101925050509392505050565b6020815260006200189c60208301848662001790565b949350505050565b600060208284031215620018b757600080fd5b8151620013a781620013c8565b600080600080600060a08688031215620018dd57600080fd5b8551945060208601519350604086015192506060860151915060808601516200190681620015f4565b809150509295509295909350565b6000602082840312156200192757600080fd5b5051919050565b6040815260006200194460408301858762001790565b905060018060a01b038316602083015294935050505056fe60806040526040516109003803806109008339810160408190526100229161045b565b61002e82826000610035565b5050610585565b61003e83610100565b6040516001600160a01b038416907f1cf3b03a6cf19fa2baba4df148e9dcabedea7f8a5c07840e207e5c089be95d3e90600090a260008251118061007f5750805b156100fb576100f9836001600160a01b0316635c60da1b6040518163ffffffff1660e01b8152600401602060405180830381865afa1580156100c5573d6000803e3d6000fd5b505050506040513d601f19601f820116820180604052508101906100e9919061051b565b836102a360201b6100291760201c565b505b505050565b610113816102cf60201b6100551760201c565b6101725760405162461bcd60e51b815260206004820152602560248201527f455243313936373a206e657720626561636f6e206973206e6f74206120636f6e6044820152641d1c9858dd60da1b60648201526084015b60405180910390fd5b6101e6816001600160a01b0316635c60da1b6040518163ffffffff1660e01b8152600401602060405180830381865afa1580156101b3573d6000803e3d6000fd5b505050506040513d601f19601f820116820180604052508101906101d7919061051b565b6102cf60201b6100551760201c565b61024b5760405162461bcd60e51b815260206004820152603060248201527f455243313936373a20626561636f6e20696d706c656d656e746174696f6e206960448201526f1cc81b9bdd08184818dbdb9d1c9858dd60821b6064820152608401610169565b806102827fa3f0ad74e5423aebfd80d3ef4346578335a9a72aeaee59ff6cb3582b35133d5060001b6102de60201b6100641760201c565b80546001600160a01b0319166001600160a01b039290921691909117905550565b60606102c883836040518060600160405280602781526020016108d9602791396102e1565b9392505050565b6001600160a01b03163b151590565b90565b6060600080856001600160a01b0316856040516102fe9190610536565b600060405180830381855af49150503d8060008114610339576040519150601f19603f3d011682016040523d82523d6000602084013e61033e565b606091505b5090925090506103508683838761035a565b9695505050505050565b606083156103c95782516000036103c2576001600160a01b0385163b6103c25760405162461bcd60e51b815260206004820152601d60248201527f416464726573733a2063616c6c20746f206e6f6e2d636f6e74726163740000006044820152606401610169565b50816103d3565b6103d383836103db565b949350505050565b8151156103eb5781518083602001fd5b8060405162461bcd60e51b81526004016101699190610552565b80516001600160a01b038116811461041c57600080fd5b919050565b634e487b7160e01b600052604160045260246000fd5b60005b8381101561045257818101518382015260200161043a565b50506000910152565b6000806040838503121561046e57600080fd5b61047783610405565b60208401519092506001600160401b038082111561049457600080fd5b818501915085601f8301126104a857600080fd5b8151818111156104ba576104ba610421565b604051601f8201601f19908116603f011681019083821181831017156104e2576104e2610421565b816040528281528860208487010111156104fb57600080fd5b61050c836020830160208801610437565b80955050505050509250929050565b60006020828403121561052d57600080fd5b6102c882610405565b60008251610548818460208701610437565b9190910192915050565b6020815260008251806020840152610571816040850160208701610437565b601f01601f19169190910160400192915050565b610345806105946000396000f3fe60806040523661001357610011610017565b005b6100115b610027610022610067565b610100565b565b606061004e83836040518060600160405280602781526020016102e960279139610124565b9392505050565b6001600160a01b03163b151590565b90565b600061009a7fa3f0ad74e5423aebfd80d3ef4346578335a9a72aeaee59ff6cb3582b35133d50546001600160a01b031690565b6001600160a01b0316635c60da1b6040518163ffffffff1660e01b8152600401602060405180830381865afa1580156100d7573d6000803e3d6000fd5b505050506040513d601f19601f820116820180604052508101906100fb919061024c565b905090565b3660008037600080366000845af43d6000803e80801561011f573d6000f35b3d6000fd5b6060600080856001600160a01b0316856040516101419190610299565b600060405180830381855af49150503d806000811461017c576040519150601f19603f3d011682016040523d82523d6000602084013e610181565b606091505b50915091506101928683838761019c565b9695505050505050565b60608315610210578251600003610209576001600160a01b0385163b6102095760405162461bcd60e51b815260206004820152601d60248201527f416464726573733a2063616c6c20746f206e6f6e2d636f6e747261637400000060448201526064015b60405180910390fd5b508161021a565b61021a8383610222565b949350505050565b8151156102325781518083602001fd5b8060405162461bcd60e51b815260040161020091906102b5565b60006020828403121561025e57600080fd5b81516001600160a01b038116811461004e57600080fd5b60005b83811015610290578181015183820152602001610278565b50506000910152565b600082516102ab818460208701610275565b9190910192915050565b60208152600082518060208401526102d4816040850160208701610275565b601f01601f1916919091016040019291505056fe416464726573733a206c6f772d6c6576656c2064656c65676174652063616c6c206661696c6564a2646970667358221220d9a3f265ad3bf9a517efea13cdf18fed440218e98ffd0e7cb456c7072e0769d464736f6c63430008120033416464726573733a206c6f772d6c6576656c2064656c65676174652063616c6c206661696c6564a264697066735822122002cf1b9c951f47292304c71970b0327a063999ada55724e37c83abad3123401664736f6c63430008120033",
    "linkReferences": {},
    "deployedLinkReferences": {}
}