{
    "_format": "hh-sol-artifact-1",
    "contractName": "CloneFactory",
    "sourceName": "contracts/CloneFactory.sol",
    "abi": [
        {
            "anonymous": false,
            "inputs": [
                {
                    "indexed": false,
                    "internalType": "uint8",
                    "name": "version",
                    "type": "uint8"
                }
            ],
            "name": "Initialized",
            "type": "event"
        },
        {
            "anonymous": false,
            "inputs": [
                {
                    "indexed": true,
                    "internalType": "address",
                    "name": "_address",
                    "type": "address"
                },
                {
                    "indexed": true,
                    "internalType": "address",
                    "name": "_validator",
                    "type": "address"
                }
            ],
            "name": "clonefactoryContractPurchased",
            "type": "event"
        },
        {
            "anonymous": false,
            "inputs": [
                {
                    "indexed": true,
                    "internalType": "address",
                    "name": "_address",
                    "type": "address"
                },
                {
                    "indexed": false,
                    "internalType": "string",
                    "name": "_pubkey",
                    "type": "string"
                }
            ],
            "name": "contractCreated",
            "type": "event"
        },
        {
            "anonymous": false,
            "inputs": [
                {
                    "indexed": false,
                    "internalType": "address",
                    "name": "_address",
                    "type": "address"
                },
                {
                    "indexed": false,
                    "internalType": "bool",
                    "name": "_isDeleted",
                    "type": "bool"
                }
            ],
            "name": "contractDeleteUpdated",
            "type": "event"
        },
        {
            "anonymous": false,
            "inputs": [
                {
                    "indexed": true,
                    "internalType": "address",
                    "name": "_address",
                    "type": "address"
                }
            ],
            "name": "purchaseInfoUpdated",
            "type": "event"
        },
        {
            "inputs": [],
            "name": "VALIDATOR_FEE_DECIMALS",
            "outputs": [
                {
                    "internalType": "uint8",
                    "name": "",
                    "type": "uint8"
                }
            ],
            "stateMutability": "view",
            "type": "function"
        },
        {
            "inputs": [],
            "name": "baseImplementation",
            "outputs": [
                {
                    "internalType": "address",
                    "name": "",
                    "type": "address"
                }
            ],
            "stateMutability": "view",
            "type": "function"
        },
        {
            "inputs": [
                {
                    "internalType": "address",
                    "name": "_address",
                    "type": "address"
                }
            ],
            "name": "checkWhitelist",
            "outputs": [
                {
                    "internalType": "bool",
                    "name": "",
                    "type": "bool"
                }
            ],
            "stateMutability": "view",
            "type": "function"
        },
        {
            "inputs": [],
            "name": "feeToken",
            "outputs": [
                {
                    "internalType": "contract IERC20",
                    "name": "",
                    "type": "address"
                }
            ],
            "stateMutability": "view",
            "type": "function"
        },
        {
            "inputs": [],
            "name": "getContractList",
            "outputs": [
                {
                    "internalType": "address[]",
                    "name": "",
                    "type": "address[]"
                }
            ],
            "stateMutability": "view",
            "type": "function"
        },
        {
            "inputs": [],
            "name": "hashrateOracle",
            "outputs": [
                {
                    "internalType": "address",
                    "name": "",
                    "type": "address"
                }
            ],
            "stateMutability": "view",
            "type": "function"
        },
        {
            "inputs": [
                {
                    "internalType": "address",
                    "name": "_baseImplementation",
                    "type": "address"
                },
                {
                    "internalType": "address",
                    "name": "_hashrateOracle",
                    "type": "address"
                },
                {
                    "internalType": "address",
                    "name": "_paymentToken",
                    "type": "address"
                },
                {
                    "internalType": "address",
                    "name": "_feeToken",
                    "type": "address"
                },
                {
                    "internalType": "uint256",
                    "name": "_validatorFeeRateScaled",
                    "type": "uint256"
                }
            ],
            "name": "initialize",
            "outputs": [],
            "stateMutability": "nonpayable",
            "type": "function"
        },
        {
            "inputs": [
                {
                    "internalType": "address",
                    "name": "",
                    "type": "address"
                }
            ],
            "name": "isContractDead",
            "outputs": [
                {
                    "internalType": "bool",
                    "name": "",
                    "type": "bool"
                }
            ],
            "stateMutability": "view",
            "type": "function"
        },
        {
            "inputs": [],
            "name": "noMoreWhitelist",
            "outputs": [
                {
                    "internalType": "bool",
                    "name": "",
                    "type": "bool"
                }
            ],
            "stateMutability": "view",
            "type": "function"
        },
        {
            "inputs": [],
            "name": "owner",
            "outputs": [
                {
                    "internalType": "address",
                    "name": "",
                    "type": "address"
                }
            ],
            "stateMutability": "view",
            "type": "function"
        },
        {
            "inputs": [],
            "name": "paymentToken",
            "outputs": [
                {
                    "internalType": "contract IERC20",
                    "name": "",
                    "type": "address"
                }
            ],
            "stateMutability": "view",
            "type": "function"
        },
        {
            "inputs": [
                {
                    "internalType": "uint256",
                    "name": "",
                    "type": "uint256"
                }
            ],
            "name": "rentalContracts",
            "outputs": [
                {
                    "internalType": "address",
                    "name": "",
                    "type": "address"
                }
            ],
            "stateMutability": "view",
            "type": "function"
        },
        {
            "inputs": [
                {
                    "internalType": "address",
                    "name": "_address",
                    "type": "address"
                }
            ],
            "name": "setAddToWhitelist",
            "outputs": [],
            "stateMutability": "nonpayable",
            "type": "function"
        },
        {
            "inputs": [
                {
                    "internalType": "address",
                    "name": "_contractAddress",
                    "type": "address"
                },
                {
                    "internalType": "bool",
                    "name": "_isDeleted",
                    "type": "bool"
                }
            ],
            "name": "setContractDeleted",
            "outputs": [],
            "stateMutability": "nonpayable",
            "type": "function"
        },
        {
            "inputs": [
                {
                    "internalType": "uint256",
                    "name": "",
                    "type": "uint256"
                },
                {
                    "internalType": "uint256",
                    "name": "",
                    "type": "uint256"
                },
                {
                    "internalType": "uint256",
                    "name": "_speed",
                    "type": "uint256"
                },
                {
                    "internalType": "uint256",
                    "name": "_length",
                    "type": "uint256"
                },
                {
                    "internalType": "int8",
                    "name": "_profitTarget",
                    "type": "int8"
                },
                {
                    "internalType": "address",
                    "name": "",
                    "type": "address"
                },
                {
                    "internalType": "string",
                    "name": "_pubKey",
                    "type": "string"
                }
            ],
            "name": "setCreateNewRentalContractV2",
            "outputs": [
                {
                    "internalType": "address",
                    "name": "",
                    "type": "address"
                }
            ],
            "stateMutability": "payable",
            "type": "function"
        },
        {
            "inputs": [],
            "name": "setDisableWhitelist",
            "outputs": [],
            "stateMutability": "nonpayable",
            "type": "function"
        },
        {
            "inputs": [
                {
                    "internalType": "address",
                    "name": "_contractAddress",
                    "type": "address"
                },
                {
                    "internalType": "address",
                    "name": "_validatorAddress",
                    "type": "address"
                },
                {
                    "internalType": "string",
                    "name": "_encrValidatorURL",
                    "type": "string"
                },
                {
                    "internalType": "string",
                    "name": "_encrDestURL",
                    "type": "string"
                },
                {
                    "internalType": "uint32",
                    "name": "termsVersion",
                    "type": "uint32"
                }
            ],
            "name": "setPurchaseRentalContractV2",
            "outputs": [],
            "stateMutability": "payable",
            "type": "function"
        },
        {
            "inputs": [
                {
                    "internalType": "address",
                    "name": "_address",
                    "type": "address"
                }
            ],
            "name": "setRemoveFromWhitelist",
            "outputs": [],
            "stateMutability": "nonpayable",
            "type": "function"
        },
        {
            "inputs": [
                {
                    "internalType": "address",
                    "name": "_contractAddress",
                    "type": "address"
                },
                {
                    "internalType": "uint256",
                    "name": "",
                    "type": "uint256"
                },
                {
                    "internalType": "uint256",
                    "name": "",
                    "type": "uint256"
                },
                {
                    "internalType": "uint256",
                    "name": "_speed",
                    "type": "uint256"
                },
                {
                    "internalType": "uint256",
                    "name": "_length",
                    "type": "uint256"
                },
                {
                    "internalType": "int8",
                    "name": "_profitTarget",
                    "type": "int8"
                }
            ],
            "name": "setUpdateContractInformationV2",
            "outputs": [],
            "stateMutability": "nonpayable",
            "type": "function"
        },
        {
            "inputs": [
                {
                    "internalType": "uint256",
                    "name": "_validatorFeeRateScaled",
                    "type": "uint256"
                }
            ],
            "name": "setValidatorFeeRate",
            "outputs": [],
            "stateMutability": "nonpayable",
            "type": "function"
        },
        {
            "inputs": [],
            "name": "validatorFeeRateScaled",
            "outputs": [
                {
                    "internalType": "uint256",
                    "name": "",
                    "type": "uint256"
                }
            ],
            "stateMutability": "view",
            "type": "function"
        },
        {
            "inputs": [
                {
                    "internalType": "address",
                    "name": "",
                    "type": "address"
                }
            ],
            "name": "whitelist",
            "outputs": [
                {
                    "internalType": "bool",
                    "name": "",
                    "type": "bool"
                }
            ],
            "stateMutability": "view",
            "type": "function"
        }
    ],
    "bytecode": "0x608060405234801561001057600080fd5b506122d7806100206000396000f3fe6080604052600436106200014f5760003560e01c806393feb7bd11620000b9578063a762f7f11162000078578063a762f7f114620003ca578063b312b94b14620003ef578063bd80a1c91462000407578063e32e2450146200043b578063f7013ef6146200045e578063f87c68b9146200048357600080fd5b806393feb7bd146200030157806399acac8c14620003265780639b19251a146200034d5780639e3a9bb81462000381578063a2ebe74914620003a857600080fd5b80633af4158f11620001125780633af4158f146200023257806353da02061462000249578063647846a5146200026e5780637cbcd50d14620002905780638664aa5114620002ba5780638da5cb5b14620002df57600080fd5b8063164c197614620001545780631950c218146200017b5780632e1e8a9314620001b55780633013ce2914620001e55780633a6738b2146200020d575b600080fd5b3480156200016157600080fd5b50620001796200017336600462001599565b620004a5565b005b3480156200018857600080fd5b50620001a06200019a36600462001599565b620004fc565b60405190151581526020015b60405180910390f35b620001cc620001c63660046200161c565b62000539565b6040516001600160a01b039091168152602001620001ac565b348015620001f257600080fd5b50600054620001cc906201000090046001600160a01b031681565b3480156200021a57600080fd5b50620001796200022c366004620016b3565b620005e8565b620001796200024336600462001729565b620005fe565b3480156200025657600080fd5b50620001cc62000268366004620017df565b62000680565b3480156200027b57600080fd5b50600154620001cc906001600160a01b031681565b3480156200029d57600080fd5b50620002a7601281565b60405160ff9091168152602001620001ac565b348015620002c757600080fd5b5062000179620002d936600462001808565b620006ab565b348015620002ec57600080fd5b50600354620001cc906001600160a01b031681565b3480156200030e57600080fd5b506200017962000320366004620017df565b6200083f565b3480156200033357600080fd5b506200033e62000871565b604051620001ac919062001846565b3480156200035a57600080fd5b50620001a06200036c36600462001599565b60076020526000908152604090205460ff1681565b3480156200038e57600080fd5b506200039960095481565b604051908152602001620001ac565b348015620003b557600080fd5b50600254620001cc906001600160a01b031681565b348015620003d757600080fd5b5062000179620003e936600462001599565b620008d5565b348015620003fc57600080fd5b506200017962000926565b3480156200041457600080fd5b50620001a06200042636600462001599565b60086020526000908152604090205460ff1681565b3480156200044857600080fd5b50600454620001a090600160a01b900460ff1681565b3480156200046b57600080fd5b50620001796200047d36600462001895565b62000968565b3480156200049057600080fd5b50600454620001cc906001600160a01b031681565b6003546001600160a01b03163314620004db5760405162461bcd60e51b8152600401620004d29062001902565b60405180910390fd5b6001600160a01b03166000908152600760205260409020805460ff19169055565b600454600090600160a01b900460ff16156200051a57506001919050565b506001600160a01b031660009081526007602052604090205460ff1690565b3360009081526007602052604081205460ff1680620005615750600454600160a01b900460ff165b620005ca5760405162461bcd60e51b815260206004820152603260248201527f796f7520617265206e6f7420616e20617070726f7665642073656c6c6572206f6044820152716e2074686973206d61726b6574706c61636560701b6064820152608401620004d2565b620005db8787876000878762000aea565b9998505050505050505050565b620005f68684848462000c8b565b505050505050565b62000677878787878080601f01602080910402602001604051908101604052809392919081815260200183838082843760009201919091525050604080516020601f8b01819004810282018101909252898152925089915088908190840183828082843760009201919091525088925062000e02915050565b50505050505050565b600581815481106200069157600080fd5b6000918252602090912001546001600160a01b0316905081565b6001600160a01b03821660009081526006602052604090205460ff16620006e65760405162461bcd60e51b8152600401620004d29062001932565b6000829050806001600160a01b03166308551a536040518163ffffffff1660e01b8152600401602060405180830381865afa1580156200072a573d6000803e3d6000fd5b505050506040513d601f19601f8201168201806040525081019062000750919062001969565b6001600160a01b0316336001600160a01b031614806200077a57506003546001600160a01b031633145b620007995760405162461bcd60e51b8152600401620004d29062001902565b604051630567d91f60e41b815282151560048201526001600160a01b0384169063567d91f090602401600060405180830381600087803b158015620007dd57600080fd5b505af1158015620007f2573d6000803e3d6000fd5b5050604080516001600160a01b038716815285151560208201527f94706a90834905eb13df4134bd7c40e90c8218fbe9ded8631b8062c7bd4a5a06935001905060405180910390a1505050565b6003546001600160a01b031633146200086c5760405162461bcd60e51b8152600401620004d29062001902565b600955565b60606005805480602002602001604051908101604052809291908181526020018280548015620008cb57602002820191906000526020600020905b81546001600160a01b03168152600190910190602001808311620008ac575b5050505050905090565b6003546001600160a01b03163314620009025760405162461bcd60e51b8152600401620004d29062001902565b6001600160a01b03166000908152600760205260409020805460ff19166001179055565b6003546001600160a01b03163314620009535760405162461bcd60e51b8152600401620004d29062001902565b6004805460ff60a01b1916600160a01b179055565b600054610100900460ff1615808015620009895750600054600160ff909116105b80620009a55750303b158015620009a5575060005460ff166001145b62000a0a5760405162461bcd60e51b815260206004820152602e60248201527f496e697469616c697a61626c653a20636f6e747261637420697320616c72656160448201526d191e481a5b9a5d1a585b1a5e995960921b6064820152608401620004d2565b6000805460ff19166001179055801562000a2e576000805461ff0019166101001790555b600080546001600160a01b03808716620100000262010000600160b01b031990921691909117909155600180548583166001600160a01b031991821617909155600480548884169083161790556002805492891692821692909217909155600380549091163317905560098290558015620005f6576000805461ff0019169055604051600181527f7f26b83ff96e1f2b6a682f133852f6798a09c465da95921460cefb38474024989060200160405180910390a1505050505050565b600080633988a0d860e01b30600460009054906101000a90046001600160a01b0316600060029054906101000a90046001600160a01b0316600160009054906101000a90046001600160a01b03163389898f8f8f60405160240162000b599a99989796959493929190620019b2565b60408051601f198184030181529181526020820180516001600160e01b03166001600160e01b03199094169390931790925260025491519092506000916001600160a01b031690839062000bad9062001572565b62000bba92919062001a75565b604051809103906000f08015801562000bd7573d6000803e3d6000fd5b506005805460018082019092557f036b6384b5eca791c62761152d0c79bb0604c104a5fb6f4eb0703f3154bb3db00180546001600160a01b0319166001600160a01b03841690811790915560008181526006602052604090819020805460ff1916909317909255905191925082917f1b08e1646439b7521399d47f93ab6b1ebc92803e155d0b2f2ad2d4702a0508049062000c76908990899062001a9b565b60405180910390a29998505050505050505050565b6001600160a01b03841660009081526006602052604090205460ff1662000cc65760405162461bcd60e51b8152600401620004d29062001932565b6000849050806001600160a01b03166308551a536040518163ffffffff1660e01b8152600401602060405180830381865afa15801562000d0a573d6000803e3d6000fd5b505050506040513d601f19601f8201168201806040525081019062000d30919062001969565b6001600160a01b0316336001600160a01b03161462000d635760405162461bcd60e51b8152600401620004d29062001902565b604051631c7cf3d560e21b81526004810185905260248101849052600083900b60448201526001600160a01b038616906371f3cf5490606401600060405180830381600087803b15801562000db757600080fd5b505af115801562000dcc573d6000803e3d6000fd5b50506040513092507f7865b2bbe0087425b223d9cf674d8d5328e31546b364da98c36db21193c17d559150600090a25050505050565b6001600160a01b03851660009081526006602052604090205460ff1662000e3d5760405162461bcd60e51b8152600401620004d29062001932565b6000859050806001600160a01b031663d7efb6b76040518163ffffffff1660e01b8152600401602060405180830381865afa15801562000e81573d6000803e3d6000fd5b505050506040513d601f19601f8201168201806040525081019062000ea7919062001ab1565b1562000ef65760405162461bcd60e51b815260206004820181905260248201527f63616e6e6f742070757263686173652064656c6574656420636f6e74726163746044820152606401620004d2565b336001600160a01b0316816001600160a01b03166308551a536040518163ffffffff1660e01b8152600401602060405180830381865afa15801562000f3f573d6000803e3d6000fd5b505050506040513d601f19601f8201168201806040525081019062000f65919062001969565b6001600160a01b03160362000fc75760405162461bcd60e51b815260206004820152602160248201527f63616e6e6f7420707572636861736520796f7572206f776e20636f6e747261636044820152601d60fa1b6064820152608401620004d2565b6000816001600160a01b031663a4e275666040518163ffffffff1660e01b815260040160c060405180830381865afa15801562001008573d6000803e3d6000fd5b505050506040513d601f19601f820116820180604052508101906200102e919062001ad1565b509450505063ffffffff83166000039150620010b3905057816001600160a01b031663d50256256040518163ffffffff1660e01b815260040160c060405180830381865afa15801562001085573d6000803e3d6000fd5b505050506040513d601f19601f82011682018060405250810190620010ab919062001ad1565b509450505050505b8263ffffffff168163ffffffff1614620011255760405162461bcd60e51b815260206004820152602c60248201527f63616e6e6f742070757263686173652c20636f6e7472616374207465726d732060448201526b1dd95c99481d5c19185d195960a21b6064820152608401620004d2565b600080836001600160a01b03166310ad14626040518163ffffffff1660e01b81526004016040805180830381865afa15801562001166573d6000803e3d6000fd5b505050506040513d601f19601f820116820180604052508101906200118c919062001b27565b6000549193509150620011b1906201000090046001600160a01b0316338b856200128c565b6001600160a01b03881615620011db57600154620011db906001600160a01b0316338b846200128c565b836001600160a01b0316636a3df6eb888885338d6009546040518763ffffffff1660e01b8152600401620012159695949392919062001b4c565b600060405180830381600087803b1580156200123057600080fd5b505af115801562001245573d6000803e3d6000fd5b50506040516001600160a01b03808c1693508c1691507fff1dec24325264c678c99ba82c9b203272dc942010bfb7941b47a7291788475390600090a3505050505050505050565b604080516001600160a01b0385811660248301528416604482015260648082018490528251808303909101815260849091019091526020810180516001600160e01b03166323b872dd60e01b179052620012e8908590620012ee565b50505050565b600062001345826040518060400160405280602081526020017f5361666545524332303a206c6f772d6c6576656c2063616c6c206661696c6564815250856001600160a01b0316620013cf9092919063ffffffff16565b90508051600014806200136957508080602001905181019062001369919062001ab1565b620013ca5760405162461bcd60e51b815260206004820152602a60248201527f5361666545524332303a204552433230206f7065726174696f6e20646964206e6044820152691bdd081cdd58d8d9595960b21b6064820152608401620004d2565b505050565b6060620013e08484600085620013e8565b949350505050565b6060824710156200144b5760405162461bcd60e51b815260206004820152602660248201527f416464726573733a20696e73756666696369656e742062616c616e636520666f6044820152651c8818d85b1b60d21b6064820152608401620004d2565b600080866001600160a01b0316858760405162001469919062001ba2565b60006040518083038185875af1925050503d8060008114620014a8576040519150601f19603f3d011682016040523d82523d6000602084013e620014ad565b606091505b5091509150620014c087838387620014cb565b979650505050505050565b606083156200153f57825160000362001537576001600160a01b0385163b620015375760405162461bcd60e51b815260206004820152601d60248201527f416464726573733a2063616c6c20746f206e6f6e2d636f6e74726163740000006044820152606401620004d2565b5081620013e0565b620013e08383815115620015565781518083602001fd5b8060405162461bcd60e51b8152600401620004d2919062001bc0565b6106cc8062001bd683390190565b6001600160a01b03811681146200159657600080fd5b50565b600060208284031215620015ac57600080fd5b8135620015b98162001580565b9392505050565b8060000b81146200159657600080fd5b60008083601f840112620015e357600080fd5b50813567ffffffffffffffff811115620015fc57600080fd5b6020830191508360208285010111156200161557600080fd5b9250929050565b60008060008060008060008060e0898b0312156200163957600080fd5b8835975060208901359650604089013595506060890135945060808901356200166281620015c0565b935060a0890135620016748162001580565b925060c089013567ffffffffffffffff8111156200169157600080fd5b6200169f8b828c01620015d0565b999c989b5096995094979396929594505050565b60008060008060008060c08789031215620016cd57600080fd5b8635620016da8162001580565b95506020870135945060408701359350606087013592506080870135915060a08701356200170881620015c0565b809150509295509295509295565b63ffffffff811681146200159657600080fd5b600080600080600080600060a0888a0312156200174557600080fd5b8735620017528162001580565b96506020880135620017648162001580565b9550604088013567ffffffffffffffff808211156200178257600080fd5b620017908b838c01620015d0565b909750955060608a0135915080821115620017aa57600080fd5b50620017b98a828b01620015d0565b9094509250506080880135620017cf8162001716565b8091505092959891949750929550565b600060208284031215620017f257600080fd5b5035919050565b80151581146200159657600080fd5b600080604083850312156200181c57600080fd5b8235620018298162001580565b915060208301356200183b81620017f9565b809150509250929050565b6020808252825182820181905260009190848201906040850190845b81811015620018895783516001600160a01b03168352928401929184019160010162001862565b50909695505050505050565b600080600080600060a08688031215620018ae57600080fd5b8535620018bb8162001580565b94506020860135620018cd8162001580565b93506040860135620018df8162001580565b92506060860135620018f18162001580565b949793965091946080013592915050565b6020808252601690820152751e5bdd48185c99481b9bdd08185d5d1a1bdc9a5e995960521b604082015260600190565b60208082526018908201527f756e6b6e6f776e20636f6e747261637420616464726573730000000000000000604082015260600190565b6000602082840312156200197c57600080fd5b8151620015b98162001580565b81835281816020850137506000828201602090810191909152601f909101601f19169091010190565b6001600160a01b038b811682528a81166020830152898116604083015288811660608301528716608082015261012060a08201819052600090620019fa838201888a62001989565b60c0840196909652505060e081019290925260000b61010090910152979650505050505050565b60005b8381101562001a3e57818101518382015260200162001a24565b50506000910152565b6000815180845262001a6181602086016020860162001a21565b601f01601f19169290920160200192915050565b6001600160a01b0383168152604060208201819052600090620013e09083018462001a47565b602081526000620013e060208301848662001989565b60006020828403121562001ac457600080fd5b8151620015b981620017f9565b60008060008060008060c0878903121562001aeb57600080fd5b86519550602087015194506040870151935060608701519250608087015162001b148162001716565b60a08801519092506200170881620015c0565b6000806040838503121562001b3b57600080fd5b505080516020909101519092909150565b60c08152600062001b6160c083018962001a47565b828103602084015262001b75818962001a47565b604084019790975250506001600160a01b03938416606082015291909216608082015260a0015292915050565b6000825162001bb681846020870162001a21565b9190910192915050565b602081526000620015b9602083018462001a4756fe60806040526040516106cc3803806106cc83398101604081905261002291610420565b61002e82826000610035565b505061054a565b61003e836100f6565b6040516001600160a01b038416907f1cf3b03a6cf19fa2baba4df148e9dcabedea7f8a5c07840e207e5c089be95d3e90600090a260008251118061007f5750805b156100f1576100ef836001600160a01b0316635c60da1b6040518163ffffffff1660e01b8152600401602060405180830381865afa1580156100c5573d6000803e3d6000fd5b505050506040513d601f19601f820116820180604052508101906100e991906104e0565b8361027a565b505b505050565b6001600160a01b0381163b6101605760405162461bcd60e51b815260206004820152602560248201527f455243313936373a206e657720626561636f6e206973206e6f74206120636f6e6044820152641d1c9858dd60da1b60648201526084015b60405180910390fd5b6101d4816001600160a01b0316635c60da1b6040518163ffffffff1660e01b8152600401602060405180830381865afa1580156101a1573d6000803e3d6000fd5b505050506040513d601f19601f820116820180604052508101906101c591906104e0565b6001600160a01b03163b151590565b6102395760405162461bcd60e51b815260206004820152603060248201527f455243313936373a20626561636f6e20696d706c656d656e746174696f6e206960448201526f1cc81b9bdd08184818dbdb9d1c9858dd60821b6064820152608401610157565b7fa3f0ad74e5423aebfd80d3ef4346578335a9a72aeaee59ff6cb3582b35133d5080546001600160a01b0319166001600160a01b0392909216919091179055565b606061029f83836040518060600160405280602781526020016106a5602791396102a6565b9392505050565b6060600080856001600160a01b0316856040516102c391906104fb565b600060405180830381855af49150503d80600081146102fe576040519150601f19603f3d011682016040523d82523d6000602084013e610303565b606091505b5090925090506103158683838761031f565b9695505050505050565b6060831561038e578251600003610387576001600160a01b0385163b6103875760405162461bcd60e51b815260206004820152601d60248201527f416464726573733a2063616c6c20746f206e6f6e2d636f6e74726163740000006044820152606401610157565b5081610398565b61039883836103a0565b949350505050565b8151156103b05781518083602001fd5b8060405162461bcd60e51b81526004016101579190610517565b80516001600160a01b03811681146103e157600080fd5b919050565b634e487b7160e01b600052604160045260246000fd5b60005b838110156104175781810151838201526020016103ff565b50506000910152565b6000806040838503121561043357600080fd5b61043c836103ca565b60208401519092506001600160401b038082111561045957600080fd5b818501915085601f83011261046d57600080fd5b81518181111561047f5761047f6103e6565b604051601f8201601f19908116603f011681019083821181831017156104a7576104a76103e6565b816040528281528860208487010111156104c057600080fd5b6104d18360208301602088016103fc565b80955050505050509250929050565b6000602082840312156104f257600080fd5b61029f826103ca565b6000825161050d8184602087016103fc565b9190910192915050565b60208152600082518060208401526105368160408501602087016103fc565b601f01601f19169190910160400192915050565b61014c806105596000396000f3fe60806040523661001357610011610017565b005b6100115b610027610022610029565b6100c2565b565b600061005c7fa3f0ad74e5423aebfd80d3ef4346578335a9a72aeaee59ff6cb3582b35133d50546001600160a01b031690565b6001600160a01b0316635c60da1b6040518163ffffffff1660e01b8152600401602060405180830381865afa158015610099573d6000803e3d6000fd5b505050506040513d601f19601f820116820180604052508101906100bd91906100e6565b905090565b3660008037600080366000845af43d6000803e8080156100e1573d6000f35b3d6000fd5b6000602082840312156100f857600080fd5b81516001600160a01b038116811461010f57600080fd5b939250505056fea264697066735822122044bae01418f8f4d3e2aa454c2b5942f4fa2dcacad01b2d54be1f93cf2feef3dc64736f6c63430008140033416464726573733a206c6f772d6c6576656c2064656c65676174652063616c6c206661696c6564a2646970667358221220ff49f95168d73f2c09a8cfc0f97931573a7347537700bdb75b26e7c81f982ac664736f6c63430008140033",
    "linkReferences": {},
    "deployedLinkReferences": {}
}