{
    "_format": "hh-sol-artifact-1",
    "contractName": "CloneFactory",
    "sourceName": "contracts/CloneFactory.sol",
    "abi": [
        {
            "anonymous": false,
            "inputs": [
                {
                    "indexed": false,
                    "internalType": "uint8",
                    "name": "version",
                    "type": "uint8"
                }
            ],
            "name": "Initialized",
            "type": "event"
        },
        {
            "anonymous": false,
            "inputs": [
                {
                    "indexed": true,
                    "internalType": "address",
                    "name": "_address",
                    "type": "address"
                },
                {
                    "indexed": true,
                    "internalType": "address",
                    "name": "_validator",
                    "type": "address"
                }
            ],
            "name": "clonefactoryContractPurchased",
            "type": "event"
        },
        {
            "anonymous": false,
            "inputs": [
                {
                    "indexed": true,
                    "internalType": "address",
                    "name": "_address",
                    "type": "address"
                },
                {
                    "indexed": false,
                    "internalType": "string",
                    "name": "_pubkey",
                    "type": "string"
                }
            ],
            "name": "contractCreated",
            "type": "event"
        },
        {
            "anonymous": false,
            "inputs": [
                {
                    "indexed": false,
                    "internalType": "address",
                    "name": "_address",
                    "type": "address"
                },
                {
                    "indexed": false,
                    "internalType": "bool",
                    "name": "_isDeleted",
                    "type": "bool"
                }
            ],
            "name": "contractDeleteUpdated",
            "type": "event"
        },
        {
            "anonymous": false,
            "inputs": [
                {
                    "indexed": true,
                    "internalType": "address",
                    "name": "_address",
                    "type": "address"
                }
            ],
            "name": "purchaseInfoUpdated",
            "type": "event"
        },
        {
            "inputs": [],
            "name": "VALIDATOR_FEE_MULT",
            "outputs": [
                {
                    "internalType": "uint16",
                    "name": "",
                    "type": "uint16"
                }
            ],
            "stateMutability": "view",
            "type": "function"
        },
        {
            "inputs": [],
            "name": "baseImplementation",
            "outputs": [
                {
                    "internalType": "address",
                    "name": "",
                    "type": "address"
                }
            ],
            "stateMutability": "view",
            "type": "function"
        },
        {
            "inputs": [
                {
                    "internalType": "address",
                    "name": "_address",
                    "type": "address"
                }
            ],
            "name": "checkWhitelist",
            "outputs": [
                {
                    "internalType": "bool",
                    "name": "",
                    "type": "bool"
                }
            ],
            "stateMutability": "view",
            "type": "function"
        },
        {
            "inputs": [],
            "name": "getContractList",
            "outputs": [
                {
                    "internalType": "address[]",
                    "name": "",
                    "type": "address[]"
                }
            ],
            "stateMutability": "view",
            "type": "function"
        },
        {
            "inputs": [
                {
                    "internalType": "address",
                    "name": "_baseImplementation",
                    "type": "address"
                },
                {
                    "internalType": "address",
                    "name": "_lumerin",
                    "type": "address"
                },
                {
                    "internalType": "address",
                    "name": "_feeRecipient",
                    "type": "address"
                },
                {
                    "internalType": "uint16",
                    "name": "_validatorFeeRateScaled",
                    "type": "uint16"
                }
            ],
            "name": "initialize",
            "outputs": [],
            "stateMutability": "nonpayable",
            "type": "function"
        },
        {
            "inputs": [
                {
                    "internalType": "address",
                    "name": "",
                    "type": "address"
                }
            ],
            "name": "isContractDead",
            "outputs": [
                {
                    "internalType": "bool",
                    "name": "",
                    "type": "bool"
                }
            ],
            "stateMutability": "view",
            "type": "function"
        },
        {
            "inputs": [],
            "name": "lumerin",
            "outputs": [
                {
                    "internalType": "contract Lumerin",
                    "name": "",
                    "type": "address"
                }
            ],
            "stateMutability": "view",
            "type": "function"
        },
        {
            "inputs": [],
            "name": "marketplaceFee",
            "outputs": [
                {
                    "internalType": "uint256",
                    "name": "",
                    "type": "uint256"
                }
            ],
            "stateMutability": "view",
            "type": "function"
        },
        {
            "inputs": [],
            "name": "noMoreWhitelist",
            "outputs": [
                {
                    "internalType": "bool",
                    "name": "",
                    "type": "bool"
                }
            ],
            "stateMutability": "view",
            "type": "function"
        },
        {
            "inputs": [],
            "name": "owner",
            "outputs": [
                {
                    "internalType": "address",
                    "name": "",
                    "type": "address"
                }
            ],
            "stateMutability": "view",
            "type": "function"
        },
        {
            "inputs": [],
            "name": "payMarketplaceFee",
            "outputs": [
                {
                    "internalType": "bool",
                    "name": "",
                    "type": "bool"
                }
            ],
            "stateMutability": "payable",
            "type": "function"
        },
        {
            "inputs": [
                {
                    "internalType": "uint256",
                    "name": "",
                    "type": "uint256"
                }
            ],
            "name": "rentalContracts",
            "outputs": [
                {
                    "internalType": "address",
                    "name": "",
                    "type": "address"
                }
            ],
            "stateMutability": "view",
            "type": "function"
        },
        {
            "inputs": [
                {
                    "internalType": "address",
                    "name": "_address",
                    "type": "address"
                }
            ],
            "name": "setAddToWhitelist",
            "outputs": [],
            "stateMutability": "nonpayable",
            "type": "function"
        },
        {
            "inputs": [
                {
                    "internalType": "address",
                    "name": "_contractAddress",
                    "type": "address"
                },
                {
                    "internalType": "bool",
                    "name": "_isDeleted",
                    "type": "bool"
                }
            ],
            "name": "setContractDeleted",
            "outputs": [],
            "stateMutability": "nonpayable",
            "type": "function"
        },
        {
            "inputs": [
                {
                    "internalType": "uint256",
                    "name": "_price",
                    "type": "uint256"
                },
                {
                    "internalType": "uint256",
                    "name": "_limit",
                    "type": "uint256"
                },
                {
                    "internalType": "uint256",
                    "name": "_speed",
                    "type": "uint256"
                },
                {
                    "internalType": "uint256",
                    "name": "_length",
                    "type": "uint256"
                },
                {
                    "internalType": "address",
                    "name": "",
                    "type": "address"
                },
                {
                    "internalType": "string",
                    "name": "_pubKey",
                    "type": "string"
                }
            ],
            "name": "setCreateNewRentalContract",
            "outputs": [
                {
                    "internalType": "address",
                    "name": "",
                    "type": "address"
                }
            ],
            "stateMutability": "payable",
            "type": "function"
        },
        {
            "inputs": [
                {
                    "internalType": "uint256",
                    "name": "_price",
                    "type": "uint256"
                },
                {
                    "internalType": "uint256",
                    "name": "_limit",
                    "type": "uint256"
                },
                {
                    "internalType": "uint256",
                    "name": "_speed",
                    "type": "uint256"
                },
                {
                    "internalType": "uint256",
                    "name": "_length",
                    "type": "uint256"
                },
                {
                    "internalType": "int8",
                    "name": "_profitTarget",
                    "type": "int8"
                },
                {
                    "internalType": "address",
                    "name": "",
                    "type": "address"
                },
                {
                    "internalType": "string",
                    "name": "_pubKey",
                    "type": "string"
                }
            ],
            "name": "setCreateNewRentalContractV2",
            "outputs": [
                {
                    "internalType": "address",
                    "name": "",
                    "type": "address"
                }
            ],
            "stateMutability": "payable",
            "type": "function"
        },
        {
            "inputs": [],
            "name": "setDisableWhitelist",
            "outputs": [],
            "stateMutability": "nonpayable",
            "type": "function"
        },
        {
            "inputs": [
                {
                    "internalType": "uint256",
                    "name": "fee",
                    "type": "uint256"
                },
                {
                    "internalType": "address",
                    "name": "recipient",
                    "type": "address"
                }
            ],
            "name": "setMarketplaceFeeRecipient",
            "outputs": [],
            "stateMutability": "nonpayable",
            "type": "function"
        },
        {
            "inputs": [
                {
                    "internalType": "address",
                    "name": "_contractAddress",
                    "type": "address"
                },
                {
                    "internalType": "string",
                    "name": "_cipherText",
                    "type": "string"
                },
                {
                    "internalType": "uint32",
                    "name": "termsVersion",
                    "type": "uint32"
                }
            ],
            "name": "setPurchaseRentalContract",
            "outputs": [],
            "stateMutability": "payable",
            "type": "function"
        },
        {
            "inputs": [
                {
                    "internalType": "address",
                    "name": "_contractAddress",
                    "type": "address"
                },
                {
                    "internalType": "address",
                    "name": "_validatorAddress",
                    "type": "address"
                },
                {
                    "internalType": "string",
                    "name": "_encrValidatorURL",
                    "type": "string"
                },
                {
                    "internalType": "string",
                    "name": "_encrDestURL",
                    "type": "string"
                },
                {
                    "internalType": "uint32",
                    "name": "termsVersion",
                    "type": "uint32"
                }
            ],
            "name": "setPurchaseRentalContractV2",
            "outputs": [],
            "stateMutability": "payable",
            "type": "function"
        },
        {
            "inputs": [
                {
                    "internalType": "address",
                    "name": "_address",
                    "type": "address"
                }
            ],
            "name": "setRemoveFromWhitelist",
            "outputs": [],
            "stateMutability": "nonpayable",
            "type": "function"
        },
        {
            "inputs": [
                {
                    "internalType": "address",
                    "name": "_contractAddress",
                    "type": "address"
                },
                {
                    "internalType": "uint256",
                    "name": "_price",
                    "type": "uint256"
                },
                {
                    "internalType": "uint256",
                    "name": "_limit",
                    "type": "uint256"
                },
                {
                    "internalType": "uint256",
                    "name": "_speed",
                    "type": "uint256"
                },
                {
                    "internalType": "uint256",
                    "name": "_length",
                    "type": "uint256"
                }
            ],
            "name": "setUpdateContractInformation",
            "outputs": [],
            "stateMutability": "payable",
            "type": "function"
        },
        {
            "inputs": [
                {
                    "internalType": "address",
                    "name": "_contractAddress",
                    "type": "address"
                },
                {
                    "internalType": "uint256",
                    "name": "_price",
                    "type": "uint256"
                },
                {
                    "internalType": "uint256",
                    "name": "_limit",
                    "type": "uint256"
                },
                {
                    "internalType": "uint256",
                    "name": "_speed",
                    "type": "uint256"
                },
                {
                    "internalType": "uint256",
                    "name": "_length",
                    "type": "uint256"
                },
                {
                    "internalType": "int8",
                    "name": "_profitTarget",
                    "type": "int8"
                }
            ],
            "name": "setUpdateContractInformationV2",
            "outputs": [],
            "stateMutability": "nonpayable",
            "type": "function"
        },
        {
            "inputs": [
                {
                    "internalType": "uint16",
                    "name": "_validatorFeeRateScaled",
                    "type": "uint16"
                }
            ],
            "name": "setValidatorFeeRate",
            "outputs": [],
            "stateMutability": "nonpayable",
            "type": "function"
        },
        {
            "inputs": [],
            "name": "validatorFeeRateScaled",
            "outputs": [
                {
                    "internalType": "uint16",
                    "name": "",
                    "type": "uint16"
                }
            ],
            "stateMutability": "view",
            "type": "function"
        },
        {
            "inputs": [
                {
                    "internalType": "address",
                    "name": "",
                    "type": "address"
                }
            ],
            "name": "whitelist",
            "outputs": [
                {
                    "internalType": "bool",
                    "name": "",
                    "type": "bool"
                }
            ],
            "stateMutability": "view",
            "type": "function"
        }
    ],
    "bytecode": "0x608060405234801561001057600080fd5b5061268a806100206000396000f3fe608060405260043610620001a15760003560e01c80638da5cb5b11620000e2578063aafcc02a1162000095578063e32e2450116200006c578063e32e245014620004b8578063e610897114620004db578063e80b04b41462000503578063ee878a4a146200052857600080fd5b8063aafcc02a1462000455578063b312b94b146200046c578063bd80a1c9146200048457600080fd5b80638da5cb5b146200037457806399acac8c14620003965780639b19251a14620003bd5780639e3a9bb814620003f1578063a2ebe749146200040e578063a762f7f1146200043057600080fd5b80633af4158f116200015857806353da0206116200012f57806353da020614620002f35780636a16696414620003185780638664aa51146200033857806386712686146200035d57600080fd5b80633af4158f146200028b5780633c6f878c14620002a2578063444b5c7314620002c757600080fd5b80631088f93f14620001a6578063164c197614620001c55780631950c21814620001ec5780632e11275714620002115780632e1e8a9314620002365780633a6738b21462000266575b600080fd5b620001b06200053f565b60405190151581526020015b60405180910390f35b348015620001d257600080fd5b50620001ea620001e4366004620016a5565b620005ef565b005b348015620001f957600080fd5b50620001b06200020b366004620016a5565b6200063d565b3480156200021e57600080fd5b50620001ea62000230366004620016e4565b6200067a565b6200024d62000247366004620017a3565b62000805565b6040516001600160a01b039091168152602001620001bc565b3480156200027357600080fd5b50620001ea620002853660046200183a565b62000891565b620001ea6200029c366004620018b0565b620008a9565b348015620002af57600080fd5b50620001ea620002c136600462001966565b62000950565b348015620002d457600080fd5b50620002df61271081565b60405161ffff9091168152602001620001bc565b3480156200030057600080fd5b506200024d6200031236600462001984565b62000995565b3480156200032557600080fd5b50600554604051908152602001620001bc565b3480156200034557600080fd5b50620001ea62000357366004620019ad565b620009c0565b6200024d6200036e366004620019eb565b62000b54565b3480156200038157600080fd5b506002546200024d906001600160a01b031681565b348015620003a357600080fd5b50620003ae62000bdf565b604051620001bc919062001a6e565b348015620003ca57600080fd5b50620001b0620003dc366004620016a5565b60076020526000908152604090205460ff1681565b348015620003fe57600080fd5b50600954620002df9061ffff1681565b3480156200041b57600080fd5b506001546200024d906001600160a01b031681565b3480156200043d57600080fd5b50620001ea6200044f366004620016a5565b62000c47565b620001ea6200046636600462001abd565b62000c98565b3480156200047957600080fd5b50620001ea62000ca9565b3480156200049157600080fd5b50620001b0620004a3366004620016a5565b60086020526000908152604090205460ff1681565b348015620004c557600080fd5b50600254620001b090600160a01b900460ff1681565b348015620004e857600080fd5b506000546200024d906201000090046001600160a01b031681565b3480156200051057600080fd5b50620001ea6200052236600462001b04565b62000ceb565b620001ea6200053936600462001b2c565b62000d3f565b600554600090341015620005705760405162461bcd60e51b8152600401620005679062001b9c565b60405180910390fd5b6006546005546040516000926001600160a01b031691908381818185875af1925050503d8060008114620005c1576040519150601f19603f3d011682016040523d82523d6000602084013e620005c6565b606091505b5050905080620005ea5760405162461bcd60e51b8152600401620005679062001be9565b905090565b6002546001600160a01b031633146200061c5760405162461bcd60e51b8152600401620005679062001c2e565b6001600160a01b03166000908152600760205260409020805460ff19169055565b600254600090600160a01b900460ff16156200065b57506001919050565b506001600160a01b031660009081526007602052604090205460ff1690565b600054610100900460ff16158080156200069b5750600054600160ff909116105b80620006b75750303b158015620006b7575060005460ff166001145b6200071c5760405162461bcd60e51b815260206004820152602e60248201527f496e697469616c697a61626c653a20636f6e747261637420697320616c72656160448201526d191e481a5b9a5d1a585b1a5e995960921b606482015260840162000567565b6000805460ff19166001179055801562000740576000805461ff0019166101001790555b6000805462010000600160b01b031916620100006001600160a01b038781169190910291909117909155600180546001600160a01b031990811688841617909155600280543390831617905565b5e620f48000600555600680549091169185169190911790556009805461ffff191661ffff84161790558015620007fe576000805461ff0019169055604051600181527f7f26b83ff96e1f2b6a682f133852f6798a09c465da95921460cefb38474024989060200160405180910390a15b5050505050565b3360009081526007602052604081205460ff16806200082d5750600254600160a01b900460ff165b6200084c5760405162461bcd60e51b8152600401620005679062001c5e565b600554341015620008715760405162461bcd60e51b8152600401620005679062001b9c565b6200088489898989896000898962000dbe565b9998505050505050505050565b620008a186868686868662000f68565b505050505050565b600554341015620008ce5760405162461bcd60e51b8152600401620005679062001b9c565b62000947878787878080601f01602080910402602001604051908101604052809392919081815260200183838082843760009201919091525050604080516020601f8b018190048102820181019092528981529250899150889081908401838280828437600092019190915250889250620010ef915050565b50505050505050565b6002546001600160a01b031633146200097d5760405162461bcd60e51b8152600401620005679062001c2e565b6009805461ffff191661ffff92909216919091179055565b60038181548110620009a657600080fd5b6000918252602090912001546001600160a01b0316905081565b6001600160a01b03821660009081526004602052604090205460ff16620009fb5760405162461bcd60e51b8152600401620005679062001cb0565b6000829050806001600160a01b03166308551a536040518163ffffffff1660e01b8152600401602060405180830381865afa15801562000a3f573d6000803e3d6000fd5b505050506040513d601f19601f8201168201806040525081019062000a65919062001ce7565b6001600160a01b0316336001600160a01b0316148062000a8f57506002546001600160a01b031633145b62000aae5760405162461bcd60e51b8152600401620005679062001c2e565b604051630567d91f60e41b815282151560048201526001600160a01b0384169063567d91f090602401600060405180830381600087803b15801562000af257600080fd5b505af115801562000b07573d6000803e3d6000fd5b5050604080516001600160a01b038716815285151560208201527f94706a90834905eb13df4134bd7c40e90c8218fbe9ded8631b8062c7bd4a5a06935001905060405180910390a1505050565b3360009081526007602052604081205460ff168062000b7c5750600254600160a01b900460ff165b62000b9b5760405162461bcd60e51b8152600401620005679062001c5e565b60055434101562000bc05760405162461bcd60e51b8152600401620005679062001b9c565b62000bd388888888600080898962000dbe565b98975050505050505050565b60606000600380548060200260200160405190810160405280929190818152602001828054801562000c3b57602002820191906000526020600020905b81546001600160a01b0316815260019091019060200180831162000c1c575b50939695505050505050565b6002546001600160a01b0316331462000c745760405162461bcd60e51b8152600401620005679062001c2e565b6001600160a01b03166000908152600760205260409020805460ff19166001179055565b620007fe8585858585600062000f68565b6002546001600160a01b0316331462000cd65760405162461bcd60e51b8152600401620005679062001c2e565b6002805460ff60a01b1916600160a01b179055565b6002546001600160a01b0316331462000d185760405162461bcd60e51b8152600401620005679062001c2e565b600591909155600680546001600160a01b0319166001600160a01b03909216919091179055565b60055434101562000d645760405162461bcd60e51b8152600401620005679062001b9c565b62000db884600085858080601f016020809104026020016040519081016040528093929190818152602001838380828437600092018290525060408051602081019091529081529250879150620010ef9050565b50505050565b60008062000dcb6200053f565b90508062000ded5760405162461bcd60e51b8152600401620005679062001be9565b6000632ffe554560e01b8b8b8b8b8b33600060029054906101000a90046001600160a01b0316308e8e8e60405160240162000e339b9a9998979695949392919062001d30565b60408051601f198184030181529181526020820180516001600160e01b03166001600160e01b03199094169390931790925260015491519092506000916001600160a01b031690839062000e87906200167e565b62000e9492919062001dee565b604051809103906000f08015801562000eb1573d6000803e3d6000fd5b506003805460018082019092557fc2575a0e9e593c00f959f8c92f12db2869c3395a3b0502d05e2516446f71f85b0180546001600160a01b0319166001600160a01b03841690811790915560008181526004602052604090819020805460ff1916909317909255905191925082917f1b08e1646439b7521399d47f93ab6b1ebc92803e155d0b2f2ad2d4702a0508049062000f50908a908a9062001e1c565b60405180910390a29c9b505050505050505050505050565b6001600160a01b03861660009081526004602052604090205460ff1662000fa35760405162461bcd60e51b8152600401620005679062001cb0565b6000869050806001600160a01b03166308551a536040518163ffffffff1660e01b8152600401602060405180830381865afa15801562000fe7573d6000803e3d6000fd5b505050506040513d601f19601f820116820180604052508101906200100d919062001ce7565b6001600160a01b0316336001600160a01b031614620010405760405162461bcd60e51b8152600401620005679062001c2e565b604051635408d78f60e11b815260048101879052602481018690526044810185905260648101849052600083900b60848201526001600160a01b0388169063a811af1e9060a401600060405180830381600087803b158015620010a257600080fd5b505af1158015620010b7573d6000803e3d6000fd5b50506040513092507f7865b2bbe0087425b223d9cf674d8d5328e31546b364da98c36db21193c17d559150600090a250505050505050565b6001600160a01b03851660009081526004602052604090205460ff166200112a5760405162461bcd60e51b8152600401620005679062001cb0565b6000859050806001600160a01b031663d7efb6b76040518163ffffffff1660e01b8152600401602060405180830381865afa1580156200116e573d6000803e3d6000fd5b505050506040513d601f19601f8201168201806040525081019062001194919062001e32565b15620011e35760405162461bcd60e51b815260206004820181905260248201527f63616e6e6f742070757263686173652064656c6574656420636f6e7472616374604482015260640162000567565b336001600160a01b0316816001600160a01b03166308551a536040518163ffffffff1660e01b8152600401602060405180830381865afa1580156200122c573d6000803e3d6000fd5b505050506040513d601f19601f8201168201806040525081019062001252919062001ce7565b6001600160a01b031603620012b45760405162461bcd60e51b815260206004820152602160248201527f63616e6e6f7420707572636861736520796f7572206f776e20636f6e747261636044820152601d60fa1b606482015260840162000567565b600080826001600160a01b031663a4e275666040518163ffffffff1660e01b815260040160c060405180830381865afa158015620012f6573d6000803e3d6000fd5b505050506040513d601f19601f820116820180604052508101906200131c919062001e52565b50939550929350505063ffffffff82166000039050620013a657826001600160a01b031663d50256256040518163ffffffff1660e01b815260040160c060405180830381865afa15801562001375573d6000803e3d6000fd5b505050506040513d601f19601f820116820180604052508101906200139b919062001e52565b509395509293505050505b8363ffffffff168163ffffffff1614620014185760405162461bcd60e51b815260206004820152602c60248201527f63616e6e6f742070757263686173652c20636f6e7472616374207465726d732060448201526b1dd95c99481d5c19185d195960a21b606482015260840162000567565b620014226200053f565b506001600160a01b038716156200146557600954612710906200144a9061ffff168462001ebe565b62001456919062001ede565b62001462908362001f01565b91505b60008054604051636eb1769f60e11b8152336004820152306024820152620100009091046001600160a01b03169063dd62ed3e90604401602060405180830381865afa158015620014ba573d6000803e3d6000fd5b505050506040513d601f19601f82011682018060405250810190620014e0919062001f17565b905082811015620015435760405162461bcd60e51b815260206004820152602660248201527f6e6f7420617574686f72697a656420746f207370656e642072657175697265646044820152652066756e647360d01b606482015260840162000567565b6000546040516323b872dd60e01b81523360048201526001600160a01b038b811660248301526044820186905262010000909204909116906323b872dd906064016020604051808303816000875af1158015620015a4573d6000803e3d6000fd5b505050506040513d601f19601f82011682018060405250810190620015ca919062001e32565b5060095460405163414d402d60e11b81526001600160a01b0386169163829a805a9162001607918b918b9133918f9161ffff169060040162001f31565b600060405180830381600087803b1580156200162257600080fd5b505af115801562001637573d6000803e3d6000fd5b50506040516001600160a01b03808c1693508c1691507fff1dec24325264c678c99ba82c9b203272dc942010bfb7941b47a7291788475390600090a3505050505050505050565b6106cc8062001f8983390190565b6001600160a01b0381168114620016a257600080fd5b50565b600060208284031215620016b857600080fd5b8135620016c5816200168c565b9392505050565b803561ffff81168114620016df57600080fd5b919050565b60008060008060808587031215620016fb57600080fd5b843562001708816200168c565b935060208501356200171a816200168c565b925060408501356200172c816200168c565b91506200173c60608601620016cc565b905092959194509250565b8060000b8114620016a257600080fd5b60008083601f8401126200176a57600080fd5b50813567ffffffffffffffff8111156200178357600080fd5b6020830191508360208285010111156200179c57600080fd5b9250929050565b60008060008060008060008060e0898b031215620017c057600080fd5b883597506020890135965060408901359550606089013594506080890135620017e98162001747565b935060a0890135620017fb816200168c565b925060c089013567ffffffffffffffff8111156200181857600080fd5b620018268b828c0162001757565b999c989b5096995094979396929594505050565b60008060008060008060c087890312156200185457600080fd5b863562001861816200168c565b95506020870135945060408701359350606087013592506080870135915060a08701356200188f8162001747565b809150509295509295509295565b63ffffffff81168114620016a257600080fd5b600080600080600080600060a0888a031215620018cc57600080fd5b8735620018d9816200168c565b96506020880135620018eb816200168c565b9550604088013567ffffffffffffffff808211156200190957600080fd5b620019178b838c0162001757565b909750955060608a01359150808211156200193157600080fd5b50620019408a828b0162001757565b909450925050608088013562001956816200189d565b8091505092959891949750929550565b6000602082840312156200197957600080fd5b620016c582620016cc565b6000602082840312156200199757600080fd5b5035919050565b8015158114620016a257600080fd5b60008060408385031215620019c157600080fd5b8235620019ce816200168c565b91506020830135620019e0816200199e565b809150509250929050565b600080600080600080600060c0888a03121562001a0757600080fd5b87359650602088013595506040880135945060608801359350608088013562001a30816200168c565b925060a088013567ffffffffffffffff81111562001a4d57600080fd5b62001a5b8a828b0162001757565b989b979a50959850939692959293505050565b6020808252825182820181905260009190848201906040850190845b8181101562001ab15783516001600160a01b03168352928401929184019160010162001a8a565b50909695505050505050565b600080600080600060a0868803121562001ad657600080fd5b853562001ae3816200168c565b97602087013597506040870135966060810135965060800135945092505050565b6000806040838503121562001b1857600080fd5b823591506020830135620019e0816200168c565b6000806000806060858703121562001b4357600080fd5b843562001b50816200168c565b9350602085013567ffffffffffffffff81111562001b6d57600080fd5b62001b7b8782880162001757565b909450925050604085013562001b91816200189d565b939692955090935050565b6020808252602d908201527f496e73756666696369656e74204554482070726f766964656420666f72206d6160408201526c726b6574706c6163652066656560981b606082015260800190565b60208082526025908201527f4661696c656420746f20706179206d61726b6574706c616365206c697374696e604082015264672066656560d81b606082015260800190565b6020808252601690820152751e5bdd48185c99481b9bdd08185d5d1a1bdc9a5e995960521b604082015260600190565b60208082526032908201527f796f7520617265206e6f7420616e20617070726f7665642073656c6c6572206f6040820152716e2074686973206d61726b6574706c61636560701b606082015260800190565b60208082526018908201527f756e6b6e6f776e20636f6e747261637420616464726573730000000000000000604082015260600190565b60006020828403121562001cfa57600080fd5b8151620016c5816200168c565b81835281816020850137506000828201602090810191909152601f909101601f19169091010190565b8b8152602081018b9052604081018a905260608101899052600088810b60808301526001600160a01b0388811660a084015287811660c084015286811660e08401528516610100830152610140610120830181905262001d94838201858762001d07565b9e9d5050505050505050505050505050565b6000815180845260005b8181101562001dce5760208185018101518683018201520162001db0565b506000602082860101526020601f19601f83011685010191505092915050565b6001600160a01b038316815260406020820181905260009062001e149083018462001da6565b949350505050565b60208152600062001e1460208301848662001d07565b60006020828403121562001e4557600080fd5b8151620016c5816200199e565b60008060008060008060c0878903121562001e6c57600080fd5b86519550602087015194506040870151935060608701519250608087015162001e95816200189d565b60a08801519092506200188f8162001747565b634e487b7160e01b600052601160045260246000fd5b808202811582820484141762001ed85762001ed862001ea8565b92915050565b60008262001efc57634e487b7160e01b600052601260045260246000fd5b500490565b8082018082111562001ed85762001ed862001ea8565b60006020828403121562001f2a57600080fd5b5051919050565b60a08152600062001f4660a083018862001da6565b828103602084015262001f5a818862001da6565b6001600160a01b0396871660408501529490951660608301525061ffff91909116608090910152939250505056fe60806040526040516106cc3803806106cc83398101604081905261002291610420565b61002e82826000610035565b505061054a565b61003e836100f6565b6040516001600160a01b038416907f1cf3b03a6cf19fa2baba4df148e9dcabedea7f8a5c07840e207e5c089be95d3e90600090a260008251118061007f5750805b156100f1576100ef836001600160a01b0316635c60da1b6040518163ffffffff1660e01b8152600401602060405180830381865afa1580156100c5573d6000803e3d6000fd5b505050506040513d601f19601f820116820180604052508101906100e991906104e0565b8361027a565b505b505050565b6001600160a01b0381163b6101605760405162461bcd60e51b815260206004820152602560248201527f455243313936373a206e657720626561636f6e206973206e6f74206120636f6e6044820152641d1c9858dd60da1b60648201526084015b60405180910390fd5b6101d4816001600160a01b0316635c60da1b6040518163ffffffff1660e01b8152600401602060405180830381865afa1580156101a1573d6000803e3d6000fd5b505050506040513d601f19601f820116820180604052508101906101c591906104e0565b6001600160a01b03163b151590565b6102395760405162461bcd60e51b815260206004820152603060248201527f455243313936373a20626561636f6e20696d706c656d656e746174696f6e206960448201526f1cc81b9bdd08184818dbdb9d1c9858dd60821b6064820152608401610157565b7fa3f0ad74e5423aebfd80d3ef4346578335a9a72aeaee59ff6cb3582b35133d5080546001600160a01b0319166001600160a01b0392909216919091179055565b606061029f83836040518060600160405280602781526020016106a5602791396102a6565b9392505050565b6060600080856001600160a01b0316856040516102c391906104fb565b600060405180830381855af49150503d80600081146102fe576040519150601f19603f3d011682016040523d82523d6000602084013e610303565b606091505b5090925090506103158683838761031f565b9695505050505050565b6060831561038e578251600003610387576001600160a01b0385163b6103875760405162461bcd60e51b815260206004820152601d60248201527f416464726573733a2063616c6c20746f206e6f6e2d636f6e74726163740000006044820152606401610157565b5081610398565b61039883836103a0565b949350505050565b8151156103b05781518083602001fd5b8060405162461bcd60e51b81526004016101579190610517565b80516001600160a01b03811681146103e157600080fd5b919050565b634e487b7160e01b600052604160045260246000fd5b60005b838110156104175781810151838201526020016103ff565b50506000910152565b6000806040838503121561043357600080fd5b61043c836103ca565b60208401519092506001600160401b038082111561045957600080fd5b818501915085601f83011261046d57600080fd5b81518181111561047f5761047f6103e6565b604051601f8201601f19908116603f011681019083821181831017156104a7576104a76103e6565b816040528281528860208487010111156104c057600080fd5b6104d18360208301602088016103fc565b80955050505050509250929050565b6000602082840312156104f257600080fd5b61029f826103ca565b6000825161050d8184602087016103fc565b9190910192915050565b60208152600082518060208401526105368160408501602087016103fc565b601f01601f19169190910160400192915050565b61014c806105596000396000f3fe60806040523661001357610011610017565b005b6100115b610027610022610029565b6100c2565b565b600061005c7fa3f0ad74e5423aebfd80d3ef4346578335a9a72aeaee59ff6cb3582b35133d50546001600160a01b031690565b6001600160a01b0316635c60da1b6040518163ffffffff1660e01b8152600401602060405180830381865afa158015610099573d6000803e3d6000fd5b505050506040513d601f19601f820116820180604052508101906100bd91906100e6565b905090565b3660008037600080366000845af43d6000803e8080156100e1573d6000f35b3d6000fd5b6000602082840312156100f857600080fd5b81516001600160a01b038116811461010f57600080fd5b939250505056fea264697066735822122044bae01418f8f4d3e2aa454c2b5942f4fa2dcacad01b2d54be1f93cf2feef3dc64736f6c63430008140033416464726573733a206c6f772d6c6576656c2064656c65676174652063616c6c206661696c6564a2646970667358221220eddc46acfbfe06069c8696280c06bc988d1e86e33fcc3d08f47f4277b08c665f64736f6c63430008140033",
    "linkReferences": {},
    "deployedLinkReferences": {}
}