{
    "_format": "hh-sol-artifact-1",
    "contractName": "Faucet",
    "sourceName": "contracts/Faucet.sol",
    "abi": [
        {
            "inputs": [
                {
                    "internalType": "address",
                    "name": "_lmr",
                    "type": "address"
                },
                {
                    "internalType": "uint256",
                    "name": "_dailyMaxLmr",
                    "type": "uint256"
                },
                {
                    "internalType": "uint256",
                    "name": "_lmrPayout",
                    "type": "uint256"
                },
                {
                    "internalType": "uint256",
                    "name": "_ethPayout",
                    "type": "uint256"
                }
            ],
            "stateMutability": "payable",
            "type": "constructor"
        },
        {
            "inputs": [
                {
                    "internalType": "address",
                    "name": "_address",
                    "type": "address"
                },
                {
                    "internalType": "string",
                    "name": "_ipAddress",
                    "type": "string"
                }
            ],
            "name": "canClaimTokens",
            "outputs": [
                {
                    "internalType": "bool",
                    "name": "",
                    "type": "bool"
                }
            ],
            "stateMutability": "view",
            "type": "function"
        },
        {
            "inputs": [],
            "name": "cooldownPeriod",
            "outputs": [
                {
                    "internalType": "uint256",
                    "name": "",
                    "type": "uint256"
                }
            ],
            "stateMutability": "view",
            "type": "function"
        },
        {
            "inputs": [],
            "name": "cooldownStartingTime",
            "outputs": [
                {
                    "internalType": "uint256",
                    "name": "",
                    "type": "uint256"
                }
            ],
            "stateMutability": "view",
            "type": "function"
        },
        {
            "inputs": [],
            "name": "currentLMRTokenDistribution",
            "outputs": [
                {
                    "internalType": "uint256",
                    "name": "",
                    "type": "uint256"
                }
            ],
            "stateMutability": "view",
            "type": "function"
        },
        {
            "inputs": [],
            "name": "emptyGeth",
            "outputs": [],
            "stateMutability": "nonpayable",
            "type": "function"
        },
        {
            "inputs": [],
            "name": "ethPayout",
            "outputs": [
                {
                    "internalType": "uint256",
                    "name": "",
                    "type": "uint256"
                }
            ],
            "stateMutability": "view",
            "type": "function"
        },
        {
            "inputs": [],
            "name": "lmrPayout",
            "outputs": [
                {
                    "internalType": "uint256",
                    "name": "",
                    "type": "uint256"
                }
            ],
            "stateMutability": "view",
            "type": "function"
        },
        {
            "inputs": [],
            "name": "lmrTokenDistributionMax",
            "outputs": [
                {
                    "internalType": "uint256",
                    "name": "",
                    "type": "uint256"
                }
            ],
            "stateMutability": "view",
            "type": "function"
        },
        {
            "inputs": [],
            "name": "resetDistributedTodayLmr",
            "outputs": [],
            "stateMutability": "nonpayable",
            "type": "function"
        },
        {
            "inputs": [
                {
                    "internalType": "address",
                    "name": "_to",
                    "type": "address"
                },
                {
                    "internalType": "uint256",
                    "name": "_amount",
                    "type": "uint256"
                }
            ],
            "name": "setTransferLumerin",
            "outputs": [],
            "stateMutability": "nonpayable",
            "type": "function"
        },
        {
            "inputs": [
                {
                    "internalType": "uint256",
                    "name": "_ethPayout",
                    "type": "uint256"
                }
            ],
            "name": "setUpdateEthPayout",
            "outputs": [],
            "stateMutability": "nonpayable",
            "type": "function"
        },
        {
            "inputs": [
                {
                    "internalType": "uint256",
                    "name": "_lmrPayout",
                    "type": "uint256"
                }
            ],
            "name": "setUpdateLmrPayout",
            "outputs": [],
            "stateMutability": "nonpayable",
            "type": "function"
        },
        {
            "inputs": [
                {
                    "internalType": "address",
                    "name": "_lmr",
                    "type": "address"
                }
            ],
            "name": "setUpdateLumerin",
            "outputs": [],
            "stateMutability": "nonpayable",
            "type": "function"
        },
        {
            "inputs": [
                {
                    "internalType": "address",
                    "name": "_newOwner",
                    "type": "address"
                }
            ],
            "name": "setUpdateOwner",
            "outputs": [],
            "stateMutability": "nonpayable",
            "type": "function"
        },
        {
            "inputs": [
                {
                    "internalType": "uint256",
                    "name": "_dailyMaxLmr",
                    "type": "uint256"
                }
            ],
            "name": "setUpdatedailyMaxLmr",
            "outputs": [],
            "stateMutability": "nonpayable",
            "type": "function"
        },
        {
            "inputs": [
                {
                    "internalType": "address",
                    "name": "_claiment",
                    "type": "address"
                },
                {
                    "internalType": "string",
                    "name": "_ipAddress",
                    "type": "string"
                }
            ],
            "name": "supervisedClaim",
            "outputs": [],
            "stateMutability": "nonpayable",
            "type": "function"
        },
        {
            "stateMutability": "payable",
            "type": "receive"
        }
    ],
    "bytecode": "0x6080604052604051610a86380380610a8683398101604081905261002291610072565b60008054336001600160a01b03199182161782554260025562015180600155600980549091166001600160a01b0396909616959095179094556003939093556004919091556005556006556100bd565b6000806000806080858703121561008857600080fd5b84516001600160a01b038116811461009f57600080fd5b60208601516040870151606090970151919890975090945092505050565b6109ba806100cc6000396000f3fe6080604052600436106100f75760003560e01c80635c394f2e1161008a578063b2f4e93d11610059578063b2f4e93d1461026b578063c612f0ab14610280578063cd05b8aa146102a0578063d882da79146102c057600080fd5b80635c394f2e146101ef5780635ce5b028146102055780637253e01b1461021b57806373e1ec861461023b57600080fd5b806326fd8f62116100c657806326fd8f621461017a5780632e30835f1461019a57806349ba1071146101af5780635022aa97146101cf57600080fd5b806304646a49146101035780630539c94f1461012c5780630a213e0414610142578063198e38851461015857600080fd5b366100fe57005b600080fd5b34801561010f57600080fd5b5061011960015481565b6040519081526020015b60405180910390f35b34801561013857600080fd5b5061011960035481565b34801561014e57600080fd5b5061011960065481565b34801561016457600080fd5b506101786101733660046107db565b6102d6565b005b34801561018657600080fd5b50610178610195366004610810565b61030e565b3480156101a657600080fd5b5061017861035a565b3480156101bb57600080fd5b506101786101ca366004610810565b61038f565b3480156101db57600080fd5b506101786101ea3660046107db565b6103db565b3480156101fb57600080fd5b5061011960045481565b34801561021157600080fd5b5061011960055481565b34801561022757600080fd5b50610178610236366004610832565b61040a565b34801561024757600080fd5b5061025b610256366004610832565b61060f565b6040519015158152602001610123565b34801561027757600080fd5b5061017861067c565b34801561028c57600080fd5b5061017861029b3660046108b5565b6106e3565b3480156102ac57600080fd5b506101786102bb3660046107db565b610789565b3480156102cc57600080fd5b5061011960025481565b6000546001600160a01b031633146103095760405162461bcd60e51b8152600401610300906108df565b60405180910390fd5b600555565b6000546001600160a01b031633146103385760405162461bcd60e51b8152600401610300906108df565b600980546001600160a01b0319166001600160a01b0392909216919091179055565b6000546001600160a01b031633146103845760405162461bcd60e51b8152600401610300906108df565b426002556000600355565b6000546001600160a01b031633146103b95760405162461bcd60e51b8152600401610300906108df565b600080546001600160a01b0319166001600160a01b0392909216919091179055565b6000546001600160a01b031633146104055760405162461bcd60e51b8152600401610300906108df565b600655565b6000546001600160a01b031633146104345760405162461bcd60e51b8152600401610300906108df565b600454600354106104a45760405162461bcd60e51b815260206004820152603460248201527f746865206461696c79206c696d6974206f662074657374206c756d6572696e206044820152731a185cc81899595b88191a5cdd1c9a589d5d195960621b6064820152608401610300565b6104af83838361060f565b6104fb5760405162461bcd60e51b815260206004820181905260248201527f796f75206e65656420746f2077616974206265666f726520636c61696d696e676044820152606401610300565b6001600160a01b038316600090815260076020526040908190204290819055905160089061052c908590859061092b565b9081526040519081900360200190205560055460035461054c919061093b565b6003556105576107b8565b60095460055460405163a9059cbb60e01b81526001600160a01b038681166004830152602482019290925291169063a9059cbb906044016020604051808303816000875af11580156105ad573d6000803e3d6000fd5b505050506040513d601f19601f820116820180604052508101906105d19190610962565b506006546040516001600160a01b0385169180156108fc02916000818181858888f19350505050158015610609573d6000803e3d6000fd5b50505050565b6001546001600160a01b03841660009081526007602052604081205490914291610639919061093b565b111580156106745750426001546008858560405161065892919061092b565b908152602001604051809103902054610671919061093b565b11155b949350505050565b6000546001600160a01b031633146106a65760405162461bcd60e51b8152600401610300906108df565b600080546040516001600160a01b03909116914780156108fc02929091818181858888f193505050501580156106e0573d6000803e3d6000fd5b50565b6000546001600160a01b0316331461070d5760405162461bcd60e51b8152600401610300906108df565b60095460405163a9059cbb60e01b81526001600160a01b038481166004830152602482018490529091169063a9059cbb906044016020604051808303816000875af1158015610760573d6000803e3d6000fd5b505050506040513d601f19601f820116820180604052508101906107849190610962565b505050565b6000546001600160a01b031633146107b35760405162461bcd60e51b8152600401610300906108df565b600455565b426001546002546107c9919061093b565b10156107d9574260025560006003555b565b6000602082840312156107ed57600080fd5b5035919050565b80356001600160a01b038116811461080b57600080fd5b919050565b60006020828403121561082257600080fd5b61082b826107f4565b9392505050565b60008060006040848603121561084757600080fd5b610850846107f4565b9250602084013567ffffffffffffffff8082111561086d57600080fd5b818601915086601f83011261088157600080fd5b81358181111561089057600080fd5b8760208285010111156108a257600080fd5b6020830194508093505050509250925092565b600080604083850312156108c857600080fd5b6108d1836107f4565b946020939093013593505050565b6020808252602c908201527f796f7520617265206e6f7420617574686f72697a656420746f2063616c6c207460408201526b3434b990333ab731ba34b7b760a11b606082015260800190565b8183823760009101908152919050565b8082018082111561095c57634e487b7160e01b600052601160045260246000fd5b92915050565b60006020828403121561097457600080fd5b8151801515811461082b57600080fdfea2646970667358221220f01cfc44819736ad2700f1ccee8157e97611a3dc1c2356149275d3fba9f5c13764736f6c63430008120033",
    "linkReferences": {},
    "deployedLinkReferences": {}
}