{
    "_format": "hh-sol-artifact-1",
    "contractName": "Implementation",
    "sourceName": "contracts/Implementation.sol",
    "abi": [
        {
            "anonymous": false,
            "inputs": [
                {
                    "indexed": false,
                    "internalType": "uint8",
                    "name": "version",
                    "type": "uint8"
                }
            ],
            "name": "Initialized",
            "type": "event"
        },
        {
            "anonymous": false,
            "inputs": [
                {
                    "indexed": false,
                    "internalType": "string",
                    "name": "newCipherText",
                    "type": "string"
                }
            ],
            "name": "cipherTextUpdated",
            "type": "event"
        },
        {
            "anonymous": false,
            "inputs": [
                {
                    "indexed": false,
                    "internalType": "enum Implementation.CloseReason",
                    "name": "_reason",
                    "type": "uint8"
                }
            ],
            "name": "closedEarly",
            "type": "event"
        },
        {
            "anonymous": false,
            "inputs": [
                {
                    "indexed": true,
                    "internalType": "address",
                    "name": "_buyer",
                    "type": "address"
                }
            ],
            "name": "contractClosed",
            "type": "event"
        },
        {
            "anonymous": false,
            "inputs": [
                {
                    "indexed": true,
                    "internalType": "address",
                    "name": "_buyer",
                    "type": "address"
                }
            ],
            "name": "contractPurchased",
            "type": "event"
        },
        {
            "anonymous": false,
            "inputs": [
                {
                    "indexed": false,
                    "internalType": "string",
                    "name": "newValidatorURL",
                    "type": "string"
                },
                {
                    "indexed": false,
                    "internalType": "string",
                    "name": "newDestURL",
                    "type": "string"
                }
            ],
            "name": "destinationUpdated",
            "type": "event"
        },
        {
            "anonymous": false,
            "inputs": [],
            "name": "fundsClaimed",
            "type": "event"
        },
        {
            "anonymous": false,
            "inputs": [
                {
                    "indexed": true,
                    "internalType": "address",
                    "name": "_validator",
                    "type": "address"
                }
            ],
            "name": "fundsClaimedValidator",
            "type": "event"
        },
        {
            "anonymous": false,
            "inputs": [
                {
                    "indexed": true,
                    "internalType": "address",
                    "name": "_address",
                    "type": "address"
                }
            ],
            "name": "purchaseInfoUpdated",
            "type": "event"
        },
        {
            "inputs": [],
            "name": "VALIDATOR_FEE_MULT",
            "outputs": [
                {
                    "internalType": "uint16",
                    "name": "",
                    "type": "uint16"
                }
            ],
            "stateMutability": "view",
            "type": "function"
        },
        {
            "inputs": [],
            "name": "buyer",
            "outputs": [
                {
                    "internalType": "address",
                    "name": "",
                    "type": "address"
                }
            ],
            "stateMutability": "view",
            "type": "function"
        },
        {
            "inputs": [],
            "name": "claimFunds",
            "outputs": [],
            "stateMutability": "payable",
            "type": "function"
        },
        {
            "inputs": [],
            "name": "claimFundsValidator",
            "outputs": [],
            "stateMutability": "nonpayable",
            "type": "function"
        },
        {
            "inputs": [],
            "name": "cloneFactory",
            "outputs": [
                {
                    "internalType": "address",
                    "name": "",
                    "type": "address"
                }
            ],
            "stateMutability": "view",
            "type": "function"
        },
        {
            "inputs": [
                {
                    "internalType": "enum Implementation.CloseReason",
                    "name": "reason",
                    "type": "uint8"
                }
            ],
            "name": "closeEarly",
            "outputs": [],
            "stateMutability": "nonpayable",
            "type": "function"
        },
        {
            "inputs": [],
            "name": "contractState",
            "outputs": [
                {
                    "internalType": "enum Implementation.ContractState",
                    "name": "",
                    "type": "uint8"
                }
            ],
            "stateMutability": "view",
            "type": "function"
        },
        {
            "inputs": [],
            "name": "encrDestURL",
            "outputs": [
                {
                    "internalType": "string",
                    "name": "",
                    "type": "string"
                }
            ],
            "stateMutability": "view",
            "type": "function"
        },
        {
            "inputs": [],
            "name": "encrValidatorURL",
            "outputs": [
                {
                    "internalType": "string",
                    "name": "",
                    "type": "string"
                }
            ],
            "stateMutability": "view",
            "type": "function"
        },
        {
            "inputs": [],
            "name": "futureTerms",
            "outputs": [
                {
                    "internalType": "uint256",
                    "name": "_price",
                    "type": "uint256"
                },
                {
                    "internalType": "uint256",
                    "name": "_limit",
                    "type": "uint256"
                },
                {
                    "internalType": "uint256",
                    "name": "_speed",
                    "type": "uint256"
                },
                {
                    "internalType": "uint256",
                    "name": "_length",
                    "type": "uint256"
                },
                {
                    "internalType": "uint32",
                    "name": "_version",
                    "type": "uint32"
                },
                {
                    "internalType": "int8",
                    "name": "_profitTarget",
                    "type": "int8"
                }
            ],
            "stateMutability": "view",
            "type": "function"
        },
        {
            "inputs": [
                {
                    "internalType": "uint256",
                    "name": "_offset",
                    "type": "uint256"
                },
                {
                    "internalType": "uint256",
                    "name": "_limit",
                    "type": "uint256"
                }
            ],
            "name": "getHistory",
            "outputs": [
                {
                    "components": [
                        {
                            "internalType": "bool",
                            "name": "_goodCloseout",
                            "type": "bool"
                        },
                        {
                            "internalType": "uint256",
                            "name": "_purchaseTime",
                            "type": "uint256"
                        },
                        {
                            "internalType": "uint256",
                            "name": "_endTime",
                            "type": "uint256"
                        },
                        {
                            "internalType": "uint256",
                            "name": "_price",
                            "type": "uint256"
                        },
                        {
                            "internalType": "uint256",
                            "name": "_speed",
                            "type": "uint256"
                        },
                        {
                            "internalType": "uint256",
                            "name": "_length",
                            "type": "uint256"
                        },
                        {
                            "internalType": "address",
                            "name": "_buyer",
                            "type": "address"
                        }
                    ],
                    "internalType": "struct Implementation.HistoryEntry[]",
                    "name": "",
                    "type": "tuple[]"
                }
            ],
            "stateMutability": "view",
            "type": "function"
        },
        {
            "inputs": [],
            "name": "getPublicVariables",
            "outputs": [
                {
                    "internalType": "enum Implementation.ContractState",
                    "name": "_state",
                    "type": "uint8"
                },
                {
                    "internalType": "uint256",
                    "name": "_price",
                    "type": "uint256"
                },
                {
                    "internalType": "uint256",
                    "name": "_limit",
                    "type": "uint256"
                },
                {
                    "internalType": "uint256",
                    "name": "_speed",
                    "type": "uint256"
                },
                {
                    "internalType": "uint256",
                    "name": "_length",
                    "type": "uint256"
                },
                {
                    "internalType": "uint256",
                    "name": "_startingBlockTimestamp",
                    "type": "uint256"
                },
                {
                    "internalType": "address",
                    "name": "_buyer",
                    "type": "address"
                },
                {
                    "internalType": "address",
                    "name": "_seller",
                    "type": "address"
                },
                {
                    "internalType": "string",
                    "name": "_encryptedPoolData",
                    "type": "string"
                },
                {
                    "internalType": "bool",
                    "name": "_isDeleted",
                    "type": "bool"
                },
                {
                    "internalType": "uint256",
                    "name": "_balance",
                    "type": "uint256"
                },
                {
                    "internalType": "bool",
                    "name": "_hasFutureTerms",
                    "type": "bool"
                },
                {
                    "internalType": "uint32",
                    "name": "_version",
                    "type": "uint32"
                }
            ],
            "stateMutability": "view",
            "type": "function"
        },
        {
            "inputs": [],
            "name": "getPublicVariablesV2",
            "outputs": [
                {
                    "internalType": "enum Implementation.ContractState",
                    "name": "_state",
                    "type": "uint8"
                },
                {
                    "components": [
                        {
                            "internalType": "uint256",
                            "name": "_price",
                            "type": "uint256"
                        },
                        {
                            "internalType": "uint256",
                            "name": "_limit",
                            "type": "uint256"
                        },
                        {
                            "internalType": "uint256",
                            "name": "_speed",
                            "type": "uint256"
                        },
                        {
                            "internalType": "uint256",
                            "name": "_length",
                            "type": "uint256"
                        },
                        {
                            "internalType": "uint32",
                            "name": "_version",
                            "type": "uint32"
                        },
                        {
                            "internalType": "int8",
                            "name": "_profitTarget",
                            "type": "int8"
                        }
                    ],
                    "internalType": "struct Implementation.Terms",
                    "name": "_terms",
                    "type": "tuple"
                },
                {
                    "internalType": "uint256",
                    "name": "_startingBlockTimestamp",
                    "type": "uint256"
                },
                {
                    "internalType": "address",
                    "name": "_buyer",
                    "type": "address"
                },
                {
                    "internalType": "address",
                    "name": "_seller",
                    "type": "address"
                },
                {
                    "internalType": "string",
                    "name": "_encryptedPoolData",
                    "type": "string"
                },
                {
                    "internalType": "bool",
                    "name": "_isDeleted",
                    "type": "bool"
                },
                {
                    "internalType": "uint256",
                    "name": "_balance",
                    "type": "uint256"
                },
                {
                    "internalType": "bool",
                    "name": "_hasFutureTerms",
                    "type": "bool"
                }
            ],
            "stateMutability": "view",
            "type": "function"
        },
        {
            "inputs": [],
            "name": "getStats",
            "outputs": [
                {
                    "internalType": "uint256",
                    "name": "_successCount",
                    "type": "uint256"
                },
                {
                    "internalType": "uint256",
                    "name": "_failCount",
                    "type": "uint256"
                }
            ],
            "stateMutability": "view",
            "type": "function"
        },
        {
            "inputs": [
                {
                    "internalType": "uint256",
                    "name": "",
                    "type": "uint256"
                }
            ],
            "name": "history",
            "outputs": [
                {
                    "internalType": "bool",
                    "name": "_goodCloseout",
                    "type": "bool"
                },
                {
                    "internalType": "uint256",
                    "name": "_purchaseTime",
                    "type": "uint256"
                },
                {
                    "internalType": "uint256",
                    "name": "_endTime",
                    "type": "uint256"
                },
                {
                    "internalType": "uint256",
                    "name": "_price",
                    "type": "uint256"
                },
                {
                    "internalType": "uint256",
                    "name": "_speed",
                    "type": "uint256"
                },
                {
                    "internalType": "uint256",
                    "name": "_length",
                    "type": "uint256"
                },
                {
                    "internalType": "address",
                    "name": "_buyer",
                    "type": "address"
                }
            ],
            "stateMutability": "view",
            "type": "function"
        },
        {
            "inputs": [
                {
                    "internalType": "uint256",
                    "name": "_price",
                    "type": "uint256"
                },
                {
                    "internalType": "uint256",
                    "name": "_limit",
                    "type": "uint256"
                },
                {
                    "internalType": "uint256",
                    "name": "_speed",
                    "type": "uint256"
                },
                {
                    "internalType": "uint256",
                    "name": "_length",
                    "type": "uint256"
                },
                {
                    "internalType": "int8",
                    "name": "_profitTarget",
                    "type": "int8"
                },
                {
                    "internalType": "address",
                    "name": "_seller",
                    "type": "address"
                },
                {
                    "internalType": "address",
                    "name": "_lmrAddress",
                    "type": "address"
                },
                {
                    "internalType": "address",
                    "name": "_cloneFactory",
                    "type": "address"
                },
                {
                    "internalType": "address",
                    "name": "_validator",
                    "type": "address"
                },
                {
                    "internalType": "string",
                    "name": "_pubKey",
                    "type": "string"
                }
            ],
            "name": "initialize",
            "outputs": [],
            "stateMutability": "nonpayable",
            "type": "function"
        },
        {
            "inputs": [],
            "name": "isDeleted",
            "outputs": [
                {
                    "internalType": "bool",
                    "name": "",
                    "type": "bool"
                }
            ],
            "stateMutability": "view",
            "type": "function"
        },
        {
            "inputs": [],
            "name": "isLastValidatorNotPaid",
            "outputs": [
                {
                    "internalType": "bool",
                    "name": "",
                    "type": "bool"
                }
            ],
            "stateMutability": "view",
            "type": "function"
        },
        {
            "inputs": [],
            "name": "lumerin",
            "outputs": [
                {
                    "internalType": "contract Lumerin",
                    "name": "",
                    "type": "address"
                }
            ],
            "stateMutability": "view",
            "type": "function"
        },
        {
            "inputs": [],
            "name": "pubKey",
            "outputs": [
                {
                    "internalType": "string",
                    "name": "",
                    "type": "string"
                }
            ],
            "stateMutability": "view",
            "type": "function"
        },
        {
            "inputs": [],
            "name": "seller",
            "outputs": [
                {
                    "internalType": "address",
                    "name": "",
                    "type": "address"
                }
            ],
            "stateMutability": "view",
            "type": "function"
        },
        {
            "inputs": [
                {
                    "internalType": "uint256",
                    "name": "closeOutType",
                    "type": "uint256"
                }
            ],
            "name": "setContractCloseOut",
            "outputs": [],
            "stateMutability": "payable",
            "type": "function"
        },
        {
            "inputs": [
                {
                    "internalType": "bool",
                    "name": "_isDeleted",
                    "type": "bool"
                }
            ],
            "name": "setContractDeleted",
            "outputs": [],
            "stateMutability": "nonpayable",
            "type": "function"
        },
        {
            "inputs": [
                {
                    "internalType": "string",
                    "name": "_encrValidatorURL",
                    "type": "string"
                },
                {
                    "internalType": "string",
                    "name": "_encrDestURL",
                    "type": "string"
                }
            ],
            "name": "setDestination",
            "outputs": [],
            "stateMutability": "nonpayable",
            "type": "function"
        },
        {
            "inputs": [
                {
                    "internalType": "string",
                    "name": "_encrValidatorURL",
                    "type": "string"
                },
                {
                    "internalType": "string",
                    "name": "_encrDestURL",
                    "type": "string"
                },
                {
                    "internalType": "address",
                    "name": "_buyer",
                    "type": "address"
                },
                {
                    "internalType": "address",
                    "name": "_validator",
                    "type": "address"
                },
                {
                    "internalType": "uint16",
                    "name": "_validatorFeeRateScaled",
                    "type": "uint16"
                }
            ],
            "name": "setPurchaseContract",
            "outputs": [],
            "stateMutability": "nonpayable",
            "type": "function"
        },
        {
            "inputs": [
                {
                    "internalType": "string",
                    "name": "_newEncryptedPoolData",
                    "type": "string"
                }
            ],
            "name": "setUpdateMiningInformation",
            "outputs": [],
            "stateMutability": "nonpayable",
            "type": "function"
        },
        {
            "inputs": [
                {
                    "internalType": "uint256",
                    "name": "_price",
                    "type": "uint256"
                },
                {
                    "internalType": "uint256",
                    "name": "_limit",
                    "type": "uint256"
                },
                {
                    "internalType": "uint256",
                    "name": "_speed",
                    "type": "uint256"
                },
                {
                    "internalType": "uint256",
                    "name": "_length",
                    "type": "uint256"
                },
                {
                    "internalType": "int8",
                    "name": "_profitTarget",
                    "type": "int8"
                }
            ],
            "name": "setUpdatePurchaseInformation",
            "outputs": [],
            "stateMutability": "nonpayable",
            "type": "function"
        },
        {
            "inputs": [],
            "name": "startingBlockTimestamp",
            "outputs": [
                {
                    "internalType": "uint256",
                    "name": "",
                    "type": "uint256"
                }
            ],
            "stateMutability": "view",
            "type": "function"
        },
        {
            "inputs": [],
            "name": "terms",
            "outputs": [
                {
                    "internalType": "uint256",
                    "name": "_price",
                    "type": "uint256"
                },
                {
                    "internalType": "uint256",
                    "name": "_limit",
                    "type": "uint256"
                },
                {
                    "internalType": "uint256",
                    "name": "_speed",
                    "type": "uint256"
                },
                {
                    "internalType": "uint256",
                    "name": "_length",
                    "type": "uint256"
                },
                {
                    "internalType": "uint32",
                    "name": "_version",
                    "type": "uint32"
                },
                {
                    "internalType": "int8",
                    "name": "_profitTarget",
                    "type": "int8"
                }
            ],
            "stateMutability": "view",
            "type": "function"
        },
        {
            "inputs": [],
            "name": "validator",
            "outputs": [
                {
                    "internalType": "address",
                    "name": "",
                    "type": "address"
                }
            ],
            "stateMutability": "view",
            "type": "function"
        },
        {
            "inputs": [],
            "name": "validatorFeeRateScaled",
            "outputs": [
                {
                    "internalType": "uint16",
                    "name": "",
                    "type": "uint16"
                }
            ],
            "stateMutability": "view",
            "type": "function"
        }
    ],
    "bytecode": "0x608060405234801561001057600080fd5b50612bae806100206000396000f3fe6080604052600436106101d85760003560e01c80638e2e6d5d11610102578063c5095d6811610095578063ca3225fa11610064578063ca3225fa146105e3578063d502562514610611578063d7efb6b71461064b578063e61089711461066557600080fd5b8063c5095d6814610560578063c59d484714610584578063c5a62342146105ae578063c6a10091146105c357600080fd5b8063a7a38f0b116100d1578063a7a38f0b146104c3578063a811af1e14610523578063ac2a5dfd14610543578063ac3077731461055857600080fd5b80638e2e6d5d146104055780639e3a9bb814610418578063a064f9a114610433578063a4e275661461045357600080fd5b8063628eda241161017a578063719e6b5b11610149578063719e6b5b14610379578063829a805a1461039957806385209ee0146103b9578063896187fb146103db57600080fd5b8063628eda24146102f75780636906679b1461030c5780636a5caece146103395780637150d8ae1461035957600080fd5b80633a5381b5116101b65780633a5381b51461025e5780633fd2fd651461027e578063444b5c73146102ae578063567d91f0146102d757600080fd5b806308551a53146101dd5780632ffe55451461021a57806330bad9e11461023c575b600080fd5b3480156101e957600080fd5b50603e546101fd906001600160a01b031681565b6040516001600160a01b0390911681526020015b60405180910390f35b34801561022657600080fd5b5061023a6102353660046121c7565b610685565b005b34801561024857600080fd5b50610251610877565b60405161021191906122d0565b34801561026a57600080fd5b506040546101fd906001600160a01b031681565b34801561028a57600080fd5b50604b5461029e9062010000900460ff1681565b6040519015158152602001610211565b3480156102ba57600080fd5b506102c461271081565b60405161ffff9091168152602001610211565b3480156102e357600080fd5b5061023a6102f23660046122f8565b610905565b34801561030357600080fd5b506102516109b7565b34801561031857600080fd5b5061032c610327366004612315565b6109c4565b6040516102119190612337565b34801561034557600080fd5b5061023a6103543660046123c4565b610b81565b34801561036557600080fd5b50603d546101fd906001600160a01b031681565b34801561038557600080fd5b5061023a6103943660046123e5565b610e95565b3480156103a557600080fd5b5061023a6103b4366004612427565b610f42565b3480156103c557600080fd5b506103ce6111e8565b60405161021191906124fe565b3480156103e757600080fd5b506103f0611218565b6040516102119998979695949392919061250c565b61023a6104133660046125d2565b6113f2565b34801561042457600080fd5b50604b546102c49061ffff1681565b34801561043f57600080fd5b50603f546101fd906001600160a01b031681565b34801561045f57600080fd5b5060455460465460475460485460495461048d949392919063ffffffff811690640100000000900460000b86565b60408051968752602087019590955293850192909252606084015263ffffffff16608083015260000b60a082015260c001610211565b3480156104cf57600080fd5b506104e36104de3660046125d2565b611505565b6040805197151588526020880196909652948601939093526060850191909152608084015260a08301526001600160a01b031660c082015260e001610211565b34801561052f57600080fd5b5061023a61053e3660046125eb565b611561565b34801561054f57600080fd5b50610251611715565b61023a611722565b34801561056c57600080fd5b50610576603c5481565b604051908152602001610211565b34801561059057600080fd5b506105996118cb565b60408051928352602083019190915201610211565b3480156105ba57600080fd5b5061023a611946565b3480156105cf57600080fd5b5061023a6105de366004612634565b611996565b3480156105ef57600080fd5b506105f8611a90565b6040516102119d9c9b9a999897969594939291906126a0565b34801561061d57600080fd5b50603754603854603954603a54603b5461048d949392919063ffffffff811690640100000000900460000b86565b34801561065757600080fd5b5060435461029e9060ff1681565b34801561067157600080fd5b506036546101fd906001600160a01b031681565b600054610100900460ff16158080156106a55750600054600160ff909116105b806106bf5750303b1580156106bf575060005460ff166001145b6107275760405162461bcd60e51b815260206004820152602e60248201527f496e697469616c697a61626c653a20636f6e747261637420697320616c72656160448201526d191e481a5b9a5d1a585b1a5e995960921b60648201526084015b60405180910390fd5b6000805460ff19166001179055801561074a576000805461ff0019166101001790555b6040805160c0810182528d8152602081018d90529081018b9052606081018a905260006080820181905289900b60a09091015260378c905560388b905560398a9055603a899055603b805460ff8a166401000000000264ffffffffff19909116179055603e80546001600160a01b03808a166001600160a01b031992831617909255603f80549288169290911691909117905560426107ea8385836127db565b50604080546001600160a01b038087166001600160a01b0319928316179092556036805492891692909116919091179055610823611c0e565b8015610869576000805461ff0019169055604051600181527f7f26b83ff96e1f2b6a682f133852f6798a09c465da95921460cefb38474024989060200160405180910390a15b505050505050505050505050565b6041805461088490612753565b80601f01602080910402602001604051908101604052809291908181526020018280546108b090612753565b80156108fd5780601f106108d2576101008083540402835291602001916108fd565b820191906000526020600020905b8154815290600101906020018083116108e057829003601f168201915b505050505081565b603f546001600160a01b0316331461092f5760405162461bcd60e51b815260040161071e9061289b565b60435481151560ff9091161515036109a45760405162461bcd60e51b815260206004820152603260248201527f636f6e74726163742064656c65746520737461746520697320616c72656164796044820152712073657420746f20746869732076616c756560701b606482015260840161071e565b6043805460ff1916911515919091179055565b604a805461088490612753565b6044546060908311156109d75760445492505b6044546109e48385612903565b11156109fb576044546109f8908490612916565b91505b60008267ffffffffffffffff811115610a1657610a1661273d565b604051908082528060200260200182016040528015610a9257816020015b610a7f6040518060e00160405280600015158152602001600081526020016000815260200160008152602001600081526020016000815260200160006001600160a01b031681525090565b815260200190600190039081610a345790505b50905060005b83811015610b77576044805482908790610ab490600190612916565b610abe9190612916565b610ac89190612916565b81548110610ad857610ad8612929565b60009182526020918290206040805160e0810182526007909302909101805460ff16151583526001810154938301939093526002830154908201526003820154606082015260048201546080820152600582015460a08201526006909101546001600160a01b031660c08201528251839083908110610b5957610b59612929565b60200260200101819052508080610b6f9061293f565b915050610a98565b5090505b92915050565b603d546001600160a01b0316331480610ba457506040546001600160a01b031633145b610c165760405162461bcd60e51b815260206004820152603b60248201527f74686973206163636f756e74206973206e6f7420617574686f72697a6564207460448201527f6f207472696767657220616e206561726c7920636c6f73656f75740000000000606482015260840161071e565b6001610c206111e8565b6001811115610c3157610c316124d4565b14610c4e5760405162461bcd60e51b815260040161071e90612958565b6044805460009190610c6290600190612916565b81548110610c7257610c72612929565b600091825260208220600790910201805460ff191681554260028201559150610c99611c3f565b6040549091506000906001600160a01b031615610d0c57604b546127109061ffff16610cc3611c5b565b610ccd91906129a0565b610cd791906129b7565b604b5490915060009061271090610cf29061ffff16856129a0565b610cfc91906129b7565b9050610d088184612903565b9250505b604b805462ff0000191690556000603c55610d25611ca1565b603d546040516001600160a01b03909116907faadd128c35976a01ffffa9dfb8d363b3358597ce6b30248bcf25e80bd3af451290600090a27f55ba7028426dc073c5d2688d6c531f1aeeb2c89b28f341f0ed254266a0c856fd84604051610d8c91906129d9565b60405180910390a1603654603d5460405163a9059cbb60e01b81526001600160a01b0391821660048201526024810185905291169063a9059cbb906044016020604051808303816000875af1158015610de9573d6000803e3d6000fd5b505050506040513d601f19601f82011682018060405250810190610e0d91906129f3565b508015610e8f5760365460408054905163a9059cbb60e01b81526001600160a01b0391821660048201526024810184905291169063a9059cbb906044016020604051808303816000875af1158015610e69573d6000803e3d6000fd5b505050506040513d601f19601f82011682018060405250810190610e8d91906129f3565b505b50505050565b603d546001600160a01b03163314610ebf5760405162461bcd60e51b815260040161071e90612a10565b6001610ec96111e8565b6001811115610eda57610eda6124d4565b14610ef75760405162461bcd60e51b815260040161071e90612958565b6041610f048284836127db565b507f2301ef7d9f42b857543faf9e285b5807e028d4ae99810ea7fe0aadda3a717e9d8282604051610f36929190612aa2565b60405180910390a15050565b603f546001600160a01b03163314610fc25760405162461bcd60e51b815260206004820152603a60248201527f746869732061646472657373206973206e6f7420617070726f76656420746f2060448201527f63616c6c207468652070757263686173652066756e6374696f6e000000000000606482015260840161071e565b6000610fcc6111e8565b6001811115610fdd57610fdd6124d4565b146110385760405162461bcd60e51b815260206004820152602560248201527f636f6e7472616374206973206e6f7420696e20616e20617661696c61626c6520604482015264737461746560d81b606482015260840161071e565b611040611e83565b50611049611ca1565b6040805160e081018252600181524260208201819052603a546044938301916110729190612903565b8152603754602080830191909152603954604080840191909152603a546060808501919091526001600160a01b038981166080958601528654600180820189556000988952978590208751600790920201805460ff19169115159190911781559386015196840196909655908401516002830155830151600382015590820151600482015560a0820151600582015560c090910151600690910180546001600160a01b03191691909216179055604161112c8789836127db565b50604a61113a8587836127db565b50603d80546001600160a01b038086166001600160a01b031992831617909255604080549285169290911691909117905542603c55604b805461ffff831661ffff1990911681179091551580159061119a57506001600160a01b03821615155b604b8054911515620100000262ff00001990921691909117905560405133907f0c00d1d6cea0bd55f7d3b6e92ef60237b117b050185fc2816c708fd45f45e5bb90600090a250505050505050565b600080603760030154603c546111fe9190612903565b90508042101561121057600191505090565b600091505090565b6040805160c081018252600080825260208201819052918101829052606081018290526080810182905260a081018290526000806000606060008060008060456003015460001415905061126a6111e8565b603c54603d54603e546043546036546040516370a0823160e01b8152306004820152603795946001600160a01b039081169481169360419360ff909116929116906370a0823190602401602060405180830381865afa1580156112d1573d6000803e3d6000fd5b505050506040513d601f19601f820116820180604052508101906112f59190612abe565b6040805160c08101825288548152600189015460208201526002890154918101919091526003880154606082015260049097015463ffffffff81166080890152640100000000900460000b60a088015282548990849061135490612753565b80601f016020809104026020016040519081016040528092919081815260200182805461138090612753565b80156113cd5780601f106113a2576101008083540402835291602001916113cd565b820191906000526020600020905b8154815290600101906020018083116113b057829003601f168201915b5050505050935099509950995099509950995099509950995050909192939495969798565b80600003611407576114046000610b81565b50565b8060010361141757611404611722565b6002811461140457806003036114af57603e546001600160a01b031633146114a75760405162461bcd60e51b815260206004820152603d60248201527f6f6e6c79207468652073656c6c65722063616e20636c6f73656f757420414e4460448201527f20776974686472617720616674657220636f6e7472616374207465726d000000606482015260840161071e565b611404611722565b60405162461bcd60e51b815260206004820152602560248201527f796f75206d757374206d616b6520612073656c656374696f6e2066726f6d203060448201526420746f203360d81b606482015260840161071e565b6044818154811061151557600080fd5b6000918252602090912060079091020180546001820154600283015460038401546004850154600586015460069096015460ff909516965092949193909291906001600160a01b031687565b603f546001600160a01b0316331461158b5760405162461bcd60e51b815260040161071e9061289b565b60016115956111e8565b60018111156115a6576115a66124d4565b03611649576040805160c0810182528681526020810186905290810184905260608101839052603b5460808201906115e59063ffffffff166001612ad7565b63ffffffff9081168252600084900b6020928301528251604555908201516046556040820151604755606082015160485560808201516049805460a09094015160ff166401000000000264ffffffffff1990941691909216179190911790556116e3565b6040805160c0810182528681526020810186905290810184905260608101839052603b5460808201906116839063ffffffff166001612ad7565b63ffffffff9081168252600084900b60209283015282516037559082015160385560408201516039556060820151603a556080820151603b805460a09094015160ff166401000000000264ffffffffff1990941691909216179190911790555b60405130907f7865b2bbe0087425b223d9cf674d8d5328e31546b364da98c36db21193c17d5590600090a25050505050565b6042805461088490612753565b603e546001600160a01b031633146117925760405162461bcd60e51b815260206004820152602d60248201527f74686973206163636f756e74206973206e6f7420617574686f72697a6564207460448201526c6f20636c61696d2066756e647360981b606482015260840161071e565b6000600161179e6111e8565b60018111156117af576117af6124d4565b036117bf576117bc611c3f565b90505b6040517f5c6a0246cde15dcaffe4c495b5be4c3e0525a2ba9c3f03d6f32095fe118c376a90600090a16117f0611e83565b50604b5460009062010000900460ff1661180b57600061182f565b604b54603754612710916118259161ffff909116906129a0565b61182f91906129b7565b9050611839611ca1565b603f60009054906101000a90046001600160a01b03166001600160a01b0316631088f93f346040518263ffffffff1660e01b815260040160206040518083038185885af115801561188e573d6000803e3d6000fd5b50505050506040513d601f19601f820116820180604052508101906118b391906129f3565b506118c66118c18284612903565b611fbe565b505050565b60008060008060005b60445481101561193c57604481815481106118f1576118f1612929565b600091825260209091206007909102015460ff161561191c57826119148161293f565b93505061192a565b816119268161293f565b9250505b806119348161293f565b9150506118d4565b5090939092509050565b6000611950611e83565b9050806114045760405162461bcd60e51b81526020600482015260146024820152736e6f2066756e647320746f20776974686472617760601b604482015260640161071e565b603d546001600160a01b031633146119c05760405162461bcd60e51b815260040161071e90612a10565b60016119ca6111e8565b60018111156119db576119db6124d4565b146119f85760405162461bcd60e51b815260040161071e90612958565b604a611a058284836127db565b506041611a138486836127db565b507f2301ef7d9f42b857543faf9e285b5807e028d4ae99810ea7fe0aadda3a717e9d8484604051611a45929190612aa2565b60405180910390a17f74e9d8ab61381d8415dfd359c6404d06a0f357a5fda5f29a22fe9512e927763784848484604051611a829493929190612afb565b60405180910390a150505050565b60008060008060008060008060606000806000806000604560030154600014159050611aba6111e8565b603754603854603954603a54603c54603d54603e546043546036546040516370a0823160e01b81523060048201526001600160a01b03948516949384169360419360ff169216906370a0823190602401602060405180830381865afa158015611b27573d6000803e3d6000fd5b505050506040513d601f19601f82011682018060405250810190611b4b9190612abe565b603b5483548d9163ffffffff16908590611b6490612753565b80601f0160208091040260200160405190810160405280929190818152602001828054611b9090612753565b8015611bdd5780601f10611bb257610100808354040283529160200191611bdd565b820191906000526020600020905b815481529060010190602001808311611bc057829003601f168201915b505050505094509d509d509d509d509d509d509d509d509d509d509d509d509d5050909192939495969798999a9b9c565b600054610100900460ff16611c355760405162461bcd60e51b815260040161071e90612b2d565b611c3d6120cf565b565b6000611c49611c5b565b603754611c569190612916565b905090565b600080603c5442611c6c9190612916565b603a549091508111611c9957603a54603754611c899083906129a0565b611c9391906129b7565b91505090565b505060375490565b60495463ffffffff1615611c3d576040518060c001604052806045600001548152602001604560010154815260200160456002015481526020016045600301548152602001604560040160009054906101000a900463ffffffff1663ffffffff168152602001604560040160049054906101000a900460000b60000b81525060376000820151816000015560208201518160010155604082015181600201556060820151816003015560808201518160040160006101000a81548163ffffffff021916908363ffffffff16021790555060a08201518160040160046101000a81548160ff021916908360000b60ff1602179055509050506040518060c0016040528060008152602001600081526020016000815260200160008152602001600063ffffffff1681526020016000800b81525060456000820151816000015560208201518160010155604082015181600201556060820151816003015560808201518160040160006101000a81548163ffffffff021916908363ffffffff16021790555060a08201518160040160046101000a81548160ff021916908360000b60ff160217905550905050306001600160a01b03167f7865b2bbe0087425b223d9cf674d8d5328e31546b364da98c36db21193c17d5560405160405180910390a2565b600080611e8e6111e8565b6001811115611e9f57611e9f6124d4565b148015611eb657506040546001600160a01b031615155b8015611eca5750604b5462010000900460ff165b15611fb857603654604054604b546037546001600160a01b039384169363a9059cbb93169161271091611f019161ffff16906129a0565b611f0b91906129b7565b6040516001600160e01b031960e085901b1681526001600160a01b03909216600483015260248201526044016020604051808303816000875af1158015611f56573d6000803e3d6000fd5b505050506040513d601f19601f82011682018060405250810190611f7a91906129f3565b50604b805462ff00001916905560405133907f97e6caeb0ee93285bb3391ae7ecf34d0f5a555cca282be55288f16a76686efe690600090a250600190565b50600090565b6000611fc86120fc565b6036546040516370a0823160e01b815230600482015260009184916001600160a01b03909116906370a0823190602401602060405180830381865afa158015612015573d6000803e3d6000fd5b505050506040513d601f19601f820116820180604052508101906120399190612abe565b6120439190612916565b603654603e5460405163a9059cbb60e01b81526001600160a01b03918216600482015260248101849052929350169063a9059cbb906044016020604051808303816000875af115801561209a573d6000803e3d6000fd5b505050506040513d601f19601f820116820180604052508101906120be91906129f3565b9150506120ca60018055565b919050565b600054610100900460ff166120f65760405162461bcd60e51b815260040161071e90612b2d565b60018055565b60026001540361214e5760405162461bcd60e51b815260206004820152601f60248201527f5265656e7472616e637947756172643a207265656e7472616e742063616c6c00604482015260640161071e565b6002600155565b8035600081900b81146120ca57600080fd5b80356001600160a01b03811681146120ca57600080fd5b60008083601f84011261219057600080fd5b50813567ffffffffffffffff8111156121a857600080fd5b6020830191508360208285010111156121c057600080fd5b9250929050565b60008060008060008060008060008060006101408c8e0312156121e957600080fd5b8b359a5060208c0135995060408c0135985060608c0135975061220e60808d01612155565b965061221c60a08d01612167565b955061222a60c08d01612167565b945061223860e08d01612167565b93506122476101008d01612167565b92506101208c013567ffffffffffffffff81111561226457600080fd5b6122708e828f0161217e565b915080935050809150509295989b509295989b9093969950565b6000815180845260005b818110156122b057602081850181015186830182015201612294565b506000602082860101526020601f19601f83011685010191505092915050565b6020815260006122e3602083018461228a565b9392505050565b801515811461140457600080fd5b60006020828403121561230a57600080fd5b81356122e3816122ea565b6000806040838503121561232857600080fd5b50508035926020909101359150565b602080825282518282018190526000919060409081850190868401855b828110156123b757815180511515855286810151878601528581015186860152606080820151908601526080808201519086015260a0808201519086015260c0908101516001600160a01b03169085015260e09093019290850190600101612354565b5091979650505050505050565b6000602082840312156123d657600080fd5b8135600481106122e357600080fd5b600080602083850312156123f857600080fd5b823567ffffffffffffffff81111561240f57600080fd5b61241b8582860161217e565b90969095509350505050565b600080600080600080600060a0888a03121561244257600080fd5b873567ffffffffffffffff8082111561245a57600080fd5b6124668b838c0161217e565b909950975060208a013591508082111561247f57600080fd5b5061248c8a828b0161217e565b909650945061249f905060408901612167565b92506124ad60608901612167565b9150608088013561ffff811681146124c457600080fd5b8091505092959891949750929550565b634e487b7160e01b600052602160045260246000fd5b600281106124fa576124fa6124d4565b9052565b60208101610b7b82846124ea565b60006101c061251b838d6124ea565b8a51602084015260208b0151604084015260408b0151606084015260608b0151608084015263ffffffff60808c01511660a084015260a08b015160000b60c08401528960e084015261257961010084018a6001600160a01b03169052565b6001600160a01b0388166101208401528061014084015261259c8184018861228a565b9150506125ae61016083018615159052565b836101808301526125c46101a083018415159052565b9a9950505050505050505050565b6000602082840312156125e457600080fd5b5035919050565b600080600080600060a0868803121561260357600080fd5b8535945060208601359350604086013592506060860135915061262860808701612155565b90509295509295909350565b6000806000806040858703121561264a57600080fd5b843567ffffffffffffffff8082111561266257600080fd5b61266e8883890161217e565b9096509450602087013591508082111561268757600080fd5b506126948782880161217e565b95989497509550505050565b6126aa818f6124ea565b8c60208201528b60408201528a60608201528960808201528860a082015260018060a01b03881660c082015260018060a01b03871660e08201526101a061010082015260006126fd6101a083018861228a565b90508515156101208301528461014083015283151561016083015261272b61018083018463ffffffff169052565b9e9d5050505050505050505050505050565b634e487b7160e01b600052604160045260246000fd5b600181811c9082168061276757607f821691505b60208210810361278757634e487b7160e01b600052602260045260246000fd5b50919050565b601f8211156118c657600081815260208120601f850160051c810160208610156127b45750805b601f850160051c820191505b818110156127d3578281556001016127c0565b505050505050565b67ffffffffffffffff8311156127f3576127f361273d565b612807836128018354612753565b8361278d565b6000601f84116001811461283b57600085156128235750838201355b600019600387901b1c1916600186901b178355610e8d565b600083815260209020601f19861690835b8281101561286c578685013582556020948501946001909201910161284c565b50868210156128895760001960f88860031b161c19848701351681555b505060018560011b0183555050505050565b60208082526032908201527f746869732061646472657373206973206e6f7420617070726f76656420746f2060408201527131b0b636103a3434b990333ab731ba34b7b760711b606082015260800190565b634e487b7160e01b600052601160045260246000fd5b80820180821115610b7b57610b7b6128ed565b81810381811115610b7b57610b7b6128ed565b634e487b7160e01b600052603260045260246000fd5b600060018201612951576129516128ed565b5060010190565b60208082526028908201527f74686520636f6e7472616374206973206e6f7420696e207468652072756e6e696040820152676e6720737461746560c01b606082015260800190565b8082028115828204841417610b7b57610b7b6128ed565b6000826129d457634e487b7160e01b600052601260045260246000fd5b500490565b60208101600483106129ed576129ed6124d4565b91905290565b600060208284031215612a0557600080fd5b81516122e3816122ea565b60208082526043908201527f74686973206163636f756e74206973206e6f7420617574686f72697a6564207460408201527f6f2075706461746520746865206369706865727465787420696e666f726d617460608201526234b7b760e91b608082015260a00190565b81835281816020850137506000828201602090810191909152601f909101601f19169091010190565b602081526000612ab6602083018486612a79565b949350505050565b600060208284031215612ad057600080fd5b5051919050565b63ffffffff818116838216019080821115612af457612af46128ed565b5092915050565b604081526000612b0f604083018688612a79565b8281036020840152612b22818587612a79565b979650505050505050565b6020808252602b908201527f496e697469616c697a61626c653a20636f6e7472616374206973206e6f74206960408201526a6e697469616c697a696e6760a81b60608201526080019056fea2646970667358221220f01d281665393217241c5cb459af00186874ef993745e86a204206b564fc395364736f6c63430008140033",
    "linkReferences": {},
    "deployedLinkReferences": {}
}