{
    "_format": "hh-sol-artifact-1",
    "contractName": "Implementation",
    "sourceName": "contracts/Implementation.sol",
    "abi": [
        {
            "anonymous": false,
            "inputs": [
                {
                    "indexed": false,
                    "internalType": "uint8",
                    "name": "version",
                    "type": "uint8"
                }
            ],
            "name": "Initialized",
            "type": "event"
        },
        {
            "anonymous": false,
            "inputs": [
                {
                    "indexed": false,
                    "internalType": "string",
                    "name": "newCipherText",
                    "type": "string"
                }
            ],
            "name": "cipherTextUpdated",
            "type": "event"
        },
        {
            "anonymous": false,
            "inputs": [
                {
                    "indexed": true,
                    "internalType": "address",
                    "name": "_buyer",
                    "type": "address"
                }
            ],
            "name": "contractClosed",
            "type": "event"
        },
        {
            "anonymous": false,
            "inputs": [
                {
                    "indexed": true,
                    "internalType": "address",
                    "name": "_buyer",
                    "type": "address"
                }
            ],
            "name": "contractPurchased",
            "type": "event"
        },
        {
            "anonymous": false,
            "inputs": [
                {
                    "indexed": false,
                    "internalType": "string",
                    "name": "newValidatorURL",
                    "type": "string"
                },
                {
                    "indexed": false,
                    "internalType": "string",
                    "name": "newDestURL",
                    "type": "string"
                }
            ],
            "name": "destinationUpdated",
            "type": "event"
        },
        {
            "anonymous": false,
            "inputs": [
                {
                    "indexed": true,
                    "internalType": "address",
                    "name": "_address",
                    "type": "address"
                }
            ],
            "name": "purchaseInfoUpdated",
            "type": "event"
        },
        {
            "inputs": [],
            "name": "buyer",
            "outputs": [
                {
                    "internalType": "address",
                    "name": "",
                    "type": "address"
                }
            ],
            "stateMutability": "view",
            "type": "function"
        },
        {
            "inputs": [],
            "name": "cloneFactory",
            "outputs": [
                {
                    "internalType": "address",
                    "name": "",
                    "type": "address"
                }
            ],
            "stateMutability": "view",
            "type": "function"
        },
        {
            "inputs": [],
            "name": "contractState",
            "outputs": [
                {
                    "internalType": "enum Implementation.ContractState",
                    "name": "",
                    "type": "uint8"
                }
            ],
            "stateMutability": "view",
            "type": "function"
        },
        {
            "inputs": [],
            "name": "contractTotal",
            "outputs": [
                {
                    "internalType": "uint256",
                    "name": "",
                    "type": "uint256"
                }
            ],
            "stateMutability": "view",
            "type": "function"
        },
        {
            "inputs": [],
            "name": "encrDestURL",
            "outputs": [
                {
                    "internalType": "string",
                    "name": "",
                    "type": "string"
                }
            ],
            "stateMutability": "view",
            "type": "function"
        },
        {
            "inputs": [],
            "name": "encrValidatorURL",
            "outputs": [
                {
                    "internalType": "string",
                    "name": "",
                    "type": "string"
                }
            ],
            "stateMutability": "view",
            "type": "function"
        },
        {
            "inputs": [],
            "name": "escrow_purchaser",
            "outputs": [
                {
                    "internalType": "address",
                    "name": "",
                    "type": "address"
                }
            ],
            "stateMutability": "view",
            "type": "function"
        },
        {
            "inputs": [],
            "name": "escrow_seller",
            "outputs": [
                {
                    "internalType": "address",
                    "name": "",
                    "type": "address"
                }
            ],
            "stateMutability": "view",
            "type": "function"
        },
        {
            "inputs": [],
            "name": "futureTerms",
            "outputs": [
                {
                    "internalType": "uint256",
                    "name": "_price",
                    "type": "uint256"
                },
                {
                    "internalType": "uint256",
                    "name": "_limit",
                    "type": "uint256"
                },
                {
                    "internalType": "uint256",
                    "name": "_speed",
                    "type": "uint256"
                },
                {
                    "internalType": "uint256",
                    "name": "_length",
                    "type": "uint256"
                },
                {
                    "internalType": "uint32",
                    "name": "_version",
                    "type": "uint32"
                },
                {
                    "internalType": "int8",
                    "name": "_profitTarget",
                    "type": "int8"
                }
            ],
            "stateMutability": "view",
            "type": "function"
        },
        {
            "inputs": [
                {
                    "internalType": "uint256",
                    "name": "_offset",
                    "type": "uint256"
                },
                {
                    "internalType": "uint256",
                    "name": "_limit",
                    "type": "uint256"
                }
            ],
            "name": "getHistory",
            "outputs": [
                {
                    "components": [
                        {
                            "internalType": "bool",
                            "name": "_goodCloseout",
                            "type": "bool"
                        },
                        {
                            "internalType": "uint256",
                            "name": "_purchaseTime",
                            "type": "uint256"
                        },
                        {
                            "internalType": "uint256",
                            "name": "_endTime",
                            "type": "uint256"
                        },
                        {
                            "internalType": "uint256",
                            "name": "_price",
                            "type": "uint256"
                        },
                        {
                            "internalType": "uint256",
                            "name": "_speed",
                            "type": "uint256"
                        },
                        {
                            "internalType": "uint256",
                            "name": "_length",
                            "type": "uint256"
                        },
                        {
                            "internalType": "address",
                            "name": "_buyer",
                            "type": "address"
                        }
                    ],
                    "internalType": "struct Implementation.HistoryEntry[]",
                    "name": "",
                    "type": "tuple[]"
                }
            ],
            "stateMutability": "view",
            "type": "function"
        },
        {
            "inputs": [],
            "name": "getPublicVariables",
            "outputs": [
                {
                    "internalType": "enum Implementation.ContractState",
                    "name": "_state",
                    "type": "uint8"
                },
                {
                    "internalType": "uint256",
                    "name": "_price",
                    "type": "uint256"
                },
                {
                    "internalType": "uint256",
                    "name": "_limit",
                    "type": "uint256"
                },
                {
                    "internalType": "uint256",
                    "name": "_speed",
                    "type": "uint256"
                },
                {
                    "internalType": "uint256",
                    "name": "_length",
                    "type": "uint256"
                },
                {
                    "internalType": "uint256",
                    "name": "_startingBlockTimestamp",
                    "type": "uint256"
                },
                {
                    "internalType": "address",
                    "name": "_buyer",
                    "type": "address"
                },
                {
                    "internalType": "address",
                    "name": "_seller",
                    "type": "address"
                },
                {
                    "internalType": "string",
                    "name": "_encryptedPoolData",
                    "type": "string"
                },
                {
                    "internalType": "bool",
                    "name": "_isDeleted",
                    "type": "bool"
                },
                {
                    "internalType": "uint256",
                    "name": "_balance",
                    "type": "uint256"
                },
                {
                    "internalType": "bool",
                    "name": "_hasFutureTerms",
                    "type": "bool"
                },
                {
                    "internalType": "uint32",
                    "name": "_version",
                    "type": "uint32"
                }
            ],
            "stateMutability": "view",
            "type": "function"
        },
        {
            "inputs": [],
            "name": "getPublicVariablesV2",
            "outputs": [
                {
                    "internalType": "enum Implementation.ContractState",
                    "name": "_state",
                    "type": "uint8"
                },
                {
                    "components": [
                        {
                            "internalType": "uint256",
                            "name": "_price",
                            "type": "uint256"
                        },
                        {
                            "internalType": "uint256",
                            "name": "_limit",
                            "type": "uint256"
                        },
                        {
                            "internalType": "uint256",
                            "name": "_speed",
                            "type": "uint256"
                        },
                        {
                            "internalType": "uint256",
                            "name": "_length",
                            "type": "uint256"
                        },
                        {
                            "internalType": "uint32",
                            "name": "_version",
                            "type": "uint32"
                        },
                        {
                            "internalType": "int8",
                            "name": "_profitTarget",
                            "type": "int8"
                        }
                    ],
                    "internalType": "struct Implementation.Terms",
                    "name": "_terms",
                    "type": "tuple"
                },
                {
                    "internalType": "uint256",
                    "name": "_startingBlockTimestamp",
                    "type": "uint256"
                },
                {
                    "internalType": "address",
                    "name": "_buyer",
                    "type": "address"
                },
                {
                    "internalType": "address",
                    "name": "_seller",
                    "type": "address"
                },
                {
                    "internalType": "string",
                    "name": "_encryptedPoolData",
                    "type": "string"
                },
                {
                    "internalType": "bool",
                    "name": "_isDeleted",
                    "type": "bool"
                },
                {
                    "internalType": "uint256",
                    "name": "_balance",
                    "type": "uint256"
                },
                {
                    "internalType": "bool",
                    "name": "_hasFutureTerms",
                    "type": "bool"
                }
            ],
            "stateMutability": "view",
            "type": "function"
        },
        {
            "inputs": [],
            "name": "getStats",
            "outputs": [
                {
                    "internalType": "uint256",
                    "name": "_successCount",
                    "type": "uint256"
                },
                {
                    "internalType": "uint256",
                    "name": "_failCount",
                    "type": "uint256"
                }
            ],
            "stateMutability": "view",
            "type": "function"
        },
        {
            "inputs": [
                {
                    "internalType": "uint256",
                    "name": "",
                    "type": "uint256"
                }
            ],
            "name": "history",
            "outputs": [
                {
                    "internalType": "bool",
                    "name": "_goodCloseout",
                    "type": "bool"
                },
                {
                    "internalType": "uint256",
                    "name": "_purchaseTime",
                    "type": "uint256"
                },
                {
                    "internalType": "uint256",
                    "name": "_endTime",
                    "type": "uint256"
                },
                {
                    "internalType": "uint256",
                    "name": "_price",
                    "type": "uint256"
                },
                {
                    "internalType": "uint256",
                    "name": "_speed",
                    "type": "uint256"
                },
                {
                    "internalType": "uint256",
                    "name": "_length",
                    "type": "uint256"
                },
                {
                    "internalType": "address",
                    "name": "_buyer",
                    "type": "address"
                }
            ],
            "stateMutability": "view",
            "type": "function"
        },
        {
            "inputs": [
                {
                    "internalType": "uint256",
                    "name": "_price",
                    "type": "uint256"
                },
                {
                    "internalType": "uint256",
                    "name": "_limit",
                    "type": "uint256"
                },
                {
                    "internalType": "uint256",
                    "name": "_speed",
                    "type": "uint256"
                },
                {
                    "internalType": "uint256",
                    "name": "_length",
                    "type": "uint256"
                },
                {
                    "internalType": "int8",
                    "name": "_profitTarget",
                    "type": "int8"
                },
                {
                    "internalType": "address",
                    "name": "_seller",
                    "type": "address"
                },
                {
                    "internalType": "address",
                    "name": "_lmrAddress",
                    "type": "address"
                },
                {
                    "internalType": "address",
                    "name": "_cloneFactory",
                    "type": "address"
                },
                {
                    "internalType": "address",
                    "name": "_validator",
                    "type": "address"
                },
                {
                    "internalType": "string",
                    "name": "_pubKey",
                    "type": "string"
                }
            ],
            "name": "initialize",
            "outputs": [],
            "stateMutability": "nonpayable",
            "type": "function"
        },
        {
            "inputs": [],
            "name": "isDeleted",
            "outputs": [
                {
                    "internalType": "bool",
                    "name": "",
                    "type": "bool"
                }
            ],
            "stateMutability": "view",
            "type": "function"
        },
        {
            "inputs": [],
            "name": "pubKey",
            "outputs": [
                {
                    "internalType": "string",
                    "name": "",
                    "type": "string"
                }
            ],
            "stateMutability": "view",
            "type": "function"
        },
        {
            "inputs": [],
            "name": "seller",
            "outputs": [
                {
                    "internalType": "address",
                    "name": "",
                    "type": "address"
                }
            ],
            "stateMutability": "view",
            "type": "function"
        },
        {
            "inputs": [
                {
                    "internalType": "uint256",
                    "name": "closeOutType",
                    "type": "uint256"
                }
            ],
            "name": "setContractCloseOut",
            "outputs": [],
            "stateMutability": "payable",
            "type": "function"
        },
        {
            "inputs": [
                {
                    "internalType": "bool",
                    "name": "_isDeleted",
                    "type": "bool"
                }
            ],
            "name": "setContractDeleted",
            "outputs": [],
            "stateMutability": "nonpayable",
            "type": "function"
        },
        {
            "inputs": [
                {
                    "internalType": "string",
                    "name": "_encrValidatorURL",
                    "type": "string"
                },
                {
                    "internalType": "string",
                    "name": "_encrDestURL",
                    "type": "string"
                }
            ],
            "name": "setDestination",
            "outputs": [],
            "stateMutability": "nonpayable",
            "type": "function"
        },
        {
            "inputs": [
                {
                    "internalType": "string",
                    "name": "_encrValidatorURL",
                    "type": "string"
                },
                {
                    "internalType": "string",
                    "name": "_encrDestURL",
                    "type": "string"
                },
                {
                    "internalType": "address",
                    "name": "_buyer",
                    "type": "address"
                },
                {
                    "internalType": "address",
                    "name": "_validator",
                    "type": "address"
                }
            ],
            "name": "setPurchaseContract",
            "outputs": [],
            "stateMutability": "nonpayable",
            "type": "function"
        },
        {
            "inputs": [
                {
                    "internalType": "string",
                    "name": "_newEncryptedPoolData",
                    "type": "string"
                }
            ],
            "name": "setUpdateMiningInformation",
            "outputs": [],
            "stateMutability": "nonpayable",
            "type": "function"
        },
        {
            "inputs": [
                {
                    "internalType": "uint256",
                    "name": "_price",
                    "type": "uint256"
                },
                {
                    "internalType": "uint256",
                    "name": "_limit",
                    "type": "uint256"
                },
                {
                    "internalType": "uint256",
                    "name": "_speed",
                    "type": "uint256"
                },
                {
                    "internalType": "uint256",
                    "name": "_length",
                    "type": "uint256"
                },
                {
                    "internalType": "int8",
                    "name": "_profitTarget",
                    "type": "int8"
                }
            ],
            "name": "setUpdatePurchaseInformation",
            "outputs": [],
            "stateMutability": "nonpayable",
            "type": "function"
        },
        {
            "inputs": [],
            "name": "startingBlockTimestamp",
            "outputs": [
                {
                    "internalType": "uint256",
                    "name": "",
                    "type": "uint256"
                }
            ],
            "stateMutability": "view",
            "type": "function"
        },
        {
            "inputs": [],
            "name": "terms",
            "outputs": [
                {
                    "internalType": "uint256",
                    "name": "_price",
                    "type": "uint256"
                },
                {
                    "internalType": "uint256",
                    "name": "_limit",
                    "type": "uint256"
                },
                {
                    "internalType": "uint256",
                    "name": "_speed",
                    "type": "uint256"
                },
                {
                    "internalType": "uint256",
                    "name": "_length",
                    "type": "uint256"
                },
                {
                    "internalType": "uint32",
                    "name": "_version",
                    "type": "uint32"
                },
                {
                    "internalType": "int8",
                    "name": "_profitTarget",
                    "type": "int8"
                }
            ],
            "stateMutability": "view",
            "type": "function"
        },
        {
            "inputs": [],
            "name": "validator",
            "outputs": [
                {
                    "internalType": "address",
                    "name": "",
                    "type": "address"
                }
            ],
            "stateMutability": "view",
            "type": "function"
        }
    ],
    "bytecode": "0x608060405234801561001057600080fd5b50612fa1806100206000396000f3fe60806040526004361061019c5760003560e01c8063896187fb116100ec578063c5095d681161008a578063ca3225fa11610064578063ca3225fa14610538578063ce0c722a14610566578063d502562514610586578063d7efb6b7146105c057600080fd5b8063c5095d68146104d8578063c59d4847146104ee578063c6a100911461051857600080fd5b8063a4e27566116100c6578063a4e27566146103d3578063a7a38f0b14610443578063a811af1e146104a3578063ac2a5dfd146104c357600080fd5b8063896187fb146103765780638e2e6d5d146103a0578063a064f9a1146103b357600080fd5b8063567d91f0116101595780637150d8ae116101335780637150d8ae146102e8578063719e6b5b1461030857806385209ee01461032857806385f45a291461035657600080fd5b8063567d91f014610286578063628eda24146102a65780636906679b146102bb57600080fd5b806308551a53146101a1578063089aa8a2146101de5780630a61e2d9146101fe5780632ffe55451461022257806330bad9e1146102445780633a5381b514610266575b600080fd5b3480156101ad57600080fd5b50603e546101c1906001600160a01b031681565b6040516001600160a01b0390911681526020015b60405180910390f35b3480156101ea57600080fd5b506033546101c1906001600160a01b031681565b34801561020a57600080fd5b5061021460355481565b6040519081526020016101d5565b34801561022e57600080fd5b5061024261023d36600461247b565b6105ea565b005b34801561025057600080fd5b506102596107d5565b6040516101d59190612584565b34801561027257600080fd5b506040546101c1906001600160a01b031681565b34801561029257600080fd5b506102426102a13660046125ac565b610863565b3480156102b257600080fd5b50610259610915565b3480156102c757600080fd5b506102db6102d63660046125c9565b610922565b6040516101d591906125eb565b3480156102f457600080fd5b50603d546101c1906001600160a01b031681565b34801561031457600080fd5b50610242610323366004612678565b610adf565b34801561033457600080fd5b5060365461034990600160a01b900460ff1681565b6040516101d591906126f2565b34801561036257600080fd5b50610242610371366004612700565b610b91565b34801561038257600080fd5b5061038b610d44565b6040516101d599989796959493929190612790565b6102426103ae366004612856565b610f1e565b3480156103bf57600080fd5b50603f546101c1906001600160a01b031681565b3480156103df57600080fd5b5060455460465460475460485460495461040d949392919063ffffffff811690640100000000900460000b86565b60408051968752602087019590955293850192909252606084015263ffffffff16608083015260000b60a082015260c0016101d5565b34801561044f57600080fd5b5061046361045e366004612856565b6119bb565b6040805197151588526020880196909652948601939093526060850191909152608084015260a08301526001600160a01b031660c082015260e0016101d5565b3480156104af57600080fd5b506102426104be36600461286f565b611a17565b3480156104cf57600080fd5b50610259611bcd565b3480156104e457600080fd5b50610214603c5481565b3480156104fa57600080fd5b50610503611bda565b604080519283526020830191909152016101d5565b34801561052457600080fd5b506102426105333660046128b8565b611c55565b34801561054457600080fd5b5061054d611d54565b6040516101d59d9c9b9a99989796959493929190612924565b34801561057257600080fd5b506034546101c1906001600160a01b031681565b34801561059257600080fd5b50603754603854603954603a54603b5461040d949392919063ffffffff811690640100000000900460000b86565b3480156105cc57600080fd5b506043546105da9060ff1681565b60405190151581526020016101d5565b600054610100900460ff161580801561060a5750600054600160ff909116105b806106245750303b158015610624575060005460ff166001145b61068c5760405162461bcd60e51b815260206004820152602e60248201527f496e697469616c697a61626c653a20636f6e747261637420697320616c72656160448201526d191e481a5b9a5d1a585b1a5e995960921b60648201526084015b60405180910390fd5b6000805460ff1916600117905580156106af576000805461ff0019166101001790555b6040805160c0810182528d8152602081018d90529081018b9052606081018a905260006080820181905289900b60a09091015260378c905560388b905560398a9055603a899055603b805464ffffffffff191664010000000060ff8b1602179055603e80546001600160a01b03199081166001600160a01b038a811691909117909255603f80549091169187169190911790556036805460ff60a01b19169055604261075c838583612a5f565b50604080546001600160a01b0319166001600160a01b03861617905561078186611ee4565b80156107c7576000805461ff0019169055604051600181527f7f26b83ff96e1f2b6a682f133852f6798a09c465da95921460cefb38474024989060200160405180910390a15b505050505050505050505050565b604180546107e2906129d7565b80601f016020809104026020016040519081016040528092919081815260200182805461080e906129d7565b801561085b5780601f106108305761010080835404028352916020019161085b565b820191906000526020600020905b81548152906001019060200180831161083e57829003601f168201915b505050505081565b603f546001600160a01b0316331461088d5760405162461bcd60e51b815260040161068390612b1f565b60435481151560ff9091161515036109025760405162461bcd60e51b815260206004820152603260248201527f636f6e74726163742064656c65746520737461746520697320616c72656164796044820152712073657420746f20746869732076616c756560701b6064820152608401610683565b6043805460ff1916911515919091179055565b604a80546107e2906129d7565b6044546060908311156109355760445492505b6044546109428385612b87565b111561095957604454610956908490612b9a565b91505b60008267ffffffffffffffff811115610974576109746129c1565b6040519080825280602002602001820160405280156109f057816020015b6109dd6040518060e00160405280600015158152602001600081526020016000815260200160008152602001600081526020016000815260200160006001600160a01b031681525090565b8152602001906001900390816109925790505b50905060005b83811015610ad5576044805482908790610a1290600190612b9a565b610a1c9190612b9a565b610a269190612b9a565b81548110610a3657610a36612bad565b60009182526020918290206040805160e0810182526007909302909101805460ff16151583526001810154938301939093526002830154908201526003820154606082015260048201546080820152600582015460a08201526006909101546001600160a01b031660c08201528251839083908110610ab757610ab7612bad565b60200260200101819052508080610acd90612bc3565b9150506109f6565b5090505b92915050565b603d546001600160a01b03163314610b095760405162461bcd60e51b815260040161068390612bdc565b6001603654600160a01b900460ff166001811115610b2957610b296126ba565b14610b465760405162461bcd60e51b815260040161068390612c45565b6041610b53828483612a5f565b507f2301ef7d9f42b857543faf9e285b5807e028d4ae99810ea7fe0aadda3a717e9d8282604051610b85929190612cb6565b60405180910390a15050565b603f546001600160a01b03163314610c115760405162461bcd60e51b815260206004820152603a60248201527f746869732061646472657373206973206e6f7420617070726f76656420746f2060448201527f63616c6c207468652070757263686173652066756e6374696f6e0000000000006064820152608401610683565b6000603654600160a01b900460ff166001811115610c3157610c316126ba565b14610c8c5760405162461bcd60e51b815260206004820152602560248201527f636f6e7472616374206973206e6f7420696e20616e20617661696c61626c6520604482015264737461746560d81b6064820152608401610683565b6041610c99868883612a5f565b50604a610ca7848683612a5f565b50603d80546001600160a01b038481166001600160a01b031992831681179093556040805485831690841617815542603c556036805460ff60a01b1916600160a01b179055603e546037546034805486169290941691909117909255603380549093169093179091556035555133907f0c00d1d6cea0bd55f7d3b6e92ef60237b117b050185fc2816c708fd45f45e5bb90600090a2505050505050565b6040805160c081018252600080825260208201819052918101829052606081018290526080810182905260a08101829052604854603654603c54603d54603e546043546040516370a0823160e01b81523060048201526000968796879660609688968796879695151595600160a01b860460ff90811696603796956001600160a01b03908116958116946041949316929116906370a0823190602401602060405180830381865afa158015610dfd573d6000803e3d6000fd5b505050506040513d601f19601f82011682018060405250810190610e219190612cd2565b6040805160c08101825288548152600189015460208201526002890154918101919091526003880154606082015260049097015463ffffffff81166080890152640100000000900460000b60a0880152825489908490610e80906129d7565b80601f0160208091040260200160405190810160405280929190818152602001828054610eac906129d7565b8015610ef95780601f10610ece57610100808354040283529160200191610ef9565b820191906000526020600020905b815481529060010190602001808311610edc57829003601f168201915b5050505050935099509950995099509950995099509950995050909192939495969798565b8060000361122157603d546001600160a01b0316331480610f4957506040546001600160a01b031633145b610fbb5760405162461bcd60e51b815260206004820152603b60248201527f74686973206163636f756e74206973206e6f7420617574686f72697a6564207460448201527f6f207472696767657220616e206561726c7920636c6f73656f757400000000006064820152608401610683565b6001603654600160a01b900460ff166001811115610fdb57610fdb6126ba565b14610ff85760405162461bcd60e51b815260040161068390612c45565b6000611002611f2e565b603a54603c549192506000916110189042612b9a565b6040805160e0810182529290911015808352603c5460208401908152429284019283526037546060850190815260395460808601908152603a5460a08701908152603d546001600160a01b0390811660c089019081526044805460018101825560009190915298517f9b22d3d61959b4d3528b1d8ba932c96fbe302b36a1aad1d95cab54f9e0a135ea6007909a02998a01805460ff191691151591909117905594517f9b22d3d61959b4d3528b1d8ba932c96fbe302b36a1aad1d95cab54f9e0a135eb89015595517f9b22d3d61959b4d3528b1d8ba932c96fbe302b36a1aad1d95cab54f9e0a135ec88015591517f9b22d3d61959b4d3528b1d8ba932c96fbe302b36a1aad1d95cab54f9e0a135ed870155517f9b22d3d61959b4d3528b1d8ba932c96fbe302b36a1aad1d95cab54f9e0a135ee860155517f9b22d3d61959b4d3528b1d8ba932c96fbe302b36a1aad1d95cab54f9e0a135ef850155517f9b22d3d61959b4d3528b1d8ba932c96fbe302b36a1aad1d95cab54f9e0a135f090930180546001600160a01b0319169390921692909217905590506111b9611f81565b603d546040516001600160a01b03909116907faadd128c35976a01ffffa9dfb8d363b3358597ce6b30248bcf25e80bd3af451290600090a260006111fc836121b5565b90508061121b5760405162461bcd60e51b815260040161068390612ceb565b50505050565b8060010361139357603e546001600160a01b031633146112995760405162461bcd60e51b815260206004820152602d60248201527f74686973206163636f756e74206973206e6f7420612073656c6c6572206f662060448201526c1d1a1a5cc818dbdb9d1c9858dd609a1b6064820152608401610683565b60006001603654600160a01b900460ff1660018111156112bb576112bb6126ba565b036112cb576112c8611f2e565b90505b60006112d682612248565b9050806112f55760405162461bcd60e51b815260040161068390612ceb565b603f60009054906101000a90046001600160a01b03166001600160a01b0316631088f93f346040518263ffffffff1660e01b815260040160206040518083038185885af115801561134a573d6000803e3d6000fd5b50505050506040513d601f19601f8201168201806040525081019061136f9190612d22565b90508061138e5760405162461bcd60e51b815260040161068390612d3f565b505050565b806002036115d857603a54603c546113ab9042612b9a565b10156113c95760405162461bcd60e51b815260040161068390612d87565b6001603654600160a01b900460ff1660018111156113e9576113e96126ba565b146114065760405162461bcd60e51b815260040161068390612c45565b6040805160e0810182526001808252603c5460208301908152429383019384526037546060840190815260395460808501908152603a5460a08601908152603d546001600160a01b0390811660c0880190815260448054978801815560005296517f9b22d3d61959b4d3528b1d8ba932c96fbe302b36a1aad1d95cab54f9e0a135ea6007909702968701805460ff191691151591909117905593517f9b22d3d61959b4d3528b1d8ba932c96fbe302b36a1aad1d95cab54f9e0a135eb86015595517f9b22d3d61959b4d3528b1d8ba932c96fbe302b36a1aad1d95cab54f9e0a135ec85015590517f9b22d3d61959b4d3528b1d8ba932c96fbe302b36a1aad1d95cab54f9e0a135ed840155517f9b22d3d61959b4d3528b1d8ba932c96fbe302b36a1aad1d95cab54f9e0a135ee83015592517f9b22d3d61959b4d3528b1d8ba932c96fbe302b36a1aad1d95cab54f9e0a135ef82015590517f9b22d3d61959b4d3528b1d8ba932c96fbe302b36a1aad1d95cab54f9e0a135f090910180546001600160a01b0319169190921617905561159d611f81565b603d546040516001600160a01b03909116907faadd128c35976a01ffffa9dfb8d363b3358597ce6b30248bcf25e80bd3af451290600090a250565b8060030361196257603e546001600160a01b031633146116605760405162461bcd60e51b815260206004820152603d60248201527f6f6e6c79207468652073656c6c65722063616e20636c6f73656f757420414e4460448201527f20776974686472617720616674657220636f6e7472616374207465726d0000006064820152608401610683565b603a54603c546116709042612b9a565b101561168e5760405162461bcd60e51b815260040161068390612d87565b6001603654600160a01b900460ff1660018111156116ae576116ae6126ba565b146116cb5760405162461bcd60e51b815260040161068390612c45565b6040805160e0810182526001808252603c5460208301908152429383019384526037546060840190815260395460808501908152603a5460a08601908152603d546001600160a01b0390811660c0880190815260448054978801815560005296517f9b22d3d61959b4d3528b1d8ba932c96fbe302b36a1aad1d95cab54f9e0a135ea6007909702968701805460ff191691151591909117905593517f9b22d3d61959b4d3528b1d8ba932c96fbe302b36a1aad1d95cab54f9e0a135eb86015595517f9b22d3d61959b4d3528b1d8ba932c96fbe302b36a1aad1d95cab54f9e0a135ec85015590517f9b22d3d61959b4d3528b1d8ba932c96fbe302b36a1aad1d95cab54f9e0a135ed840155517f9b22d3d61959b4d3528b1d8ba932c96fbe302b36a1aad1d95cab54f9e0a135ee83015592517f9b22d3d61959b4d3528b1d8ba932c96fbe302b36a1aad1d95cab54f9e0a135ef82015590517f9b22d3d61959b4d3528b1d8ba932c96fbe302b36a1aad1d95cab54f9e0a135f090910180546001600160a01b03191691909216179055611862611f81565b603d546040516001600160a01b03909116907faadd128c35976a01ffffa9dfb8d363b3358597ce6b30248bcf25e80bd3af451290600090a26000603f60009054906101000a90046001600160a01b03166001600160a01b0316631088f93f346040518263ffffffff1660e01b815260040160206040518083038185885af11580156118f1573d6000803e3d6000fd5b50505050506040513d601f19601f820116820180604052508101906119169190612d22565b9050806119355760405162461bcd60e51b815260040161068390612d3f565b61193f6000612248565b90508061195e5760405162461bcd60e51b815260040161068390612ceb565b5050565b60405162461bcd60e51b815260206004820152602560248201527f796f75206d757374206d616b6520612073656c656374696f6e2066726f6d203060448201526420746f203360d81b6064820152608401610683565b50565b604481815481106119cb57600080fd5b6000918252602090912060079091020180546001820154600283015460038401546004850154600586015460069096015460ff909516965092949193909291906001600160a01b031687565b603f546001600160a01b03163314611a415760405162461bcd60e51b815260040161068390612b1f565b6001603654600160a01b900460ff166001811115611a6157611a616126ba565b03611b04576040805160c0810182528681526020810186905290810184905260608101839052603b546080820190611aa09063ffffffff166001612dd1565b63ffffffff9081168252600084900b6020928301528251604555908201516046556040820151604755606082015160485560808201516049805460a09094015160ff166401000000000264ffffffffff199094169190921617919091179055611bc6565b6040805160c0810182528681526020810186905290810184905260608101839052603b546080820190611b3e9063ffffffff166001612dd1565b63ffffffff9081168252600084810b6020938401528351603755918301516038556040808401516039556060840151603a556080840151603b805460a09096015160ff166401000000000264ffffffffff199096169190931617939093179055905130917f7865b2bbe0087425b223d9cf674d8d5328e31546b364da98c36db21193c17d5591a25b5050505050565b604280546107e2906129d7565b60008060008060005b604454811015611c4b5760448181548110611c0057611c00612bad565b600091825260209091206007909102015460ff1615611c2b5782611c2381612bc3565b935050611c39565b81611c3581612bc3565b9250505b80611c4381612bc3565b915050611be3565b5090939092509050565b603d546001600160a01b03163314611c7f5760405162461bcd60e51b815260040161068390612bdc565b6001603654600160a01b900460ff166001811115611c9f57611c9f6126ba565b14611cbc5760405162461bcd60e51b815260040161068390612c45565b604a611cc9828483612a5f565b506041611cd7848683612a5f565b507f2301ef7d9f42b857543faf9e285b5807e028d4ae99810ea7fe0aadda3a717e9d8484604051611d09929190612cb6565b60405180910390a17f74e9d8ab61381d8415dfd359c6404d06a0f357a5fda5f29a22fe9512e927763784848484604051611d469493929190612df5565b60405180910390a150505050565b604854603654603754603854603954603a54603c54603d54603e546043546040516370a0823160e01b815230600482015260009a8b9a8b9a8b9a8b9a8b9a8b9a8b9a60609a8c9a8b9a8b9a8b9a9015159960ff600160a01b830481169a919991989197919691956001600160a01b0392831695908316946041949290911692909116906370a0823190602401602060405180830381865afa158015611dfd573d6000803e3d6000fd5b505050506040513d601f19601f82011682018060405250810190611e219190612cd2565b603b5483548d9163ffffffff16908590611e3a906129d7565b80601f0160208091040260200160405190810160405280929190818152602001828054611e66906129d7565b8015611eb35780601f10611e8857610100808354040283529160200191611eb3565b820191906000526020600020905b815481529060010190602001808311611e9657829003601f168201915b505050505094509d509d509d509d509d509d509d509d509d509d509d509d509d5050909192939495969798999a9b9c565b600054610100900460ff16611f0b5760405162461bcd60e51b815260040161068390612e27565b603680546001600160a01b0319166001600160a01b0383161790556119b8612354565b600080603c5442611f3f9190612b9a565b603a549091508111611f7957603a54603754611f5c908390612e72565b611f669190612e89565b603754611f739190612b9a565b91505090565b600091505090565b603d80546001600160a01b0319169055604080516020810190915260008152604190611fad9082612eab565b50604080516020810190915260008152604a90611fca9082612eab565b506036805460ff60a01b19169055604854156121b3576040518060c001604052806045600001548152602001604560010154815260200160456002015481526020016045600301548152602001604560040160009054906101000a900463ffffffff1663ffffffff168152602001604560040160049054906101000a900460000b60000b81525060376000820151816000015560208201518160010155604082015181600201556060820151816003015560808201518160040160006101000a81548163ffffffff021916908363ffffffff16021790555060a08201518160040160046101000a81548160ff021916908360000b60ff1602179055509050506040518060c0016040528060008152602001600081526020016000815260200160008152602001600063ffffffff1681526020016000800b81525060456000820151816000015560208201518160010155604082015181600201556060820151816003015560808201518160040160006101000a81548163ffffffff021916908363ffffffff16021790555060a08201518160040160046101000a81548160ff021916908360000b60ff160217905550905050306001600160a01b03167f7865b2bbe0087425b223d9cf674d8d5328e31546b364da98c36db21193c17d5560405160405180910390a25b565b60006121bf612383565b60365460335460405163a9059cbb60e01b81526001600160a01b0391821660048201526024810185905291169063a9059cbb906044016020604051808303816000875af1158015612214573d6000803e3d6000fd5b505050506040513d601f19601f820116820180604052508101906122389190612d22565b905061224360018055565b919050565b6000612252612383565b6036546040516370a0823160e01b815230600482015260009184916001600160a01b03909116906370a0823190602401602060405180830381865afa15801561229f573d6000803e3d6000fd5b505050506040513d601f19601f820116820180604052508101906122c39190612cd2565b6122cd9190612b9a565b60365460345460405163a9059cbb60e01b81526001600160a01b03918216600482015260248101849052929350169063a9059cbb906044016020604051808303816000875af1158015612324573d6000803e3d6000fd5b505050506040513d601f19601f820116820180604052508101906123489190612d22565b91505061224360018055565b600054610100900460ff1661237b5760405162461bcd60e51b815260040161068390612e27565b6121b36123e2565b6002600154036123d55760405162461bcd60e51b815260206004820152601f60248201527f5265656e7472616e637947756172643a207265656e7472616e742063616c6c006044820152606401610683565b6002600155565b60018055565b600054610100900460ff166123dc5760405162461bcd60e51b815260040161068390612e27565b8035600081900b811461224357600080fd5b80356001600160a01b038116811461224357600080fd5b60008083601f84011261244457600080fd5b50813567ffffffffffffffff81111561245c57600080fd5b60208301915083602082850101111561247457600080fd5b9250929050565b60008060008060008060008060008060006101408c8e03121561249d57600080fd5b8b359a5060208c0135995060408c0135985060608c013597506124c260808d01612409565b96506124d060a08d0161241b565b95506124de60c08d0161241b565b94506124ec60e08d0161241b565b93506124fb6101008d0161241b565b92506101208c013567ffffffffffffffff81111561251857600080fd5b6125248e828f01612432565b915080935050809150509295989b509295989b9093969950565b6000815180845260005b8181101561256457602081850181015186830182015201612548565b506000602082860101526020601f19601f83011685010191505092915050565b602081526000612597602083018461253e565b9392505050565b80151581146119b857600080fd5b6000602082840312156125be57600080fd5b81356125978161259e565b600080604083850312156125dc57600080fd5b50508035926020909101359150565b602080825282518282018190526000919060409081850190868401855b8281101561266b57815180511515855286810151878601528581015186860152606080820151908601526080808201519086015260a0808201519086015260c0908101516001600160a01b03169085015260e09093019290850190600101612608565b5091979650505050505050565b6000806020838503121561268b57600080fd5b823567ffffffffffffffff8111156126a257600080fd5b6126ae85828601612432565b90969095509350505050565b634e487b7160e01b600052602160045260246000fd5b600281106126ee57634e487b7160e01b600052602160045260246000fd5b9052565b60208101610ad982846126d0565b6000806000806000806080878903121561271957600080fd5b863567ffffffffffffffff8082111561273157600080fd5b61273d8a838b01612432565b9098509650602089013591508082111561275657600080fd5b5061276389828a01612432565b909550935061277690506040880161241b565b91506127846060880161241b565b90509295509295509295565b60006101c061279f838d6126d0565b8a51602084015260208b0151604084015260408b0151606084015260608b0151608084015263ffffffff60808c01511660a084015260a08b015160000b60c08401528960e08401526127fd61010084018a6001600160a01b03169052565b6001600160a01b038816610120840152806101408401526128208184018861253e565b91505061283261016083018615159052565b836101808301526128486101a083018415159052565b9a9950505050505050505050565b60006020828403121561286857600080fd5b5035919050565b600080600080600060a0868803121561288757600080fd5b853594506020860135935060408601359250606086013591506128ac60808701612409565b90509295509295909350565b600080600080604085870312156128ce57600080fd5b843567ffffffffffffffff808211156128e657600080fd5b6128f288838901612432565b9096509450602087013591508082111561290b57600080fd5b5061291887828801612432565b95989497509550505050565b61292e818f6126d0565b8c60208201528b60408201528a60608201528960808201528860a082015260018060a01b03881660c082015260018060a01b03871660e08201526101a061010082015260006129816101a083018861253e565b9050851515610120830152846101408301528315156101608301526129af61018083018463ffffffff169052565b9e9d5050505050505050505050505050565b634e487b7160e01b600052604160045260246000fd5b600181811c908216806129eb57607f821691505b602082108103612a0b57634e487b7160e01b600052602260045260246000fd5b50919050565b601f82111561138e57600081815260208120601f850160051c81016020861015612a385750805b601f850160051c820191505b81811015612a5757828155600101612a44565b505050505050565b67ffffffffffffffff831115612a7757612a776129c1565b612a8b83612a8583546129d7565b83612a11565b6000601f841160018114612abf5760008515612aa75750838201355b600019600387901b1c1916600186901b178355611bc6565b600083815260209020601f19861690835b82811015612af05786850135825560209485019460019092019101612ad0565b5086821015612b0d5760001960f88860031b161c19848701351681555b505060018560011b0183555050505050565b60208082526032908201527f746869732061646472657373206973206e6f7420617070726f76656420746f2060408201527131b0b636103a3434b990333ab731ba34b7b760711b606082015260800190565b634e487b7160e01b600052601160045260246000fd5b80820180821115610ad957610ad9612b71565b81810381811115610ad957610ad9612b71565b634e487b7160e01b600052603260045260246000fd5b600060018201612bd557612bd5612b71565b5060010190565b60208082526043908201527f74686973206163636f756e74206973206e6f7420617574686f72697a6564207460408201527f6f2075706461746520746865206369706865727465787420696e666f726d617460608201526234b7b760e91b608082015260a00190565b60208082526028908201527f74686520636f6e7472616374206973206e6f7420696e207468652072756e6e696040820152676e6720737461746560c01b606082015260800190565b81835281816020850137506000828201602090810191909152601f909101601f19169091010190565b602081526000612cca602083018486612c8d565b949350505050565b600060208284031215612ce457600080fd5b5051919050565b60208082526018908201527f4661696c656420746f2077697468647261772066756e64730000000000000000604082015260600190565b600060208284031215612d3457600080fd5b81516125978161259e565b60208082526028908201527f4661696c656420746f20706179206d61726b6574706c616365207769746864726040820152676177616c2066656560c01b606082015260800190565b6020808252602a908201527f74686520636f6e7472616374206861732079657420746f206265206361727269604082015269656420746f207465726d60b01b606082015260800190565b63ffffffff818116838216019080821115612dee57612dee612b71565b5092915050565b604081526000612e09604083018688612c8d565b8281036020840152612e1c818587612c8d565b979650505050505050565b6020808252602b908201527f496e697469616c697a61626c653a20636f6e7472616374206973206e6f74206960408201526a6e697469616c697a696e6760a81b606082015260800190565b8082028115828204841417610ad957610ad9612b71565b600082612ea657634e487b7160e01b600052601260045260246000fd5b500490565b815167ffffffffffffffff811115612ec557612ec56129c1565b612ed981612ed384546129d7565b84612a11565b602080601f831160018114612f0e5760008415612ef65750858301515b600019600386901b1c1916600185901b178555612a57565b600085815260208120601f198616915b82811015612f3d57888601518255948401946001909101908401612f1e565b5085821015612f5b5787850151600019600388901b60f8161c191681555b5050505050600190811b0190555056fea2646970667358221220fe3a916b31137881421ba2b71b03603c35ebbb4819f0e7b76cdcd578e55b8c3264736f6c63430008120033",
    "linkReferences": {},
    "deployedLinkReferences": {}
}