{
    "_format": "hh-sol-artifact-1",
    "contractName": "Implementation",
    "sourceName": "contracts/marketplace/Implementation.sol",
    "abi": [
        {
            "inputs": [],
            "stateMutability": "nonpayable",
            "type": "constructor"
        },
        {
            "inputs": [
                {
                    "internalType": "address",
                    "name": "target",
                    "type": "address"
                }
            ],
            "name": "AddressEmptyCode",
            "type": "error"
        },
        {
            "inputs": [
                {
                    "internalType": "address",
                    "name": "implementation",
                    "type": "address"
                }
            ],
            "name": "ERC1967InvalidImplementation",
            "type": "error"
        },
        {
            "inputs": [],
            "name": "ERC1967NonPayable",
            "type": "error"
        },
        {
            "inputs": [],
            "name": "FailedCall",
            "type": "error"
        },
        {
            "inputs": [],
            "name": "InvalidInitialization",
            "type": "error"
        },
        {
            "inputs": [],
            "name": "NotInitializing",
            "type": "error"
        },
        {
            "inputs": [
                {
                    "internalType": "address",
                    "name": "owner",
                    "type": "address"
                }
            ],
            "name": "OwnableInvalidOwner",
            "type": "error"
        },
        {
            "inputs": [
                {
                    "internalType": "address",
                    "name": "account",
                    "type": "address"
                }
            ],
            "name": "OwnableUnauthorizedAccount",
            "type": "error"
        },
        {
            "inputs": [
                {
                    "internalType": "address",
                    "name": "token",
                    "type": "address"
                }
            ],
            "name": "SafeERC20FailedOperation",
            "type": "error"
        },
        {
            "inputs": [],
            "name": "UUPSUnauthorizedCallContext",
            "type": "error"
        },
        {
            "inputs": [
                {
                    "internalType": "bytes32",
                    "name": "slot",
                    "type": "bytes32"
                }
            ],
            "name": "UUPSUnsupportedProxiableUUID",
            "type": "error"
        },
        {
            "anonymous": false,
            "inputs": [
                {
                    "indexed": false,
                    "internalType": "uint64",
                    "name": "version",
                    "type": "uint64"
                }
            ],
            "name": "Initialized",
            "type": "event"
        },
        {
            "anonymous": false,
            "inputs": [
                {
                    "indexed": true,
                    "internalType": "address",
                    "name": "previousOwner",
                    "type": "address"
                },
                {
                    "indexed": true,
                    "internalType": "address",
                    "name": "newOwner",
                    "type": "address"
                }
            ],
            "name": "OwnershipTransferred",
            "type": "event"
        },
        {
            "anonymous": false,
            "inputs": [
                {
                    "indexed": true,
                    "internalType": "address",
                    "name": "implementation",
                    "type": "address"
                }
            ],
            "name": "Upgraded",
            "type": "event"
        },
        {
            "anonymous": false,
            "inputs": [
                {
                    "indexed": false,
                    "internalType": "enum Implementation.CloseReason",
                    "name": "_reason",
                    "type": "uint8"
                }
            ],
            "name": "closedEarly",
            "type": "event"
        },
        {
            "anonymous": false,
            "inputs": [
                {
                    "indexed": true,
                    "internalType": "address",
                    "name": "_buyer",
                    "type": "address"
                }
            ],
            "name": "contractPurchased",
            "type": "event"
        },
        {
            "anonymous": false,
            "inputs": [
                {
                    "indexed": false,
                    "internalType": "string",
                    "name": "newValidatorURL",
                    "type": "string"
                },
                {
                    "indexed": false,
                    "internalType": "string",
                    "name": "newDestURL",
                    "type": "string"
                }
            ],
            "name": "destinationUpdated",
            "type": "event"
        },
        {
            "anonymous": false,
            "inputs": [],
            "name": "fundsClaimed",
            "type": "event"
        },
        {
            "anonymous": false,
            "inputs": [
                {
                    "indexed": true,
                    "internalType": "address",
                    "name": "_address",
                    "type": "address"
                }
            ],
            "name": "purchaseInfoUpdated",
            "type": "event"
        },
        {
            "inputs": [],
            "name": "UPGRADE_INTERFACE_VERSION",
            "outputs": [
                {
                    "internalType": "string",
                    "name": "",
                    "type": "string"
                }
            ],
            "stateMutability": "view",
            "type": "function"
        },
        {
            "inputs": [],
            "name": "VALIDATOR_FEE_DECIMALS",
            "outputs": [
                {
                    "internalType": "uint8",
                    "name": "",
                    "type": "uint8"
                }
            ],
            "stateMutability": "view",
            "type": "function"
        },
        {
            "inputs": [],
            "name": "VERSION",
            "outputs": [
                {
                    "internalType": "string",
                    "name": "",
                    "type": "string"
                }
            ],
            "stateMutability": "view",
            "type": "function"
        },
        {
            "inputs": [],
            "name": "buyer",
            "outputs": [
                {
                    "internalType": "address",
                    "name": "",
                    "type": "address"
                }
            ],
            "stateMutability": "view",
            "type": "function"
        },
        {
            "inputs": [],
            "name": "claimFunds",
            "outputs": [],
            "stateMutability": "payable",
            "type": "function"
        },
        {
            "inputs": [],
            "name": "claimFundsValidator",
            "outputs": [],
            "stateMutability": "nonpayable",
            "type": "function"
        },
        {
            "inputs": [],
            "name": "cloneFactory",
            "outputs": [
                {
                    "internalType": "contract CloneFactory",
                    "name": "",
                    "type": "address"
                }
            ],
            "stateMutability": "view",
            "type": "function"
        },
        {
            "inputs": [
                {
                    "internalType": "enum Implementation.CloseReason",
                    "name": "reason",
                    "type": "uint8"
                }
            ],
            "name": "closeEarly",
            "outputs": [],
            "stateMutability": "nonpayable",
            "type": "function"
        },
        {
            "inputs": [],
            "name": "contractState",
            "outputs": [
                {
                    "internalType": "enum Implementation.ContractState",
                    "name": "",
                    "type": "uint8"
                }
            ],
            "stateMutability": "view",
            "type": "function"
        },
        {
            "inputs": [],
            "name": "encrDestURL",
            "outputs": [
                {
                    "internalType": "string",
                    "name": "",
                    "type": "string"
                }
            ],
            "stateMutability": "view",
            "type": "function"
        },
        {
            "inputs": [],
            "name": "encrValidatorURL",
            "outputs": [
                {
                    "internalType": "string",
                    "name": "",
                    "type": "string"
                }
            ],
            "stateMutability": "view",
            "type": "function"
        },
        {
            "inputs": [],
            "name": "feeToken",
            "outputs": [
                {
                    "internalType": "contract IERC20",
                    "name": "",
                    "type": "address"
                }
            ],
            "stateMutability": "view",
            "type": "function"
        },
        {
            "inputs": [],
            "name": "futureTerms",
            "outputs": [
                {
                    "internalType": "uint256",
                    "name": "_price",
                    "type": "uint256"
                },
                {
                    "internalType": "uint256",
                    "name": "_fee",
                    "type": "uint256"
                },
                {
                    "internalType": "uint256",
                    "name": "_speed",
                    "type": "uint256"
                },
                {
                    "internalType": "uint256",
                    "name": "_length",
                    "type": "uint256"
                },
                {
                    "internalType": "uint32",
                    "name": "_version",
                    "type": "uint32"
                },
                {
                    "internalType": "int8",
                    "name": "_profitTarget",
                    "type": "int8"
                }
            ],
            "stateMutability": "view",
            "type": "function"
        },
        {
            "inputs": [],
            "name": "gap",
            "outputs": [
                {
                    "internalType": "uint256",
                    "name": "",
                    "type": "uint256"
                }
            ],
            "stateMutability": "view",
            "type": "function"
        },
        {
            "inputs": [
                {
                    "internalType": "uint256",
                    "name": "_offset",
                    "type": "uint256"
                },
                {
                    "internalType": "uint8",
                    "name": "_limit",
                    "type": "uint8"
                }
            ],
            "name": "getHistory",
            "outputs": [
                {
                    "components": [
                        {
                            "internalType": "uint256",
                            "name": "_purchaseTime",
                            "type": "uint256"
                        },
                        {
                            "internalType": "uint256",
                            "name": "_endTime",
                            "type": "uint256"
                        },
                        {
                            "internalType": "uint256",
                            "name": "_price",
                            "type": "uint256"
                        },
                        {
                            "internalType": "uint256",
                            "name": "_fee",
                            "type": "uint256"
                        },
                        {
                            "internalType": "uint256",
                            "name": "_speed",
                            "type": "uint256"
                        },
                        {
                            "internalType": "uint256",
                            "name": "_length",
                            "type": "uint256"
                        },
                        {
                            "internalType": "address",
                            "name": "_buyer",
                            "type": "address"
                        },
                        {
                            "internalType": "address",
                            "name": "_validator",
                            "type": "address"
                        }
                    ],
                    "internalType": "struct Implementation.HistoryEntry[]",
                    "name": "",
                    "type": "tuple[]"
                }
            ],
            "stateMutability": "view",
            "type": "function"
        },
        {
            "inputs": [],
            "name": "getPublicVariablesV2",
            "outputs": [
                {
                    "internalType": "enum Implementation.ContractState",
                    "name": "_state",
                    "type": "uint8"
                },
                {
                    "components": [
                        {
                            "internalType": "uint256",
                            "name": "_price",
                            "type": "uint256"
                        },
                        {
                            "internalType": "uint256",
                            "name": "_fee",
                            "type": "uint256"
                        },
                        {
                            "internalType": "uint256",
                            "name": "_speed",
                            "type": "uint256"
                        },
                        {
                            "internalType": "uint256",
                            "name": "_length",
                            "type": "uint256"
                        },
                        {
                            "internalType": "uint32",
                            "name": "_version",
                            "type": "uint32"
                        },
                        {
                            "internalType": "int8",
                            "name": "_profitTarget",
                            "type": "int8"
                        }
                    ],
                    "internalType": "struct Implementation.Terms",
                    "name": "_terms",
                    "type": "tuple"
                },
                {
                    "internalType": "uint256",
                    "name": "_startingBlockTimestamp",
                    "type": "uint256"
                },
                {
                    "internalType": "address",
                    "name": "_buyer",
                    "type": "address"
                },
                {
                    "internalType": "address",
                    "name": "_seller",
                    "type": "address"
                },
                {
                    "internalType": "string",
                    "name": "_encryptedPoolData",
                    "type": "string"
                },
                {
                    "internalType": "bool",
                    "name": "_isDeleted",
                    "type": "bool"
                },
                {
                    "internalType": "uint256",
                    "name": "_balance",
                    "type": "uint256"
                },
                {
                    "internalType": "bool",
                    "name": "_hasFutureTerms",
                    "type": "bool"
                }
            ],
            "stateMutability": "view",
            "type": "function"
        },
        {
            "inputs": [],
            "name": "getStats",
            "outputs": [
                {
                    "internalType": "uint256",
                    "name": "_successCount",
                    "type": "uint256"
                },
                {
                    "internalType": "uint256",
                    "name": "_failCount",
                    "type": "uint256"
                }
            ],
            "stateMutability": "view",
            "type": "function"
        },
        {
            "inputs": [],
            "name": "hashrateOracle",
            "outputs": [
                {
                    "internalType": "contract HashrateOracle",
                    "name": "",
                    "type": "address"
                }
            ],
            "stateMutability": "view",
            "type": "function"
        },
        {
            "inputs": [
                {
                    "internalType": "uint256",
                    "name": "",
                    "type": "uint256"
                }
            ],
            "name": "history",
            "outputs": [
                {
                    "internalType": "uint256",
                    "name": "_purchaseTime",
                    "type": "uint256"
                },
                {
                    "internalType": "uint256",
                    "name": "_endTime",
                    "type": "uint256"
                },
                {
                    "internalType": "uint256",
                    "name": "_price",
                    "type": "uint256"
                },
                {
                    "internalType": "uint256",
                    "name": "_fee",
                    "type": "uint256"
                },
                {
                    "internalType": "uint256",
                    "name": "_speed",
                    "type": "uint256"
                },
                {
                    "internalType": "uint256",
                    "name": "_length",
                    "type": "uint256"
                },
                {
                    "internalType": "address",
                    "name": "_buyer",
                    "type": "address"
                },
                {
                    "internalType": "address",
                    "name": "_validator",
                    "type": "address"
                }
            ],
            "stateMutability": "view",
            "type": "function"
        },
        {
            "inputs": [
                {
                    "internalType": "address",
                    "name": "_cloneFactory",
                    "type": "address"
                },
                {
                    "internalType": "address",
                    "name": "_hashrateOracle",
                    "type": "address"
                },
                {
                    "internalType": "address",
                    "name": "_paymentToken",
                    "type": "address"
                },
                {
                    "internalType": "address",
                    "name": "_feeToken",
                    "type": "address"
                },
                {
                    "internalType": "address",
                    "name": "_seller",
                    "type": "address"
                },
                {
                    "internalType": "string",
                    "name": "_pubKey",
                    "type": "string"
                },
                {
                    "internalType": "uint256",
                    "name": "_speed",
                    "type": "uint256"
                },
                {
                    "internalType": "uint256",
                    "name": "_length",
                    "type": "uint256"
                },
                {
                    "internalType": "int8",
                    "name": "_profitTarget",
                    "type": "int8"
                }
            ],
            "name": "initialize",
            "outputs": [],
            "stateMutability": "nonpayable",
            "type": "function"
        },
        {
            "inputs": [],
            "name": "isDeleted",
            "outputs": [
                {
                    "internalType": "bool",
                    "name": "",
                    "type": "bool"
                }
            ],
            "stateMutability": "view",
            "type": "function"
        },
        {
            "inputs": [],
            "name": "owner",
            "outputs": [
                {
                    "internalType": "address",
                    "name": "",
                    "type": "address"
                }
            ],
            "stateMutability": "view",
            "type": "function"
        },
        {
            "inputs": [],
            "name": "paymentToken",
            "outputs": [
                {
                    "internalType": "contract IERC20",
                    "name": "",
                    "type": "address"
                }
            ],
            "stateMutability": "view",
            "type": "function"
        },
        {
            "inputs": [],
            "name": "priceAndFee",
            "outputs": [
                {
                    "internalType": "uint256",
                    "name": "",
                    "type": "uint256"
                },
                {
                    "internalType": "uint256",
                    "name": "",
                    "type": "uint256"
                }
            ],
            "stateMutability": "view",
            "type": "function"
        },
        {
            "inputs": [],
            "name": "proxiableUUID",
            "outputs": [
                {
                    "internalType": "bytes32",
                    "name": "",
                    "type": "bytes32"
                }
            ],
            "stateMutability": "view",
            "type": "function"
        },
        {
            "inputs": [],
            "name": "pubKey",
            "outputs": [
                {
                    "internalType": "string",
                    "name": "",
                    "type": "string"
                }
            ],
            "stateMutability": "view",
            "type": "function"
        },
        {
            "inputs": [],
            "name": "renounceOwnership",
            "outputs": [],
            "stateMutability": "nonpayable",
            "type": "function"
        },
        {
            "inputs": [],
            "name": "seller",
            "outputs": [
                {
                    "internalType": "address",
                    "name": "",
                    "type": "address"
                }
            ],
            "stateMutability": "view",
            "type": "function"
        },
        {
            "inputs": [
                {
                    "internalType": "bool",
                    "name": "_isDeleted",
                    "type": "bool"
                }
            ],
            "name": "setContractDeleted",
            "outputs": [],
            "stateMutability": "nonpayable",
            "type": "function"
        },
        {
            "inputs": [
                {
                    "internalType": "string",
                    "name": "_encrValidatorURL",
                    "type": "string"
                },
                {
                    "internalType": "string",
                    "name": "_encrDestURL",
                    "type": "string"
                }
            ],
            "name": "setDestination",
            "outputs": [],
            "stateMutability": "nonpayable",
            "type": "function"
        },
        {
            "inputs": [
                {
                    "internalType": "string",
                    "name": "_encrValidatorURL",
                    "type": "string"
                },
                {
                    "internalType": "string",
                    "name": "_encrDestURL",
                    "type": "string"
                },
                {
                    "internalType": "uint256",
                    "name": "_price",
                    "type": "uint256"
                },
                {
                    "internalType": "address",
                    "name": "_buyer",
                    "type": "address"
                },
                {
                    "internalType": "address",
                    "name": "_validator",
                    "type": "address"
                },
                {
                    "internalType": "uint256",
                    "name": "_validatorFeeRateScaled",
                    "type": "uint256"
                }
            ],
            "name": "setPurchaseContract",
            "outputs": [],
            "stateMutability": "nonpayable",
            "type": "function"
        },
        {
            "inputs": [
                {
                    "internalType": "uint256",
                    "name": "_speed",
                    "type": "uint256"
                },
                {
                    "internalType": "uint256",
                    "name": "_length",
                    "type": "uint256"
                },
                {
                    "internalType": "int8",
                    "name": "_profitTarget",
                    "type": "int8"
                }
            ],
            "name": "setUpdatePurchaseInformation",
            "outputs": [],
            "stateMutability": "nonpayable",
            "type": "function"
        },
        {
            "inputs": [],
            "name": "startingBlockTimestamp",
            "outputs": [
                {
                    "internalType": "uint256",
                    "name": "",
                    "type": "uint256"
                }
            ],
            "stateMutability": "view",
            "type": "function"
        },
        {
            "inputs": [],
            "name": "terms",
            "outputs": [
                {
                    "internalType": "uint256",
                    "name": "_price",
                    "type": "uint256"
                },
                {
                    "internalType": "uint256",
                    "name": "_fee",
                    "type": "uint256"
                },
                {
                    "internalType": "uint256",
                    "name": "_speed",
                    "type": "uint256"
                },
                {
                    "internalType": "uint256",
                    "name": "_length",
                    "type": "uint256"
                },
                {
                    "internalType": "uint32",
                    "name": "_version",
                    "type": "uint32"
                },
                {
                    "internalType": "int8",
                    "name": "_profitTarget",
                    "type": "int8"
                }
            ],
            "stateMutability": "view",
            "type": "function"
        },
        {
            "inputs": [
                {
                    "internalType": "address",
                    "name": "newOwner",
                    "type": "address"
                }
            ],
            "name": "transferOwnership",
            "outputs": [],
            "stateMutability": "nonpayable",
            "type": "function"
        },
        {
            "inputs": [
                {
                    "internalType": "address",
                    "name": "newImplementation",
                    "type": "address"
                },
                {
                    "internalType": "bytes",
                    "name": "data",
                    "type": "bytes"
                }
            ],
            "name": "upgradeToAndCall",
            "outputs": [],
            "stateMutability": "payable",
            "type": "function"
        },
        {
            "inputs": [],
            "name": "validator",
            "outputs": [
                {
                    "internalType": "address",
                    "name": "",
                    "type": "address"
                }
            ],
            "stateMutability": "view",
            "type": "function"
        },
        {
            "inputs": [],
            "name": "validatorFeeRateScaled",
            "outputs": [
                {
                    "internalType": "uint256",
                    "name": "",
                    "type": "uint256"
                }
            ],
            "stateMutability": "view",
            "type": "function"
        }
    ],
    "bytecode": "0x60a06040523060805234801561001457600080fd5b5061001d610022565b6100d4565b7ff0c57e16840df040f15088dc2f81fe391c3923bec73e23a9662efc9c229c6a00805468010000000000000000900460ff16156100725760405163f92ee8a960e01b815260040160405180910390fd5b80546001600160401b03908116146100d15780546001600160401b0319166001600160401b0390811782556040519081527fc7f505b2f371ae2175ee4913f4499e1f2633a7b5936321eed1cdaeb6115181d29060200160405180910390a15b50565b608051612f916100fd60003960008181611a8201528181611aab0152611bf10152612f916000f3fe6080604052600436106102255760003560e01c806385209ee011610123578063ad3cb1cc116100ab578063d50256251161006f578063d5025625146106f3578063d7efb6b71461072c578063f2fde38b1461075d578063f87c68b91461077d578063ffa1ad741461079d57600080fd5b8063ad3cb1cc14610651578063c5095d6814610682578063c59d484714610698578063c5a62342146106be578063c6a10091146106d357600080fd5b8063a064f9a1116100f2578063a064f9a11461053e578063a4e275661461055e578063a7a38f0b146105cd578063ac2a5dfd14610634578063ac3077731461064957600080fd5b806385209ee01461049f578063896187fb146104c15780638da5cb5b146104eb5780639e3a9bb81461052857600080fd5b8063567d91f0116101b15780636c32c0a6116101755780636c32c0a61461040d578063715018a6146104235780637150d8ae1461043857806371f3cf54146104585780637cbcd50d1461047857600080fd5b8063567d91f014610378578063628eda2414610398578063647846a5146103ad5780636a3df6eb146103cd5780636a5caece146103ed57600080fd5b806330bad9e1116101f857806330bad9e1146102de5780633988a0d8146103005780633a5381b5146103225780634f1ef2861461034257806352d1902d1461035557600080fd5b806308551a531461022a57806310ad1462146102675780632797ea13146102915780633013ce29146102be575b600080fd5b34801561023657600080fd5b5060115461024a906001600160a01b031681565b6040516001600160a01b0390911681526020015b60405180910390f35b34801561027357600080fd5b5061027c6107ce565b6040805192835260208301919091520161025e565b34801561029d57600080fd5b506102b16102ac366004612447565b6107fb565b60405161025e919061247d565b3480156102ca57600080fd5b5060015461024a906001600160a01b031681565b3480156102ea57600080fd5b506102f36109cf565b60405161025e919061256f565b34801561030c57600080fd5b5061032061031b3660046125f8565b610a5d565b005b34801561032e57600080fd5b5060125461024a906001600160a01b031681565b6103206103503660046126c8565b610d01565b34801561036157600080fd5b5061036a610d20565b60405190815260200161025e565b34801561038457600080fd5b5061032061039336600461278f565b610d3d565b3480156103a457600080fd5b506102f3610d97565b3480156103b957600080fd5b5060005461024a906001600160a01b031681565b3480156103d957600080fd5b506103206103e83660046127b1565b610da4565b3480156103f957600080fd5b50610320610408366004612859565b611035565b34801561041957600080fd5b5061036a60165481565b34801561042f57600080fd5b50610320611244565b34801561044457600080fd5b5060105461024a906001600160a01b031681565b34801561046457600080fd5b5061032061047336600461287a565b611258565b34801561048457600080fd5b5061048d601281565b60405160ff909116815260200161025e565b3480156104ab57600080fd5b506104b4611411565b60405161025e91906128d9565b3480156104cd57600080fd5b506104d6611441565b60405161025e999897969594939291906128e7565b3480156104f757600080fd5b507f9016d09d72d40fdae2fd8ceac6b6234c7706214fd39c1cd1e609a0528c199300546001600160a01b031661024a565b34801561053457600080fd5b5061036a600f5481565b34801561054a57600080fd5b5060035461024a906001600160a01b031681565b34801561056a57600080fd5b50600954600a54600b54600c54600d54610597949392919063ffffffff811690600160201b900460000b86565b60408051968752602087019590955293850192909252606084015263ffffffff16608083015260000b60a082015260c00161025e565b3480156105d957600080fd5b506105ed6105e83660046129a7565b611632565b604080519889526020890197909752958701949094526060860192909252608085015260a08401526001600160a01b0390811660c08401521660e08201526101000161025e565b34801561064057600080fd5b506102f3611695565b6103206116a2565b34801561065d57600080fd5b506102f3604051806040016040528060058152602001640352e302e360dc1b81525081565b34801561068e57600080fd5b5061036a600e5481565b3480156106a457600080fd5b5060185463ffffffff80821691600160201b90041661027c565b3480156106ca57600080fd5b506103206116a2565b3480156106df57600080fd5b506103206106ee3660046129c0565b61173e565b3480156106ff57600080fd5b50600454600554600654600754600854610597949392919063ffffffff811690600160201b900460000b86565b34801561073857600080fd5b5060125461074d90600160a81b900460ff1681565b604051901515815260200161025e565b34801561076957600080fd5b50610320610778366004612a2f565b61186a565b34801561078957600080fd5b5060025461024a906001600160a01b031681565b3480156107a957600080fd5b506102f360405180604001604052806005815260200164322e302e3760d81b81525081565b60008060006107db6118a8565b905060006107f0826107eb611991565b611a35565b919491935090915050565b60175460609083111561080e5760175492505b60175461081e60ff841685612a60565b111561083557601754610832908490612a73565b91505b60008260ff166001600160401b03811115610852576108526126b2565b6040519080825280602002602001820160405280156108dd57816020015b6108ca60405180610100016040528060008152602001600081526020016000815260200160008152602001600081526020016000815260200160006001600160a01b0316815260200160006001600160a01b031681525090565b8152602001906001900390816108705790505b50905060005b8360ff168110156109c557601780548290879061090290600190612a73565b61090c9190612a73565b6109169190612a73565b8154811061092657610926612a86565b600091825260209182902060408051610100810182526008909302909101805483526001810154938301939093526002830154908201526003820154606082015260048201546080820152600582015460a082015260068201546001600160a01b0390811660c083015260079092015490911660e082015282518390839081106109b2576109b2612a86565b60209081029190910101526001016108e3565b5090505b92915050565b601480546109dc90612a9c565b80601f0160208091040260200160405190810160405280929190818152602001828054610a0890612a9c565b8015610a555780601f10610a2a57610100808354040283529160200191610a55565b820191906000526020600020905b815481529060010190602001808311610a3857829003601f168201915b505050505081565b7ff0c57e16840df040f15088dc2f81fe391c3923bec73e23a9662efc9c229c6a008054600160401b810460ff1615906001600160401b0316600081158015610aa25750825b90506000826001600160401b03166001148015610abe5750303b155b905081158015610acc575080155b15610aea5760405163f92ee8a960e01b815260040160405180910390fd5b845467ffffffffffffffff191660011785558315610b1457845460ff60401b1916600160401b1785555b6040518060c001604052806000815260200160008152602001898152602001888152602001600063ffffffff1681526020018760000b81525060046000820151816000015560208201518160010155604082015181600201556060820151816003015560808201518160040160006101000a81548163ffffffff021916908363ffffffff16021790555060a08201518160040160046101000a81548160ff021916908360000b60ff1602179055509050508a601160006101000a8154816001600160a01b0302191690836001600160a01b031602179055508e600360006101000a8154816001600160a01b0302191690836001600160a01b03160217905550898960139182610c24929190612b24565b508b6000806101000a8154816001600160a01b0302191690836001600160a01b031602179055508c600160006101000a8154816001600160a01b0302191690836001600160a01b031602179055508d600260006101000a8154816001600160a01b0302191690836001600160a01b03160217905550610ca1611a5e565b610caa33611a66565b8315610cf057845460ff60401b19168555604051600181527fc7f505b2f371ae2175ee4913f4499e1f2633a7b5936321eed1cdaeb6115181d29060200160405180910390a15b505050505050505050505050505050565b610d09611a77565b610d1282611b1c565b610d1c8282611b24565b5050565b6000610d2a611be6565b50600080516020612f3c83398151915290565b6003546001600160a01b0316336001600160a01b031614610d795760405162461bcd60e51b8152600401610d7090612be3565b60405180910390fd5b60128054911515600160a81b0260ff60a81b19909216919091179055565b601580546109dc90612a9c565b6003546001600160a01b0316336001600160a01b031614610dd75760405162461bcd60e51b8152600401610d7090612be3565b6000610de1611411565b6001811115610df257610df26128af565b14610e4d5760405162461bcd60e51b815260206004820152602560248201527f636f6e7472616374206973206e6f7420696e20616e20617661696c61626c6520604482015264737461746560d81b6064820152608401610d70565b600080600080610e5d6000611c2f565b9350935093509350610e6d611dcd565b601080546001600160a01b03808a166001600160a01b03199283161790925560048a905560128054928916929091169190911790556015610eaf8a8c83612b24565b506014610ebd8c8e83612b24565b5042600e55600f8590556018805463ffffffff16906000610edd83612c2b565b91906101000a81548163ffffffff021916908363ffffffff16021790555050601760405180610100016040528042815260200160046003015442610f219190612a60565b81526004546020820152604001610f388b89611a35565b815260068054602080840191909152600780546040808601919091526001600160a01b03808f166060808801919091528e8216608097880152885460018181018b5560009a8b52998690208951600890920201908155948801519885019890985590860151600284015595850151600383015592840151600482015560a0840151600582015560c084015191810180549286166001600160a01b031993841617905560e090930151929091018054929093169116179055610ffb84848484611fa7565b5060405133907f0c00d1d6cea0bd55f7d3b6e92ef60237b117b050185fc2816c708fd45f45e5bb90600090a2505050505050505050505050565b6010546001600160a01b0316336001600160a01b0316148061106a57506012546001600160a01b0316336001600160a01b0316145b6110dc5760405162461bcd60e51b815260206004820152603b60248201527f74686973206163636f756e74206973206e6f7420617574686f72697a6564207460448201527f6f207472696767657220616e206561726c7920636c6f73656f757400000000006064820152608401610d70565b60016110e6611411565b60018111156110f7576110f76128af565b146111145760405162461bcd60e51b8152600401610d7090612c50565b601780546000919061112890600190612a73565b8154811061113857611138612a86565b6000918252602082204260016008909302909101918201556018805491935063ffffffff9091169161116983612c98565b91906101000a81548163ffffffff021916908363ffffffff160217905550506018600481819054906101000a900463ffffffff16809291906111aa90612c2b565b91906101000a81548163ffffffff021916908363ffffffff160217905550506000806000806111d96001611c2f565b93509350935093506111f06000600e819055600455565b6111f8611dcd565b7f55ba7028426dc073c5d2688d6c531f1aeeb2c89b28f341f0ed254266a0c856fd866040516112279190612cb8565b60405180910390a161123b84848484611fa7565b50505050505050565b61124c61204f565b61125660006120aa565b565b6003546001600160a01b0316336001600160a01b03161461128b5760405162461bcd60e51b8152600401610d7090612be3565b6001611295611411565b60018111156112a6576112a66128af565b03611348576040805160c081018252600080825260208201529081018490526060810183905260085460808201906112e59063ffffffff166001612cd2565b63ffffffff9081168252600084900b602092830152825160095590820151600a556040820151600b556060820151600c556080820151600d805460a09094015160ff16600160201b0264ffffffffff1990941691909216179190911790556113e1565b6040805160c081018252600080825260208201529081018490526060810183905260085460808201906113829063ffffffff166001612cd2565b63ffffffff9081168252600084900b6020928301528251600455908201516005556040820151600655606082015160075560808201516008805460a09094015160ff16600160201b0264ffffffffff1990941691909216179190911790555b60405130907f7865b2bbe0087425b223d9cf674d8d5328e31546b364da98c36db21193c17d5590600090a2505050565b600080600460030154600e546114279190612a60565b90508042101561143957600191505090565b600091505090565b6040805160c081018252600080825260208201819052918101829052606081018290526080810182905260a08101829052600c546040805160c081018252600454815260055460208201526006549181019190915260075460608281019190915260085463ffffffff81166080840152600160201b9004600090810b60a0840152928392839291839182918291901515906114da6118a8565b8082526114e9906107eb611991565b60208201526114f6611411565b600e546010546011546012546001546040516370a0823160e01b81523060048201528795946001600160a01b0390811694811693601493600160a81b90910460ff16929116906370a0823190602401602060405180830381865afa158015611562573d6000803e3d6000fd5b505050506040513d601f19601f820116820180604052508101906115869190612cee565b8983805461159390612a9c565b80601f01602080910402602001604051908101604052809291908181526020018280546115bf90612a9c565b801561160c5780601f106115e15761010080835404028352916020019161160c565b820191906000526020600020905b8154815290600101906020018083116115ef57829003601f168201915b505050505093509a509a509a509a509a509a509a509a509a505050909192939495969798565b6017818154811061164257600080fd5b600091825260209091206008909102018054600182015460028301546003840154600485015460058601546006870154600790970154959750939592949193909290916001600160a01b03918216911688565b601380546109dc90612a9c565b6000806000806116b26000611c2f565b935093509350935060006116c885858585611fa7565b90508061170e5760405162461bcd60e51b81526020600482015260146024820152736e6f2066756e647320746f20776974686472617760601b6044820152606401610d70565b6040517f5c6a0246cde15dcaffe4c495b5be4c3e0525a2ba9c3f03d6f32095fe118c376a90600090a15050505050565b6010546001600160a01b0316336001600160a01b0316146117d35760405162461bcd60e51b815260206004820152604360248201527f74686973206163636f756e74206973206e6f7420617574686f72697a6564207460448201527f6f2075706461746520746865206369706865727465787420696e666f726d617460648201526234b7b760e91b608482015260a401610d70565b60016117dd611411565b60018111156117ee576117ee6128af565b1461180b5760405162461bcd60e51b8152600401610d7090612c50565b6015611818828483612b24565b506014611826848683612b24565b507f74e9d8ab61381d8415dfd359c6404d06a0f357a5fda5f29a22fe9512e92776378484848460405161185c9493929190612d30565b60405180910390a150505050565b61187261204f565b6001600160a01b03811661189c57604051631e4fbdf760e01b815260006004820152602401610d70565b6118a5816120aa565b50565b600080600260009054906101000a90046001600160a01b03166001600160a01b0316633256ce756040518163ffffffff1660e01b8152600401602060405180830381865afa1580156118fe573d6000803e3d6000fd5b505050506040513d601f19601f820116820180604052508101906119229190612cee565b600654600754919250600091839161193991612d62565b6119439190612d8f565b60085490915060009060649061196290600160201b9004830b84612da3565b61196c9190612dd3565b6119769083612e01565b9050600081126119865780611989565b60005b935050505090565b60008061199c611411565b60018111156119ad576119ad6128af565b03611a2e57600360009054906101000a90046001600160a01b03166001600160a01b0316639e3a9bb86040518163ffffffff1660e01b8152600401602060405180830381865afa158015611a05573d6000803e3d6000fd5b505050506040513d601f19601f82011682018060405250810190611a299190612cee565b905090565b50600f5490565b6000611a436012600a612f10565b611a4d8385612d62565b611a579190612d8f565b9392505050565b61125661211b565b611a6e61211b565b6118a581612164565b306001600160a01b037f0000000000000000000000000000000000000000000000000000000000000000161480611afe57507f00000000000000000000000000000000000000000000000000000000000000006001600160a01b0316611af2600080516020612f3c833981519152546001600160a01b031690565b6001600160a01b031614155b156112565760405163703e46dd60e11b815260040160405180910390fd5b6118a561204f565b816001600160a01b03166352d1902d6040518163ffffffff1660e01b8152600401602060405180830381865afa925050508015611b7e575060408051601f3d908101601f19168201909252611b7b91810190612cee565b60015b611ba657604051634c9c8ce360e01b81526001600160a01b0383166004820152602401610d70565b600080516020612f3c8339815191528114611bd757604051632a87526960e21b815260048101829052602401610d70565b611be1838361216c565b505050565b306001600160a01b037f000000000000000000000000000000000000000000000000000000000000000016146112565760405163703e46dd60e11b815260040160405180910390fd5b600080600080611c3f600e541590565b15611c5557506000925082915081905080611dc6565b6012546001600160a01b031615156000611c6d6121c2565b9050600081600460000154611c829190612a73565b9050600083611c92576000611c9e565b611c9e82600f54611a35565b6001546040516370a0823160e01b815230600482015291925060009184916001600160a01b0316906370a0823190602401602060405180830381865afa158015611cec573d6000803e3d6000fd5b505050506040513d601f19601f82011682018060405250810190611d109190612cee565b611d1a9190612a73565b600080546040516370a0823160e01b8152306004820152929350909184916001600160a01b0316906370a0823190602401602060405180830381865afa158015611d68573d6000803e3d6000fd5b505050506040513d601f19601f82011682018060405250810190611d8c9190612cee565b611d969190612a73565b90508a15611db05790985096509094509250611dc6915050565b909850965060009550859450611dc69350505050565b9193509193565b600d5463ffffffff1615611256576040518060c00160405280600081526020016000815260200160096002015481526020016009600301548152602001600960040160009054906101000a900463ffffffff1663ffffffff168152602001600960040160049054906101000a900460000b60000b81525060046000820151816000015560208201518160010155604082015181600201556060820151816003015560808201518160040160006101000a81548163ffffffff021916908363ffffffff16021790555060a08201518160040160046101000a81548160ff021916908360000b60ff1602179055509050506040518060c0016040528060008152602001600081526020016000815260200160008152602001600063ffffffff1681526020016000800b81525060096000820151816000015560208201518160010155604082015181600201556060820151816003015560808201518160040160006101000a81548163ffffffff021916908363ffffffff16021790555060a08201518160040160046101000a81548160ff021916908360000b60ff160217905550905050306001600160a01b03167f7865b2bbe0087425b223d9cf674d8d5328e31546b364da98c36db21193c17d5560405160405180910390a2565b6000808515611fd15750601154600180549091611fd1916001600160a01b03908116911688612208565b8415611ff85750601254600054600191611ff8916001600160a01b03908116911687612208565b831561201f575060105460018054909161201f916001600160a01b03908116911686612208565b82156120465750601054600054600191612046916001600160a01b03908116911685612208565b95945050505050565b336120817f9016d09d72d40fdae2fd8ceac6b6234c7706214fd39c1cd1e609a0528c199300546001600160a01b031690565b6001600160a01b0316146112565760405163118cdaa760e01b8152336004820152602401610d70565b7f9016d09d72d40fdae2fd8ceac6b6234c7706214fd39c1cd1e609a0528c19930080546001600160a01b031981166001600160a01b03848116918217845560405192169182907f8be0079c531659141344cd1fd0a4f28419497f9722a3daafe3b4186f6b6457e090600090a3505050565b7ff0c57e16840df040f15088dc2f81fe391c3923bec73e23a9662efc9c229c6a0054600160401b900460ff1661125657604051631afcd79f60e31b815260040160405180910390fd5b61187261211b565b6121758261225a565b6040516001600160a01b038316907fbc7cd75a20ee27fd9adebab32041f755214dbc6bffa90cc0225b39da2e5c2d3b90600090a28051156121ba57611be182826122bf565b610d1c61232c565b600080600e54426121d39190612a73565b6007549091508111612200576007546004546121f0908390612d62565b6121fa9190612d8f565b91505090565b505060045490565b604080516001600160a01b038416602482015260448082018490528251808303909101815260649091019091526020810180516001600160e01b031663a9059cbb60e01b179052611be190849061234b565b806001600160a01b03163b60000361229057604051634c9c8ce360e01b81526001600160a01b0382166004820152602401610d70565b600080516020612f3c83398151915280546001600160a01b0319166001600160a01b0392909216919091179055565b6060600080846001600160a01b0316846040516122dc9190612f1f565b600060405180830381855af49150503d8060008114612317576040519150601f19603f3d011682016040523d82523d6000602084013e61231c565b606091505b50915091506120468583836123c2565b34156112565760405163b398979f60e01b815260040160405180910390fd5b600080602060008451602086016000885af18061236e576040513d6000823e3d81fd5b50506000513d91508115612386578060011415612393565b6001600160a01b0384163b155b156123bc57604051635274afe760e01b81526001600160a01b0385166004820152602401610d70565b50505050565b6060826123d7576123d28261241e565b611a57565b81511580156123ee57506001600160a01b0384163b155b1561241757604051639996b31560e01b81526001600160a01b0385166004820152602401610d70565b5092915050565b80511561242e5780518082602001fd5b60405163d6bda27560e01b815260040160405180910390fd5b6000806040838503121561245a57600080fd5b82359150602083013560ff8116811461247257600080fd5b809150509250929050565b602080825282518282018190526000918401906040840190835b81811015612514578351805184526020810151602085015260408101516040850152606081015160608501526080810151608085015260a081015160a085015260018060a01b0360c08201511660c085015260018060a01b0360e08201511660e08501525061010083019250602084019350600181019050612497565b509095945050505050565b60005b8381101561253a578181015183820152602001612522565b50506000910152565b6000815180845261255b81602086016020860161251f565b601f01601f19169290920160200192915050565b602081526000611a576020830184612543565b80356001600160a01b038116811461259957600080fd5b919050565b60008083601f8401126125b057600080fd5b5081356001600160401b038111156125c757600080fd5b6020830191508360208285010111156125df57600080fd5b9250929050565b8035600081900b811461259957600080fd5b6000806000806000806000806000806101208b8d03121561261857600080fd5b6126218b612582565b995061262f60208c01612582565b985061263d60408c01612582565b975061264b60608c01612582565b965061265960808c01612582565b955060a08b01356001600160401b0381111561267457600080fd5b6126808d828e0161259e565b90965094505060c08b0135925060e08b013591506126a16101008c016125e6565b90509295989b9194979a5092959850565b634e487b7160e01b600052604160045260246000fd5b600080604083850312156126db57600080fd5b6126e483612582565b915060208301356001600160401b038111156126ff57600080fd5b8301601f8101851361271057600080fd5b80356001600160401b03811115612729576127296126b2565b604051601f8201601f19908116603f011681016001600160401b0381118282101715612757576127576126b2565b60405281815282820160200187101561276f57600080fd5b816020840160208301376000602083830101528093505050509250929050565b6000602082840312156127a157600080fd5b81358015158114611a5757600080fd5b60008060008060008060008060c0898b0312156127cd57600080fd5b88356001600160401b038111156127e357600080fd5b6127ef8b828c0161259e565b90995097505060208901356001600160401b0381111561280e57600080fd5b61281a8b828c0161259e565b9097509550506040890135935061283360608a01612582565b925061284160808a01612582565b979a969950949793969295919450919260a001359150565b60006020828403121561286b57600080fd5b813560048110611a5757600080fd5b60008060006060848603121561288f57600080fd5b83359250602084013591506128a6604085016125e6565b90509250925092565b634e487b7160e01b600052602160045260246000fd5b600281106128d5576128d56128af565b9052565b602081016109c982846128c5565b6128f1818b6128c5565b8851602082015260208901516040820152604089015160608201526060890151608082015263ffffffff60808a01511660a082015260a089015160000b60c08201528760e082015261294f6101008201886001600160a01b03169052565b6001600160a01b0386166101208201526101c061014082015260006129786101c0830187612543565b8515156101608401529050836101808301526129996101a083018415159052565b9a9950505050505050505050565b6000602082840312156129b957600080fd5b5035919050565b600080600080604085870312156129d657600080fd5b84356001600160401b038111156129ec57600080fd5b6129f88782880161259e565b90955093505060208501356001600160401b03811115612a1757600080fd5b612a238782880161259e565b95989497509550505050565b600060208284031215612a4157600080fd5b611a5782612582565b634e487b7160e01b600052601160045260246000fd5b808201808211156109c9576109c9612a4a565b818103818111156109c9576109c9612a4a565b634e487b7160e01b600052603260045260246000fd5b600181811c90821680612ab057607f821691505b602082108103612ad057634e487b7160e01b600052602260045260246000fd5b50919050565b601f821115611be157806000526020600020601f840160051c81016020851015612afd5750805b601f840160051c820191505b81811015612b1d5760008155600101612b09565b5050505050565b6001600160401b03831115612b3b57612b3b6126b2565b612b4f83612b498354612a9c565b83612ad6565b6000601f841160018114612b835760008515612b6b5750838201355b600019600387901b1c1916600186901b178355612b1d565b600083815260209020601f19861690835b82811015612bb45786850135825560209485019460019092019101612b94565b5086821015612bd15760001960f88860031b161c19848701351681555b505060018560011b0183555050505050565b60208082526028908201527f6f6e6c7920636c6f6e65666163746f72792063616e2063616c6c207468697320604082015267333ab731ba34b7b760c11b606082015260800190565b600063ffffffff821663ffffffff8103612c4757612c47612a4a565b60010192915050565b60208082526028908201527f74686520636f6e7472616374206973206e6f7420696e207468652072756e6e696040820152676e6720737461746560c01b606082015260800190565b600063ffffffff821680612cae57612cae612a4a565b6000190192915050565b6020810160048310612ccc57612ccc6128af565b91905290565b63ffffffff81811683821601908111156109c9576109c9612a4a565b600060208284031215612d0057600080fd5b5051919050565b81835281816020850137506000828201602090810191909152601f909101601f19169091010190565b604081526000612d44604083018688612d07565b8281036020840152612d57818587612d07565b979650505050505050565b80820281158282048414176109c9576109c9612a4a565b634e487b7160e01b600052601260045260246000fd5b600082612d9e57612d9e612d79565b500490565b80820260008212600160ff1b84141615612dbf57612dbf612a4a565b81810583148215176109c9576109c9612a4a565b600082612de257612de2612d79565b600160ff1b821460001984141615612dfc57612dfc612a4a565b500590565b8082018281126000831280158216821582161715612e2157612e21612a4a565b505092915050565b6001815b6001841115612e6457808504811115612e4857612e48612a4a565b6001841615612e5657908102905b60019390931c928002612e2d565b935093915050565b600082612e7b575060016109c9565b81612e88575060006109c9565b8160018114612e9e5760028114612ea857612ec4565b60019150506109c9565b60ff841115612eb957612eb9612a4a565b50506001821b6109c9565b5060208310610133831016604e8410600b8410161715612ee7575081810a6109c9565b612ef46000198484612e29565b8060001904821115612f0857612f08612a4a565b029392505050565b6000611a5760ff841683612e6c565b60008251612f3181846020870161251f565b919091019291505056fe360894a13ba1a3210667c828492db98dca3e2076cc3735a920a3ca505d382bbca264697066735822122025e6f10ef99d6ce0fb4e9c5576b34f41eeac1d8b8a7b422d6ec3a5f75a66729264736f6c634300081a0033",
    "linkReferences": {},
    "deployedLinkReferences": {}
}