{
    "_format": "hh-sol-artifact-1",
    "contractName": "Implementation",
    "sourceName": "contracts/marketplace/Implementation.sol",
    "abi": [
        {
            "inputs": [
                {
                    "internalType": "address",
                    "name": "target",
                    "type": "address"
                }
            ],
            "name": "AddressEmptyCode",
            "type": "error"
        },
        {
            "inputs": [
                {
                    "internalType": "address",
                    "name": "implementation",
                    "type": "address"
                }
            ],
            "name": "ERC1967InvalidImplementation",
            "type": "error"
        },
        {
            "inputs": [],
            "name": "ERC1967NonPayable",
            "type": "error"
        },
        {
            "inputs": [],
            "name": "FailedCall",
            "type": "error"
        },
        {
            "inputs": [],
            "name": "InvalidInitialization",
            "type": "error"
        },
        {
            "inputs": [],
            "name": "NotInitializing",
            "type": "error"
        },
        {
            "inputs": [
                {
                    "internalType": "address",
                    "name": "owner",
                    "type": "address"
                }
            ],
            "name": "OwnableInvalidOwner",
            "type": "error"
        },
        {
            "inputs": [
                {
                    "internalType": "address",
                    "name": "account",
                    "type": "address"
                }
            ],
            "name": "OwnableUnauthorizedAccount",
            "type": "error"
        },
        {
            "inputs": [],
            "name": "ReentrancyGuardReentrantCall",
            "type": "error"
        },
        {
            "inputs": [
                {
                    "internalType": "address",
                    "name": "token",
                    "type": "address"
                }
            ],
            "name": "SafeERC20FailedOperation",
            "type": "error"
        },
        {
            "inputs": [],
            "name": "UUPSUnauthorizedCallContext",
            "type": "error"
        },
        {
            "inputs": [
                {
                    "internalType": "bytes32",
                    "name": "slot",
                    "type": "bytes32"
                }
            ],
            "name": "UUPSUnsupportedProxiableUUID",
            "type": "error"
        },
        {
            "anonymous": false,
            "inputs": [
                {
                    "indexed": false,
                    "internalType": "uint64",
                    "name": "version",
                    "type": "uint64"
                }
            ],
            "name": "Initialized",
            "type": "event"
        },
        {
            "anonymous": false,
            "inputs": [
                {
                    "indexed": true,
                    "internalType": "address",
                    "name": "previousOwner",
                    "type": "address"
                },
                {
                    "indexed": true,
                    "internalType": "address",
                    "name": "newOwner",
                    "type": "address"
                }
            ],
            "name": "OwnershipTransferred",
            "type": "event"
        },
        {
            "anonymous": false,
            "inputs": [
                {
                    "indexed": true,
                    "internalType": "address",
                    "name": "implementation",
                    "type": "address"
                }
            ],
            "name": "Upgraded",
            "type": "event"
        },
        {
            "anonymous": false,
            "inputs": [
                {
                    "indexed": false,
                    "internalType": "enum Implementation.CloseReason",
                    "name": "_reason",
                    "type": "uint8"
                }
            ],
            "name": "closedEarly",
            "type": "event"
        },
        {
            "anonymous": false,
            "inputs": [
                {
                    "indexed": true,
                    "internalType": "address",
                    "name": "_buyer",
                    "type": "address"
                }
            ],
            "name": "contractPurchased",
            "type": "event"
        },
        {
            "anonymous": false,
            "inputs": [
                {
                    "indexed": false,
                    "internalType": "string",
                    "name": "newValidatorURL",
                    "type": "string"
                },
                {
                    "indexed": false,
                    "internalType": "string",
                    "name": "newDestURL",
                    "type": "string"
                }
            ],
            "name": "destinationUpdated",
            "type": "event"
        },
        {
            "anonymous": false,
            "inputs": [],
            "name": "fundsClaimed",
            "type": "event"
        },
        {
            "anonymous": false,
            "inputs": [
                {
                    "indexed": true,
                    "internalType": "address",
                    "name": "_address",
                    "type": "address"
                }
            ],
            "name": "purchaseInfoUpdated",
            "type": "event"
        },
        {
            "inputs": [],
            "name": "UPGRADE_INTERFACE_VERSION",
            "outputs": [
                {
                    "internalType": "string",
                    "name": "",
                    "type": "string"
                }
            ],
            "stateMutability": "view",
            "type": "function"
        },
        {
            "inputs": [],
            "name": "VALIDATOR_FEE_DECIMALS",
            "outputs": [
                {
                    "internalType": "uint8",
                    "name": "",
                    "type": "uint8"
                }
            ],
            "stateMutability": "view",
            "type": "function"
        },
        {
            "inputs": [],
            "name": "VERSION",
            "outputs": [
                {
                    "internalType": "string",
                    "name": "",
                    "type": "string"
                }
            ],
            "stateMutability": "view",
            "type": "function"
        },
        {
            "inputs": [],
            "name": "buyer",
            "outputs": [
                {
                    "internalType": "address",
                    "name": "",
                    "type": "address"
                }
            ],
            "stateMutability": "view",
            "type": "function"
        },
        {
            "inputs": [],
            "name": "claimFunds",
            "outputs": [],
            "stateMutability": "payable",
            "type": "function"
        },
        {
            "inputs": [],
            "name": "claimFundsValidator",
            "outputs": [],
            "stateMutability": "nonpayable",
            "type": "function"
        },
        {
            "inputs": [],
            "name": "cloneFactory",
            "outputs": [
                {
                    "internalType": "contract CloneFactory",
                    "name": "",
                    "type": "address"
                }
            ],
            "stateMutability": "view",
            "type": "function"
        },
        {
            "inputs": [
                {
                    "internalType": "enum Implementation.CloseReason",
                    "name": "reason",
                    "type": "uint8"
                }
            ],
            "name": "closeEarly",
            "outputs": [],
            "stateMutability": "nonpayable",
            "type": "function"
        },
        {
            "inputs": [],
            "name": "contractState",
            "outputs": [
                {
                    "internalType": "enum Implementation.ContractState",
                    "name": "",
                    "type": "uint8"
                }
            ],
            "stateMutability": "view",
            "type": "function"
        },
        {
            "inputs": [],
            "name": "encrDestURL",
            "outputs": [
                {
                    "internalType": "string",
                    "name": "",
                    "type": "string"
                }
            ],
            "stateMutability": "view",
            "type": "function"
        },
        {
            "inputs": [],
            "name": "encrValidatorURL",
            "outputs": [
                {
                    "internalType": "string",
                    "name": "",
                    "type": "string"
                }
            ],
            "stateMutability": "view",
            "type": "function"
        },
        {
            "inputs": [],
            "name": "feeToken",
            "outputs": [
                {
                    "internalType": "contract IERC20",
                    "name": "",
                    "type": "address"
                }
            ],
            "stateMutability": "view",
            "type": "function"
        },
        {
            "inputs": [],
            "name": "futureTerms",
            "outputs": [
                {
                    "internalType": "uint256",
                    "name": "_price",
                    "type": "uint256"
                },
                {
                    "internalType": "uint256",
                    "name": "_fee",
                    "type": "uint256"
                },
                {
                    "internalType": "uint256",
                    "name": "_speed",
                    "type": "uint256"
                },
                {
                    "internalType": "uint256",
                    "name": "_length",
                    "type": "uint256"
                },
                {
                    "internalType": "uint32",
                    "name": "_version",
                    "type": "uint32"
                },
                {
                    "internalType": "int8",
                    "name": "_profitTarget",
                    "type": "int8"
                }
            ],
            "stateMutability": "view",
            "type": "function"
        },
        {
            "inputs": [],
            "name": "gap",
            "outputs": [
                {
                    "internalType": "uint256",
                    "name": "",
                    "type": "uint256"
                }
            ],
            "stateMutability": "view",
            "type": "function"
        },
        {
            "inputs": [
                {
                    "internalType": "uint256",
                    "name": "_offset",
                    "type": "uint256"
                },
                {
                    "internalType": "uint256",
                    "name": "_limit",
                    "type": "uint256"
                }
            ],
            "name": "getHistory",
            "outputs": [
                {
                    "components": [
                        {
                            "internalType": "uint256",
                            "name": "_purchaseTime",
                            "type": "uint256"
                        },
                        {
                            "internalType": "uint256",
                            "name": "_endTime",
                            "type": "uint256"
                        },
                        {
                            "internalType": "uint256",
                            "name": "_price",
                            "type": "uint256"
                        },
                        {
                            "internalType": "uint256",
                            "name": "_fee",
                            "type": "uint256"
                        },
                        {
                            "internalType": "uint256",
                            "name": "_speed",
                            "type": "uint256"
                        },
                        {
                            "internalType": "uint256",
                            "name": "_length",
                            "type": "uint256"
                        },
                        {
                            "internalType": "address",
                            "name": "_buyer",
                            "type": "address"
                        },
                        {
                            "internalType": "address",
                            "name": "_validator",
                            "type": "address"
                        }
                    ],
                    "internalType": "struct Implementation.HistoryEntry[]",
                    "name": "",
                    "type": "tuple[]"
                }
            ],
            "stateMutability": "view",
            "type": "function"
        },
        {
            "inputs": [],
            "name": "getPublicVariablesV2",
            "outputs": [
                {
                    "internalType": "enum Implementation.ContractState",
                    "name": "_state",
                    "type": "uint8"
                },
                {
                    "components": [
                        {
                            "internalType": "uint256",
                            "name": "_price",
                            "type": "uint256"
                        },
                        {
                            "internalType": "uint256",
                            "name": "_fee",
                            "type": "uint256"
                        },
                        {
                            "internalType": "uint256",
                            "name": "_speed",
                            "type": "uint256"
                        },
                        {
                            "internalType": "uint256",
                            "name": "_length",
                            "type": "uint256"
                        },
                        {
                            "internalType": "uint32",
                            "name": "_version",
                            "type": "uint32"
                        },
                        {
                            "internalType": "int8",
                            "name": "_profitTarget",
                            "type": "int8"
                        }
                    ],
                    "internalType": "struct Implementation.Terms",
                    "name": "_terms",
                    "type": "tuple"
                },
                {
                    "internalType": "uint256",
                    "name": "_startingBlockTimestamp",
                    "type": "uint256"
                },
                {
                    "internalType": "address",
                    "name": "_buyer",
                    "type": "address"
                },
                {
                    "internalType": "address",
                    "name": "_seller",
                    "type": "address"
                },
                {
                    "internalType": "string",
                    "name": "_encryptedPoolData",
                    "type": "string"
                },
                {
                    "internalType": "bool",
                    "name": "_isDeleted",
                    "type": "bool"
                },
                {
                    "internalType": "uint256",
                    "name": "_balance",
                    "type": "uint256"
                },
                {
                    "internalType": "bool",
                    "name": "_hasFutureTerms",
                    "type": "bool"
                }
            ],
            "stateMutability": "view",
            "type": "function"
        },
        {
            "inputs": [],
            "name": "getStats",
            "outputs": [
                {
                    "internalType": "uint256",
                    "name": "_successCount",
                    "type": "uint256"
                },
                {
                    "internalType": "uint256",
                    "name": "_failCount",
                    "type": "uint256"
                }
            ],
            "stateMutability": "view",
            "type": "function"
        },
        {
            "inputs": [],
            "name": "hashrateOracle",
            "outputs": [
                {
                    "internalType": "contract HashrateOracle",
                    "name": "",
                    "type": "address"
                }
            ],
            "stateMutability": "view",
            "type": "function"
        },
        {
            "inputs": [
                {
                    "internalType": "uint256",
                    "name": "",
                    "type": "uint256"
                }
            ],
            "name": "history",
            "outputs": [
                {
                    "internalType": "uint256",
                    "name": "_purchaseTime",
                    "type": "uint256"
                },
                {
                    "internalType": "uint256",
                    "name": "_endTime",
                    "type": "uint256"
                },
                {
                    "internalType": "uint256",
                    "name": "_price",
                    "type": "uint256"
                },
                {
                    "internalType": "uint256",
                    "name": "_fee",
                    "type": "uint256"
                },
                {
                    "internalType": "uint256",
                    "name": "_speed",
                    "type": "uint256"
                },
                {
                    "internalType": "uint256",
                    "name": "_length",
                    "type": "uint256"
                },
                {
                    "internalType": "address",
                    "name": "_buyer",
                    "type": "address"
                },
                {
                    "internalType": "address",
                    "name": "_validator",
                    "type": "address"
                }
            ],
            "stateMutability": "view",
            "type": "function"
        },
        {
            "inputs": [
                {
                    "internalType": "address",
                    "name": "_cloneFactory",
                    "type": "address"
                },
                {
                    "internalType": "address",
                    "name": "_hashrateOracle",
                    "type": "address"
                },
                {
                    "internalType": "address",
                    "name": "_paymentToken",
                    "type": "address"
                },
                {
                    "internalType": "address",
                    "name": "_feeToken",
                    "type": "address"
                },
                {
                    "internalType": "address",
                    "name": "_seller",
                    "type": "address"
                },
                {
                    "internalType": "string",
                    "name": "_pubKey",
                    "type": "string"
                },
                {
                    "internalType": "uint256",
                    "name": "_speed",
                    "type": "uint256"
                },
                {
                    "internalType": "uint256",
                    "name": "_length",
                    "type": "uint256"
                },
                {
                    "internalType": "int8",
                    "name": "_profitTarget",
                    "type": "int8"
                }
            ],
            "name": "initialize",
            "outputs": [],
            "stateMutability": "nonpayable",
            "type": "function"
        },
        {
            "inputs": [],
            "name": "isDeleted",
            "outputs": [
                {
                    "internalType": "bool",
                    "name": "",
                    "type": "bool"
                }
            ],
            "stateMutability": "view",
            "type": "function"
        },
        {
            "inputs": [],
            "name": "owner",
            "outputs": [
                {
                    "internalType": "address",
                    "name": "",
                    "type": "address"
                }
            ],
            "stateMutability": "view",
            "type": "function"
        },
        {
            "inputs": [],
            "name": "paymentToken",
            "outputs": [
                {
                    "internalType": "contract IERC20",
                    "name": "",
                    "type": "address"
                }
            ],
            "stateMutability": "view",
            "type": "function"
        },
        {
            "inputs": [],
            "name": "priceAndFee",
            "outputs": [
                {
                    "internalType": "uint256",
                    "name": "",
                    "type": "uint256"
                },
                {
                    "internalType": "uint256",
                    "name": "",
                    "type": "uint256"
                }
            ],
            "stateMutability": "view",
            "type": "function"
        },
        {
            "inputs": [],
            "name": "proxiableUUID",
            "outputs": [
                {
                    "internalType": "bytes32",
                    "name": "",
                    "type": "bytes32"
                }
            ],
            "stateMutability": "view",
            "type": "function"
        },
        {
            "inputs": [],
            "name": "pubKey",
            "outputs": [
                {
                    "internalType": "string",
                    "name": "",
                    "type": "string"
                }
            ],
            "stateMutability": "view",
            "type": "function"
        },
        {
            "inputs": [],
            "name": "renounceOwnership",
            "outputs": [],
            "stateMutability": "nonpayable",
            "type": "function"
        },
        {
            "inputs": [],
            "name": "seller",
            "outputs": [
                {
                    "internalType": "address",
                    "name": "",
                    "type": "address"
                }
            ],
            "stateMutability": "view",
            "type": "function"
        },
        {
            "inputs": [
                {
                    "internalType": "bool",
                    "name": "_isDeleted",
                    "type": "bool"
                }
            ],
            "name": "setContractDeleted",
            "outputs": [],
            "stateMutability": "nonpayable",
            "type": "function"
        },
        {
            "inputs": [
                {
                    "internalType": "string",
                    "name": "_encrValidatorURL",
                    "type": "string"
                },
                {
                    "internalType": "string",
                    "name": "_encrDestURL",
                    "type": "string"
                }
            ],
            "name": "setDestination",
            "outputs": [],
            "stateMutability": "nonpayable",
            "type": "function"
        },
        {
            "inputs": [
                {
                    "internalType": "string",
                    "name": "_encrValidatorURL",
                    "type": "string"
                },
                {
                    "internalType": "string",
                    "name": "_encrDestURL",
                    "type": "string"
                },
                {
                    "internalType": "uint256",
                    "name": "_price",
                    "type": "uint256"
                },
                {
                    "internalType": "address",
                    "name": "_buyer",
                    "type": "address"
                },
                {
                    "internalType": "address",
                    "name": "_validator",
                    "type": "address"
                },
                {
                    "internalType": "uint256",
                    "name": "_validatorFeeRateScaled",
                    "type": "uint256"
                }
            ],
            "name": "setPurchaseContract",
            "outputs": [],
            "stateMutability": "nonpayable",
            "type": "function"
        },
        {
            "inputs": [
                {
                    "internalType": "uint256",
                    "name": "_speed",
                    "type": "uint256"
                },
                {
                    "internalType": "uint256",
                    "name": "_length",
                    "type": "uint256"
                },
                {
                    "internalType": "int8",
                    "name": "_profitTarget",
                    "type": "int8"
                }
            ],
            "name": "setUpdatePurchaseInformation",
            "outputs": [],
            "stateMutability": "nonpayable",
            "type": "function"
        },
        {
            "inputs": [],
            "name": "startingBlockTimestamp",
            "outputs": [
                {
                    "internalType": "uint256",
                    "name": "",
                    "type": "uint256"
                }
            ],
            "stateMutability": "view",
            "type": "function"
        },
        {
            "inputs": [],
            "name": "terms",
            "outputs": [
                {
                    "internalType": "uint256",
                    "name": "_price",
                    "type": "uint256"
                },
                {
                    "internalType": "uint256",
                    "name": "_fee",
                    "type": "uint256"
                },
                {
                    "internalType": "uint256",
                    "name": "_speed",
                    "type": "uint256"
                },
                {
                    "internalType": "uint256",
                    "name": "_length",
                    "type": "uint256"
                },
                {
                    "internalType": "uint32",
                    "name": "_version",
                    "type": "uint32"
                },
                {
                    "internalType": "int8",
                    "name": "_profitTarget",
                    "type": "int8"
                }
            ],
            "stateMutability": "view",
            "type": "function"
        },
        {
            "inputs": [
                {
                    "internalType": "address",
                    "name": "newOwner",
                    "type": "address"
                }
            ],
            "name": "transferOwnership",
            "outputs": [],
            "stateMutability": "nonpayable",
            "type": "function"
        },
        {
            "inputs": [
                {
                    "internalType": "address",
                    "name": "newImplementation",
                    "type": "address"
                },
                {
                    "internalType": "bytes",
                    "name": "data",
                    "type": "bytes"
                }
            ],
            "name": "upgradeToAndCall",
            "outputs": [],
            "stateMutability": "payable",
            "type": "function"
        },
        {
            "inputs": [],
            "name": "validator",
            "outputs": [
                {
                    "internalType": "address",
                    "name": "",
                    "type": "address"
                }
            ],
            "stateMutability": "view",
            "type": "function"
        },
        {
            "inputs": [],
            "name": "validatorFeeRateScaled",
            "outputs": [
                {
                    "internalType": "uint256",
                    "name": "",
                    "type": "uint256"
                }
            ],
            "stateMutability": "view",
            "type": "function"
        }
    ],
    "bytecode": "0x60a060405230608052348015601357600080fd5b50608051612edd61003d600039600081816119f201528181611a1b0152611b610152612edd6000f3fe6080604052600436106102255760003560e01c806385209ee011610123578063ad3cb1cc116100ab578063d50256251161006f578063d5025625146106f3578063d7efb6b71461072c578063f2fde38b1461075d578063f87c68b91461077d578063ffa1ad741461079d57600080fd5b8063ad3cb1cc14610651578063c5095d6814610682578063c59d484714610698578063c5a62342146106be578063c6a10091146106d357600080fd5b8063a064f9a1116100f2578063a064f9a11461053e578063a4e275661461055e578063a7a38f0b146105cd578063ac2a5dfd14610634578063ac3077731461064957600080fd5b806385209ee01461049f578063896187fb146104c15780638da5cb5b146104eb5780639e3a9bb81461052857600080fd5b8063628eda24116101b15780636c32c0a6116101755780636c32c0a61461040d578063715018a6146104235780637150d8ae1461043857806371f3cf54146104585780637cbcd50d1461047857600080fd5b8063628eda241461036b578063647846a5146103805780636906679b146103a05780636a3df6eb146103cd5780636a5caece146103ed57600080fd5b80633988a0d8116101f85780633988a0d8146102d35780633a5381b5146102f55780634f1ef2861461031557806352d1902d14610328578063567d91f01461034b57600080fd5b806308551a531461022a57806310ad1462146102675780633013ce291461029157806330bad9e1146102b1575b600080fd5b34801561023657600080fd5b5060115461024a906001600160a01b031681565b6040516001600160a01b0390911681526020015b60405180910390f35b34801561027357600080fd5b5061027c6107ce565b6040805192835260208301919091520161025e565b34801561029d57600080fd5b5060015461024a906001600160a01b031681565b3480156102bd57600080fd5b506102c66107fb565b60405161025e91906123f7565b3480156102df57600080fd5b506102f36102ee366004612480565b610889565b005b34801561030157600080fd5b5060125461024a906001600160a01b031681565b6102f3610323366004612550565b610b35565b34801561033457600080fd5b5061033d610b54565b60405190815260200161025e565b34801561035757600080fd5b506102f3610366366004612617565b610b71565b34801561037757600080fd5b506102c6610bc2565b34801561038c57600080fd5b5060005461024a906001600160a01b031681565b3480156103ac57600080fd5b506103c06103bb366004612639565b610bcf565b60405161025e919061265b565b3480156103d957600080fd5b506102f36103e83660046126fd565b610d9a565b3480156103f957600080fd5b506102f36104083660046127a5565b610ff9565b34801561041957600080fd5b5061033d60165481565b34801561042f57600080fd5b506102f36111d6565b34801561044457600080fd5b5060105461024a906001600160a01b031681565b34801561046457600080fd5b506102f36104733660046127c6565b6111ea565b34801561048457600080fd5b5061048d601281565b60405160ff909116815260200161025e565b3480156104ab57600080fd5b506104b461139a565b60405161025e9190612825565b3480156104cd57600080fd5b506104d66113ca565b60405161025e99989796959493929190612833565b3480156104f757600080fd5b507f9016d09d72d40fdae2fd8ceac6b6234c7706214fd39c1cd1e609a0528c199300546001600160a01b031661024a565b34801561053457600080fd5b5061033d600f5481565b34801561054a57600080fd5b5060035461024a906001600160a01b031681565b34801561056a57600080fd5b50600954600a54600b54600c54600d54610597949392919063ffffffff811690600160201b900460000b86565b60408051968752602087019590955293850192909252606084015263ffffffff16608083015260000b60a082015260c00161025e565b3480156105d957600080fd5b506105ed6105e83660046128f3565b6115bb565b604080519889526020890197909752958701949094526060860192909252608085015260a08401526001600160a01b0390811660c08401521660e08201526101000161025e565b34801561064057600080fd5b506102c661161e565b6102f361162b565b34801561065d57600080fd5b506102c6604051806040016040528060058152602001640352e302e360dc1b81525081565b34801561068e57600080fd5b5061033d600e5481565b3480156106a457600080fd5b5060185463ffffffff80821691600160201b90041661027c565b3480156106ca57600080fd5b506102f361162b565b3480156106df57600080fd5b506102f36106ee36600461290c565b6116a7565b3480156106ff57600080fd5b50600454600554600654600754600854610597949392919063ffffffff811690600160201b900460000b86565b34801561073857600080fd5b5060125461074d90600160a81b900460ff1681565b604051901515815260200161025e565b34801561076957600080fd5b506102f361077836600461297b565b6117ca565b34801561078957600080fd5b5060025461024a906001600160a01b031681565b3480156107a957600080fd5b506102c660405180604001604052806005815260200164191718171b60d91b81525081565b60008060006107db611808565b905060006107f0826107eb6118f1565b611995565b919491935090915050565b6014805461080890612996565b80601f016020809104026020016040519081016040528092919081815260200182805461083490612996565b80156108815780601f1061085657610100808354040283529160200191610881565b820191906000526020600020905b81548152906001019060200180831161086457829003601f168201915b505050505081565b7ff0c57e16840df040f15088dc2f81fe391c3923bec73e23a9662efc9c229c6a008054600160401b810460ff1615906001600160401b03166000811580156108ce5750825b90506000826001600160401b031660011480156108ea5750303b155b9050811580156108f8575080155b156109165760405163f92ee8a960e01b815260040160405180910390fd5b845467ffffffffffffffff19166001178555831561094057845460ff60401b1916600160401b1785555b6040518060c001604052806000815260200160008152602001898152602001888152602001600063ffffffff1681526020018760000b81525060046000820151816000015560208201518160010155604082015181600201556060820151816003015560808201518160040160006101000a81548163ffffffff021916908363ffffffff16021790555060a08201518160040160046101000a81548160ff021916908360000b60ff1602179055509050508a601160006101000a8154816001600160a01b0302191690836001600160a01b031602179055508e600360006101000a8154816001600160a01b0302191690836001600160a01b03160217905550898960139182610a50929190612a1e565b508b6000806101000a8154816001600160a01b0302191690836001600160a01b031602179055508c600160006101000a8154816001600160a01b0302191690836001600160a01b031602179055508d600260006101000a8154816001600160a01b0302191690836001600160a01b03160217905550610acd6119be565b610ad56119ce565b610ade336119d6565b8315610b2457845460ff60401b19168555604051600181527fc7f505b2f371ae2175ee4913f4499e1f2633a7b5936321eed1cdaeb6115181d29060200160405180910390a15b505050505050505050505050505050565b610b3d6119e7565b610b4682611a8c565b610b508282611a94565b5050565b6000610b5e611b56565b50600080516020612e8883398151915290565b6003546001600160a01b03163314610ba45760405162461bcd60e51b8152600401610b9b90612add565b60405180910390fd5b60128054911515600160a81b0260ff60a81b19909216919091179055565b6015805461080890612996565b601754606090831115610be25760175492505b601754610bef8385612b3b565b1115610c0657601754610c03908490612b4e565b91505b6000826001600160401b03811115610c2057610c2061253a565b604051908082528060200260200182016040528015610cab57816020015b610c9860405180610100016040528060008152602001600081526020016000815260200160008152602001600081526020016000815260200160006001600160a01b0316815260200160006001600160a01b031681525090565b815260200190600190039081610c3e5790505b50905060005b83811015610d90576017805482908790610ccd90600190612b4e565b610cd79190612b4e565b610ce19190612b4e565b81548110610cf157610cf1612b61565b600091825260209182902060408051610100810182526008909302909101805483526001810154938301939093526002830154908201526003820154606082015260048201546080820152600582015460a082015260068201546001600160a01b0390811660c083015260079092015490911660e08201528251839083908110610d7d57610d7d612b61565b6020908102919091010152600101610cb1565b5090505b92915050565b6003546001600160a01b03163314610dc45760405162461bcd60e51b8152600401610b9b90612add565b6000610dce61139a565b6001811115610ddf57610ddf6127fb565b14610e3a5760405162461bcd60e51b815260206004820152602560248201527f636f6e7472616374206973206e6f7420696e20616e20617661696c61626c6520604482015264737461746560d81b6064820152608401610b9b565b610e42611b9f565b50610e4b611d9e565b601080546001600160a01b038086166001600160a01b031992831617909255600486905560128054928516929091169190911790556015610e8d868883612a1e565b506014610e9b888a83612a1e565b5042600e55600f8190556018805463ffffffff16906000610ebb83612b77565b91906101000a81548163ffffffff021916908363ffffffff16021790555050601760405180610100016040528042815260200160046003015442610eff9190612b3b565b81526004546020820152604001610f168785611995565b815260068054602080840191909152600780546040808601919091526001600160a01b03808b166060808801919091528a8216608097880152885460018181018b5560009a8b52868b208a516008909302019182559589015195810195909555878301516002860155870151600385015594860151600484015560a0860151600584015560c086015193830180549486166001600160a01b031995861617905560e090950151910180549190931691161790555133917f0c00d1d6cea0bd55f7d3b6e92ef60237b117b050185fc2816c708fd45f45e5bb91a25050505050505050565b6010546001600160a01b031633148061101c57506012546001600160a01b031633145b61108e5760405162461bcd60e51b815260206004820152603b60248201527f74686973206163636f756e74206973206e6f7420617574686f72697a6564207460448201527f6f207472696767657220616e206561726c7920636c6f73656f757400000000006064820152608401610b9b565b600161109861139a565b60018111156110a9576110a96127fb565b146110c65760405162461bcd60e51b8152600401610b9b90612b9c565b60178054600091906110da90600190612b4e565b815481106110ea576110ea612b61565b6000918252602082204260016008909302909101918201556018805491935063ffffffff9091169161111b83612be4565b91906101000a81548163ffffffff021916908363ffffffff160217905550506018600481819054906101000a900463ffffffff168092919061115c90612b77565b91906101000a81548163ffffffff021916908363ffffffff16021790555050611183611b9f565b506111936000600e819055600455565b61119b611d9e565b7f55ba7028426dc073c5d2688d6c531f1aeeb2c89b28f341f0ed254266a0c856fd826040516111ca9190612c04565b60405180910390a15050565b6111de611f78565b6111e86000611fd3565b565b6003546001600160a01b031633146112145760405162461bcd60e51b8152600401610b9b90612add565b600161121e61139a565b600181111561122f5761122f6127fb565b036112d1576040805160c0810182526000808252602082015290810184905260608101839052600854608082019061126e9063ffffffff166001612c1e565b63ffffffff9081168252600084900b602092830152825160095590820151600a556040820151600b556060820151600c556080820151600d805460a09094015160ff16600160201b0264ffffffffff19909416919092161791909117905561136a565b6040805160c0810182526000808252602082015290810184905260608101839052600854608082019061130b9063ffffffff166001612c1e565b63ffffffff9081168252600084900b6020928301528251600455908201516005556040820151600655606082015160075560808201516008805460a09094015160ff16600160201b0264ffffffffff1990941691909216179190911790555b60405130907f7865b2bbe0087425b223d9cf674d8d5328e31546b364da98c36db21193c17d5590600090a2505050565b600080600460030154600e546113b09190612b3b565b9050804210156113c257600191505090565b600091505090565b6040805160c081018252600080825260208201819052918101829052606081018290526080810182905260a08101829052600c546040805160c081018252600454815260055460208201526006549181019190915260075460608281019190915260085463ffffffff81166080840152600160201b9004600090810b60a084015292839283929183918291829190151590611463611808565b808252611472906107eb6118f1565b602082015261147f61139a565b600e546010546011546012546001546040516370a0823160e01b81523060048201528795946001600160a01b0390811694811693601493600160a81b90910460ff16929116906370a0823190602401602060405180830381865afa1580156114eb573d6000803e3d6000fd5b505050506040513d601f19601f8201168201806040525081019061150f9190612c3a565b8983805461151c90612996565b80601f016020809104026020016040519081016040528092919081815260200182805461154890612996565b80156115955780601f1061156a57610100808354040283529160200191611595565b820191906000526020600020905b81548152906001019060200180831161157857829003601f168201915b505050505093509a509a509a509a509a509a509a509a509a505050909192939495969798565b601781815481106115cb57600080fd5b600091825260209091206008909102018054600182015460028301546003840154600485015460058601546006870154600790970154959750939592949193909290916001600160a01b03918216911688565b6013805461080890612996565b6000611635611b9f565b90508061167b5760405162461bcd60e51b81526020600482015260146024820152736e6f2066756e647320746f20776974686472617760601b6044820152606401610b9b565b6040517f5c6a0246cde15dcaffe4c495b5be4c3e0525a2ba9c3f03d6f32095fe118c376a90600090a150565b6010546001600160a01b031633146117335760405162461bcd60e51b815260206004820152604360248201527f74686973206163636f756e74206973206e6f7420617574686f72697a6564207460448201527f6f2075706461746520746865206369706865727465787420696e666f726d617460648201526234b7b760e91b608482015260a401610b9b565b600161173d61139a565b600181111561174e5761174e6127fb565b1461176b5760405162461bcd60e51b8152600401610b9b90612b9c565b6015611778828483612a1e565b506014611786848683612a1e565b507f74e9d8ab61381d8415dfd359c6404d06a0f357a5fda5f29a22fe9512e9277637848484846040516117bc9493929190612c7c565b60405180910390a150505050565b6117d2611f78565b6001600160a01b0381166117fc57604051631e4fbdf760e01b815260006004820152602401610b9b565b61180581611fd3565b50565b600080600260009054906101000a90046001600160a01b03166001600160a01b0316633256ce756040518163ffffffff1660e01b8152600401602060405180830381865afa15801561185e573d6000803e3d6000fd5b505050506040513d601f19601f820116820180604052508101906118829190612c3a565b600654600754919250600091839161189991612cae565b6118a39190612cdb565b6008549091506000906064906118c290600160201b9004830b84612cef565b6118cc9190612d1f565b6118d69083612d4d565b9050600081126118e657806118e9565b60005b935050505090565b6000806118fc61139a565b600181111561190d5761190d6127fb565b0361198e57600360009054906101000a90046001600160a01b03166001600160a01b0316639e3a9bb86040518163ffffffff1660e01b8152600401602060405180830381865afa158015611965573d6000803e3d6000fd5b505050506040513d601f19601f820116820180604052508101906119899190612c3a565b905090565b50600f5490565b60006119a36012600a612e5c565b6119ad8385612cae565b6119b79190612cdb565b9392505050565b6119c6612044565b6111e861208d565b6111e8612044565b6119de612044565b611805816120bb565b306001600160a01b037f0000000000000000000000000000000000000000000000000000000000000000161480611a6e57507f00000000000000000000000000000000000000000000000000000000000000006001600160a01b0316611a62600080516020612e88833981519152546001600160a01b031690565b6001600160a01b031614155b156111e85760405163703e46dd60e11b815260040160405180910390fd5b611805611f78565b816001600160a01b03166352d1902d6040518163ffffffff1660e01b8152600401602060405180830381865afa925050508015611aee575060408051601f3d908101601f19168201909252611aeb91810190612c3a565b60015b611b1657604051634c9c8ce360e01b81526001600160a01b0383166004820152602401610b9b565b600080516020612e888339815191528114611b4757604051632a87526960e21b815260048101829052602401610b9b565b611b5183836120c3565b505050565b306001600160a01b037f000000000000000000000000000000000000000000000000000000000000000016146111e85760405163703e46dd60e11b815260040160405180910390fd5b6000611bab600e541590565b15611bb65750600090565b6012546001600160a01b031615156000611bce612119565b9050600081600460000154611be39190612b4e565b9050600083611bf3576000611bff565b611bff82600f54611995565b6001546040516370a0823160e01b815230600482015291925060009184916001600160a01b0316906370a0823190602401602060405180830381865afa158015611c4d573d6000803e3d6000fd5b505050506040513d601f19601f82011682018060405250810190611c719190612c3a565b611c7b9190612b4e565b600080546040516370a0823160e01b8152306004820152929350909184916001600160a01b0316906370a0823190602401602060405180830381865afa158015611cc9573d6000803e3d6000fd5b505050506040513d601f19601f82011682018060405250810190611ced9190612c3a565b611cf79190612b4e565b90508115611d205760115460018054909850611d20916001600160a01b0391821691168461215f565b8015611d475760125460005460019850611d47916001600160a01b0391821691168361215f565b8315611d6e5760105460018054909850611d6e916001600160a01b0391821691168661215f565b8215611d955760105460005460019850611d95916001600160a01b0391821691168561215f565b50505050505090565b600d5463ffffffff16156111e8576040518060c00160405280600081526020016000815260200160096002015481526020016009600301548152602001600960040160009054906101000a900463ffffffff1663ffffffff168152602001600960040160049054906101000a900460000b60000b81525060046000820151816000015560208201518160010155604082015181600201556060820151816003015560808201518160040160006101000a81548163ffffffff021916908363ffffffff16021790555060a08201518160040160046101000a81548160ff021916908360000b60ff1602179055509050506040518060c0016040528060008152602001600081526020016000815260200160008152602001600063ffffffff1681526020016000800b81525060096000820151816000015560208201518160010155604082015181600201556060820151816003015560808201518160040160006101000a81548163ffffffff021916908363ffffffff16021790555060a08201518160040160046101000a81548160ff021916908360000b60ff160217905550905050306001600160a01b03167f7865b2bbe0087425b223d9cf674d8d5328e31546b364da98c36db21193c17d5560405160405180910390a2565b33611faa7f9016d09d72d40fdae2fd8ceac6b6234c7706214fd39c1cd1e609a0528c199300546001600160a01b031690565b6001600160a01b0316146111e85760405163118cdaa760e01b8152336004820152602401610b9b565b7f9016d09d72d40fdae2fd8ceac6b6234c7706214fd39c1cd1e609a0528c19930080546001600160a01b031981166001600160a01b03848116918217845560405192169182907f8be0079c531659141344cd1fd0a4f28419497f9722a3daafe3b4186f6b6457e090600090a3505050565b7ff0c57e16840df040f15088dc2f81fe391c3923bec73e23a9662efc9c229c6a0054600160401b900460ff166111e857604051631afcd79f60e31b815260040160405180910390fd5b612095612044565b60017f9b779b17422d0df92223018b32b4d1fa46e071723d6817e2486d003becc55f0055565b6117d2612044565b6120cc826121b1565b6040516001600160a01b038316907fbc7cd75a20ee27fd9adebab32041f755214dbc6bffa90cc0225b39da2e5c2d3b90600090a280511561211157611b518282612216565b610b5061228c565b600080600e544261212a9190612b4e565b600754909150811161215757600754600454612147908390612cae565b6121519190612cdb565b91505090565b505060045490565b604080516001600160a01b038416602482015260448082018490528251808303909101815260649091019091526020810180516001600160e01b031663a9059cbb60e01b179052611b519084906122ab565b806001600160a01b03163b6000036121e757604051634c9c8ce360e01b81526001600160a01b0382166004820152602401610b9b565b600080516020612e8883398151915280546001600160a01b0319166001600160a01b0392909216919091179055565b6060600080846001600160a01b0316846040516122339190612e6b565b600060405180830381855af49150503d806000811461226e576040519150601f19603f3d011682016040523d82523d6000602084013e612273565b606091505b5091509150612283858383612322565b95945050505050565b34156111e85760405163b398979f60e01b815260040160405180910390fd5b600080602060008451602086016000885af1806122ce576040513d6000823e3d81fd5b50506000513d915081156122e65780600114156122f3565b6001600160a01b0384163b155b1561231c57604051635274afe760e01b81526001600160a01b0385166004820152602401610b9b565b50505050565b606082612337576123328261237e565b6119b7565b815115801561234e57506001600160a01b0384163b155b1561237757604051639996b31560e01b81526001600160a01b0385166004820152602401610b9b565b5092915050565b80511561238e5780518082602001fd5b60405163d6bda27560e01b815260040160405180910390fd5b60005b838110156123c25781810151838201526020016123aa565b50506000910152565b600081518084526123e38160208601602086016123a7565b601f01601f19169290920160200192915050565b6020815260006119b760208301846123cb565b80356001600160a01b038116811461242157600080fd5b919050565b60008083601f84011261243857600080fd5b5081356001600160401b0381111561244f57600080fd5b60208301915083602082850101111561246757600080fd5b9250929050565b8035600081900b811461242157600080fd5b6000806000806000806000806000806101208b8d0312156124a057600080fd5b6124a98b61240a565b99506124b760208c0161240a565b98506124c560408c0161240a565b97506124d360608c0161240a565b96506124e160808c0161240a565b955060a08b01356001600160401b038111156124fc57600080fd5b6125088d828e01612426565b90965094505060c08b0135925060e08b013591506125296101008c0161246e565b90509295989b9194979a5092959850565b634e487b7160e01b600052604160045260246000fd5b6000806040838503121561256357600080fd5b61256c8361240a565b915060208301356001600160401b0381111561258757600080fd5b8301601f8101851361259857600080fd5b80356001600160401b038111156125b1576125b161253a565b604051601f8201601f19908116603f011681016001600160401b03811182821017156125df576125df61253a565b6040528181528282016020018710156125f757600080fd5b816020840160208301376000602083830101528093505050509250929050565b60006020828403121561262957600080fd5b813580151581146119b757600080fd5b6000806040838503121561264c57600080fd5b50508035926020909101359150565b602080825282518282018190526000918401906040840190835b818110156126f2578351805184526020810151602085015260408101516040850152606081015160608501526080810151608085015260a081015160a085015260018060a01b0360c08201511660c085015260018060a01b0360e08201511660e08501525061010083019250602084019350600181019050612675565b509095945050505050565b60008060008060008060008060c0898b03121561271957600080fd5b88356001600160401b0381111561272f57600080fd5b61273b8b828c01612426565b90995097505060208901356001600160401b0381111561275a57600080fd5b6127668b828c01612426565b9097509550506040890135935061277f60608a0161240a565b925061278d60808a0161240a565b979a969950949793969295919450919260a001359150565b6000602082840312156127b757600080fd5b8135600481106119b757600080fd5b6000806000606084860312156127db57600080fd5b83359250602084013591506127f26040850161246e565b90509250925092565b634e487b7160e01b600052602160045260246000fd5b60028110612821576128216127fb565b9052565b60208101610d948284612811565b61283d818b612811565b8851602082015260208901516040820152604089015160608201526060890151608082015263ffffffff60808a01511660a082015260a089015160000b60c08201528760e082015261289b6101008201886001600160a01b03169052565b6001600160a01b0386166101208201526101c061014082015260006128c46101c08301876123cb565b8515156101608401529050836101808301526128e56101a083018415159052565b9a9950505050505050505050565b60006020828403121561290557600080fd5b5035919050565b6000806000806040858703121561292257600080fd5b84356001600160401b0381111561293857600080fd5b61294487828801612426565b90955093505060208501356001600160401b0381111561296357600080fd5b61296f87828801612426565b95989497509550505050565b60006020828403121561298d57600080fd5b6119b78261240a565b600181811c908216806129aa57607f821691505b6020821081036129ca57634e487b7160e01b600052602260045260246000fd5b50919050565b601f821115611b5157806000526020600020601f840160051c810160208510156129f75750805b601f840160051c820191505b81811015612a175760008155600101612a03565b5050505050565b6001600160401b03831115612a3557612a3561253a565b612a4983612a438354612996565b836129d0565b6000601f841160018114612a7d5760008515612a655750838201355b600019600387901b1c1916600186901b178355612a17565b600083815260209020601f19861690835b82811015612aae5786850135825560209485019460019092019101612a8e565b5086821015612acb5760001960f88860031b161c19848701351681555b505060018560011b0183555050505050565b60208082526028908201527f6f6e6c7920636c6f6e65666163746f72792063616e2063616c6c207468697320604082015267333ab731ba34b7b760c11b606082015260800190565b634e487b7160e01b600052601160045260246000fd5b80820180821115610d9457610d94612b25565b81810381811115610d9457610d94612b25565b634e487b7160e01b600052603260045260246000fd5b600063ffffffff821663ffffffff8103612b9357612b93612b25565b60010192915050565b60208082526028908201527f74686520636f6e7472616374206973206e6f7420696e207468652072756e6e696040820152676e6720737461746560c01b606082015260800190565b600063ffffffff821680612bfa57612bfa612b25565b6000190192915050565b6020810160048310612c1857612c186127fb565b91905290565b63ffffffff8181168382160190811115610d9457610d94612b25565b600060208284031215612c4c57600080fd5b5051919050565b81835281816020850137506000828201602090810191909152601f909101601f19169091010190565b604081526000612c90604083018688612c53565b8281036020840152612ca3818587612c53565b979650505050505050565b8082028115828204841417610d9457610d94612b25565b634e487b7160e01b600052601260045260246000fd5b600082612cea57612cea612cc5565b500490565b80820260008212600160ff1b84141615612d0b57612d0b612b25565b8181058314821517610d9457610d94612b25565b600082612d2e57612d2e612cc5565b600160ff1b821460001984141615612d4857612d48612b25565b500590565b8082018281126000831280158216821582161715612d6d57612d6d612b25565b505092915050565b6001815b6001841115612db057808504811115612d9457612d94612b25565b6001841615612da257908102905b60019390931c928002612d79565b935093915050565b600082612dc757506001610d94565b81612dd457506000610d94565b8160018114612dea5760028114612df457612e10565b6001915050610d94565b60ff841115612e0557612e05612b25565b50506001821b610d94565b5060208310610133831016604e8410600b8410161715612e33575081810a610d94565b612e406000198484612d75565b8060001904821115612e5457612e54612b25565b029392505050565b60006119b760ff841683612db8565b60008251612e7d8184602087016123a7565b919091019291505056fe360894a13ba1a3210667c828492db98dca3e2076cc3735a920a3ca505d382bbca26469706673582212206019e242a5fdeb54133f47d75770706d3cbc7820a484402a3eb6bfacd8866bdc64736f6c634300081a0033",
    "linkReferences": {},
    "deployedLinkReferences": {}
}