{
    "_format": "hh-sol-artifact-1",
    "contractName": "Implementation",
    "sourceName": "contracts/marketplace/Implementation.sol",
    "abi": [
        {
            "inputs": [
                {
                    "internalType": "address",
                    "name": "target",
                    "type": "address"
                }
            ],
            "name": "AddressEmptyCode",
            "type": "error"
        },
        {
            "inputs": [
                {
                    "internalType": "address",
                    "name": "implementation",
                    "type": "address"
                }
            ],
            "name": "ERC1967InvalidImplementation",
            "type": "error"
        },
        {
            "inputs": [],
            "name": "ERC1967NonPayable",
            "type": "error"
        },
        {
            "inputs": [],
            "name": "FailedCall",
            "type": "error"
        },
        {
            "inputs": [],
            "name": "InvalidInitialization",
            "type": "error"
        },
        {
            "inputs": [],
            "name": "NotInitializing",
            "type": "error"
        },
        {
            "inputs": [
                {
                    "internalType": "address",
                    "name": "owner",
                    "type": "address"
                }
            ],
            "name": "OwnableInvalidOwner",
            "type": "error"
        },
        {
            "inputs": [
                {
                    "internalType": "address",
                    "name": "account",
                    "type": "address"
                }
            ],
            "name": "OwnableUnauthorizedAccount",
            "type": "error"
        },
        {
            "inputs": [],
            "name": "ReentrancyGuardReentrantCall",
            "type": "error"
        },
        {
            "inputs": [
                {
                    "internalType": "address",
                    "name": "token",
                    "type": "address"
                }
            ],
            "name": "SafeERC20FailedOperation",
            "type": "error"
        },
        {
            "inputs": [],
            "name": "UUPSUnauthorizedCallContext",
            "type": "error"
        },
        {
            "inputs": [
                {
                    "internalType": "bytes32",
                    "name": "slot",
                    "type": "bytes32"
                }
            ],
            "name": "UUPSUnsupportedProxiableUUID",
            "type": "error"
        },
        {
            "anonymous": false,
            "inputs": [
                {
                    "indexed": false,
                    "internalType": "uint64",
                    "name": "version",
                    "type": "uint64"
                }
            ],
            "name": "Initialized",
            "type": "event"
        },
        {
            "anonymous": false,
            "inputs": [
                {
                    "indexed": true,
                    "internalType": "address",
                    "name": "previousOwner",
                    "type": "address"
                },
                {
                    "indexed": true,
                    "internalType": "address",
                    "name": "newOwner",
                    "type": "address"
                }
            ],
            "name": "OwnershipTransferred",
            "type": "event"
        },
        {
            "anonymous": false,
            "inputs": [
                {
                    "indexed": true,
                    "internalType": "address",
                    "name": "implementation",
                    "type": "address"
                }
            ],
            "name": "Upgraded",
            "type": "event"
        },
        {
            "anonymous": false,
            "inputs": [
                {
                    "indexed": false,
                    "internalType": "enum Implementation.CloseReason",
                    "name": "_reason",
                    "type": "uint8"
                }
            ],
            "name": "closedEarly",
            "type": "event"
        },
        {
            "anonymous": false,
            "inputs": [
                {
                    "indexed": true,
                    "internalType": "address",
                    "name": "_buyer",
                    "type": "address"
                }
            ],
            "name": "contractPurchased",
            "type": "event"
        },
        {
            "anonymous": false,
            "inputs": [
                {
                    "indexed": false,
                    "internalType": "string",
                    "name": "newValidatorURL",
                    "type": "string"
                },
                {
                    "indexed": false,
                    "internalType": "string",
                    "name": "newDestURL",
                    "type": "string"
                }
            ],
            "name": "destinationUpdated",
            "type": "event"
        },
        {
            "anonymous": false,
            "inputs": [],
            "name": "fundsClaimed",
            "type": "event"
        },
        {
            "anonymous": false,
            "inputs": [
                {
                    "indexed": true,
                    "internalType": "address",
                    "name": "_validator",
                    "type": "address"
                }
            ],
            "name": "fundsClaimedValidator",
            "type": "event"
        },
        {
            "anonymous": false,
            "inputs": [
                {
                    "indexed": true,
                    "internalType": "address",
                    "name": "_address",
                    "type": "address"
                }
            ],
            "name": "purchaseInfoUpdated",
            "type": "event"
        },
        {
            "inputs": [],
            "name": "UPGRADE_INTERFACE_VERSION",
            "outputs": [
                {
                    "internalType": "string",
                    "name": "",
                    "type": "string"
                }
            ],
            "stateMutability": "view",
            "type": "function"
        },
        {
            "inputs": [],
            "name": "VALIDATOR_FEE_DECIMALS",
            "outputs": [
                {
                    "internalType": "uint8",
                    "name": "",
                    "type": "uint8"
                }
            ],
            "stateMutability": "view",
            "type": "function"
        },
        {
            "inputs": [],
            "name": "VERSION",
            "outputs": [
                {
                    "internalType": "string",
                    "name": "",
                    "type": "string"
                }
            ],
            "stateMutability": "view",
            "type": "function"
        },
        {
            "inputs": [],
            "name": "buyer",
            "outputs": [
                {
                    "internalType": "address",
                    "name": "",
                    "type": "address"
                }
            ],
            "stateMutability": "view",
            "type": "function"
        },
        {
            "inputs": [],
            "name": "claimFunds",
            "outputs": [],
            "stateMutability": "payable",
            "type": "function"
        },
        {
            "inputs": [],
            "name": "claimFundsValidator",
            "outputs": [],
            "stateMutability": "nonpayable",
            "type": "function"
        },
        {
            "inputs": [],
            "name": "cloneFactory",
            "outputs": [
                {
                    "internalType": "contract CloneFactory",
                    "name": "",
                    "type": "address"
                }
            ],
            "stateMutability": "view",
            "type": "function"
        },
        {
            "inputs": [
                {
                    "internalType": "enum Implementation.CloseReason",
                    "name": "reason",
                    "type": "uint8"
                }
            ],
            "name": "closeEarly",
            "outputs": [],
            "stateMutability": "nonpayable",
            "type": "function"
        },
        {
            "inputs": [],
            "name": "contractState",
            "outputs": [
                {
                    "internalType": "enum Implementation.ContractState",
                    "name": "",
                    "type": "uint8"
                }
            ],
            "stateMutability": "view",
            "type": "function"
        },
        {
            "inputs": [],
            "name": "encrDestURL",
            "outputs": [
                {
                    "internalType": "string",
                    "name": "",
                    "type": "string"
                }
            ],
            "stateMutability": "view",
            "type": "function"
        },
        {
            "inputs": [],
            "name": "encrValidatorURL",
            "outputs": [
                {
                    "internalType": "string",
                    "name": "",
                    "type": "string"
                }
            ],
            "stateMutability": "view",
            "type": "function"
        },
        {
            "inputs": [],
            "name": "feeToken",
            "outputs": [
                {
                    "internalType": "contract IERC20",
                    "name": "",
                    "type": "address"
                }
            ],
            "stateMutability": "view",
            "type": "function"
        },
        {
            "inputs": [],
            "name": "futureTerms",
            "outputs": [
                {
                    "internalType": "uint256",
                    "name": "_price",
                    "type": "uint256"
                },
                {
                    "internalType": "uint256",
                    "name": "_fee",
                    "type": "uint256"
                },
                {
                    "internalType": "uint256",
                    "name": "_speed",
                    "type": "uint256"
                },
                {
                    "internalType": "uint256",
                    "name": "_length",
                    "type": "uint256"
                },
                {
                    "internalType": "uint32",
                    "name": "_version",
                    "type": "uint32"
                },
                {
                    "internalType": "int8",
                    "name": "_profitTarget",
                    "type": "int8"
                }
            ],
            "stateMutability": "view",
            "type": "function"
        },
        {
            "inputs": [
                {
                    "internalType": "uint256",
                    "name": "_offset",
                    "type": "uint256"
                },
                {
                    "internalType": "uint256",
                    "name": "_limit",
                    "type": "uint256"
                }
            ],
            "name": "getHistory",
            "outputs": [
                {
                    "components": [
                        {
                            "internalType": "bool",
                            "name": "_goodCloseout",
                            "type": "bool"
                        },
                        {
                            "internalType": "uint256",
                            "name": "_purchaseTime",
                            "type": "uint256"
                        },
                        {
                            "internalType": "uint256",
                            "name": "_endTime",
                            "type": "uint256"
                        },
                        {
                            "internalType": "uint256",
                            "name": "_price",
                            "type": "uint256"
                        },
                        {
                            "internalType": "uint256",
                            "name": "_fee",
                            "type": "uint256"
                        },
                        {
                            "internalType": "uint256",
                            "name": "_speed",
                            "type": "uint256"
                        },
                        {
                            "internalType": "uint256",
                            "name": "_length",
                            "type": "uint256"
                        },
                        {
                            "internalType": "address",
                            "name": "_buyer",
                            "type": "address"
                        }
                    ],
                    "internalType": "struct Implementation.HistoryEntry[]",
                    "name": "",
                    "type": "tuple[]"
                }
            ],
            "stateMutability": "view",
            "type": "function"
        },
        {
            "inputs": [],
            "name": "getPublicVariablesV2",
            "outputs": [
                {
                    "internalType": "enum Implementation.ContractState",
                    "name": "_state",
                    "type": "uint8"
                },
                {
                    "components": [
                        {
                            "internalType": "uint256",
                            "name": "_price",
                            "type": "uint256"
                        },
                        {
                            "internalType": "uint256",
                            "name": "_fee",
                            "type": "uint256"
                        },
                        {
                            "internalType": "uint256",
                            "name": "_speed",
                            "type": "uint256"
                        },
                        {
                            "internalType": "uint256",
                            "name": "_length",
                            "type": "uint256"
                        },
                        {
                            "internalType": "uint32",
                            "name": "_version",
                            "type": "uint32"
                        },
                        {
                            "internalType": "int8",
                            "name": "_profitTarget",
                            "type": "int8"
                        }
                    ],
                    "internalType": "struct Implementation.Terms",
                    "name": "_terms",
                    "type": "tuple"
                },
                {
                    "internalType": "uint256",
                    "name": "_startingBlockTimestamp",
                    "type": "uint256"
                },
                {
                    "internalType": "address",
                    "name": "_buyer",
                    "type": "address"
                },
                {
                    "internalType": "address",
                    "name": "_seller",
                    "type": "address"
                },
                {
                    "internalType": "string",
                    "name": "_encryptedPoolData",
                    "type": "string"
                },
                {
                    "internalType": "bool",
                    "name": "_isDeleted",
                    "type": "bool"
                },
                {
                    "internalType": "uint256",
                    "name": "_balance",
                    "type": "uint256"
                },
                {
                    "internalType": "bool",
                    "name": "_hasFutureTerms",
                    "type": "bool"
                }
            ],
            "stateMutability": "view",
            "type": "function"
        },
        {
            "inputs": [],
            "name": "getStats",
            "outputs": [
                {
                    "internalType": "uint256",
                    "name": "_successCount",
                    "type": "uint256"
                },
                {
                    "internalType": "uint256",
                    "name": "_failCount",
                    "type": "uint256"
                }
            ],
            "stateMutability": "view",
            "type": "function"
        },
        {
            "inputs": [],
            "name": "hashrateOracle",
            "outputs": [
                {
                    "internalType": "contract HashrateOracle",
                    "name": "",
                    "type": "address"
                }
            ],
            "stateMutability": "view",
            "type": "function"
        },
        {
            "inputs": [
                {
                    "internalType": "uint256",
                    "name": "",
                    "type": "uint256"
                }
            ],
            "name": "history",
            "outputs": [
                {
                    "internalType": "bool",
                    "name": "_goodCloseout",
                    "type": "bool"
                },
                {
                    "internalType": "uint256",
                    "name": "_purchaseTime",
                    "type": "uint256"
                },
                {
                    "internalType": "uint256",
                    "name": "_endTime",
                    "type": "uint256"
                },
                {
                    "internalType": "uint256",
                    "name": "_price",
                    "type": "uint256"
                },
                {
                    "internalType": "uint256",
                    "name": "_fee",
                    "type": "uint256"
                },
                {
                    "internalType": "uint256",
                    "name": "_speed",
                    "type": "uint256"
                },
                {
                    "internalType": "uint256",
                    "name": "_length",
                    "type": "uint256"
                },
                {
                    "internalType": "address",
                    "name": "_buyer",
                    "type": "address"
                }
            ],
            "stateMutability": "view",
            "type": "function"
        },
        {
            "inputs": [
                {
                    "internalType": "address",
                    "name": "_cloneFactory",
                    "type": "address"
                },
                {
                    "internalType": "address",
                    "name": "_hashrateOracle",
                    "type": "address"
                },
                {
                    "internalType": "address",
                    "name": "_paymentToken",
                    "type": "address"
                },
                {
                    "internalType": "address",
                    "name": "_feeToken",
                    "type": "address"
                },
                {
                    "internalType": "address",
                    "name": "_seller",
                    "type": "address"
                },
                {
                    "internalType": "string",
                    "name": "_pubKey",
                    "type": "string"
                },
                {
                    "internalType": "uint256",
                    "name": "_speed",
                    "type": "uint256"
                },
                {
                    "internalType": "uint256",
                    "name": "_length",
                    "type": "uint256"
                },
                {
                    "internalType": "int8",
                    "name": "_profitTarget",
                    "type": "int8"
                }
            ],
            "name": "initialize",
            "outputs": [],
            "stateMutability": "nonpayable",
            "type": "function"
        },
        {
            "inputs": [],
            "name": "isDeleted",
            "outputs": [
                {
                    "internalType": "bool",
                    "name": "",
                    "type": "bool"
                }
            ],
            "stateMutability": "view",
            "type": "function"
        },
        {
            "inputs": [],
            "name": "owner",
            "outputs": [
                {
                    "internalType": "address",
                    "name": "",
                    "type": "address"
                }
            ],
            "stateMutability": "view",
            "type": "function"
        },
        {
            "inputs": [],
            "name": "paymentToken",
            "outputs": [
                {
                    "internalType": "contract IERC20",
                    "name": "",
                    "type": "address"
                }
            ],
            "stateMutability": "view",
            "type": "function"
        },
        {
            "inputs": [],
            "name": "priceAndFee",
            "outputs": [
                {
                    "internalType": "uint256",
                    "name": "",
                    "type": "uint256"
                },
                {
                    "internalType": "uint256",
                    "name": "",
                    "type": "uint256"
                }
            ],
            "stateMutability": "view",
            "type": "function"
        },
        {
            "inputs": [],
            "name": "proxiableUUID",
            "outputs": [
                {
                    "internalType": "bytes32",
                    "name": "",
                    "type": "bytes32"
                }
            ],
            "stateMutability": "view",
            "type": "function"
        },
        {
            "inputs": [],
            "name": "pubKey",
            "outputs": [
                {
                    "internalType": "string",
                    "name": "",
                    "type": "string"
                }
            ],
            "stateMutability": "view",
            "type": "function"
        },
        {
            "inputs": [],
            "name": "renounceOwnership",
            "outputs": [],
            "stateMutability": "nonpayable",
            "type": "function"
        },
        {
            "inputs": [],
            "name": "seller",
            "outputs": [
                {
                    "internalType": "address",
                    "name": "",
                    "type": "address"
                }
            ],
            "stateMutability": "view",
            "type": "function"
        },
        {
            "inputs": [
                {
                    "internalType": "bool",
                    "name": "_isDeleted",
                    "type": "bool"
                }
            ],
            "name": "setContractDeleted",
            "outputs": [],
            "stateMutability": "nonpayable",
            "type": "function"
        },
        {
            "inputs": [
                {
                    "internalType": "string",
                    "name": "_encrValidatorURL",
                    "type": "string"
                },
                {
                    "internalType": "string",
                    "name": "_encrDestURL",
                    "type": "string"
                }
            ],
            "name": "setDestination",
            "outputs": [],
            "stateMutability": "nonpayable",
            "type": "function"
        },
        {
            "inputs": [
                {
                    "internalType": "string",
                    "name": "_encrValidatorURL",
                    "type": "string"
                },
                {
                    "internalType": "string",
                    "name": "_encrDestURL",
                    "type": "string"
                },
                {
                    "internalType": "uint256",
                    "name": "_price",
                    "type": "uint256"
                },
                {
                    "internalType": "address",
                    "name": "_buyer",
                    "type": "address"
                },
                {
                    "internalType": "address",
                    "name": "_validator",
                    "type": "address"
                },
                {
                    "internalType": "uint256",
                    "name": "_validatorFeeRateScaled",
                    "type": "uint256"
                }
            ],
            "name": "setPurchaseContract",
            "outputs": [],
            "stateMutability": "nonpayable",
            "type": "function"
        },
        {
            "inputs": [
                {
                    "internalType": "uint256",
                    "name": "_speed",
                    "type": "uint256"
                },
                {
                    "internalType": "uint256",
                    "name": "_length",
                    "type": "uint256"
                },
                {
                    "internalType": "int8",
                    "name": "_profitTarget",
                    "type": "int8"
                }
            ],
            "name": "setUpdatePurchaseInformation",
            "outputs": [],
            "stateMutability": "nonpayable",
            "type": "function"
        },
        {
            "inputs": [],
            "name": "startingBlockTimestamp",
            "outputs": [
                {
                    "internalType": "uint256",
                    "name": "",
                    "type": "uint256"
                }
            ],
            "stateMutability": "view",
            "type": "function"
        },
        {
            "inputs": [],
            "name": "terms",
            "outputs": [
                {
                    "internalType": "uint256",
                    "name": "_price",
                    "type": "uint256"
                },
                {
                    "internalType": "uint256",
                    "name": "_fee",
                    "type": "uint256"
                },
                {
                    "internalType": "uint256",
                    "name": "_speed",
                    "type": "uint256"
                },
                {
                    "internalType": "uint256",
                    "name": "_length",
                    "type": "uint256"
                },
                {
                    "internalType": "uint32",
                    "name": "_version",
                    "type": "uint32"
                },
                {
                    "internalType": "int8",
                    "name": "_profitTarget",
                    "type": "int8"
                }
            ],
            "stateMutability": "view",
            "type": "function"
        },
        {
            "inputs": [
                {
                    "internalType": "address",
                    "name": "newOwner",
                    "type": "address"
                }
            ],
            "name": "transferOwnership",
            "outputs": [],
            "stateMutability": "nonpayable",
            "type": "function"
        },
        {
            "inputs": [
                {
                    "internalType": "address",
                    "name": "newImplementation",
                    "type": "address"
                },
                {
                    "internalType": "bytes",
                    "name": "data",
                    "type": "bytes"
                }
            ],
            "name": "upgradeToAndCall",
            "outputs": [],
            "stateMutability": "payable",
            "type": "function"
        },
        {
            "inputs": [],
            "name": "validator",
            "outputs": [
                {
                    "internalType": "address",
                    "name": "",
                    "type": "address"
                }
            ],
            "stateMutability": "view",
            "type": "function"
        },
        {
            "inputs": [],
            "name": "validatorFeeRateScaled",
            "outputs": [
                {
                    "internalType": "uint256",
                    "name": "",
                    "type": "uint256"
                }
            ],
            "stateMutability": "view",
            "type": "function"
        }
    ],
    "bytecode": "0x60a060405230608052348015601357600080fd5b5060805161304761003d60003960008181611b0101528181611b2a0152611c7001526130476000f3fe60806040526004361061021a5760003560e01c806385209ee011610123578063ad3cb1cc116100ab578063d50256251161006f578063d5025625146106c1578063d7efb6b7146106fb578063f2fde38b1461072c578063f87c68b91461074c578063ffa1ad741461076c57600080fd5b8063ad3cb1cc14610630578063c5095d6814610661578063c59d484714610677578063c5a623421461068c578063c6a10091146106a157600080fd5b8063a064f9a1116100f2578063a064f9a11461051d578063a4e275661461053d578063a7a38f0b146105ad578063ac2a5dfd14610613578063ac3077731461062857600080fd5b806385209ee01461047e578063896187fb146104a05780638da5cb5b146104ca5780639e3a9bb81461050757600080fd5b8063628eda24116101a65780636a5caece116101755780636a5caece146103e2578063715018a6146104025780637150d8ae1461041757806371f3cf54146104375780637cbcd50d1461045757600080fd5b8063628eda2414610360578063647846a5146103755780636906679b146103955780636a3df6eb146103c257600080fd5b80633988a0d8116101ed5780633988a0d8146102c85780633a5381b5146102ea5780634f1ef2861461030a57806352d1902d1461031d578063567d91f01461034057600080fd5b806308551a531461021f57806310ad14621461025c5780633013ce291461028657806330bad9e1146102a6575b600080fd5b34801561022b57600080fd5b5060115461023f906001600160a01b031681565b6040516001600160a01b0390911681526020015b60405180910390f35b34801561026857600080fd5b5061027161079d565b60408051928352602083019190915201610253565b34801561029257600080fd5b5060015461023f906001600160a01b031681565b3480156102b257600080fd5b506102bb6107c2565b6040516102539190612593565b3480156102d457600080fd5b506102e86102e336600461261c565b610850565b005b3480156102f657600080fd5b5060125461023f906001600160a01b031681565b6102e86103183660046126ec565b610afc565b34801561032957600080fd5b50610332610b1b565b604051908152602001610253565b34801561034c57600080fd5b506102e861035b3660046127b3565b610b38565b34801561036c57600080fd5b506102bb610c06565b34801561038157600080fd5b5060005461023f906001600160a01b031681565b3480156103a157600080fd5b506103b56103b03660046127d5565b610c13565b60405161025391906127f7565b3480156103ce57600080fd5b506102e86103dd366004612893565b610dd7565b3480156103ee57600080fd5b506102e86103fd36600461293b565b611037565b34801561040e57600080fd5b506102e8611230565b34801561042357600080fd5b5060105461023f906001600160a01b031681565b34801561044357600080fd5b506102e861045236600461295c565b611244565b34801561046357600080fd5b5061046c601281565b60405160ff9091168152602001610253565b34801561048a57600080fd5b506104936113f6565b60405161025391906129bb565b3480156104ac57600080fd5b506104b5611426565b604051610253999897969594939291906129c9565b3480156104d657600080fd5b507f9016d09d72d40fdae2fd8ceac6b6234c7706214fd39c1cd1e609a0528c199300546001600160a01b031661023f565b34801561051357600080fd5b50610332600f5481565b34801561052957600080fd5b5060035461023f906001600160a01b031681565b34801561054957600080fd5b50600954600a54600b54600c54600d54610577949392919063ffffffff811690640100000000900460000b86565b60408051968752602087019590955293850192909252606084015263ffffffff16608083015260000b60a082015260c001610253565b3480156105b957600080fd5b506105cd6105c8366004612a89565b611615565b6040805198151589526020890197909752958701949094526060860192909252608085015260a084015260c08301526001600160a01b031660e082015261010001610253565b34801561061f57600080fd5b506102bb611678565b6102e8611685565b34801561063c57600080fd5b506102bb604051806040016040528060058152602001640352e302e360dc1b81525081565b34801561066d57600080fd5b50610332600e5481565b34801561068357600080fd5b50610271611797565b34801561069857600080fd5b506102e8611808565b3480156106ad57600080fd5b506102e86106bc366004612aa2565b61185b565b3480156106cd57600080fd5b50600454600554600654600754600854610577949392919063ffffffff811690640100000000900460000b86565b34801561070757600080fd5b5060125461071c90600160a81b900460ff1681565b6040519015158152602001610253565b34801561073857600080fd5b506102e8610747366004612b11565b61197e565b34801561075857600080fd5b5060025461023f906001600160a01b031681565b34801561077857600080fd5b506102bb60405180604001604052806005815260200164191718171960d91b81525081565b60008060006107aa6119b9565b905060006107b782611aa3565b919491935090915050565b601480546107cf90612b2c565b80601f01602080910402602001604051908101604052809291908181526020018280546107fb90612b2c565b80156108485780601f1061081d57610100808354040283529160200191610848565b820191906000526020600020905b81548152906001019060200180831161082b57829003601f168201915b505050505081565b7ff0c57e16840df040f15088dc2f81fe391c3923bec73e23a9662efc9c229c6a008054600160401b810460ff1615906001600160401b03166000811580156108955750825b90506000826001600160401b031660011480156108b15750303b155b9050811580156108bf575080155b156108dd5760405163f92ee8a960e01b815260040160405180910390fd5b845467ffffffffffffffff19166001178555831561090757845460ff60401b1916600160401b1785555b6040518060c001604052806000815260200160008152602001898152602001888152602001600063ffffffff1681526020018760000b81525060046000820151816000015560208201518160010155604082015181600201556060820151816003015560808201518160040160006101000a81548163ffffffff021916908363ffffffff16021790555060a08201518160040160046101000a81548160ff021916908360000b60ff1602179055509050508a601160006101000a8154816001600160a01b0302191690836001600160a01b031602179055508e600360006101000a8154816001600160a01b0302191690836001600160a01b03160217905550898960139182610a17929190612bb4565b508b6000806101000a8154816001600160a01b0302191690836001600160a01b031602179055508c600160006101000a8154816001600160a01b0302191690836001600160a01b031602179055508d600260006101000a8154816001600160a01b0302191690836001600160a01b03160217905550610a94611acd565b610a9c611add565b610aa533611ae5565b8315610aeb57845460ff60401b19168555604051600181527fc7f505b2f371ae2175ee4913f4499e1f2633a7b5936321eed1cdaeb6115181d29060200160405180910390a15b505050505050505050505050505050565b610b04611af6565b610b0d82611b9b565b610b178282611ba3565b5050565b6000610b25611c65565b50600080516020612ff283398151915290565b6003546001600160a01b03163314610b6b5760405162461bcd60e51b8152600401610b6290612c73565b60405180910390fd5b801515601260159054906101000a900460ff16151503610be85760405162461bcd60e51b815260206004820152603260248201527f636f6e74726163742064656c65746520737461746520697320616c72656164796044820152712073657420746f20746869732076616c756560701b6064820152608401610b62565b60128054911515600160a81b0260ff60a81b19909216919091179055565b601580546107cf90612b2c565b601654606090831115610c265760165492505b601654610c338385612cd1565b1115610c4a57601654610c47908490612ce4565b91505b6000826001600160401b03811115610c6457610c646126d6565b604051908082528060200260200182016040528015610ce857816020015b610cd560405180610100016040528060001515815260200160008152602001600081526020016000815260200160008152602001600081526020016000815260200160006001600160a01b031681525090565b815260200190600190039081610c825790505b50905060005b83811015610dcd576016805482908790610d0a90600190612ce4565b610d149190612ce4565b610d1e9190612ce4565b81548110610d2e57610d2e612cf7565b600091825260209182902060408051610100810182526008909302909101805460ff16151583526001810154938301939093526002830154908201526003820154606082015260048201546080820152600582015460a0820152600682015460c08201526007909101546001600160a01b031660e08201528251839083908110610dba57610dba612cf7565b6020908102919091010152600101610cee565b5090505b92915050565b6003546001600160a01b03163314610e015760405162461bcd60e51b8152600401610b6290612c73565b6000610e0b6113f6565b6001811115610e1c57610e1c612991565b14610e775760405162461bcd60e51b815260206004820152602560248201527f636f6e7472616374206973206e6f7420696e20616e20617661696c61626c6520604482015264737461746560d81b6064820152608401610b62565b610e7f611cae565b50610e88611d6f565b60048490556040805161010081018252600181524260208201819052600754601693830191610eb79190612cd1565b815260048054602080840191909152604080840187905260068054606080870191909152600780546080808901919091526001600160a01b038d811660a0998a01528a5460018082018d5560009c8d529b8890208b51600890920201805460ff1916911515919091178155968a01519a87019a909a55938801516002860155908701516003850155918601519383019390935592840151600582015560c08401519181019190915560e090920151910180546001600160a01b031916919092161790556014610f87888a83612bb4565b506015610f95868883612bb4565b50601080546001600160a01b038086166001600160a01b031992831617909255601280549285169290911691909117905542600e55600f8190558015801590610fe657506001600160a01b03821615155b60128054911515600160a01b0260ff60a01b1990921691909117905560405133907f0c00d1d6cea0bd55f7d3b6e92ef60237b117b050185fc2816c708fd45f45e5bb90600090a25050505050505050565b6010546001600160a01b031633148061105a57506012546001600160a01b031633145b6110cc5760405162461bcd60e51b815260206004820152603b60248201527f74686973206163636f756e74206973206e6f7420617574686f72697a6564207460448201527f6f207472696767657220616e206561726c7920636c6f73656f757400000000006064820152608401610b62565b60016110d66113f6565b60018111156110e7576110e7612991565b146111045760405162461bcd60e51b8152600401610b6290612d0d565b601680546000919061111890600190612ce4565b8154811061112857611128612cf7565b600091825260208220600890910201805460ff19168155426002820155915061114f611f49565b6012549091506000906001600160a01b03161561119357611176611171611f65565b611aa3565b9050600061118383611aa3565b905061118f8184612cd1565b9250505b6012805460ff60a01b191690556000600e556111ad611d6f565b60006004556040517f55ba7028426dc073c5d2688d6c531f1aeeb2c89b28f341f0ed254266a0c856fd906111e2908690612d55565b60405180910390a1601054600154611207916001600160a01b03918216911684611fab565b801561122a5760125460005461122a916001600160a01b03918216911683611fab565b50505050565b611238611ffd565b6112426000612058565b565b6003546001600160a01b0316331461126e5760405162461bcd60e51b8152600401610b6290612c73565b60016112786113f6565b600181111561128957611289612991565b0361132c576040805160c081018252600080825260208201529081018490526060810183905260085460808201906112c89063ffffffff166001612d6f565b63ffffffff9081168252600084900b602092830152825160095590820151600a556040820151600b556060820151600c556080820151600d805460a09094015160ff166401000000000264ffffffffff1990941691909216179190911790556113c6565b6040805160c081018252600080825260208201529081018490526060810183905260085460808201906113669063ffffffff166001612d6f565b63ffffffff9081168252600084900b6020928301528251600455908201516005556040820151600655606082015160075560808201516008805460a09094015160ff166401000000000264ffffffffff1990941691909216179190911790555b60405130907f7865b2bbe0087425b223d9cf674d8d5328e31546b364da98c36db21193c17d5590600090a2505050565b600080600460030154600e5461140c9190612cd1565b90508042101561141e57600191505090565b600091505090565b6040805160c081018252600080825260208201819052918101829052606081018290526080810182905260a08101829052600c546040805160c081018252600454815260055460208201526006549181019190915260075460608281019190915260085463ffffffff811660808401526401000000009004600090810b60a0840152928392839291839182918291901515906114c06119b9565b8082526114cc90611aa3565b60208201526114d96113f6565b600e546010546011546012546001546040516370a0823160e01b81523060048201528795946001600160a01b0390811694811693601493600160a81b90910460ff16929116906370a0823190602401602060405180830381865afa158015611545573d6000803e3d6000fd5b505050506040513d601f19601f820116820180604052508101906115699190612d8b565b8983805461157690612b2c565b80601f01602080910402602001604051908101604052809291908181526020018280546115a290612b2c565b80156115ef5780601f106115c4576101008083540402835291602001916115ef565b820191906000526020600020905b8154815290600101906020018083116115d257829003601f168201915b505050505093509a509a509a509a509a509a509a509a509a505050909192939495969798565b6016818154811061162557600080fd5b60009182526020909120600890910201805460018201546002830154600384015460048501546005860154600687015460079097015460ff9096169750939592949193909290916001600160a01b031688565b601380546107cf90612b2c565b6011546001600160a01b031633146116f55760405162461bcd60e51b815260206004820152602d60248201527f74686973206163636f756e74206973206e6f7420617574686f72697a6564207460448201526c6f20636c61696d2066756e647360981b6064820152608401610b62565b600060016117016113f6565b600181111561171257611712612991565b036117225761171f611f49565b90505b6040517f5c6a0246cde15dcaffe4c495b5be4c3e0525a2ba9c3f03d6f32095fe118c376a90600090a1611753611cae565b50601254600090600160a01b900460ff1661176f57600061177b565b60045461177b90611aa3565b9050611785611d6f565b610b176117928284612cd1565b6120c9565b60008060008060005b6016548110156117fe57601681815481106117bd576117bd612cf7565b600091825260209091206008909102015460ff16156117e857826117e081612da4565b9350506117f6565b816117f281612da4565b9250505b6001016117a0565b5090939092509050565b6000611812611cae565b9050806118585760405162461bcd60e51b81526020600482015260146024820152736e6f2066756e647320746f20776974686472617760601b6044820152606401610b62565b50565b6010546001600160a01b031633146118e75760405162461bcd60e51b815260206004820152604360248201527f74686973206163636f756e74206973206e6f7420617574686f72697a6564207460448201527f6f2075706461746520746865206369706865727465787420696e666f726d617460648201526234b7b760e91b608482015260a401610b62565b60016118f16113f6565b600181111561190257611902612991565b1461191f5760405162461bcd60e51b8152600401610b6290612d0d565b601561192c828483612bb4565b50601461193a848683612bb4565b507f74e9d8ab61381d8415dfd359c6404d06a0f357a5fda5f29a22fe9512e9277637848484846040516119709493929190612de6565b60405180910390a150505050565b611986611ffd565b6001600160a01b0381166119b057604051631e4fbdf760e01b815260006004820152602401610b62565b61185881612058565b600080600260009054906101000a90046001600160a01b03166001600160a01b0316633256ce756040518163ffffffff1660e01b8152600401602060405180830381865afa158015611a0f573d6000803e3d6000fd5b505050506040513d601f19601f82011682018060405250810190611a339190612d8b565b6006546007549192506000918391611a4a91612e18565b611a549190612e45565b600854909150600090606490611a74906401000000009004830b84612e59565b611a7e9190612e89565b611a889083612eb7565b905060008112611a985780611a9b565b60005b935050505090565b6000611ab16012600a612fc6565b611ab9612192565b611ac39084612e18565b610dd19190612e45565b611ad5612231565b61124261227a565b611242612231565b611aed612231565b611858816122a8565b306001600160a01b037f0000000000000000000000000000000000000000000000000000000000000000161480611b7d57507f00000000000000000000000000000000000000000000000000000000000000006001600160a01b0316611b71600080516020612ff2833981519152546001600160a01b031690565b6001600160a01b031614155b156112425760405163703e46dd60e11b815260040160405180910390fd5b611858611ffd565b816001600160a01b03166352d1902d6040518163ffffffff1660e01b8152600401602060405180830381865afa925050508015611bfd575060408051601f3d908101601f19168201909252611bfa91810190612d8b565b60015b611c2557604051634c9c8ce360e01b81526001600160a01b0383166004820152602401610b62565b600080516020612ff28339815191528114611c5657604051632a87526960e21b815260048101829052602401610b62565b611c6083836122b0565b505050565b306001600160a01b037f000000000000000000000000000000000000000000000000000000000000000016146112425760405163703e46dd60e11b815260040160405180910390fd5b600080611cb96113f6565b6001811115611cca57611cca612991565b148015611ce157506012546001600160a01b031615155b8015611cf65750601254600160a01b900460ff165b15611d6957601254600454611d2b916001600160a01b031690611d1890611aa3565b6000546001600160a01b03169190611fab565b6012805460ff60a01b1916905560405133907f97e6caeb0ee93285bb3391ae7ecf34d0f5a555cca282be55288f16a76686efe690600090a250600190565b50600090565b600d5463ffffffff1615611242576040518060c00160405280600081526020016000815260200160096002015481526020016009600301548152602001600960040160009054906101000a900463ffffffff1663ffffffff168152602001600960040160049054906101000a900460000b60000b81525060046000820151816000015560208201518160010155604082015181600201556060820151816003015560808201518160040160006101000a81548163ffffffff021916908363ffffffff16021790555060a08201518160040160046101000a81548160ff021916908360000b60ff1602179055509050506040518060c0016040528060008152602001600081526020016000815260200160008152602001600063ffffffff1681526020016000800b81525060096000820151816000015560208201518160010155604082015181600201556060820151816003015560808201518160040160006101000a81548163ffffffff021916908363ffffffff16021790555060a08201518160040160046101000a81548160ff021916908360000b60ff160217905550905050306001600160a01b03167f7865b2bbe0087425b223d9cf674d8d5328e31546b364da98c36db21193c17d5560405160405180910390a2565b6000611f53611f65565b600454611f609190612ce4565b905090565b600080600e5442611f769190612ce4565b6007549091508111611fa357600754600454611f93908390612e18565b611f9d9190612e45565b91505090565b505060045490565b604080516001600160a01b038416602482015260448082018490528251808303909101815260649091019091526020810180516001600160e01b031663a9059cbb60e01b179052611c60908490612306565b3361202f7f9016d09d72d40fdae2fd8ceac6b6234c7706214fd39c1cd1e609a0528c199300546001600160a01b031690565b6001600160a01b0316146112425760405163118cdaa760e01b8152336004820152602401610b62565b7f9016d09d72d40fdae2fd8ceac6b6234c7706214fd39c1cd1e609a0528c19930080546001600160a01b031981166001600160a01b03848116918217845560405192169182907f8be0079c531659141344cd1fd0a4f28419497f9722a3daafe3b4186f6b6457e090600090a3505050565b6120d1612377565b600080546040516370a0823160e01b815230600482015283916001600160a01b0316906370a0823190602401602060405180830381865afa15801561211a573d6000803e3d6000fd5b505050506040513d601f19601f8201168201806040525081019061213e9190612d8b565b6121489190612ce4565b601154600154919250612168916001600160a01b03908116911683611fab565b5061185860017f9b779b17422d0df92223018b32b4d1fa46e071723d6817e2486d003becc55f0055565b60008061219d6113f6565b60018111156121ae576121ae612991565b0361222a57600360009054906101000a90046001600160a01b03166001600160a01b0316639e3a9bb86040518163ffffffff1660e01b8152600401602060405180830381865afa158015612206573d6000803e3d6000fd5b505050506040513d601f19601f82011682018060405250810190611f609190612d8b565b50600f5490565b7ff0c57e16840df040f15088dc2f81fe391c3923bec73e23a9662efc9c229c6a0054600160401b900460ff1661124257604051631afcd79f60e31b815260040160405180910390fd5b612282612231565b60017f9b779b17422d0df92223018b32b4d1fa46e071723d6817e2486d003becc55f0055565b611986612231565b6122b9826123c1565b6040516001600160a01b038316907fbc7cd75a20ee27fd9adebab32041f755214dbc6bffa90cc0225b39da2e5c2d3b90600090a28051156122fe57611c608282612426565b610b1761249c565b600080602060008451602086016000885af180612329576040513d6000823e3d81fd5b50506000513d9150811561234157806001141561234e565b6001600160a01b0384163b155b1561122a57604051635274afe760e01b81526001600160a01b0385166004820152602401610b62565b7f9b779b17422d0df92223018b32b4d1fa46e071723d6817e2486d003becc55f008054600119016123bb57604051633ee5aeb560e01b815260040160405180910390fd5b60029055565b806001600160a01b03163b6000036123f757604051634c9c8ce360e01b81526001600160a01b0382166004820152602401610b62565b600080516020612ff283398151915280546001600160a01b0319166001600160a01b0392909216919091179055565b6060600080846001600160a01b0316846040516124439190612fd5565b600060405180830381855af49150503d806000811461247e576040519150601f19603f3d011682016040523d82523d6000602084013e612483565b606091505b50915091506124938583836124bb565b95945050505050565b34156112425760405163b398979f60e01b815260040160405180910390fd5b6060826124d0576124cb8261251a565b612513565b81511580156124e757506001600160a01b0384163b155b1561251057604051639996b31560e01b81526001600160a01b0385166004820152602401610b62565b50805b9392505050565b80511561252a5780518082602001fd5b60405163d6bda27560e01b815260040160405180910390fd5b60005b8381101561255e578181015183820152602001612546565b50506000910152565b6000815180845261257f816020860160208601612543565b601f01601f19169290920160200192915050565b6020815260006125136020830184612567565b80356001600160a01b03811681146125bd57600080fd5b919050565b60008083601f8401126125d457600080fd5b5081356001600160401b038111156125eb57600080fd5b60208301915083602082850101111561260357600080fd5b9250929050565b8035600081900b81146125bd57600080fd5b6000806000806000806000806000806101208b8d03121561263c57600080fd5b6126458b6125a6565b995061265360208c016125a6565b985061266160408c016125a6565b975061266f60608c016125a6565b965061267d60808c016125a6565b955060a08b01356001600160401b0381111561269857600080fd5b6126a48d828e016125c2565b90965094505060c08b0135925060e08b013591506126c56101008c0161260a565b90509295989b9194979a5092959850565b634e487b7160e01b600052604160045260246000fd5b600080604083850312156126ff57600080fd5b612708836125a6565b915060208301356001600160401b0381111561272357600080fd5b8301601f8101851361273457600080fd5b80356001600160401b0381111561274d5761274d6126d6565b604051601f8201601f19908116603f011681016001600160401b038111828210171561277b5761277b6126d6565b60405281815282820160200187101561279357600080fd5b816020840160208301376000602083830101528093505050509250929050565b6000602082840312156127c557600080fd5b8135801515811461251357600080fd5b600080604083850312156127e857600080fd5b50508035926020909101359150565b602080825282518282018190526000918401906040840190835b818110156128885783518051151584526020810151602085015260408101516040850152606081015160608501526080810151608085015260a081015160a085015260c081015160c085015260018060a01b0360e08201511660e08501525061010083019250602084019350600181019050612811565b509095945050505050565b60008060008060008060008060c0898b0312156128af57600080fd5b88356001600160401b038111156128c557600080fd5b6128d18b828c016125c2565b90995097505060208901356001600160401b038111156128f057600080fd5b6128fc8b828c016125c2565b9097509550506040890135935061291560608a016125a6565b925061292360808a016125a6565b979a969950949793969295919450919260a001359150565b60006020828403121561294d57600080fd5b81356004811061251357600080fd5b60008060006060848603121561297157600080fd5b83359250602084013591506129886040850161260a565b90509250925092565b634e487b7160e01b600052602160045260246000fd5b600281106129b7576129b7612991565b9052565b60208101610dd182846129a7565b6129d3818b6129a7565b8851602082015260208901516040820152604089015160608201526060890151608082015263ffffffff60808a01511660a082015260a089015160000b60c08201528760e0820152612a316101008201886001600160a01b03169052565b6001600160a01b0386166101208201526101c06101408201526000612a5a6101c0830187612567565b851515610160840152905083610180830152612a7b6101a083018415159052565b9a9950505050505050505050565b600060208284031215612a9b57600080fd5b5035919050565b60008060008060408587031215612ab857600080fd5b84356001600160401b03811115612ace57600080fd5b612ada878288016125c2565b90955093505060208501356001600160401b03811115612af957600080fd5b612b05878288016125c2565b95989497509550505050565b600060208284031215612b2357600080fd5b612513826125a6565b600181811c90821680612b4057607f821691505b602082108103612b6057634e487b7160e01b600052602260045260246000fd5b50919050565b601f821115611c6057806000526020600020601f840160051c81016020851015612b8d5750805b601f840160051c820191505b81811015612bad5760008155600101612b99565b5050505050565b6001600160401b03831115612bcb57612bcb6126d6565b612bdf83612bd98354612b2c565b83612b66565b6000601f841160018114612c135760008515612bfb5750838201355b600019600387901b1c1916600186901b178355612bad565b600083815260209020601f19861690835b82811015612c445786850135825560209485019460019092019101612c24565b5086821015612c615760001960f88860031b161c19848701351681555b505060018560011b0183555050505050565b60208082526028908201527f6f6e6c7920636c6f6e65666163746f72792063616e2063616c6c207468697320604082015267333ab731ba34b7b760c11b606082015260800190565b634e487b7160e01b600052601160045260246000fd5b80820180821115610dd157610dd1612cbb565b81810381811115610dd157610dd1612cbb565b634e487b7160e01b600052603260045260246000fd5b60208082526028908201527f74686520636f6e7472616374206973206e6f7420696e207468652072756e6e696040820152676e6720737461746560c01b606082015260800190565b6020810160048310612d6957612d69612991565b91905290565b63ffffffff8181168382160190811115610dd157610dd1612cbb565b600060208284031215612d9d57600080fd5b5051919050565b600060018201612db657612db6612cbb565b5060010190565b81835281816020850137506000828201602090810191909152601f909101601f19169091010190565b604081526000612dfa604083018688612dbd565b8281036020840152612e0d818587612dbd565b979650505050505050565b8082028115828204841417610dd157610dd1612cbb565b634e487b7160e01b600052601260045260246000fd5b600082612e5457612e54612e2f565b500490565b80820260008212600160ff1b84141615612e7557612e75612cbb565b8181058314821517610dd157610dd1612cbb565b600082612e9857612e98612e2f565b600160ff1b821460001984141615612eb257612eb2612cbb565b500590565b8082018281126000831280158216821582161715612ed757612ed7612cbb565b505092915050565b6001815b6001841115612f1a57808504811115612efe57612efe612cbb565b6001841615612f0c57908102905b60019390931c928002612ee3565b935093915050565b600082612f3157506001610dd1565b81612f3e57506000610dd1565b8160018114612f545760028114612f5e57612f7a565b6001915050610dd1565b60ff841115612f6f57612f6f612cbb565b50506001821b610dd1565b5060208310610133831016604e8410600b8410161715612f9d575081810a610dd1565b612faa6000198484612edf565b8060001904821115612fbe57612fbe612cbb565b029392505050565b600061251360ff841683612f22565b60008251612fe7818460208701612543565b919091019291505056fe360894a13ba1a3210667c828492db98dca3e2076cc3735a920a3ca505d382bbca2646970667358221220c40ce7423c2262eec3400a3284e7aa96cf7b30f8180c7066f002ec8a146e1c8264736f6c634300081a0033",
    "linkReferences": {},
    "deployedLinkReferences": {}
}