{
    "_format": "hh-sol-artifact-1",
    "contractName": "Implementation",
    "sourceName": "contracts/Implementation.sol",
    "abi": [
        {
            "anonymous": false,
            "inputs": [
                {
                    "indexed": false,
                    "internalType": "uint8",
                    "name": "version",
                    "type": "uint8"
                }
            ],
            "name": "Initialized",
            "type": "event"
        },
        {
            "anonymous": false,
            "inputs": [
                {
                    "indexed": false,
                    "internalType": "string",
                    "name": "newCipherText",
                    "type": "string"
                }
            ],
            "name": "cipherTextUpdated",
            "type": "event"
        },
        {
            "anonymous": false,
            "inputs": [
                {
                    "indexed": true,
                    "internalType": "address",
                    "name": "_buyer",
                    "type": "address"
                }
            ],
            "name": "contractClosed",
            "type": "event"
        },
        {
            "anonymous": false,
            "inputs": [
                {
                    "indexed": true,
                    "internalType": "address",
                    "name": "_buyer",
                    "type": "address"
                }
            ],
            "name": "contractPurchased",
            "type": "event"
        },
        {
            "anonymous": false,
            "inputs": [
                {
                    "indexed": true,
                    "internalType": "address",
                    "name": "_address",
                    "type": "address"
                }
            ],
            "name": "purchaseInfoUpdated",
            "type": "event"
        },
        {
            "inputs": [],
            "name": "buyer",
            "outputs": [
                {
                    "internalType": "address",
                    "name": "",
                    "type": "address"
                }
            ],
            "stateMutability": "view",
            "type": "function"
        },
        {
            "inputs": [],
            "name": "cloneFactory",
            "outputs": [
                {
                    "internalType": "address",
                    "name": "",
                    "type": "address"
                }
            ],
            "stateMutability": "view",
            "type": "function"
        },
        {
            "inputs": [],
            "name": "contractState",
            "outputs": [
                {
                    "internalType": "enum Implementation.ContractState",
                    "name": "",
                    "type": "uint8"
                }
            ],
            "stateMutability": "view",
            "type": "function"
        },
        {
            "inputs": [],
            "name": "contractTotal",
            "outputs": [
                {
                    "internalType": "uint256",
                    "name": "",
                    "type": "uint256"
                }
            ],
            "stateMutability": "view",
            "type": "function"
        },
        {
            "inputs": [],
            "name": "encryptedPoolData",
            "outputs": [
                {
                    "internalType": "string",
                    "name": "",
                    "type": "string"
                }
            ],
            "stateMutability": "view",
            "type": "function"
        },
        {
            "inputs": [],
            "name": "escrow_purchaser",
            "outputs": [
                {
                    "internalType": "address",
                    "name": "",
                    "type": "address"
                }
            ],
            "stateMutability": "view",
            "type": "function"
        },
        {
            "inputs": [],
            "name": "escrow_seller",
            "outputs": [
                {
                    "internalType": "address",
                    "name": "",
                    "type": "address"
                }
            ],
            "stateMutability": "view",
            "type": "function"
        },
        {
            "inputs": [],
            "name": "futureTerms",
            "outputs": [
                {
                    "internalType": "uint256",
                    "name": "_price",
                    "type": "uint256"
                },
                {
                    "internalType": "uint256",
                    "name": "_limit",
                    "type": "uint256"
                },
                {
                    "internalType": "uint256",
                    "name": "_speed",
                    "type": "uint256"
                },
                {
                    "internalType": "uint256",
                    "name": "_length",
                    "type": "uint256"
                },
                {
                    "internalType": "uint32",
                    "name": "_version",
                    "type": "uint32"
                },
                {
                    "internalType": "int8",
                    "name": "_profitTarget",
                    "type": "int8"
                }
            ],
            "stateMutability": "view",
            "type": "function"
        },
        {
            "inputs": [
                {
                    "internalType": "uint256",
                    "name": "_offset",
                    "type": "uint256"
                },
                {
                    "internalType": "uint256",
                    "name": "_limit",
                    "type": "uint256"
                }
            ],
            "name": "getHistory",
            "outputs": [
                {
                    "components": [
                        {
                            "internalType": "bool",
                            "name": "_goodCloseout",
                            "type": "bool"
                        },
                        {
                            "internalType": "uint256",
                            "name": "_purchaseTime",
                            "type": "uint256"
                        },
                        {
                            "internalType": "uint256",
                            "name": "_endTime",
                            "type": "uint256"
                        },
                        {
                            "internalType": "uint256",
                            "name": "_price",
                            "type": "uint256"
                        },
                        {
                            "internalType": "uint256",
                            "name": "_speed",
                            "type": "uint256"
                        },
                        {
                            "internalType": "uint256",
                            "name": "_length",
                            "type": "uint256"
                        },
                        {
                            "internalType": "address",
                            "name": "_buyer",
                            "type": "address"
                        }
                    ],
                    "internalType": "struct Implementation.HistoryEntry[]",
                    "name": "",
                    "type": "tuple[]"
                }
            ],
            "stateMutability": "view",
            "type": "function"
        },
        {
            "inputs": [],
            "name": "getPublicVariables",
            "outputs": [
                {
                    "internalType": "enum Implementation.ContractState",
                    "name": "_state",
                    "type": "uint8"
                },
                {
                    "internalType": "uint256",
                    "name": "_price",
                    "type": "uint256"
                },
                {
                    "internalType": "uint256",
                    "name": "_limit",
                    "type": "uint256"
                },
                {
                    "internalType": "uint256",
                    "name": "_speed",
                    "type": "uint256"
                },
                {
                    "internalType": "uint256",
                    "name": "_length",
                    "type": "uint256"
                },
                {
                    "internalType": "uint256",
                    "name": "_startingBlockTimestamp",
                    "type": "uint256"
                },
                {
                    "internalType": "address",
                    "name": "_buyer",
                    "type": "address"
                },
                {
                    "internalType": "address",
                    "name": "_seller",
                    "type": "address"
                },
                {
                    "internalType": "string",
                    "name": "_encryptedPoolData",
                    "type": "string"
                },
                {
                    "internalType": "bool",
                    "name": "_isDeleted",
                    "type": "bool"
                },
                {
                    "internalType": "uint256",
                    "name": "_balance",
                    "type": "uint256"
                },
                {
                    "internalType": "bool",
                    "name": "_hasFutureTerms",
                    "type": "bool"
                },
                {
                    "internalType": "uint32",
                    "name": "_version",
                    "type": "uint32"
                }
            ],
            "stateMutability": "view",
            "type": "function"
        },
        {
            "inputs": [],
            "name": "getPublicVariablesV2",
            "outputs": [
                {
                    "internalType": "enum Implementation.ContractState",
                    "name": "_state",
                    "type": "uint8"
                },
                {
                    "components": [
                        {
                            "internalType": "uint256",
                            "name": "_price",
                            "type": "uint256"
                        },
                        {
                            "internalType": "uint256",
                            "name": "_limit",
                            "type": "uint256"
                        },
                        {
                            "internalType": "uint256",
                            "name": "_speed",
                            "type": "uint256"
                        },
                        {
                            "internalType": "uint256",
                            "name": "_length",
                            "type": "uint256"
                        },
                        {
                            "internalType": "uint32",
                            "name": "_version",
                            "type": "uint32"
                        },
                        {
                            "internalType": "int8",
                            "name": "_profitTarget",
                            "type": "int8"
                        }
                    ],
                    "internalType": "struct Implementation.Terms",
                    "name": "_terms",
                    "type": "tuple"
                },
                {
                    "internalType": "uint256",
                    "name": "_startingBlockTimestamp",
                    "type": "uint256"
                },
                {
                    "internalType": "address",
                    "name": "_buyer",
                    "type": "address"
                },
                {
                    "internalType": "address",
                    "name": "_seller",
                    "type": "address"
                },
                {
                    "internalType": "string",
                    "name": "_encryptedPoolData",
                    "type": "string"
                },
                {
                    "internalType": "bool",
                    "name": "_isDeleted",
                    "type": "bool"
                },
                {
                    "internalType": "uint256",
                    "name": "_balance",
                    "type": "uint256"
                },
                {
                    "internalType": "bool",
                    "name": "_hasFutureTerms",
                    "type": "bool"
                }
            ],
            "stateMutability": "view",
            "type": "function"
        },
        {
            "inputs": [],
            "name": "getStats",
            "outputs": [
                {
                    "internalType": "uint256",
                    "name": "_successCount",
                    "type": "uint256"
                },
                {
                    "internalType": "uint256",
                    "name": "_failCount",
                    "type": "uint256"
                }
            ],
            "stateMutability": "view",
            "type": "function"
        },
        {
            "inputs": [
                {
                    "internalType": "uint256",
                    "name": "",
                    "type": "uint256"
                }
            ],
            "name": "history",
            "outputs": [
                {
                    "internalType": "bool",
                    "name": "_goodCloseout",
                    "type": "bool"
                },
                {
                    "internalType": "uint256",
                    "name": "_purchaseTime",
                    "type": "uint256"
                },
                {
                    "internalType": "uint256",
                    "name": "_endTime",
                    "type": "uint256"
                },
                {
                    "internalType": "uint256",
                    "name": "_price",
                    "type": "uint256"
                },
                {
                    "internalType": "uint256",
                    "name": "_speed",
                    "type": "uint256"
                },
                {
                    "internalType": "uint256",
                    "name": "_length",
                    "type": "uint256"
                },
                {
                    "internalType": "address",
                    "name": "_buyer",
                    "type": "address"
                }
            ],
            "stateMutability": "view",
            "type": "function"
        },
        {
            "inputs": [
                {
                    "internalType": "uint256",
                    "name": "_price",
                    "type": "uint256"
                },
                {
                    "internalType": "uint256",
                    "name": "_limit",
                    "type": "uint256"
                },
                {
                    "internalType": "uint256",
                    "name": "_speed",
                    "type": "uint256"
                },
                {
                    "internalType": "uint256",
                    "name": "_length",
                    "type": "uint256"
                },
                {
                    "internalType": "int8",
                    "name": "_profitTarget",
                    "type": "int8"
                },
                {
                    "internalType": "address",
                    "name": "_seller",
                    "type": "address"
                },
                {
                    "internalType": "address",
                    "name": "_lmrAddress",
                    "type": "address"
                },
                {
                    "internalType": "address",
                    "name": "_cloneFactory",
                    "type": "address"
                },
                {
                    "internalType": "address",
                    "name": "_validator",
                    "type": "address"
                },
                {
                    "internalType": "string",
                    "name": "_pubKey",
                    "type": "string"
                }
            ],
            "name": "initialize",
            "outputs": [],
            "stateMutability": "nonpayable",
            "type": "function"
        },
        {
            "inputs": [],
            "name": "isDeleted",
            "outputs": [
                {
                    "internalType": "bool",
                    "name": "",
                    "type": "bool"
                }
            ],
            "stateMutability": "view",
            "type": "function"
        },
        {
            "inputs": [],
            "name": "pubKey",
            "outputs": [
                {
                    "internalType": "string",
                    "name": "",
                    "type": "string"
                }
            ],
            "stateMutability": "view",
            "type": "function"
        },
        {
            "inputs": [],
            "name": "seller",
            "outputs": [
                {
                    "internalType": "address",
                    "name": "",
                    "type": "address"
                }
            ],
            "stateMutability": "view",
            "type": "function"
        },
        {
            "inputs": [
                {
                    "internalType": "uint256",
                    "name": "closeOutType",
                    "type": "uint256"
                }
            ],
            "name": "setContractCloseOut",
            "outputs": [],
            "stateMutability": "payable",
            "type": "function"
        },
        {
            "inputs": [
                {
                    "internalType": "bool",
                    "name": "_isDeleted",
                    "type": "bool"
                }
            ],
            "name": "setContractDeleted",
            "outputs": [],
            "stateMutability": "nonpayable",
            "type": "function"
        },
        {
            "inputs": [
                {
                    "internalType": "string",
                    "name": "_encryptedPoolData",
                    "type": "string"
                },
                {
                    "internalType": "address",
                    "name": "_buyer",
                    "type": "address"
                }
            ],
            "name": "setPurchaseContract",
            "outputs": [],
            "stateMutability": "nonpayable",
            "type": "function"
        },
        {
            "inputs": [
                {
                    "internalType": "string",
                    "name": "_newEncryptedPoolData",
                    "type": "string"
                }
            ],
            "name": "setUpdateMiningInformation",
            "outputs": [],
            "stateMutability": "nonpayable",
            "type": "function"
        },
        {
            "inputs": [
                {
                    "internalType": "uint256",
                    "name": "_price",
                    "type": "uint256"
                },
                {
                    "internalType": "uint256",
                    "name": "_limit",
                    "type": "uint256"
                },
                {
                    "internalType": "uint256",
                    "name": "_speed",
                    "type": "uint256"
                },
                {
                    "internalType": "uint256",
                    "name": "_length",
                    "type": "uint256"
                },
                {
                    "internalType": "int8",
                    "name": "_profitTarget",
                    "type": "int8"
                }
            ],
            "name": "setUpdatePurchaseInformation",
            "outputs": [],
            "stateMutability": "nonpayable",
            "type": "function"
        },
        {
            "inputs": [],
            "name": "startingBlockTimestamp",
            "outputs": [
                {
                    "internalType": "uint256",
                    "name": "",
                    "type": "uint256"
                }
            ],
            "stateMutability": "view",
            "type": "function"
        },
        {
            "inputs": [],
            "name": "terms",
            "outputs": [
                {
                    "internalType": "uint256",
                    "name": "_price",
                    "type": "uint256"
                },
                {
                    "internalType": "uint256",
                    "name": "_limit",
                    "type": "uint256"
                },
                {
                    "internalType": "uint256",
                    "name": "_speed",
                    "type": "uint256"
                },
                {
                    "internalType": "uint256",
                    "name": "_length",
                    "type": "uint256"
                },
                {
                    "internalType": "uint32",
                    "name": "_version",
                    "type": "uint32"
                },
                {
                    "internalType": "int8",
                    "name": "_profitTarget",
                    "type": "int8"
                }
            ],
            "stateMutability": "view",
            "type": "function"
        }
    ],
    "bytecode": "0x608060405234801561001057600080fd5b50612cbd806100206000396000f3fe60806040526004361061014b5760003560e01c8063a064f9a1116100b6578063c59d48471161006f578063c59d484714610448578063ca3225fa14610472578063ce0c722a146104a0578063d5025625146104c0578063d7efb6b7146104fa578063ddcb1bf21461052457600080fd5b8063a064f9a11461030d578063a4e275661461032d578063a7a38f0b1461039d578063a811af1e146103fd578063ac2a5dfd1461041d578063c5095d681461043257600080fd5b80637150d8ae116101085780637150d8ae14610240578063719e6b5b1461026057806385209ee014610280578063896187fb146102ae5780638b7e4b13146102d85780638e2e6d5d146102fa57600080fd5b806308551a5314610150578063089aa8a21461018d5780630a61e2d9146101ad5780632ffe5545146101d1578063567d91f0146101f35780636906679b14610213575b600080fd5b34801561015c57600080fd5b50603e54610170906001600160a01b031681565b6040516001600160a01b0390911681526020015b60405180910390f35b34801561019957600080fd5b50603354610170906001600160a01b031681565b3480156101b957600080fd5b506101c360355481565b604051908152602001610184565b3480156101dd57600080fd5b506101f16101ec3660046122f0565b610544565b005b3480156101ff57600080fd5b506101f161020e3660046123c1565b61072f565b34801561021f57600080fd5b5061023361022e3660046123e5565b6107e1565b6040516101849190612407565b34801561024c57600080fd5b50603d54610170906001600160a01b031681565b34801561026c57600080fd5b506101f161027b366004612494565b61099e565b34801561028c57600080fd5b506036546102a190600160a01b900460ff1681565b604051610184919061250e565b3480156102ba57600080fd5b506102c3610ab2565b60405161018499989796959493929190612562565b3480156102e457600080fd5b506102ed610c8c565b6040516101849190612628565b6101f161030836600461263b565b610d1a565b34801561031957600080fd5b50603f54610170906001600160a01b031681565b34801561033957600080fd5b50604554604654604754604854604954610367949392919063ffffffff811690640100000000900460000b86565b60408051968752602087019590955293850192909252606084015263ffffffff16608083015260000b60a082015260c001610184565b3480156103a957600080fd5b506103bd6103b836600461263b565b6117b7565b6040805197151588526020880196909652948601939093526060850191909152608084015260a08301526001600160a01b031660c082015260e001610184565b34801561040957600080fd5b506101f1610418366004612654565b611813565b34801561042957600080fd5b506102ed6119c9565b34801561043e57600080fd5b506101c3603c5481565b34801561045457600080fd5b5061045d6119d6565b60408051928352602083019190915201610184565b34801561047e57600080fd5b50610487611a51565b6040516101849d9c9b9a9998979695949392919061269d565b3480156104ac57600080fd5b50603454610170906001600160a01b031681565b3480156104cc57600080fd5b50603754603854603954603a54603b54610367949392919063ffffffff811690640100000000900460000b86565b34801561050657600080fd5b506043546105149060ff1681565b6040519015158152602001610184565b34801561053057600080fd5b506101f161053f36600461273a565b611be1565b600054610100900460ff16158080156105645750600054600160ff909116105b8061057e5750303b15801561057e575060005460ff166001145b6105e65760405162461bcd60e51b815260206004820152602e60248201527f496e697469616c697a61626c653a20636f6e747261637420697320616c72656160448201526d191e481a5b9a5d1a585b1a5e995960921b60648201526084015b60405180910390fd5b6000805460ff191660011790558015610609576000805461ff0019166101001790555b6040805160c0810182528d8152602081018d90529081018b9052606081018a905260006080820181905289900b60a09091015260378c905560388b905560398a9055603a899055603b805464ffffffffff191664010000000060ff8b1602179055603e80546001600160a01b03199081166001600160a01b038a811691909117909255603f80549091169187169190911790556036805460ff60a01b1916905560426106b683858361282c565b50604080546001600160a01b0319166001600160a01b0386161790556106db86611d76565b8015610721576000805461ff0019169055604051600181527f7f26b83ff96e1f2b6a682f133852f6798a09c465da95921460cefb38474024989060200160405180910390a15b505050505050505050505050565b603f546001600160a01b031633146107595760405162461bcd60e51b81526004016105dd906128ec565b60435481151560ff9091161515036107ce5760405162461bcd60e51b815260206004820152603260248201527f636f6e74726163742064656c65746520737461746520697320616c72656164796044820152712073657420746f20746869732076616c756560701b60648201526084016105dd565b6043805460ff1916911515919091179055565b6044546060908311156107f45760445492505b6044546108018385612954565b111561081857604454610815908490612967565b91505b60008267ffffffffffffffff8111156108335761083361278e565b6040519080825280602002602001820160405280156108af57816020015b61089c6040518060e00160405280600015158152602001600081526020016000815260200160008152602001600081526020016000815260200160006001600160a01b031681525090565b8152602001906001900390816108515790505b50905060005b838110156109945760448054829087906108d190600190612967565b6108db9190612967565b6108e59190612967565b815481106108f5576108f561297a565b60009182526020918290206040805160e0810182526007909302909101805460ff16151583526001810154938301939093526002830154908201526003820154606082015260048201546080820152600582015460a08201526006909101546001600160a01b031660c082015282518390839081106109765761097661297a565b6020026020010181905250808061098c90612990565b9150506108b5565b5090505b92915050565b603d546001600160a01b03163314610a2a5760405162461bcd60e51b815260206004820152604360248201527f74686973206163636f756e74206973206e6f7420617574686f72697a6564207460448201527f6f2075706461746520746865206369706865727465787420696e666f726d617460648201526234b7b760e91b608482015260a4016105dd565b6001603654600160a01b900460ff166001811115610a4a57610a4a6124d6565b14610a675760405162461bcd60e51b81526004016105dd906129a9565b6041610a7482848361282c565b507f2301ef7d9f42b857543faf9e285b5807e028d4ae99810ea7fe0aadda3a717e9d8282604051610aa69291906129f1565b60405180910390a15050565b6040805160c081018252600080825260208201819052918101829052606081018290526080810182905260a08101829052604854603654603c54603d54603e546043546040516370a0823160e01b81523060048201526000968796879660609688968796879695151595600160a01b860460ff90811696603796956001600160a01b03908116958116946041949316929116906370a0823190602401602060405180830381865afa158015610b6b573d6000803e3d6000fd5b505050506040513d601f19601f82011682018060405250810190610b8f9190612a20565b6040805160c08101825288548152600189015460208201526002890154918101919091526003880154606082015260049097015463ffffffff81166080890152640100000000900460000b60a0880152825489908490610bee906127a4565b80601f0160208091040260200160405190810160405280929190818152602001828054610c1a906127a4565b8015610c675780601f10610c3c57610100808354040283529160200191610c67565b820191906000526020600020905b815481529060010190602001808311610c4a57829003601f168201915b5050505050935099509950995099509950995099509950995050909192939495969798565b60418054610c99906127a4565b80601f0160208091040260200160405190810160405280929190818152602001828054610cc5906127a4565b8015610d125780601f10610ce757610100808354040283529160200191610d12565b820191906000526020600020905b815481529060010190602001808311610cf557829003601f168201915b505050505081565b8060000361101d57603d546001600160a01b0316331480610d4557506040546001600160a01b031633145b610db75760405162461bcd60e51b815260206004820152603b60248201527f74686973206163636f756e74206973206e6f7420617574686f72697a6564207460448201527f6f207472696767657220616e206561726c7920636c6f73656f7574000000000060648201526084016105dd565b6001603654600160a01b900460ff166001811115610dd757610dd76124d6565b14610df45760405162461bcd60e51b81526004016105dd906129a9565b6000610dfe611dc0565b603a54603c54919250600091610e149042612967565b6040805160e0810182529290911015808352603c5460208401908152429284019283526037546060850190815260395460808601908152603a5460a08701908152603d546001600160a01b0390811660c089019081526044805460018101825560009190915298517f9b22d3d61959b4d3528b1d8ba932c96fbe302b36a1aad1d95cab54f9e0a135ea6007909a02998a01805460ff191691151591909117905594517f9b22d3d61959b4d3528b1d8ba932c96fbe302b36a1aad1d95cab54f9e0a135eb89015595517f9b22d3d61959b4d3528b1d8ba932c96fbe302b36a1aad1d95cab54f9e0a135ec88015591517f9b22d3d61959b4d3528b1d8ba932c96fbe302b36a1aad1d95cab54f9e0a135ed870155517f9b22d3d61959b4d3528b1d8ba932c96fbe302b36a1aad1d95cab54f9e0a135ee860155517f9b22d3d61959b4d3528b1d8ba932c96fbe302b36a1aad1d95cab54f9e0a135ef850155517f9b22d3d61959b4d3528b1d8ba932c96fbe302b36a1aad1d95cab54f9e0a135f090930180546001600160a01b031916939092169290921790559050610fb5611e13565b603d546040516001600160a01b03909116907faadd128c35976a01ffffa9dfb8d363b3358597ce6b30248bcf25e80bd3af451290600090a26000610ff88361202a565b9050806110175760405162461bcd60e51b81526004016105dd90612a39565b50505050565b8060010361118f57603e546001600160a01b031633146110955760405162461bcd60e51b815260206004820152602d60248201527f74686973206163636f756e74206973206e6f7420612073656c6c6572206f662060448201526c1d1a1a5cc818dbdb9d1c9858dd609a1b60648201526084016105dd565b60006001603654600160a01b900460ff1660018111156110b7576110b76124d6565b036110c7576110c4611dc0565b90505b60006110d2826120bd565b9050806110f15760405162461bcd60e51b81526004016105dd90612a39565b603f60009054906101000a90046001600160a01b03166001600160a01b0316631088f93f346040518263ffffffff1660e01b815260040160206040518083038185885af1158015611146573d6000803e3d6000fd5b50505050506040513d601f19601f8201168201806040525081019061116b9190612a70565b90508061118a5760405162461bcd60e51b81526004016105dd90612a8d565b505050565b806002036113d457603a54603c546111a79042612967565b10156111c55760405162461bcd60e51b81526004016105dd90612ad5565b6001603654600160a01b900460ff1660018111156111e5576111e56124d6565b146112025760405162461bcd60e51b81526004016105dd906129a9565b6040805160e0810182526001808252603c5460208301908152429383019384526037546060840190815260395460808501908152603a5460a08601908152603d546001600160a01b0390811660c0880190815260448054978801815560005296517f9b22d3d61959b4d3528b1d8ba932c96fbe302b36a1aad1d95cab54f9e0a135ea6007909702968701805460ff191691151591909117905593517f9b22d3d61959b4d3528b1d8ba932c96fbe302b36a1aad1d95cab54f9e0a135eb86015595517f9b22d3d61959b4d3528b1d8ba932c96fbe302b36a1aad1d95cab54f9e0a135ec85015590517f9b22d3d61959b4d3528b1d8ba932c96fbe302b36a1aad1d95cab54f9e0a135ed840155517f9b22d3d61959b4d3528b1d8ba932c96fbe302b36a1aad1d95cab54f9e0a135ee83015592517f9b22d3d61959b4d3528b1d8ba932c96fbe302b36a1aad1d95cab54f9e0a135ef82015590517f9b22d3d61959b4d3528b1d8ba932c96fbe302b36a1aad1d95cab54f9e0a135f090910180546001600160a01b03191691909216179055611399611e13565b603d546040516001600160a01b03909116907faadd128c35976a01ffffa9dfb8d363b3358597ce6b30248bcf25e80bd3af451290600090a250565b8060030361175e57603e546001600160a01b0316331461145c5760405162461bcd60e51b815260206004820152603d60248201527f6f6e6c79207468652073656c6c65722063616e20636c6f73656f757420414e4460448201527f20776974686472617720616674657220636f6e7472616374207465726d00000060648201526084016105dd565b603a54603c5461146c9042612967565b101561148a5760405162461bcd60e51b81526004016105dd90612ad5565b6001603654600160a01b900460ff1660018111156114aa576114aa6124d6565b146114c75760405162461bcd60e51b81526004016105dd906129a9565b6040805160e0810182526001808252603c5460208301908152429383019384526037546060840190815260395460808501908152603a5460a08601908152603d546001600160a01b0390811660c0880190815260448054978801815560005296517f9b22d3d61959b4d3528b1d8ba932c96fbe302b36a1aad1d95cab54f9e0a135ea6007909702968701805460ff191691151591909117905593517f9b22d3d61959b4d3528b1d8ba932c96fbe302b36a1aad1d95cab54f9e0a135eb86015595517f9b22d3d61959b4d3528b1d8ba932c96fbe302b36a1aad1d95cab54f9e0a135ec85015590517f9b22d3d61959b4d3528b1d8ba932c96fbe302b36a1aad1d95cab54f9e0a135ed840155517f9b22d3d61959b4d3528b1d8ba932c96fbe302b36a1aad1d95cab54f9e0a135ee83015592517f9b22d3d61959b4d3528b1d8ba932c96fbe302b36a1aad1d95cab54f9e0a135ef82015590517f9b22d3d61959b4d3528b1d8ba932c96fbe302b36a1aad1d95cab54f9e0a135f090910180546001600160a01b0319169190921617905561165e611e13565b603d546040516001600160a01b03909116907faadd128c35976a01ffffa9dfb8d363b3358597ce6b30248bcf25e80bd3af451290600090a26000603f60009054906101000a90046001600160a01b03166001600160a01b0316631088f93f346040518263ffffffff1660e01b815260040160206040518083038185885af11580156116ed573d6000803e3d6000fd5b50505050506040513d601f19601f820116820180604052508101906117129190612a70565b9050806117315760405162461bcd60e51b81526004016105dd90612a8d565b61173b60006120bd565b90508061175a5760405162461bcd60e51b81526004016105dd90612a39565b5050565b60405162461bcd60e51b815260206004820152602560248201527f796f75206d757374206d616b6520612073656c656374696f6e2066726f6d203060448201526420746f203360d81b60648201526084016105dd565b50565b604481815481106117c757600080fd5b6000918252602090912060079091020180546001820154600283015460038401546004850154600586015460069096015460ff909516965092949193909291906001600160a01b031687565b603f546001600160a01b0316331461183d5760405162461bcd60e51b81526004016105dd906128ec565b6001603654600160a01b900460ff16600181111561185d5761185d6124d6565b03611900576040805160c0810182528681526020810186905290810184905260608101839052603b54608082019061189c9063ffffffff166001612b1f565b63ffffffff9081168252600084900b6020928301528251604555908201516046556040820151604755606082015160485560808201516049805460a09094015160ff166401000000000264ffffffffff1990941691909216179190911790556119c2565b6040805160c0810182528681526020810186905290810184905260608101839052603b54608082019061193a9063ffffffff166001612b1f565b63ffffffff9081168252600084810b6020938401528351603755918301516038556040808401516039556060840151603a556080840151603b805460a09096015160ff166401000000000264ffffffffff199096169190931617939093179055905130917f7865b2bbe0087425b223d9cf674d8d5328e31546b364da98c36db21193c17d5591a25b5050505050565b60428054610c99906127a4565b60008060008060005b604454811015611a4757604481815481106119fc576119fc61297a565b600091825260209091206007909102015460ff1615611a275782611a1f81612990565b935050611a35565b81611a3181612990565b9250505b80611a3f81612990565b9150506119df565b5090939092509050565b604854603654603754603854603954603a54603c54603d54603e546043546040516370a0823160e01b815230600482015260009a8b9a8b9a8b9a8b9a8b9a8b9a8b9a60609a8c9a8b9a8b9a8b9a9015159960ff600160a01b830481169a919991989197919691956001600160a01b0392831695908316946041949290911692909116906370a0823190602401602060405180830381865afa158015611afa573d6000803e3d6000fd5b505050506040513d601f19601f82011682018060405250810190611b1e9190612a20565b603b5483548d9163ffffffff16908590611b37906127a4565b80601f0160208091040260200160405190810160405280929190818152602001828054611b63906127a4565b8015611bb05780601f10611b8557610100808354040283529160200191611bb0565b820191906000526020600020905b815481529060010190602001808311611b9357829003601f168201915b505050505094509d509d509d509d509d509d509d509d509d509d509d509d509d5050909192939495969798999a9b9c565b603f546001600160a01b03163314611c615760405162461bcd60e51b815260206004820152603a60248201527f746869732061646472657373206973206e6f7420617070726f76656420746f2060448201527f63616c6c207468652070757263686173652066756e6374696f6e00000000000060648201526084016105dd565b6000603654600160a01b900460ff166001811115611c8157611c816124d6565b14611cdc5760405162461bcd60e51b815260206004820152602560248201527f636f6e7472616374206973206e6f7420696e20616e20617661696c61626c6520604482015264737461746560d81b60648201526084016105dd565b6041611ce983858361282c565b50603d80546001600160a01b03199081166001600160a01b0384811691821790935542603c556036805460ff60a01b1916600160a01b179055603e5460375460348054851692909516919091179093556033805490921617905560355560405133907f0c00d1d6cea0bd55f7d3b6e92ef60237b117b050185fc2816c708fd45f45e5bb90600090a2505050565b600054610100900460ff16611d9d5760405162461bcd60e51b81526004016105dd90612b43565b603680546001600160a01b0319166001600160a01b0383161790556117b46121c9565b600080603c5442611dd19190612967565b603a549091508111611e0b57603a54603754611dee908390612b8e565b611df89190612ba5565b603754611e059190612967565b91505090565b600091505090565b603d80546001600160a01b0319169055604080516020810190915260008152604190611e3f9082612bc7565b506036805460ff60a01b1916905560485415612028576040518060c001604052806045600001548152602001604560010154815260200160456002015481526020016045600301548152602001604560040160009054906101000a900463ffffffff1663ffffffff168152602001604560040160049054906101000a900460000b60000b81525060376000820151816000015560208201518160010155604082015181600201556060820151816003015560808201518160040160006101000a81548163ffffffff021916908363ffffffff16021790555060a08201518160040160046101000a81548160ff021916908360000b60ff1602179055509050506040518060c0016040528060008152602001600081526020016000815260200160008152602001600063ffffffff1681526020016000800b81525060456000820151816000015560208201518160010155604082015181600201556060820151816003015560808201518160040160006101000a81548163ffffffff021916908363ffffffff16021790555060a08201518160040160046101000a81548160ff021916908360000b60ff160217905550905050306001600160a01b03167f7865b2bbe0087425b223d9cf674d8d5328e31546b364da98c36db21193c17d5560405160405180910390a25b565b60006120346121f8565b60365460335460405163a9059cbb60e01b81526001600160a01b0391821660048201526024810185905291169063a9059cbb906044016020604051808303816000875af1158015612089573d6000803e3d6000fd5b505050506040513d601f19601f820116820180604052508101906120ad9190612a70565b90506120b860018055565b919050565b60006120c76121f8565b6036546040516370a0823160e01b815230600482015260009184916001600160a01b03909116906370a0823190602401602060405180830381865afa158015612114573d6000803e3d6000fd5b505050506040513d601f19601f820116820180604052508101906121389190612a20565b6121429190612967565b60365460345460405163a9059cbb60e01b81526001600160a01b03918216600482015260248101849052929350169063a9059cbb906044016020604051808303816000875af1158015612199573d6000803e3d6000fd5b505050506040513d601f19601f820116820180604052508101906121bd9190612a70565b9150506120b860018055565b600054610100900460ff166121f05760405162461bcd60e51b81526004016105dd90612b43565b612028612257565b60026001540361224a5760405162461bcd60e51b815260206004820152601f60248201527f5265656e7472616e637947756172643a207265656e7472616e742063616c6c0060448201526064016105dd565b6002600155565b60018055565b600054610100900460ff166122515760405162461bcd60e51b81526004016105dd90612b43565b8035600081900b81146120b857600080fd5b80356001600160a01b03811681146120b857600080fd5b60008083601f8401126122b957600080fd5b50813567ffffffffffffffff8111156122d157600080fd5b6020830191508360208285010111156122e957600080fd5b9250929050565b60008060008060008060008060008060006101408c8e03121561231257600080fd5b8b359a5060208c0135995060408c0135985060608c0135975061233760808d0161227e565b965061234560a08d01612290565b955061235360c08d01612290565b945061236160e08d01612290565b93506123706101008d01612290565b92506101208c013567ffffffffffffffff81111561238d57600080fd5b6123998e828f016122a7565b915080935050809150509295989b509295989b9093969950565b80151581146117b457600080fd5b6000602082840312156123d357600080fd5b81356123de816123b3565b9392505050565b600080604083850312156123f857600080fd5b50508035926020909101359150565b602080825282518282018190526000919060409081850190868401855b8281101561248757815180511515855286810151878601528581015186860152606080820151908601526080808201519086015260a0808201519086015260c0908101516001600160a01b03169085015260e09093019290850190600101612424565b5091979650505050505050565b600080602083850312156124a757600080fd5b823567ffffffffffffffff8111156124be57600080fd5b6124ca858286016122a7565b90969095509350505050565b634e487b7160e01b600052602160045260246000fd5b6002811061250a57634e487b7160e01b600052602160045260246000fd5b9052565b6020810161099882846124ec565b6000815180845260005b8181101561254257602081850181015186830182015201612526565b506000602082860101526020601f19601f83011685010191505092915050565b60006101c0612571838d6124ec565b8a51602084015260208b0151604084015260408b0151606084015260608b0151608084015263ffffffff60808c01511660a084015260a08b015160000b60c08401528960e08401526125cf61010084018a6001600160a01b03169052565b6001600160a01b038816610120840152806101408401526125f28184018861251c565b91505061260461016083018615159052565b8361018083015261261a6101a083018415159052565b9a9950505050505050505050565b6020815260006123de602083018461251c565b60006020828403121561264d57600080fd5b5035919050565b600080600080600060a0868803121561266c57600080fd5b853594506020860135935060408601359250606086013591506126916080870161227e565b90509295509295909350565b6126a7818f6124ec565b8c60208201528b60408201528a60608201528960808201528860a082015260018060a01b03881660c082015260018060a01b03871660e08201526101a061010082015260006126fa6101a083018861251c565b90508515156101208301528461014083015283151561016083015261272861018083018463ffffffff169052565b9e9d5050505050505050505050505050565b60008060006040848603121561274f57600080fd5b833567ffffffffffffffff81111561276657600080fd5b612772868287016122a7565b9094509250612785905060208501612290565b90509250925092565b634e487b7160e01b600052604160045260246000fd5b600181811c908216806127b857607f821691505b6020821081036127d857634e487b7160e01b600052602260045260246000fd5b50919050565b601f82111561118a57600081815260208120601f850160051c810160208610156128055750805b601f850160051c820191505b8181101561282457828155600101612811565b505050505050565b67ffffffffffffffff8311156128445761284461278e565b6128588361285283546127a4565b836127de565b6000601f84116001811461288c57600085156128745750838201355b600019600387901b1c1916600186901b1783556119c2565b600083815260209020601f19861690835b828110156128bd578685013582556020948501946001909201910161289d565b50868210156128da5760001960f88860031b161c19848701351681555b505060018560011b0183555050505050565b60208082526032908201527f746869732061646472657373206973206e6f7420617070726f76656420746f2060408201527131b0b636103a3434b990333ab731ba34b7b760711b606082015260800190565b634e487b7160e01b600052601160045260246000fd5b808201808211156109985761099861293e565b818103818111156109985761099861293e565b634e487b7160e01b600052603260045260246000fd5b6000600182016129a2576129a261293e565b5060010190565b60208082526028908201527f74686520636f6e7472616374206973206e6f7420696e207468652072756e6e696040820152676e6720737461746560c01b606082015260800190565b60208152816020820152818360408301376000818301604090810191909152601f909201601f19160101919050565b600060208284031215612a3257600080fd5b5051919050565b60208082526018908201527f4661696c656420746f2077697468647261772066756e64730000000000000000604082015260600190565b600060208284031215612a8257600080fd5b81516123de816123b3565b60208082526028908201527f4661696c656420746f20706179206d61726b6574706c616365207769746864726040820152676177616c2066656560c01b606082015260800190565b6020808252602a908201527f74686520636f6e7472616374206861732079657420746f206265206361727269604082015269656420746f207465726d60b01b606082015260800190565b63ffffffff818116838216019080821115612b3c57612b3c61293e565b5092915050565b6020808252602b908201527f496e697469616c697a61626c653a20636f6e7472616374206973206e6f74206960408201526a6e697469616c697a696e6760a81b606082015260800190565b80820281158282048414176109985761099861293e565b600082612bc257634e487b7160e01b600052601260045260246000fd5b500490565b815167ffffffffffffffff811115612be157612be161278e565b612bf581612bef84546127a4565b846127de565b602080601f831160018114612c2a5760008415612c125750858301515b600019600386901b1c1916600185901b178555612824565b600085815260208120601f198616915b82811015612c5957888601518255948401946001909101908401612c3a565b5085821015612c775787850151600019600388901b60f8161c191681555b5050505050600190811b0190555056fea26469706673582212202726ec6bccfb92bce4c959e312a9a8b462976a4df522f7e67f1ea18931c2d82064736f6c63430008120033",
    "linkReferences": {},
    "deployedLinkReferences": {}
}