{
    "_format": "hh-sol-artifact-1",
    "contractName": "Implementation",
    "sourceName": "contracts/Implementation.sol",
    "abi": [
        {
            "anonymous": false,
            "inputs": [
                {
                    "indexed": false,
                    "internalType": "uint8",
                    "name": "version",
                    "type": "uint8"
                }
            ],
            "name": "Initialized",
            "type": "event"
        },
        {
            "anonymous": false,
            "inputs": [
                {
                    "indexed": false,
                    "internalType": "string",
                    "name": "newCipherText",
                    "type": "string"
                }
            ],
            "name": "cipherTextUpdated",
            "type": "event"
        },
        {
            "anonymous": false,
            "inputs": [
                {
                    "indexed": true,
                    "internalType": "address",
                    "name": "_buyer",
                    "type": "address"
                }
            ],
            "name": "contractClosed",
            "type": "event"
        },
        {
            "anonymous": false,
            "inputs": [
                {
                    "indexed": true,
                    "internalType": "address",
                    "name": "_buyer",
                    "type": "address"
                }
            ],
            "name": "contractPurchased",
            "type": "event"
        },
        {
            "anonymous": false,
            "inputs": [
                {
                    "indexed": true,
                    "internalType": "address",
                    "name": "_address",
                    "type": "address"
                }
            ],
            "name": "purchaseInfoUpdated",
            "type": "event"
        },
        {
            "inputs": [],
            "name": "buyer",
            "outputs": [
                {
                    "internalType": "address",
                    "name": "",
                    "type": "address"
                }
            ],
            "stateMutability": "view",
            "type": "function"
        },
        {
            "inputs": [],
            "name": "cloneFactory",
            "outputs": [
                {
                    "internalType": "address",
                    "name": "",
                    "type": "address"
                }
            ],
            "stateMutability": "view",
            "type": "function"
        },
        {
            "inputs": [],
            "name": "contractState",
            "outputs": [
                {
                    "internalType": "enum Implementation.ContractState",
                    "name": "",
                    "type": "uint8"
                }
            ],
            "stateMutability": "view",
            "type": "function"
        },
        {
            "inputs": [],
            "name": "contractTotal",
            "outputs": [
                {
                    "internalType": "uint256",
                    "name": "",
                    "type": "uint256"
                }
            ],
            "stateMutability": "view",
            "type": "function"
        },
        {
            "inputs": [],
            "name": "encryptedPoolData",
            "outputs": [
                {
                    "internalType": "string",
                    "name": "",
                    "type": "string"
                }
            ],
            "stateMutability": "view",
            "type": "function"
        },
        {
            "inputs": [],
            "name": "escrow_purchaser",
            "outputs": [
                {
                    "internalType": "address",
                    "name": "",
                    "type": "address"
                }
            ],
            "stateMutability": "view",
            "type": "function"
        },
        {
            "inputs": [],
            "name": "escrow_seller",
            "outputs": [
                {
                    "internalType": "address",
                    "name": "",
                    "type": "address"
                }
            ],
            "stateMutability": "view",
            "type": "function"
        },
        {
            "inputs": [],
            "name": "futureTerms",
            "outputs": [
                {
                    "internalType": "uint256",
                    "name": "_price",
                    "type": "uint256"
                },
                {
                    "internalType": "uint256",
                    "name": "_limit",
                    "type": "uint256"
                },
                {
                    "internalType": "uint256",
                    "name": "_speed",
                    "type": "uint256"
                },
                {
                    "internalType": "uint256",
                    "name": "_length",
                    "type": "uint256"
                },
                {
                    "internalType": "uint32",
                    "name": "_version",
                    "type": "uint32"
                }
            ],
            "stateMutability": "view",
            "type": "function"
        },
        {
            "inputs": [
                {
                    "internalType": "uint256",
                    "name": "_offset",
                    "type": "uint256"
                },
                {
                    "internalType": "uint256",
                    "name": "_limit",
                    "type": "uint256"
                }
            ],
            "name": "getHistory",
            "outputs": [
                {
                    "components": [
                        {
                            "internalType": "bool",
                            "name": "_goodCloseout",
                            "type": "bool"
                        },
                        {
                            "internalType": "uint256",
                            "name": "_purchaseTime",
                            "type": "uint256"
                        },
                        {
                            "internalType": "uint256",
                            "name": "_endTime",
                            "type": "uint256"
                        },
                        {
                            "internalType": "uint256",
                            "name": "_price",
                            "type": "uint256"
                        },
                        {
                            "internalType": "uint256",
                            "name": "_speed",
                            "type": "uint256"
                        },
                        {
                            "internalType": "uint256",
                            "name": "_length",
                            "type": "uint256"
                        },
                        {
                            "internalType": "address",
                            "name": "_buyer",
                            "type": "address"
                        }
                    ],
                    "internalType": "struct Implementation.HistoryEntry[]",
                    "name": "",
                    "type": "tuple[]"
                }
            ],
            "stateMutability": "view",
            "type": "function"
        },
        {
            "inputs": [],
            "name": "getPublicVariables",
            "outputs": [
                {
                    "internalType": "enum Implementation.ContractState",
                    "name": "_state",
                    "type": "uint8"
                },
                {
                    "internalType": "uint256",
                    "name": "_price",
                    "type": "uint256"
                },
                {
                    "internalType": "uint256",
                    "name": "_limit",
                    "type": "uint256"
                },
                {
                    "internalType": "uint256",
                    "name": "_speed",
                    "type": "uint256"
                },
                {
                    "internalType": "uint256",
                    "name": "_length",
                    "type": "uint256"
                },
                {
                    "internalType": "uint256",
                    "name": "_startingBlockTimestamp",
                    "type": "uint256"
                },
                {
                    "internalType": "address",
                    "name": "_buyer",
                    "type": "address"
                },
                {
                    "internalType": "address",
                    "name": "_seller",
                    "type": "address"
                },
                {
                    "internalType": "string",
                    "name": "_encryptedPoolData",
                    "type": "string"
                },
                {
                    "internalType": "bool",
                    "name": "_isDeleted",
                    "type": "bool"
                },
                {
                    "internalType": "uint256",
                    "name": "_balance",
                    "type": "uint256"
                },
                {
                    "internalType": "bool",
                    "name": "_hasFutureTerms",
                    "type": "bool"
                },
                {
                    "internalType": "uint32",
                    "name": "_version",
                    "type": "uint32"
                }
            ],
            "stateMutability": "view",
            "type": "function"
        },
        {
            "inputs": [],
            "name": "getStats",
            "outputs": [
                {
                    "internalType": "uint256",
                    "name": "_successCount",
                    "type": "uint256"
                },
                {
                    "internalType": "uint256",
                    "name": "_failCount",
                    "type": "uint256"
                }
            ],
            "stateMutability": "view",
            "type": "function"
        },
        {
            "inputs": [
                {
                    "internalType": "uint256",
                    "name": "",
                    "type": "uint256"
                }
            ],
            "name": "history",
            "outputs": [
                {
                    "internalType": "bool",
                    "name": "_goodCloseout",
                    "type": "bool"
                },
                {
                    "internalType": "uint256",
                    "name": "_purchaseTime",
                    "type": "uint256"
                },
                {
                    "internalType": "uint256",
                    "name": "_endTime",
                    "type": "uint256"
                },
                {
                    "internalType": "uint256",
                    "name": "_price",
                    "type": "uint256"
                },
                {
                    "internalType": "uint256",
                    "name": "_speed",
                    "type": "uint256"
                },
                {
                    "internalType": "uint256",
                    "name": "_length",
                    "type": "uint256"
                },
                {
                    "internalType": "address",
                    "name": "_buyer",
                    "type": "address"
                }
            ],
            "stateMutability": "view",
            "type": "function"
        },
        {
            "inputs": [
                {
                    "internalType": "uint256",
                    "name": "_price",
                    "type": "uint256"
                },
                {
                    "internalType": "uint256",
                    "name": "_limit",
                    "type": "uint256"
                },
                {
                    "internalType": "uint256",
                    "name": "_speed",
                    "type": "uint256"
                },
                {
                    "internalType": "uint256",
                    "name": "_length",
                    "type": "uint256"
                },
                {
                    "internalType": "address",
                    "name": "_seller",
                    "type": "address"
                },
                {
                    "internalType": "address",
                    "name": "_lmrAddress",
                    "type": "address"
                },
                {
                    "internalType": "address",
                    "name": "_cloneFactory",
                    "type": "address"
                },
                {
                    "internalType": "address",
                    "name": "_validator",
                    "type": "address"
                },
                {
                    "internalType": "string",
                    "name": "_pubKey",
                    "type": "string"
                }
            ],
            "name": "initialize",
            "outputs": [],
            "stateMutability": "nonpayable",
            "type": "function"
        },
        {
            "inputs": [],
            "name": "isDeleted",
            "outputs": [
                {
                    "internalType": "bool",
                    "name": "",
                    "type": "bool"
                }
            ],
            "stateMutability": "view",
            "type": "function"
        },
        {
            "inputs": [],
            "name": "pubKey",
            "outputs": [
                {
                    "internalType": "string",
                    "name": "",
                    "type": "string"
                }
            ],
            "stateMutability": "view",
            "type": "function"
        },
        {
            "inputs": [],
            "name": "seller",
            "outputs": [
                {
                    "internalType": "address",
                    "name": "",
                    "type": "address"
                }
            ],
            "stateMutability": "view",
            "type": "function"
        },
        {
            "inputs": [
                {
                    "internalType": "uint256",
                    "name": "closeOutType",
                    "type": "uint256"
                }
            ],
            "name": "setContractCloseOut",
            "outputs": [],
            "stateMutability": "payable",
            "type": "function"
        },
        {
            "inputs": [
                {
                    "internalType": "bool",
                    "name": "_isDeleted",
                    "type": "bool"
                }
            ],
            "name": "setContractDeleted",
            "outputs": [],
            "stateMutability": "nonpayable",
            "type": "function"
        },
        {
            "inputs": [
                {
                    "internalType": "string",
                    "name": "_encryptedPoolData",
                    "type": "string"
                },
                {
                    "internalType": "address",
                    "name": "_buyer",
                    "type": "address"
                }
            ],
            "name": "setPurchaseContract",
            "outputs": [],
            "stateMutability": "nonpayable",
            "type": "function"
        },
        {
            "inputs": [
                {
                    "internalType": "string",
                    "name": "_newEncryptedPoolData",
                    "type": "string"
                }
            ],
            "name": "setUpdateMiningInformation",
            "outputs": [],
            "stateMutability": "nonpayable",
            "type": "function"
        },
        {
            "inputs": [
                {
                    "internalType": "uint256",
                    "name": "_price",
                    "type": "uint256"
                },
                {
                    "internalType": "uint256",
                    "name": "_limit",
                    "type": "uint256"
                },
                {
                    "internalType": "uint256",
                    "name": "_speed",
                    "type": "uint256"
                },
                {
                    "internalType": "uint256",
                    "name": "_length",
                    "type": "uint256"
                }
            ],
            "name": "setUpdatePurchaseInformation",
            "outputs": [],
            "stateMutability": "nonpayable",
            "type": "function"
        },
        {
            "inputs": [],
            "name": "startingBlockTimestamp",
            "outputs": [
                {
                    "internalType": "uint256",
                    "name": "",
                    "type": "uint256"
                }
            ],
            "stateMutability": "view",
            "type": "function"
        },
        {
            "inputs": [],
            "name": "terms",
            "outputs": [
                {
                    "internalType": "uint256",
                    "name": "_price",
                    "type": "uint256"
                },
                {
                    "internalType": "uint256",
                    "name": "_limit",
                    "type": "uint256"
                },
                {
                    "internalType": "uint256",
                    "name": "_speed",
                    "type": "uint256"
                },
                {
                    "internalType": "uint256",
                    "name": "_length",
                    "type": "uint256"
                },
                {
                    "internalType": "uint32",
                    "name": "_version",
                    "type": "uint32"
                }
            ],
            "stateMutability": "view",
            "type": "function"
        }
    ],
    "bytecode": "0x608060405234801561001057600080fd5b50612831806100206000396000f3fe6080604052600436106101405760003560e01c8063a4e27566116100b6578063ce0c722a1161006f578063ce0c722a14610416578063d502562514610436578063d7efb6b714610463578063ddcb1bf21461048d578063fe63b27e146104ad578063fe8e84fa146104cd57600080fd5b8063a4e27566146102d8578063a7a38f0b14610333578063ac2a5dfd14610393578063c5095d68146103a8578063c59d4847146103be578063ca3225fa146103e857600080fd5b80637150d8ae116101085780637150d8ae14610215578063719e6b5b1461023557806385209ee0146102555780638b7e4b13146102835780638e2e6d5d146102a5578063a064f9a1146102b857600080fd5b806308551a5314610145578063089aa8a2146101825780630a61e2d9146101a2578063567d91f0146101c65780636906679b146101e8575b600080fd5b34801561015157600080fd5b50603e54610165906001600160a01b031681565b6040516001600160a01b0390911681526020015b60405180910390f35b34801561018e57600080fd5b50603354610165906001600160a01b031681565b3480156101ae57600080fd5b506101b860355481565b604051908152602001610179565b3480156101d257600080fd5b506101e66101e1366004611f00565b6104ed565b005b3480156101f457600080fd5b50610208610203366004611f24565b6105a8565b6040516101799190611f46565b34801561022157600080fd5b50603d54610165906001600160a01b031681565b34801561024157600080fd5b506101e661025036600461201c565b610765565b34801561026157600080fd5b5060365461027690600160a01b900460ff1681565b6040516101799190612096565b34801561028f57600080fd5b50610298610879565b60405161017991906120ea565b6101e66102b33660046120fd565b610907565b3480156102c457600080fd5b50603f54610165906001600160a01b031681565b3480156102e457600080fd5b50604554604654604754604854604954610305949392919063ffffffff1685565b60408051958652602086019490945292840191909152606083015263ffffffff16608082015260a001610179565b34801561033f57600080fd5b5061035361034e3660046120fd565b6113a4565b6040805197151588526020880196909652948601939093526060850191909152608084015260a08301526001600160a01b031660c082015260e001610179565b34801561039f57600080fd5b50610298611400565b3480156103b457600080fd5b506101b8603c5481565b3480156103ca57600080fd5b506103d361140d565b60408051928352602083019190915201610179565b3480156103f457600080fd5b506103fd611488565b6040516101799d9c9b9a99989796959493929190612116565b34801561042257600080fd5b50603454610165906001600160a01b031681565b34801561044257600080fd5b50603754603854603954603a54603b54610305949392919063ffffffff1685565b34801561046f57600080fd5b5060435461047d9060ff1681565b6040519015158152602001610179565b34801561049957600080fd5b506101e66104a83660046121ca565b611618565b3480156104b957600080fd5b506101e66104c836600461221e565b6117ad565b3480156104d957600080fd5b506101e66104e83660046122cf565b611979565b603f546001600160a01b031633146105205760405162461bcd60e51b815260040161051790612301565b60405180910390fd5b60435481151560ff9091161515036105955760405162461bcd60e51b815260206004820152603260248201527f636f6e74726163742064656c65746520737461746520697320616c72656164796044820152712073657420746f20746869732076616c756560701b6064820152608401610517565b6043805460ff1916911515919091179055565b6044546060908311156105bb5760445492505b6044546105c88385612369565b11156105df576044546105dc90849061237c565b91505b60008267ffffffffffffffff8111156105fa576105fa61238f565b60405190808252806020026020018201604052801561067657816020015b6106636040518060e00160405280600015158152602001600081526020016000815260200160008152602001600081526020016000815260200160006001600160a01b031681525090565b8152602001906001900390816106185790505b50905060005b8381101561075b5760448054829087906106989060019061237c565b6106a2919061237c565b6106ac919061237c565b815481106106bc576106bc6123a5565b60009182526020918290206040805160e0810182526007909302909101805460ff16151583526001810154938301939093526002830154908201526003820154606082015260048201546080820152600582015460a08201526006909101546001600160a01b031660c0820152825183908390811061073d5761073d6123a5565b60200260200101819052508080610753906123bb565b91505061067c565b5090505b92915050565b603d546001600160a01b031633146107f15760405162461bcd60e51b815260206004820152604360248201527f74686973206163636f756e74206973206e6f7420617574686f72697a6564207460448201527f6f2075706461746520746865206369706865727465787420696e666f726d617460648201526234b7b760e91b608482015260a401610517565b6001603654600160a01b900460ff1660018111156108115761081161205e565b1461082e5760405162461bcd60e51b8152600401610517906123d4565b604161083b8284836124a4565b507f2301ef7d9f42b857543faf9e285b5807e028d4ae99810ea7fe0aadda3a717e9d828260405161086d929190612565565b60405180910390a15050565b604180546108869061241c565b80601f01602080910402602001604051908101604052809291908181526020018280546108b29061241c565b80156108ff5780601f106108d4576101008083540402835291602001916108ff565b820191906000526020600020905b8154815290600101906020018083116108e257829003601f168201915b505050505081565b80600003610c0a57603d546001600160a01b031633148061093257506040546001600160a01b031633145b6109a45760405162461bcd60e51b815260206004820152603b60248201527f74686973206163636f756e74206973206e6f7420617574686f72697a6564207460448201527f6f207472696767657220616e206561726c7920636c6f73656f757400000000006064820152608401610517565b6001603654600160a01b900460ff1660018111156109c4576109c461205e565b146109e15760405162461bcd60e51b8152600401610517906123d4565b60006109eb611af1565b603a54603c54919250600091610a01904261237c565b6040805160e0810182529290911015808352603c5460208401908152429284019283526037546060850190815260395460808601908152603a5460a08701908152603d546001600160a01b0390811660c089019081526044805460018101825560009190915298517f9b22d3d61959b4d3528b1d8ba932c96fbe302b36a1aad1d95cab54f9e0a135ea6007909a02998a01805460ff191691151591909117905594517f9b22d3d61959b4d3528b1d8ba932c96fbe302b36a1aad1d95cab54f9e0a135eb89015595517f9b22d3d61959b4d3528b1d8ba932c96fbe302b36a1aad1d95cab54f9e0a135ec88015591517f9b22d3d61959b4d3528b1d8ba932c96fbe302b36a1aad1d95cab54f9e0a135ed870155517f9b22d3d61959b4d3528b1d8ba932c96fbe302b36a1aad1d95cab54f9e0a135ee860155517f9b22d3d61959b4d3528b1d8ba932c96fbe302b36a1aad1d95cab54f9e0a135ef850155517f9b22d3d61959b4d3528b1d8ba932c96fbe302b36a1aad1d95cab54f9e0a135f090930180546001600160a01b031916939092169290921790559050610ba2611b44565b603d546040516001600160a01b03909116907faadd128c35976a01ffffa9dfb8d363b3358597ce6b30248bcf25e80bd3af451290600090a26000610be583611c59565b905080610c045760405162461bcd60e51b815260040161051790612594565b50505050565b80600103610d7c57603e546001600160a01b03163314610c825760405162461bcd60e51b815260206004820152602d60248201527f74686973206163636f756e74206973206e6f7420612073656c6c6572206f662060448201526c1d1a1a5cc818dbdb9d1c9858dd609a1b6064820152608401610517565b60006001603654600160a01b900460ff166001811115610ca457610ca461205e565b03610cb457610cb1611af1565b90505b6000610cbf82611cec565b905080610cde5760405162461bcd60e51b815260040161051790612594565b603f60009054906101000a90046001600160a01b03166001600160a01b0316631088f93f346040518263ffffffff1660e01b815260040160206040518083038185885af1158015610d33573d6000803e3d6000fd5b50505050506040513d601f19601f82011682018060405250810190610d5891906125cb565b905080610d775760405162461bcd60e51b8152600401610517906125e8565b505050565b80600203610fc157603a54603c54610d94904261237c565b1015610db25760405162461bcd60e51b815260040161051790612630565b6001603654600160a01b900460ff166001811115610dd257610dd261205e565b14610def5760405162461bcd60e51b8152600401610517906123d4565b6040805160e0810182526001808252603c5460208301908152429383019384526037546060840190815260395460808501908152603a5460a08601908152603d546001600160a01b0390811660c0880190815260448054978801815560005296517f9b22d3d61959b4d3528b1d8ba932c96fbe302b36a1aad1d95cab54f9e0a135ea6007909702968701805460ff191691151591909117905593517f9b22d3d61959b4d3528b1d8ba932c96fbe302b36a1aad1d95cab54f9e0a135eb86015595517f9b22d3d61959b4d3528b1d8ba932c96fbe302b36a1aad1d95cab54f9e0a135ec85015590517f9b22d3d61959b4d3528b1d8ba932c96fbe302b36a1aad1d95cab54f9e0a135ed840155517f9b22d3d61959b4d3528b1d8ba932c96fbe302b36a1aad1d95cab54f9e0a135ee83015592517f9b22d3d61959b4d3528b1d8ba932c96fbe302b36a1aad1d95cab54f9e0a135ef82015590517f9b22d3d61959b4d3528b1d8ba932c96fbe302b36a1aad1d95cab54f9e0a135f090910180546001600160a01b03191691909216179055610f86611b44565b603d546040516001600160a01b03909116907faadd128c35976a01ffffa9dfb8d363b3358597ce6b30248bcf25e80bd3af451290600090a250565b8060030361134b57603e546001600160a01b031633146110495760405162461bcd60e51b815260206004820152603d60248201527f6f6e6c79207468652073656c6c65722063616e20636c6f73656f757420414e4460448201527f20776974686472617720616674657220636f6e7472616374207465726d0000006064820152608401610517565b603a54603c54611059904261237c565b10156110775760405162461bcd60e51b815260040161051790612630565b6001603654600160a01b900460ff1660018111156110975761109761205e565b146110b45760405162461bcd60e51b8152600401610517906123d4565b6040805160e0810182526001808252603c5460208301908152429383019384526037546060840190815260395460808501908152603a5460a08601908152603d546001600160a01b0390811660c0880190815260448054978801815560005296517f9b22d3d61959b4d3528b1d8ba932c96fbe302b36a1aad1d95cab54f9e0a135ea6007909702968701805460ff191691151591909117905593517f9b22d3d61959b4d3528b1d8ba932c96fbe302b36a1aad1d95cab54f9e0a135eb86015595517f9b22d3d61959b4d3528b1d8ba932c96fbe302b36a1aad1d95cab54f9e0a135ec85015590517f9b22d3d61959b4d3528b1d8ba932c96fbe302b36a1aad1d95cab54f9e0a135ed840155517f9b22d3d61959b4d3528b1d8ba932c96fbe302b36a1aad1d95cab54f9e0a135ee83015592517f9b22d3d61959b4d3528b1d8ba932c96fbe302b36a1aad1d95cab54f9e0a135ef82015590517f9b22d3d61959b4d3528b1d8ba932c96fbe302b36a1aad1d95cab54f9e0a135f090910180546001600160a01b0319169190921617905561124b611b44565b603d546040516001600160a01b03909116907faadd128c35976a01ffffa9dfb8d363b3358597ce6b30248bcf25e80bd3af451290600090a26000603f60009054906101000a90046001600160a01b03166001600160a01b0316631088f93f346040518263ffffffff1660e01b815260040160206040518083038185885af11580156112da573d6000803e3d6000fd5b50505050506040513d601f19601f820116820180604052508101906112ff91906125cb565b90508061131e5760405162461bcd60e51b8152600401610517906125e8565b6113286000611cec565b9050806113475760405162461bcd60e51b815260040161051790612594565b5050565b60405162461bcd60e51b815260206004820152602560248201527f796f75206d757374206d616b6520612073656c656374696f6e2066726f6d203060448201526420746f203360d81b6064820152608401610517565b50565b604481815481106113b457600080fd5b6000918252602090912060079091020180546001820154600283015460038401546004850154600586015460069096015460ff909516965092949193909291906001600160a01b031687565b604280546108869061241c565b60008060008060005b60445481101561147e5760448181548110611433576114336123a5565b600091825260209091206007909102015460ff161561145e5782611456816123bb565b93505061146c565b81611468816123bb565b9250505b80611476816123bb565b915050611416565b5090939092509050565b604854603654603754603854603954603a54603c54603d54603e546043546040516370a0823160e01b815230600482015260009a8b9a8b9a8b9a8b9a8b9a8b9a8b9a60609a8c9a8b9a8b9a8b9a9015159960ff600160a01b830481169a919991989197919691956001600160a01b0392831695908316946041949290911692909116906370a0823190602401602060405180830381865afa158015611531573d6000803e3d6000fd5b505050506040513d601f19601f82011682018060405250810190611555919061267a565b603b5483548d9163ffffffff1690859061156e9061241c565b80601f016020809104026020016040519081016040528092919081815260200182805461159a9061241c565b80156115e75780601f106115bc576101008083540402835291602001916115e7565b820191906000526020600020905b8154815290600101906020018083116115ca57829003601f168201915b505050505094509d509d509d509d509d509d509d509d509d509d509d509d509d5050909192939495969798999a9b9c565b603f546001600160a01b031633146116985760405162461bcd60e51b815260206004820152603a60248201527f746869732061646472657373206973206e6f7420617070726f76656420746f2060448201527f63616c6c207468652070757263686173652066756e6374696f6e0000000000006064820152608401610517565b6000603654600160a01b900460ff1660018111156116b8576116b861205e565b146117135760405162461bcd60e51b815260206004820152602560248201527f636f6e7472616374206973206e6f7420696e20616e20617661696c61626c6520604482015264737461746560d81b6064820152608401610517565b60416117208385836124a4565b50603d80546001600160a01b03199081166001600160a01b0384811691821790935542603c556036805460ff60a01b1916600160a01b179055603e5460375460348054851692909516919091179093556033805490921617905560355560405133907f0c00d1d6cea0bd55f7d3b6e92ef60237b117b050185fc2816c708fd45f45e5bb90600090a2505050565b600054610100900460ff16158080156117cd5750600054600160ff909116105b806117e75750303b1580156117e7575060005460ff166001145b61184a5760405162461bcd60e51b815260206004820152602e60248201527f496e697469616c697a61626c653a20636f6e747261637420697320616c72656160448201526d191e481a5b9a5d1a585b1a5e995960921b6064820152608401610517565b6000805460ff19166001179055801561186d576000805461ff0019166101001790555b6040805160a0810182528c8152602081018c90529081018a905260608101899052600060809091015260378b905560388a90556039899055603a889055603b805463ffffffff19169055603e80546001600160a01b038981166001600160a01b031992831617909255603f8054928816929091169190911790556036805460ff60a01b1916905560426119018385836124a4565b50604080546001600160a01b0319166001600160a01b03861617905561192686611df8565b801561196c576000805461ff0019169055604051600181527f7f26b83ff96e1f2b6a682f133852f6798a09c465da95921460cefb38474024989060200160405180910390a15b5050505050505050505050565b603f546001600160a01b031633146119a35760405162461bcd60e51b815260040161051790612301565b6001603654600160a01b900460ff1660018111156119c3576119c361205e565b03611a47576040805160a0810182528581526020810185905290810183905260608101829052603b546080820190611a029063ffffffff166001612693565b63ffffffff90811690915281516045556020820151604655604082015160475560608201516048556080909101516049805463ffffffff191691909216179055610c04565b6040805160a0810182528581526020810185905290810183905260608101829052603b546080820190611a819063ffffffff166001612693565b63ffffffff908116909152815160375560208201516038556040808301516039556060830151603a55608090920151603b805463ffffffff1916919092161790555130907f7865b2bbe0087425b223d9cf674d8d5328e31546b364da98c36db21193c17d5590600090a250505050565b600080603c5442611b02919061237c565b603a549091508111611b3c57603a54603754611b1f9083906126b7565b611b2991906126ce565b603754611b36919061237c565b91505090565b600091505090565b603d80546001600160a01b0319169055604080516020810190915260008152604190611b7090826126f0565b506036805460ff60a01b1916905560485415611c57576040805160a080820183526045805480845260468054602080870182905260478054888a01819052604880546060808c018290526049805463ffffffff811660809e8f0181905260379b909b55603898909855603994909455603a91909155603b805463ffffffff1990811690991790558b51998a018c526000808b52948a01859052898c018590528901849052979098018290529481905591829055928190559283905516909155905130917f7865b2bbe0087425b223d9cf674d8d5328e31546b364da98c36db21193c17d5591a25b565b6000611c63611e42565b60365460335460405163a9059cbb60e01b81526001600160a01b0391821660048201526024810185905291169063a9059cbb906044016020604051808303816000875af1158015611cb8573d6000803e3d6000fd5b505050506040513d601f19601f82011682018060405250810190611cdc91906125cb565b9050611ce760018055565b919050565b6000611cf6611e42565b6036546040516370a0823160e01b815230600482015260009184916001600160a01b03909116906370a0823190602401602060405180830381865afa158015611d43573d6000803e3d6000fd5b505050506040513d601f19601f82011682018060405250810190611d67919061267a565b611d71919061237c565b60365460345460405163a9059cbb60e01b81526001600160a01b03918216600482015260248101849052929350169063a9059cbb906044016020604051808303816000875af1158015611dc8573d6000803e3d6000fd5b505050506040513d601f19601f82011682018060405250810190611dec91906125cb565b915050611ce760018055565b600054610100900460ff16611e1f5760405162461bcd60e51b8152600401610517906127b0565b603680546001600160a01b0319166001600160a01b0383161790556113a1611ea1565b600260015403611e945760405162461bcd60e51b815260206004820152601f60248201527f5265656e7472616e637947756172643a207265656e7472616e742063616c6c006044820152606401610517565b6002600155565b60018055565b600054610100900460ff16611ec85760405162461bcd60e51b8152600401610517906127b0565b611c57600054610100900460ff16611e9b5760405162461bcd60e51b8152600401610517906127b0565b80151581146113a157600080fd5b600060208284031215611f1257600080fd5b8135611f1d81611ef2565b9392505050565b60008060408385031215611f3757600080fd5b50508035926020909101359150565b602080825282518282018190526000919060409081850190868401855b82811015611fc657815180511515855286810151878601528581015186860152606080820151908601526080808201519086015260a0808201519086015260c0908101516001600160a01b03169085015260e09093019290850190600101611f63565b5091979650505050505050565b60008083601f840112611fe557600080fd5b50813567ffffffffffffffff811115611ffd57600080fd5b60208301915083602082850101111561201557600080fd5b9250929050565b6000806020838503121561202f57600080fd5b823567ffffffffffffffff81111561204657600080fd5b61205285828601611fd3565b90969095509350505050565b634e487b7160e01b600052602160045260246000fd5b6002811061209257634e487b7160e01b600052602160045260246000fd5b9052565b6020810161075f8284612074565b6000815180845260005b818110156120ca576020818501810151868301820152016120ae565b506000602082860101526020601f19601f83011685010191505092915050565b602081526000611f1d60208301846120a4565b60006020828403121561210f57600080fd5b5035919050565b612120818f612074565b8c60208201528b60408201528a60608201528960808201528860a082015260018060a01b03881660c082015260018060a01b03871660e08201526101a061010082015260006121736101a08301886120a4565b9050851515610120830152846101408301528315156101608301526121a161018083018463ffffffff169052565b9e9d5050505050505050505050505050565b80356001600160a01b0381168114611ce757600080fd5b6000806000604084860312156121df57600080fd5b833567ffffffffffffffff8111156121f657600080fd5b61220286828701611fd3565b90945092506122159050602085016121b3565b90509250925092565b6000806000806000806000806000806101208b8d03121561223e57600080fd5b8a35995060208b0135985060408b0135975060608b0135965061226360808c016121b3565b955061227160a08c016121b3565b945061227f60c08c016121b3565b935061228d60e08c016121b3565b92506101008b013567ffffffffffffffff8111156122aa57600080fd5b6122b68d828e01611fd3565b915080935050809150509295989b9194979a5092959850565b600080600080608085870312156122e557600080fd5b5050823594602084013594506040840135936060013592509050565b60208082526032908201527f746869732061646472657373206973206e6f7420617070726f76656420746f2060408201527131b0b636103a3434b990333ab731ba34b7b760711b606082015260800190565b634e487b7160e01b600052601160045260246000fd5b8082018082111561075f5761075f612353565b8181038181111561075f5761075f612353565b634e487b7160e01b600052604160045260246000fd5b634e487b7160e01b600052603260045260246000fd5b6000600182016123cd576123cd612353565b5060010190565b60208082526028908201527f74686520636f6e7472616374206973206e6f7420696e207468652072756e6e696040820152676e6720737461746560c01b606082015260800190565b600181811c9082168061243057607f821691505b60208210810361245057634e487b7160e01b600052602260045260246000fd5b50919050565b601f821115610d7757600081815260208120601f850160051c8101602086101561247d5750805b601f850160051c820191505b8181101561249c57828155600101612489565b505050505050565b67ffffffffffffffff8311156124bc576124bc61238f565b6124d0836124ca835461241c565b83612456565b6000601f84116001811461250457600085156124ec5750838201355b600019600387901b1c1916600186901b17835561255e565b600083815260209020601f19861690835b828110156125355786850135825560209485019460019092019101612515565b50868210156125525760001960f88860031b161c19848701351681555b505060018560011b0183555b5050505050565b60208152816020820152818360408301376000818301604090810191909152601f909201601f19160101919050565b60208082526018908201527f4661696c656420746f2077697468647261772066756e64730000000000000000604082015260600190565b6000602082840312156125dd57600080fd5b8151611f1d81611ef2565b60208082526028908201527f4661696c656420746f20706179206d61726b6574706c616365207769746864726040820152676177616c2066656560c01b606082015260800190565b6020808252602a908201527f74686520636f6e7472616374206861732079657420746f206265206361727269604082015269656420746f207465726d60b01b606082015260800190565b60006020828403121561268c57600080fd5b5051919050565b63ffffffff8181168382160190808211156126b0576126b0612353565b5092915050565b808202811582820484141761075f5761075f612353565b6000826126eb57634e487b7160e01b600052601260045260246000fd5b500490565b815167ffffffffffffffff81111561270a5761270a61238f565b61271e81612718845461241c565b84612456565b602080601f831160018114612753576000841561273b5750858301515b600019600386901b1c1916600185901b17855561249c565b600085815260208120601f198616915b8281101561278257888601518255948401946001909101908401612763565b50858210156127a05787850151600019600388901b60f8161c191681555b5050505050600190811b01905550565b6020808252602b908201527f496e697469616c697a61626c653a20636f6e7472616374206973206e6f74206960408201526a6e697469616c697a696e6760a81b60608201526080019056fea2646970667358221220eb443a1e38da3c5ee4331015950765284dff30a1b2a3f115b8a5e140efc646fb64736f6c63430008120033",
    "linkReferences": {},
    "deployedLinkReferences": {}
}