{
    "_format": "hh-sol-artifact-1",
    "contractName": "Implementation",
    "sourceName": "contracts/Implementation.sol",
    "abi": [
        {
            "anonymous": false,
            "inputs": [
                {
                    "indexed": false,
                    "internalType": "uint8",
                    "name": "version",
                    "type": "uint8"
                }
            ],
            "name": "Initialized",
            "type": "event"
        },
        {
            "anonymous": false,
            "inputs": [
                {
                    "indexed": false,
                    "internalType": "enum Implementation.CloseReason",
                    "name": "_reason",
                    "type": "uint8"
                }
            ],
            "name": "closedEarly",
            "type": "event"
        },
        {
            "anonymous": false,
            "inputs": [
                {
                    "indexed": true,
                    "internalType": "address",
                    "name": "_buyer",
                    "type": "address"
                }
            ],
            "name": "contractPurchased",
            "type": "event"
        },
        {
            "anonymous": false,
            "inputs": [
                {
                    "indexed": false,
                    "internalType": "string",
                    "name": "newValidatorURL",
                    "type": "string"
                },
                {
                    "indexed": false,
                    "internalType": "string",
                    "name": "newDestURL",
                    "type": "string"
                }
            ],
            "name": "destinationUpdated",
            "type": "event"
        },
        {
            "anonymous": false,
            "inputs": [],
            "name": "fundsClaimed",
            "type": "event"
        },
        {
            "anonymous": false,
            "inputs": [
                {
                    "indexed": true,
                    "internalType": "address",
                    "name": "_validator",
                    "type": "address"
                }
            ],
            "name": "fundsClaimedValidator",
            "type": "event"
        },
        {
            "anonymous": false,
            "inputs": [
                {
                    "indexed": true,
                    "internalType": "address",
                    "name": "_address",
                    "type": "address"
                }
            ],
            "name": "purchaseInfoUpdated",
            "type": "event"
        },
        {
            "inputs": [],
            "name": "VALIDATOR_FEE_DECIMALS",
            "outputs": [
                {
                    "internalType": "uint8",
                    "name": "",
                    "type": "uint8"
                }
            ],
            "stateMutability": "view",
            "type": "function"
        },
        {
            "inputs": [],
            "name": "buyer",
            "outputs": [
                {
                    "internalType": "address",
                    "name": "",
                    "type": "address"
                }
            ],
            "stateMutability": "view",
            "type": "function"
        },
        {
            "inputs": [],
            "name": "claimFunds",
            "outputs": [],
            "stateMutability": "payable",
            "type": "function"
        },
        {
            "inputs": [],
            "name": "claimFundsValidator",
            "outputs": [],
            "stateMutability": "nonpayable",
            "type": "function"
        },
        {
            "inputs": [],
            "name": "cloneFactory",
            "outputs": [
                {
                    "internalType": "contract CloneFactory",
                    "name": "",
                    "type": "address"
                }
            ],
            "stateMutability": "view",
            "type": "function"
        },
        {
            "inputs": [
                {
                    "internalType": "enum Implementation.CloseReason",
                    "name": "reason",
                    "type": "uint8"
                }
            ],
            "name": "closeEarly",
            "outputs": [],
            "stateMutability": "nonpayable",
            "type": "function"
        },
        {
            "inputs": [],
            "name": "contractState",
            "outputs": [
                {
                    "internalType": "enum Implementation.ContractState",
                    "name": "",
                    "type": "uint8"
                }
            ],
            "stateMutability": "view",
            "type": "function"
        },
        {
            "inputs": [],
            "name": "encrDestURL",
            "outputs": [
                {
                    "internalType": "string",
                    "name": "",
                    "type": "string"
                }
            ],
            "stateMutability": "view",
            "type": "function"
        },
        {
            "inputs": [],
            "name": "encrValidatorURL",
            "outputs": [
                {
                    "internalType": "string",
                    "name": "",
                    "type": "string"
                }
            ],
            "stateMutability": "view",
            "type": "function"
        },
        {
            "inputs": [],
            "name": "feeToken",
            "outputs": [
                {
                    "internalType": "contract IERC20",
                    "name": "",
                    "type": "address"
                }
            ],
            "stateMutability": "view",
            "type": "function"
        },
        {
            "inputs": [],
            "name": "futureTerms",
            "outputs": [
                {
                    "internalType": "uint256",
                    "name": "_price",
                    "type": "uint256"
                },
                {
                    "internalType": "uint256",
                    "name": "_limit",
                    "type": "uint256"
                },
                {
                    "internalType": "uint256",
                    "name": "_speed",
                    "type": "uint256"
                },
                {
                    "internalType": "uint256",
                    "name": "_length",
                    "type": "uint256"
                },
                {
                    "internalType": "uint32",
                    "name": "_version",
                    "type": "uint32"
                },
                {
                    "internalType": "int8",
                    "name": "_profitTarget",
                    "type": "int8"
                }
            ],
            "stateMutability": "view",
            "type": "function"
        },
        {
            "inputs": [
                {
                    "internalType": "uint256",
                    "name": "_offset",
                    "type": "uint256"
                },
                {
                    "internalType": "uint256",
                    "name": "_limit",
                    "type": "uint256"
                }
            ],
            "name": "getHistory",
            "outputs": [
                {
                    "components": [
                        {
                            "internalType": "bool",
                            "name": "_goodCloseout",
                            "type": "bool"
                        },
                        {
                            "internalType": "uint256",
                            "name": "_purchaseTime",
                            "type": "uint256"
                        },
                        {
                            "internalType": "uint256",
                            "name": "_endTime",
                            "type": "uint256"
                        },
                        {
                            "internalType": "uint256",
                            "name": "_price",
                            "type": "uint256"
                        },
                        {
                            "internalType": "uint256",
                            "name": "_speed",
                            "type": "uint256"
                        },
                        {
                            "internalType": "uint256",
                            "name": "_length",
                            "type": "uint256"
                        },
                        {
                            "internalType": "address",
                            "name": "_buyer",
                            "type": "address"
                        }
                    ],
                    "internalType": "struct Implementation.HistoryEntry[]",
                    "name": "",
                    "type": "tuple[]"
                }
            ],
            "stateMutability": "view",
            "type": "function"
        },
        {
            "inputs": [],
            "name": "getPublicVariablesV2",
            "outputs": [
                {
                    "internalType": "enum Implementation.ContractState",
                    "name": "_state",
                    "type": "uint8"
                },
                {
                    "components": [
                        {
                            "internalType": "uint256",
                            "name": "_price",
                            "type": "uint256"
                        },
                        {
                            "internalType": "uint256",
                            "name": "_limit",
                            "type": "uint256"
                        },
                        {
                            "internalType": "uint256",
                            "name": "_speed",
                            "type": "uint256"
                        },
                        {
                            "internalType": "uint256",
                            "name": "_length",
                            "type": "uint256"
                        },
                        {
                            "internalType": "uint32",
                            "name": "_version",
                            "type": "uint32"
                        },
                        {
                            "internalType": "int8",
                            "name": "_profitTarget",
                            "type": "int8"
                        }
                    ],
                    "internalType": "struct Implementation.Terms",
                    "name": "_terms",
                    "type": "tuple"
                },
                {
                    "internalType": "uint256",
                    "name": "_startingBlockTimestamp",
                    "type": "uint256"
                },
                {
                    "internalType": "address",
                    "name": "_buyer",
                    "type": "address"
                },
                {
                    "internalType": "address",
                    "name": "_seller",
                    "type": "address"
                },
                {
                    "internalType": "string",
                    "name": "_encryptedPoolData",
                    "type": "string"
                },
                {
                    "internalType": "bool",
                    "name": "_isDeleted",
                    "type": "bool"
                },
                {
                    "internalType": "uint256",
                    "name": "_balance",
                    "type": "uint256"
                },
                {
                    "internalType": "bool",
                    "name": "_hasFutureTerms",
                    "type": "bool"
                }
            ],
            "stateMutability": "view",
            "type": "function"
        },
        {
            "inputs": [],
            "name": "getStats",
            "outputs": [
                {
                    "internalType": "uint256",
                    "name": "_successCount",
                    "type": "uint256"
                },
                {
                    "internalType": "uint256",
                    "name": "_failCount",
                    "type": "uint256"
                }
            ],
            "stateMutability": "view",
            "type": "function"
        },
        {
            "inputs": [],
            "name": "hashrateOracle",
            "outputs": [
                {
                    "internalType": "contract HashrateOracle",
                    "name": "",
                    "type": "address"
                }
            ],
            "stateMutability": "view",
            "type": "function"
        },
        {
            "inputs": [
                {
                    "internalType": "uint256",
                    "name": "",
                    "type": "uint256"
                }
            ],
            "name": "history",
            "outputs": [
                {
                    "internalType": "bool",
                    "name": "_goodCloseout",
                    "type": "bool"
                },
                {
                    "internalType": "uint256",
                    "name": "_purchaseTime",
                    "type": "uint256"
                },
                {
                    "internalType": "uint256",
                    "name": "_endTime",
                    "type": "uint256"
                },
                {
                    "internalType": "uint256",
                    "name": "_price",
                    "type": "uint256"
                },
                {
                    "internalType": "uint256",
                    "name": "_speed",
                    "type": "uint256"
                },
                {
                    "internalType": "uint256",
                    "name": "_length",
                    "type": "uint256"
                },
                {
                    "internalType": "address",
                    "name": "_buyer",
                    "type": "address"
                }
            ],
            "stateMutability": "view",
            "type": "function"
        },
        {
            "inputs": [
                {
                    "internalType": "address",
                    "name": "_cloneFactory",
                    "type": "address"
                },
                {
                    "internalType": "address",
                    "name": "_hashrateOracle",
                    "type": "address"
                },
                {
                    "internalType": "address",
                    "name": "_paymentToken",
                    "type": "address"
                },
                {
                    "internalType": "address",
                    "name": "_feeToken",
                    "type": "address"
                },
                {
                    "internalType": "address",
                    "name": "_seller",
                    "type": "address"
                },
                {
                    "internalType": "string",
                    "name": "_pubKey",
                    "type": "string"
                },
                {
                    "internalType": "uint256",
                    "name": "_speed",
                    "type": "uint256"
                },
                {
                    "internalType": "uint256",
                    "name": "_length",
                    "type": "uint256"
                },
                {
                    "internalType": "int8",
                    "name": "_profitTarget",
                    "type": "int8"
                }
            ],
            "name": "initialize",
            "outputs": [],
            "stateMutability": "nonpayable",
            "type": "function"
        },
        {
            "inputs": [],
            "name": "isDeleted",
            "outputs": [
                {
                    "internalType": "bool",
                    "name": "",
                    "type": "bool"
                }
            ],
            "stateMutability": "view",
            "type": "function"
        },
        {
            "inputs": [],
            "name": "isLastValidatorNotPaid",
            "outputs": [
                {
                    "internalType": "bool",
                    "name": "",
                    "type": "bool"
                }
            ],
            "stateMutability": "view",
            "type": "function"
        },
        {
            "inputs": [],
            "name": "paymentToken",
            "outputs": [
                {
                    "internalType": "contract IERC20",
                    "name": "",
                    "type": "address"
                }
            ],
            "stateMutability": "view",
            "type": "function"
        },
        {
            "inputs": [],
            "name": "priceAndFee",
            "outputs": [
                {
                    "internalType": "uint256",
                    "name": "",
                    "type": "uint256"
                },
                {
                    "internalType": "uint256",
                    "name": "",
                    "type": "uint256"
                }
            ],
            "stateMutability": "view",
            "type": "function"
        },
        {
            "inputs": [],
            "name": "pubKey",
            "outputs": [
                {
                    "internalType": "string",
                    "name": "",
                    "type": "string"
                }
            ],
            "stateMutability": "view",
            "type": "function"
        },
        {
            "inputs": [],
            "name": "seller",
            "outputs": [
                {
                    "internalType": "address",
                    "name": "",
                    "type": "address"
                }
            ],
            "stateMutability": "view",
            "type": "function"
        },
        {
            "inputs": [
                {
                    "internalType": "bool",
                    "name": "_isDeleted",
                    "type": "bool"
                }
            ],
            "name": "setContractDeleted",
            "outputs": [],
            "stateMutability": "nonpayable",
            "type": "function"
        },
        {
            "inputs": [
                {
                    "internalType": "string",
                    "name": "_encrValidatorURL",
                    "type": "string"
                },
                {
                    "internalType": "string",
                    "name": "_encrDestURL",
                    "type": "string"
                }
            ],
            "name": "setDestination",
            "outputs": [],
            "stateMutability": "nonpayable",
            "type": "function"
        },
        {
            "inputs": [
                {
                    "internalType": "string",
                    "name": "_encrValidatorURL",
                    "type": "string"
                },
                {
                    "internalType": "string",
                    "name": "_encrDestURL",
                    "type": "string"
                },
                {
                    "internalType": "uint256",
                    "name": "_price",
                    "type": "uint256"
                },
                {
                    "internalType": "address",
                    "name": "_buyer",
                    "type": "address"
                },
                {
                    "internalType": "address",
                    "name": "_validator",
                    "type": "address"
                },
                {
                    "internalType": "uint256",
                    "name": "_validatorFeeRateScaled",
                    "type": "uint256"
                }
            ],
            "name": "setPurchaseContract",
            "outputs": [],
            "stateMutability": "nonpayable",
            "type": "function"
        },
        {
            "inputs": [
                {
                    "internalType": "uint256",
                    "name": "_speed",
                    "type": "uint256"
                },
                {
                    "internalType": "uint256",
                    "name": "_length",
                    "type": "uint256"
                },
                {
                    "internalType": "int8",
                    "name": "_profitTarget",
                    "type": "int8"
                }
            ],
            "name": "setUpdatePurchaseInformation",
            "outputs": [],
            "stateMutability": "nonpayable",
            "type": "function"
        },
        {
            "inputs": [],
            "name": "startingBlockTimestamp",
            "outputs": [
                {
                    "internalType": "uint256",
                    "name": "",
                    "type": "uint256"
                }
            ],
            "stateMutability": "view",
            "type": "function"
        },
        {
            "inputs": [],
            "name": "terms",
            "outputs": [
                {
                    "internalType": "uint256",
                    "name": "_price",
                    "type": "uint256"
                },
                {
                    "internalType": "uint256",
                    "name": "_limit",
                    "type": "uint256"
                },
                {
                    "internalType": "uint256",
                    "name": "_speed",
                    "type": "uint256"
                },
                {
                    "internalType": "uint256",
                    "name": "_length",
                    "type": "uint256"
                },
                {
                    "internalType": "uint32",
                    "name": "_version",
                    "type": "uint32"
                },
                {
                    "internalType": "int8",
                    "name": "_profitTarget",
                    "type": "int8"
                }
            ],
            "stateMutability": "view",
            "type": "function"
        },
        {
            "inputs": [],
            "name": "validator",
            "outputs": [
                {
                    "internalType": "address",
                    "name": "",
                    "type": "address"
                }
            ],
            "stateMutability": "view",
            "type": "function"
        },
        {
            "inputs": [],
            "name": "validatorFeeRateScaled",
            "outputs": [
                {
                    "internalType": "uint256",
                    "name": "",
                    "type": "uint256"
                }
            ],
            "stateMutability": "view",
            "type": "function"
        }
    ],
    "bytecode": "0x608060405234801561001057600080fd5b506129bf806100206000396000f3fe6080604052600436106101d85760003560e01c80637cbcd50d11610102578063ac30777311610095578063c6a1009111610064578063c6a10091146105de578063d5025625146105fe578063d7efb6b714610637578063f87c68b91461065857600080fd5b8063ac30777314610596578063c5095d681461059e578063c59d4847146105b4578063c5a62342146105c957600080fd5b8063a064f9a1116100d1578063a064f9a114610492578063a4e27566146104b2578063a7a38f0b14610521578063ac2a5dfd1461058157600080fd5b80637cbcd50d146103fb57806385209ee014610422578063896187fb146104445780639e3a9bb81461046e57600080fd5b8063567d91f01161017a5780636a3df6eb116101495780636a3df6eb1461037b5780636a5caece1461039b5780637150d8ae146103bb57806371f3cf54146103db57600080fd5b8063567d91f0146102f9578063628eda2414610319578063647846a51461032e5780636906679b1461034e57600080fd5b806330bad9e1116101b657806330bad9e1146102645780633988a0d8146102865780633a5381b5146102a85780633fd2fd65146102c857600080fd5b806308551a53146101dd57806310ad14621461021a5780633013ce2914610244575b600080fd5b3480156101e957600080fd5b506043546101fd906001600160a01b031681565b6040516001600160a01b0390911681526020015b60405180910390f35b34801561022657600080fd5b5061022f610678565b60408051928352602083019190915201610211565b34801561025057600080fd5b506034546101fd906001600160a01b031681565b34801561027057600080fd5b5061027961069d565b6040516102119190611fa8565b34801561029257600080fd5b506102a66102a1366004612039565b61072b565b005b3480156102b457600080fd5b506045546101fd906001600160a01b031681565b3480156102d457600080fd5b506045546102e990600160a01b900460ff1681565b6040519015158152602001610211565b34801561030557600080fd5b506102a6610314366004612102565b610926565b34801561032557600080fd5b506102796109eb565b34801561033a57600080fd5b506033546101fd906001600160a01b031681565b34801561035a57600080fd5b5061036e61036936600461211f565b6109f8565b6040516102119190612141565b34801561038757600080fd5b506102a66103963660046121ce565b610bb5565b3480156103a757600080fd5b506102a66103b6366004612271565b610dfe565b3480156103c757600080fd5b506042546101fd906001600160a01b031681565b3480156103e757600080fd5b506102a66103f6366004612292565b610ff7565b34801561040757600080fd5b50610410601281565b60405160ff9091168152602001610211565b34801561042e57600080fd5b506104376111a7565b60405161021191906122f1565b34801561045057600080fd5b506104596111d7565b604051610211999897969594939291906122ff565b34801561047a57600080fd5b5061048460415481565b604051908152602001610211565b34801561049e57600080fd5b506044546101fd906001600160a01b031681565b3480156104be57600080fd5b50603b54603c54603d54603e54603f546104eb949392919063ffffffff811690600160201b900460000b86565b60408051968752602087019590955293850192909252606084015263ffffffff16608083015260000b60a082015260c001610211565b34801561052d57600080fd5b5061054161053c3660046123c5565b6113b5565b6040805197151588526020880196909652948601939093526060850191909152608084015260a08301526001600160a01b031660c082015260e001610211565b34801561058d57600080fd5b50610279611411565b6102a661141e565b3480156105aa57600080fd5b5061048460405481565b3480156105c057600080fd5b5061022f611534565b3480156105d557600080fd5b506102a66115af565b3480156105ea57600080fd5b506102a66105f93660046123de565b611602565b34801561060a57600080fd5b50603654603754603854603954603a546104eb949392919063ffffffff811690600160201b900460000b86565b34801561064357600080fd5b506045546102e990600160a81b900460ff1681565b34801561066457600080fd5b506035546101fd906001600160a01b031681565b6000806000610685611725565b905060006106928261180e565b919491935090915050565b604780546106aa9061244a565b80601f01602080910402602001604051908101604052809291908181526020018280546106d69061244a565b80156107235780601f106106f857610100808354040283529160200191610723565b820191906000526020600020905b81548152906001019060200180831161070657829003601f168201915b505050505081565b600054610100900460ff161580801561074b5750600054600160ff909116105b806107655750303b158015610765575060005460ff166001145b6107cd5760405162461bcd60e51b815260206004820152602e60248201527f496e697469616c697a61626c653a20636f6e747261637420697320616c72656160448201526d191e481a5b9a5d1a585b1a5e995960921b60648201526084015b60405180910390fd5b6000805460ff1916600117905580156107f0576000805461ff0019166101001790555b6040805160c081018252600080825260208201819052918101869052606081018590526080810182905283820b60a090910152603681905560375560388490556039839055603a805460ff8416600160201b0264ffffffffff19909116179055604380546001600160a01b03808a166001600160a01b03199283161790925560448054928e1692909116919091179055604661088d8688836124e8565b50603380546001600160a01b03808b166001600160a01b031992831617909255603480548c841690831617905560358054928d16929091169190911790556108d3611833565b8015610919576000805461ff0019169055604051600181527f7f26b83ff96e1f2b6a682f133852f6798a09c465da95921460cefb38474024989060200160405180910390a15b5050505050505050505050565b6044546001600160a01b031633146109505760405162461bcd60e51b81526004016107c4906125a9565b801515604560159054906101000a900460ff161515036109cd5760405162461bcd60e51b815260206004820152603260248201527f636f6e74726163742064656c65746520737461746520697320616c72656164796044820152712073657420746f20746869732076616c756560701b60648201526084016107c4565b60458054911515600160a81b0260ff60a81b19909216919091179055565b604880546106aa9061244a565b604954606090831115610a0b5760495492505b604954610a188385612607565b1115610a2f57604954610a2c90849061261a565b91505b60008267ffffffffffffffff811115610a4a57610a4a612484565b604051908082528060200260200182016040528015610ac657816020015b610ab36040518060e00160405280600015158152602001600081526020016000815260200160008152602001600081526020016000815260200160006001600160a01b031681525090565b815260200190600190039081610a685790505b50905060005b83811015610bab576049805482908790610ae89060019061261a565b610af2919061261a565b610afc919061261a565b81548110610b0c57610b0c61262d565b60009182526020918290206040805160e0810182526007909302909101805460ff16151583526001810154938301939093526002830154908201526003820154606082015260048201546080820152600582015460a08201526006909101546001600160a01b031660c08201528251839083908110610b8d57610b8d61262d565b60200260200101819052508080610ba390612643565b915050610acc565b5090505b92915050565b6044546001600160a01b03163314610bdf5760405162461bcd60e51b81526004016107c4906125a9565b6000610be96111a7565b6001811115610bfa57610bfa6122c7565b14610c555760405162461bcd60e51b815260206004820152602560248201527f636f6e7472616374206973206e6f7420696e20616e20617661696c61626c6520604482015264737461746560d81b60648201526084016107c4565b610c5d611864565b50610c66611925565b60368490556040805160e081018252600181524260208201819052603954604993830191610c949190612607565b81526036546020808301919091526038546040808401919091526039546060808501919091526001600160a01b038981166080958601528654600180820189556000988952978590208751600790920201805460ff19169115159190911781559386015196840196909655908401516002830155830151600382015590820151600482015560a0820151600582015560c090910151600690910180546001600160a01b031916919092161790556047610d4e888a836124e8565b506048610d5c8688836124e8565b50604280546001600160a01b038086166001600160a01b03199283161790925560458054928516929091169190911790554260405560418190558015801590610dad57506001600160a01b03821615155b60458054911515600160a01b0260ff60a01b1990921691909117905560405133907f0c00d1d6cea0bd55f7d3b6e92ef60237b117b050185fc2816c708fd45f45e5bb90600090a25050505050505050565b6042546001600160a01b0316331480610e2157506045546001600160a01b031633145b610e935760405162461bcd60e51b815260206004820152603b60248201527f74686973206163636f756e74206973206e6f7420617574686f72697a6564207460448201527f6f207472696767657220616e206561726c7920636c6f73656f7574000000000060648201526084016107c4565b6001610e9d6111a7565b6001811115610eae57610eae6122c7565b14610ecb5760405162461bcd60e51b81526004016107c49061265c565b6049805460009190610edf9060019061261a565b81548110610eef57610eef61262d565b600091825260208220600790910201805460ff191681554260028201559150610f16611b07565b6045549091506000906001600160a01b031615610f5a57610f3d610f38611b23565b61180e565b90506000610f4a8361180e565b9050610f568184612607565b9250505b6045805460ff60a01b191690556000604055610f74611925565b60006036556040517f55ba7028426dc073c5d2688d6c531f1aeeb2c89b28f341f0ed254266a0c856fd90610fa99086906126a4565b60405180910390a1604254603454610fce916001600160a01b03918216911684611b69565b8015610ff157604554603354610ff1916001600160a01b03918216911683611b69565b50505050565b6044546001600160a01b031633146110215760405162461bcd60e51b81526004016107c4906125a9565b600161102b6111a7565b600181111561103c5761103c6122c7565b036110de576040805160c0810182526000808252602082015290810184905260608101839052603a54608082019061107b9063ffffffff1660016126be565b63ffffffff9081168252600084900b6020928301528251603b5590820151603c556040820151603d556060820151603e556080820151603f805460a09094015160ff16600160201b0264ffffffffff199094169190921617919091179055611177565b6040805160c0810182526000808252602082015290810184905260608101839052603a5460808201906111189063ffffffff1660016126be565b63ffffffff9081168252600084900b602092830152825160365590820151603755604082015160385560608201516039556080820151603a805460a09094015160ff16600160201b0264ffffffffff1990941691909216179190911790555b60405130907f7865b2bbe0087425b223d9cf674d8d5328e31546b364da98c36db21193c17d5590600090a2505050565b6000806036600301546040546111bd9190612607565b9050804210156111cf57600191505090565b600091505090565b6040805160c081018252600080825260208201819052918101829052606081018290526080810182905260a08101829052603e546040805160c0810182526036548152603754602082015260385491810191909152603954606082810191909152603a5463ffffffff81166080840152600160201b9004600090810b60a084015292839283929183918291829190151590611270611725565b815261127a6111a7565b6040805460425460435460455460345494516370a0823160e01b815230600482015287956001600160a01b039485169493841693604793600160a81b900460ff16929116906370a0823190602401602060405180830381865afa1580156112e5573d6000803e3d6000fd5b505050506040513d601f19601f8201168201806040525081019061130991906126e2565b898380546113169061244a565b80601f01602080910402602001604051908101604052809291908181526020018280546113429061244a565b801561138f5780601f106113645761010080835404028352916020019161138f565b820191906000526020600020905b81548152906001019060200180831161137257829003601f168201915b505050505093509a509a509a509a509a509a509a509a509a505050909192939495969798565b604981815481106113c557600080fd5b6000918252602090912060079091020180546001820154600283015460038401546004850154600586015460069096015460ff909516965092949193909291906001600160a01b031687565b604680546106aa9061244a565b6043546001600160a01b0316331461148e5760405162461bcd60e51b815260206004820152602d60248201527f74686973206163636f756e74206973206e6f7420617574686f72697a6564207460448201526c6f20636c61696d2066756e647360981b60648201526084016107c4565b6000600161149a6111a7565b60018111156114ab576114ab6122c7565b036114bb576114b8611b07565b90505b6040517f5c6a0246cde15dcaffe4c495b5be4c3e0525a2ba9c3f03d6f32095fe118c376a90600090a16114ec611864565b50604554600090600160a01b900460ff16611508576000611514565b6036546115149061180e565b905061151e611925565b61153061152b8284612607565b611bc0565b5050565b60008060008060005b6049548110156115a5576049818154811061155a5761155a61262d565b600091825260209091206007909102015460ff1615611585578261157d81612643565b935050611593565b8161158f81612643565b9250505b8061159d81612643565b91505061153d565b5090939092509050565b60006115b9611864565b9050806115ff5760405162461bcd60e51b81526020600482015260146024820152736e6f2066756e647320746f20776974686472617760601b60448201526064016107c4565b50565b6042546001600160a01b0316331461168e5760405162461bcd60e51b815260206004820152604360248201527f74686973206163636f756e74206973206e6f7420617574686f72697a6564207460448201527f6f2075706461746520746865206369706865727465787420696e666f726d617460648201526234b7b760e91b608482015260a4016107c4565b60016116986111a7565b60018111156116a9576116a96122c7565b146116c65760405162461bcd60e51b81526004016107c49061265c565b60486116d38284836124e8565b5060476116e18486836124e8565b507f74e9d8ab61381d8415dfd359c6404d06a0f357a5fda5f29a22fe9512e9277637848484846040516117179493929190612724565b60405180910390a150505050565b600080603560009054906101000a90046001600160a01b03166001600160a01b0316633256ce756040518163ffffffff1660e01b8152600401602060405180830381865afa15801561177b573d6000803e3d6000fd5b505050506040513d601f19601f8201168201806040525081019061179f91906126e2565b60385460395491925060009183916117b69161274b565b6117c09190612778565b603a549091506000906064906117df90600160201b9004830b8461278c565b6117e991906127bc565b6117f390836127ea565b9050600081126118035780611806565b60005b935050505090565b600061181c6012600a6128f6565b604154611829908461274b565b610baf9190612778565b600054610100900460ff1661185a5760405162461bcd60e51b81526004016107c490612905565b611862611c6d565b565b60008061186f6111a7565b6001811115611880576118806122c7565b14801561189757506045546001600160a01b031615155b80156118ac5750604554600160a01b900460ff165b1561191f576045546036546118e1916001600160a01b0316906118ce9061180e565b6033546001600160a01b03169190611b69565b6045805460ff60a01b1916905560405133907f97e6caeb0ee93285bb3391ae7ecf34d0f5a555cca282be55288f16a76686efe690600090a250600190565b50600090565b603f5463ffffffff1615611862576040518060c00160405280603b600001548152602001603b600101548152602001603b600201548152602001603b600301548152602001603b60040160009054906101000a900463ffffffff1663ffffffff168152602001603b60040160049054906101000a900460000b60000b81525060366000820151816000015560208201518160010155604082015181600201556060820151816003015560808201518160040160006101000a81548163ffffffff021916908363ffffffff16021790555060a08201518160040160046101000a81548160ff021916908360000b60ff1602179055509050506040518060c0016040528060008152602001600081526020016000815260200160008152602001600063ffffffff1681526020016000800b815250603b6000820151816000015560208201518160010155604082015181600201556060820151816003015560808201518160040160006101000a81548163ffffffff021916908363ffffffff16021790555060a08201518160040160046101000a81548160ff021916908360000b60ff160217905550905050306001600160a01b03167f7865b2bbe0087425b223d9cf674d8d5328e31546b364da98c36db21193c17d5560405160405180910390a2565b6000611b11611b23565b603654611b1e919061261a565b905090565b60008060405442611b34919061261a565b6039549091508111611b6157603954603654611b5190839061274b565b611b5b9190612778565b91505090565b505060365490565b604080516001600160a01b038416602482015260448082018490528251808303909101815260649091019091526020810180516001600160e01b031663a9059cbb60e01b179052611bbb908490611c9a565b505050565b611bc8611d6f565b6033546040516370a0823160e01b815230600482015260009183916001600160a01b03909116906370a0823190602401602060405180830381865afa158015611c15573d6000803e3d6000fd5b505050506040513d601f19601f82011682018060405250810190611c3991906126e2565b611c43919061261a565b604354603454919250611c63916001600160a01b03908116911683611b69565b506115ff60018055565b600054610100900460ff16611c945760405162461bcd60e51b81526004016107c490612905565b60018055565b6000611cef826040518060400160405280602081526020017f5361666545524332303a206c6f772d6c6576656c2063616c6c206661696c6564815250856001600160a01b0316611dc89092919063ffffffff16565b9050805160001480611d10575080806020019051810190611d109190612950565b611bbb5760405162461bcd60e51b815260206004820152602a60248201527f5361666545524332303a204552433230206f7065726174696f6e20646964206e6044820152691bdd081cdd58d8d9595960b21b60648201526084016107c4565b600260015403611dc15760405162461bcd60e51b815260206004820152601f60248201527f5265656e7472616e637947756172643a207265656e7472616e742063616c6c0060448201526064016107c4565b6002600155565b6060611dd78484600085611ddf565b949350505050565b606082471015611e405760405162461bcd60e51b815260206004820152602660248201527f416464726573733a20696e73756666696369656e742062616c616e636520666f6044820152651c8818d85b1b60d21b60648201526084016107c4565b600080866001600160a01b03168587604051611e5c919061296d565b60006040518083038185875af1925050503d8060008114611e99576040519150601f19603f3d011682016040523d82523d6000602084013e611e9e565b606091505b5091509150611eaf87838387611eba565b979650505050505050565b60608315611f29578251600003611f22576001600160a01b0385163b611f225760405162461bcd60e51b815260206004820152601d60248201527f416464726573733a2063616c6c20746f206e6f6e2d636f6e747261637400000060448201526064016107c4565b5081611dd7565b611dd78383815115611f3e5781518083602001fd5b8060405162461bcd60e51b81526004016107c49190611fa8565b60005b83811015611f73578181015183820152602001611f5b565b50506000910152565b60008151808452611f94816020860160208601611f58565b601f01601f19169290920160200192915050565b602081526000611fbb6020830184611f7c565b9392505050565b80356001600160a01b0381168114611fd957600080fd5b919050565b60008083601f840112611ff057600080fd5b50813567ffffffffffffffff81111561200857600080fd5b60208301915083602082850101111561202057600080fd5b9250929050565b8035600081900b8114611fd957600080fd5b6000806000806000806000806000806101208b8d03121561205957600080fd5b6120628b611fc2565b995061207060208c01611fc2565b985061207e60408c01611fc2565b975061208c60608c01611fc2565b965061209a60808c01611fc2565b955060a08b013567ffffffffffffffff8111156120b657600080fd5b6120c28d828e01611fde565b90965094505060c08b0135925060e08b013591506120e36101008c01612027565b90509295989b9194979a5092959850565b80151581146115ff57600080fd5b60006020828403121561211457600080fd5b8135611fbb816120f4565b6000806040838503121561213257600080fd5b50508035926020909101359150565b602080825282518282018190526000919060409081850190868401855b828110156121c157815180511515855286810151878601528581015186860152606080820151908601526080808201519086015260a0808201519086015260c0908101516001600160a01b03169085015260e0909301929085019060010161215e565b5091979650505050505050565b60008060008060008060008060c0898b0312156121ea57600080fd5b883567ffffffffffffffff8082111561220257600080fd5b61220e8c838d01611fde565b909a50985060208b013591508082111561222757600080fd5b506122348b828c01611fde565b9097509550506040890135935061224d60608a01611fc2565b925061225b60808a01611fc2565b915060a089013590509295985092959890939650565b60006020828403121561228357600080fd5b813560048110611fbb57600080fd5b6000806000606084860312156122a757600080fd5b83359250602084013591506122be60408501612027565b90509250925092565b634e487b7160e01b600052602160045260246000fd5b600281106122ed576122ed6122c7565b9052565b60208101610baf82846122dd565b60006101c061230e838d6122dd565b8a51602084015260208b0151604084015260408b0151606084015260608b0151608084015263ffffffff60808c01511660a084015260a08b015160000b60c08401528960e084015261236c61010084018a6001600160a01b03169052565b6001600160a01b0388166101208401528061014084015261238f81840188611f7c565b9150506123a161016083018615159052565b836101808301526123b76101a083018415159052565b9a9950505050505050505050565b6000602082840312156123d757600080fd5b5035919050565b600080600080604085870312156123f457600080fd5b843567ffffffffffffffff8082111561240c57600080fd5b61241888838901611fde565b9096509450602087013591508082111561243157600080fd5b5061243e87828801611fde565b95989497509550505050565b600181811c9082168061245e57607f821691505b60208210810361247e57634e487b7160e01b600052602260045260246000fd5b50919050565b634e487b7160e01b600052604160045260246000fd5b601f821115611bbb57600081815260208120601f850160051c810160208610156124c15750805b601f850160051c820191505b818110156124e0578281556001016124cd565b505050505050565b67ffffffffffffffff83111561250057612500612484565b6125148361250e835461244a565b8361249a565b6000601f84116001811461254857600085156125305750838201355b600019600387901b1c1916600186901b1783556125a2565b600083815260209020601f19861690835b828110156125795786850135825560209485019460019092019101612559565b50868210156125965760001960f88860031b161c19848701351681555b505060018560011b0183555b5050505050565b60208082526028908201527f6f6e6c7920636c6f6e65666163746f72792063616e2063616c6c207468697320604082015267333ab731ba34b7b760c11b606082015260800190565b634e487b7160e01b600052601160045260246000fd5b80820180821115610baf57610baf6125f1565b81810381811115610baf57610baf6125f1565b634e487b7160e01b600052603260045260246000fd5b600060018201612655576126556125f1565b5060010190565b60208082526028908201527f74686520636f6e7472616374206973206e6f7420696e207468652072756e6e696040820152676e6720737461746560c01b606082015260800190565b60208101600483106126b8576126b86122c7565b91905290565b63ffffffff8181168382160190808211156126db576126db6125f1565b5092915050565b6000602082840312156126f457600080fd5b5051919050565b81835281816020850137506000828201602090810191909152601f909101601f19169091010190565b6040815260006127386040830186886126fb565b8281036020840152611eaf8185876126fb565b8082028115828204841417610baf57610baf6125f1565b634e487b7160e01b600052601260045260246000fd5b60008261278757612787612762565b500490565b80820260008212600160ff1b841416156127a8576127a86125f1565b8181058314821517610baf57610baf6125f1565b6000826127cb576127cb612762565b600160ff1b8214600019841416156127e5576127e56125f1565b500590565b808201828112600083128015821682158216171561280a5761280a6125f1565b505092915050565b600181815b8085111561284d578160001904821115612833576128336125f1565b8085161561284057918102915b93841c9390800290612817565b509250929050565b60008261286457506001610baf565b8161287157506000610baf565b81600181146128875760028114612891576128ad565b6001915050610baf565b60ff8411156128a2576128a26125f1565b50506001821b610baf565b5060208310610133831016604e8410600b84101617156128d0575081810a610baf565b6128da8383612812565b80600019048211156128ee576128ee6125f1565b029392505050565b6000611fbb60ff841683612855565b6020808252602b908201527f496e697469616c697a61626c653a20636f6e7472616374206973206e6f74206960408201526a6e697469616c697a696e6760a81b606082015260800190565b60006020828403121561296257600080fd5b8151611fbb816120f4565b6000825161297f818460208701611f58565b919091019291505056fea2646970667358221220023364b0472171293c0cd7f5b30d2d2993d75705007f55a560e3d20be8aa8c3764736f6c63430008140033",
    "linkReferences": {},
    "deployedLinkReferences": {}
}