{
    "_format": "hh-sol-artifact-1",
    "contractName": "Implementation",
    "sourceName": "contracts/Implementation.sol",
    "abi": [
        {
            "anonymous": false,
            "inputs": [
                {
                    "indexed": false,
                    "internalType": "uint8",
                    "name": "version",
                    "type": "uint8"
                }
            ],
            "name": "Initialized",
            "type": "event"
        },
        {
            "anonymous": false,
            "inputs": [
                {
                    "indexed": false,
                    "internalType": "string",
                    "name": "newCipherText",
                    "type": "string"
                }
            ],
            "name": "cipherTextUpdated",
            "type": "event"
        },
        {
            "anonymous": false,
            "inputs": [
                {
                    "indexed": false,
                    "internalType": "enum Implementation.CloseReason",
                    "name": "_reason",
                    "type": "uint8"
                }
            ],
            "name": "closedEarly",
            "type": "event"
        },
        {
            "anonymous": false,
            "inputs": [
                {
                    "indexed": true,
                    "internalType": "address",
                    "name": "_buyer",
                    "type": "address"
                }
            ],
            "name": "contractClosed",
            "type": "event"
        },
        {
            "anonymous": false,
            "inputs": [
                {
                    "indexed": true,
                    "internalType": "address",
                    "name": "_buyer",
                    "type": "address"
                }
            ],
            "name": "contractPurchased",
            "type": "event"
        },
        {
            "anonymous": false,
            "inputs": [
                {
                    "indexed": false,
                    "internalType": "string",
                    "name": "newValidatorURL",
                    "type": "string"
                },
                {
                    "indexed": false,
                    "internalType": "string",
                    "name": "newDestURL",
                    "type": "string"
                }
            ],
            "name": "destinationUpdated",
            "type": "event"
        },
        {
            "anonymous": false,
            "inputs": [],
            "name": "fundsClaimed",
            "type": "event"
        },
        {
            "anonymous": false,
            "inputs": [
                {
                    "indexed": true,
                    "internalType": "address",
                    "name": "_address",
                    "type": "address"
                }
            ],
            "name": "purchaseInfoUpdated",
            "type": "event"
        },
        {
            "inputs": [],
            "name": "buyer",
            "outputs": [
                {
                    "internalType": "address",
                    "name": "",
                    "type": "address"
                }
            ],
            "stateMutability": "view",
            "type": "function"
        },
        {
            "inputs": [],
            "name": "claimFunds",
            "outputs": [],
            "stateMutability": "payable",
            "type": "function"
        },
        {
            "inputs": [],
            "name": "cloneFactory",
            "outputs": [
                {
                    "internalType": "address",
                    "name": "",
                    "type": "address"
                }
            ],
            "stateMutability": "view",
            "type": "function"
        },
        {
            "inputs": [
                {
                    "internalType": "enum Implementation.CloseReason",
                    "name": "reason",
                    "type": "uint8"
                }
            ],
            "name": "closeEarly",
            "outputs": [],
            "stateMutability": "nonpayable",
            "type": "function"
        },
        {
            "inputs": [],
            "name": "contractState",
            "outputs": [
                {
                    "internalType": "enum Implementation.ContractState",
                    "name": "",
                    "type": "uint8"
                }
            ],
            "stateMutability": "view",
            "type": "function"
        },
        {
            "inputs": [],
            "name": "contractTotal",
            "outputs": [
                {
                    "internalType": "uint256",
                    "name": "",
                    "type": "uint256"
                }
            ],
            "stateMutability": "view",
            "type": "function"
        },
        {
            "inputs": [],
            "name": "emptySlot1",
            "outputs": [
                {
                    "internalType": "enum Implementation.ContractState",
                    "name": "",
                    "type": "uint8"
                }
            ],
            "stateMutability": "view",
            "type": "function"
        },
        {
            "inputs": [],
            "name": "encrDestURL",
            "outputs": [
                {
                    "internalType": "string",
                    "name": "",
                    "type": "string"
                }
            ],
            "stateMutability": "view",
            "type": "function"
        },
        {
            "inputs": [],
            "name": "encrValidatorURL",
            "outputs": [
                {
                    "internalType": "string",
                    "name": "",
                    "type": "string"
                }
            ],
            "stateMutability": "view",
            "type": "function"
        },
        {
            "inputs": [],
            "name": "escrow_purchaser",
            "outputs": [
                {
                    "internalType": "address",
                    "name": "",
                    "type": "address"
                }
            ],
            "stateMutability": "view",
            "type": "function"
        },
        {
            "inputs": [],
            "name": "escrow_seller",
            "outputs": [
                {
                    "internalType": "address",
                    "name": "",
                    "type": "address"
                }
            ],
            "stateMutability": "view",
            "type": "function"
        },
        {
            "inputs": [],
            "name": "futureTerms",
            "outputs": [
                {
                    "internalType": "uint256",
                    "name": "_price",
                    "type": "uint256"
                },
                {
                    "internalType": "uint256",
                    "name": "_limit",
                    "type": "uint256"
                },
                {
                    "internalType": "uint256",
                    "name": "_speed",
                    "type": "uint256"
                },
                {
                    "internalType": "uint256",
                    "name": "_length",
                    "type": "uint256"
                },
                {
                    "internalType": "uint32",
                    "name": "_version",
                    "type": "uint32"
                },
                {
                    "internalType": "int8",
                    "name": "_profitTarget",
                    "type": "int8"
                }
            ],
            "stateMutability": "view",
            "type": "function"
        },
        {
            "inputs": [
                {
                    "internalType": "uint256",
                    "name": "_offset",
                    "type": "uint256"
                },
                {
                    "internalType": "uint256",
                    "name": "_limit",
                    "type": "uint256"
                }
            ],
            "name": "getHistory",
            "outputs": [
                {
                    "components": [
                        {
                            "internalType": "bool",
                            "name": "_goodCloseout",
                            "type": "bool"
                        },
                        {
                            "internalType": "uint256",
                            "name": "_purchaseTime",
                            "type": "uint256"
                        },
                        {
                            "internalType": "uint256",
                            "name": "_endTime",
                            "type": "uint256"
                        },
                        {
                            "internalType": "uint256",
                            "name": "_price",
                            "type": "uint256"
                        },
                        {
                            "internalType": "uint256",
                            "name": "_speed",
                            "type": "uint256"
                        },
                        {
                            "internalType": "uint256",
                            "name": "_length",
                            "type": "uint256"
                        },
                        {
                            "internalType": "address",
                            "name": "_buyer",
                            "type": "address"
                        }
                    ],
                    "internalType": "struct Implementation.HistoryEntry[]",
                    "name": "",
                    "type": "tuple[]"
                }
            ],
            "stateMutability": "view",
            "type": "function"
        },
        {
            "inputs": [],
            "name": "getPublicVariables",
            "outputs": [
                {
                    "internalType": "enum Implementation.ContractState",
                    "name": "_state",
                    "type": "uint8"
                },
                {
                    "internalType": "uint256",
                    "name": "_price",
                    "type": "uint256"
                },
                {
                    "internalType": "uint256",
                    "name": "_limit",
                    "type": "uint256"
                },
                {
                    "internalType": "uint256",
                    "name": "_speed",
                    "type": "uint256"
                },
                {
                    "internalType": "uint256",
                    "name": "_length",
                    "type": "uint256"
                },
                {
                    "internalType": "uint256",
                    "name": "_startingBlockTimestamp",
                    "type": "uint256"
                },
                {
                    "internalType": "address",
                    "name": "_buyer",
                    "type": "address"
                },
                {
                    "internalType": "address",
                    "name": "_seller",
                    "type": "address"
                },
                {
                    "internalType": "string",
                    "name": "_encryptedPoolData",
                    "type": "string"
                },
                {
                    "internalType": "bool",
                    "name": "_isDeleted",
                    "type": "bool"
                },
                {
                    "internalType": "uint256",
                    "name": "_balance",
                    "type": "uint256"
                },
                {
                    "internalType": "bool",
                    "name": "_hasFutureTerms",
                    "type": "bool"
                },
                {
                    "internalType": "uint32",
                    "name": "_version",
                    "type": "uint32"
                }
            ],
            "stateMutability": "view",
            "type": "function"
        },
        {
            "inputs": [],
            "name": "getPublicVariablesV2",
            "outputs": [
                {
                    "internalType": "enum Implementation.ContractState",
                    "name": "_state",
                    "type": "uint8"
                },
                {
                    "components": [
                        {
                            "internalType": "uint256",
                            "name": "_price",
                            "type": "uint256"
                        },
                        {
                            "internalType": "uint256",
                            "name": "_limit",
                            "type": "uint256"
                        },
                        {
                            "internalType": "uint256",
                            "name": "_speed",
                            "type": "uint256"
                        },
                        {
                            "internalType": "uint256",
                            "name": "_length",
                            "type": "uint256"
                        },
                        {
                            "internalType": "uint32",
                            "name": "_version",
                            "type": "uint32"
                        },
                        {
                            "internalType": "int8",
                            "name": "_profitTarget",
                            "type": "int8"
                        }
                    ],
                    "internalType": "struct Implementation.Terms",
                    "name": "_terms",
                    "type": "tuple"
                },
                {
                    "internalType": "uint256",
                    "name": "_startingBlockTimestamp",
                    "type": "uint256"
                },
                {
                    "internalType": "address",
                    "name": "_buyer",
                    "type": "address"
                },
                {
                    "internalType": "address",
                    "name": "_seller",
                    "type": "address"
                },
                {
                    "internalType": "string",
                    "name": "_encryptedPoolData",
                    "type": "string"
                },
                {
                    "internalType": "bool",
                    "name": "_isDeleted",
                    "type": "bool"
                },
                {
                    "internalType": "uint256",
                    "name": "_balance",
                    "type": "uint256"
                },
                {
                    "internalType": "bool",
                    "name": "_hasFutureTerms",
                    "type": "bool"
                }
            ],
            "stateMutability": "view",
            "type": "function"
        },
        {
            "inputs": [],
            "name": "getStats",
            "outputs": [
                {
                    "internalType": "uint256",
                    "name": "_successCount",
                    "type": "uint256"
                },
                {
                    "internalType": "uint256",
                    "name": "_failCount",
                    "type": "uint256"
                }
            ],
            "stateMutability": "view",
            "type": "function"
        },
        {
            "inputs": [
                {
                    "internalType": "uint256",
                    "name": "",
                    "type": "uint256"
                }
            ],
            "name": "history",
            "outputs": [
                {
                    "internalType": "bool",
                    "name": "_goodCloseout",
                    "type": "bool"
                },
                {
                    "internalType": "uint256",
                    "name": "_purchaseTime",
                    "type": "uint256"
                },
                {
                    "internalType": "uint256",
                    "name": "_endTime",
                    "type": "uint256"
                },
                {
                    "internalType": "uint256",
                    "name": "_price",
                    "type": "uint256"
                },
                {
                    "internalType": "uint256",
                    "name": "_speed",
                    "type": "uint256"
                },
                {
                    "internalType": "uint256",
                    "name": "_length",
                    "type": "uint256"
                },
                {
                    "internalType": "address",
                    "name": "_buyer",
                    "type": "address"
                }
            ],
            "stateMutability": "view",
            "type": "function"
        },
        {
            "inputs": [
                {
                    "internalType": "uint256",
                    "name": "_price",
                    "type": "uint256"
                },
                {
                    "internalType": "uint256",
                    "name": "_limit",
                    "type": "uint256"
                },
                {
                    "internalType": "uint256",
                    "name": "_speed",
                    "type": "uint256"
                },
                {
                    "internalType": "uint256",
                    "name": "_length",
                    "type": "uint256"
                },
                {
                    "internalType": "int8",
                    "name": "_profitTarget",
                    "type": "int8"
                },
                {
                    "internalType": "address",
                    "name": "_seller",
                    "type": "address"
                },
                {
                    "internalType": "address",
                    "name": "_lmrAddress",
                    "type": "address"
                },
                {
                    "internalType": "address",
                    "name": "_cloneFactory",
                    "type": "address"
                },
                {
                    "internalType": "address",
                    "name": "_validator",
                    "type": "address"
                },
                {
                    "internalType": "string",
                    "name": "_pubKey",
                    "type": "string"
                }
            ],
            "name": "initialize",
            "outputs": [],
            "stateMutability": "nonpayable",
            "type": "function"
        },
        {
            "inputs": [],
            "name": "isDeleted",
            "outputs": [
                {
                    "internalType": "bool",
                    "name": "",
                    "type": "bool"
                }
            ],
            "stateMutability": "view",
            "type": "function"
        },
        {
            "inputs": [],
            "name": "pubKey",
            "outputs": [
                {
                    "internalType": "string",
                    "name": "",
                    "type": "string"
                }
            ],
            "stateMutability": "view",
            "type": "function"
        },
        {
            "inputs": [],
            "name": "seller",
            "outputs": [
                {
                    "internalType": "address",
                    "name": "",
                    "type": "address"
                }
            ],
            "stateMutability": "view",
            "type": "function"
        },
        {
            "inputs": [
                {
                    "internalType": "uint256",
                    "name": "closeOutType",
                    "type": "uint256"
                }
            ],
            "name": "setContractCloseOut",
            "outputs": [],
            "stateMutability": "payable",
            "type": "function"
        },
        {
            "inputs": [
                {
                    "internalType": "bool",
                    "name": "_isDeleted",
                    "type": "bool"
                }
            ],
            "name": "setContractDeleted",
            "outputs": [],
            "stateMutability": "nonpayable",
            "type": "function"
        },
        {
            "inputs": [
                {
                    "internalType": "string",
                    "name": "_encrValidatorURL",
                    "type": "string"
                },
                {
                    "internalType": "string",
                    "name": "_encrDestURL",
                    "type": "string"
                }
            ],
            "name": "setDestination",
            "outputs": [],
            "stateMutability": "nonpayable",
            "type": "function"
        },
        {
            "inputs": [
                {
                    "internalType": "string",
                    "name": "_encrValidatorURL",
                    "type": "string"
                },
                {
                    "internalType": "string",
                    "name": "_encrDestURL",
                    "type": "string"
                },
                {
                    "internalType": "address",
                    "name": "_buyer",
                    "type": "address"
                },
                {
                    "internalType": "address",
                    "name": "_validator",
                    "type": "address"
                }
            ],
            "name": "setPurchaseContract",
            "outputs": [],
            "stateMutability": "nonpayable",
            "type": "function"
        },
        {
            "inputs": [
                {
                    "internalType": "string",
                    "name": "_newEncryptedPoolData",
                    "type": "string"
                }
            ],
            "name": "setUpdateMiningInformation",
            "outputs": [],
            "stateMutability": "nonpayable",
            "type": "function"
        },
        {
            "inputs": [
                {
                    "internalType": "uint256",
                    "name": "_price",
                    "type": "uint256"
                },
                {
                    "internalType": "uint256",
                    "name": "_limit",
                    "type": "uint256"
                },
                {
                    "internalType": "uint256",
                    "name": "_speed",
                    "type": "uint256"
                },
                {
                    "internalType": "uint256",
                    "name": "_length",
                    "type": "uint256"
                },
                {
                    "internalType": "int8",
                    "name": "_profitTarget",
                    "type": "int8"
                }
            ],
            "name": "setUpdatePurchaseInformation",
            "outputs": [],
            "stateMutability": "nonpayable",
            "type": "function"
        },
        {
            "inputs": [],
            "name": "startingBlockTimestamp",
            "outputs": [
                {
                    "internalType": "uint256",
                    "name": "",
                    "type": "uint256"
                }
            ],
            "stateMutability": "view",
            "type": "function"
        },
        {
            "inputs": [],
            "name": "terms",
            "outputs": [
                {
                    "internalType": "uint256",
                    "name": "_price",
                    "type": "uint256"
                },
                {
                    "internalType": "uint256",
                    "name": "_limit",
                    "type": "uint256"
                },
                {
                    "internalType": "uint256",
                    "name": "_speed",
                    "type": "uint256"
                },
                {
                    "internalType": "uint256",
                    "name": "_length",
                    "type": "uint256"
                },
                {
                    "internalType": "uint32",
                    "name": "_version",
                    "type": "uint32"
                },
                {
                    "internalType": "int8",
                    "name": "_profitTarget",
                    "type": "int8"
                }
            ],
            "stateMutability": "view",
            "type": "function"
        },
        {
            "inputs": [],
            "name": "validator",
            "outputs": [
                {
                    "internalType": "address",
                    "name": "",
                    "type": "address"
                }
            ],
            "stateMutability": "view",
            "type": "function"
        }
    ],
    "bytecode": "0x608060405234801561001057600080fd5b50612897806100206000396000f3fe6080604052600436106101cd5760003560e01c8063896187fb116100f7578063ac30777311610095578063ca3225fa11610064578063ca3225fa146105a6578063ce0c722a146105d4578063d5025625146105f4578063d7efb6b71461062e57600080fd5b8063ac3077731461053e578063c5095d6814610546578063c59d48471461055c578063c6a100911461058657600080fd5b8063a4e27566116100d1578063a4e2756614610439578063a7a38f0b146104a9578063a811af1e14610509578063ac2a5dfd1461052957600080fd5b8063896187fb146103dc5780638e2e6d5d14610406578063a064f9a11461041957600080fd5b8063567d91f01161016f5780637150d8ae1161013e5780637150d8ae14610367578063719e6b5b1461038757806385209ee0146103a757806385f45a29146103bc57600080fd5b8063567d91f0146102e5578063628eda24146103055780636906679b1461031a5780636a5caece1461034757600080fd5b80631013b147116101ab5780631013b147146102535780632ffe55451461028157806330bad9e1146102a35780633a5381b5146102c557600080fd5b806308551a53146101d2578063089aa8a21461020f5780630a61e2d91461022f575b600080fd5b3480156101de57600080fd5b50603e546101f2906001600160a01b031681565b6040516001600160a01b0390911681526020015b60405180910390f35b34801561021b57600080fd5b506033546101f2906001600160a01b031681565b34801561023b57600080fd5b5061024560355481565b604051908152602001610206565b34801561025f57600080fd5b5060365461027490600160a01b900460ff1681565b6040516102069190611e83565b34801561028d57600080fd5b506102a161029c366004611f03565b610658565b005b3480156102af57600080fd5b506102b8610836565b604051610206919061200c565b3480156102d157600080fd5b506040546101f2906001600160a01b031681565b3480156102f157600080fd5b506102a1610300366004612034565b6108c4565b34801561031157600080fd5b506102b8610976565b34801561032657600080fd5b5061033a610335366004612051565b610983565b6040516102069190612073565b34801561035357600080fd5b506102a1610362366004612100565b610b40565b34801561037357600080fd5b50603d546101f2906001600160a01b031681565b34801561039357600080fd5b506102a16103a2366004612121565b610ce5565b3480156103b357600080fd5b50610274610d92565b3480156103c857600080fd5b506102a16103d7366004612163565b610dc2565b3480156103e857600080fd5b506103f161103a565b604051610206999897969594939291906121f3565b6102a16104143660046122b9565b611214565b34801561042557600080fd5b50603f546101f2906001600160a01b031681565b34801561044557600080fd5b50604554604654604754604854604954610473949392919063ffffffff811690640100000000900460000b86565b60408051968752602087019590955293850192909252606084015263ffffffff16608083015260000b60a082015260c001610206565b3480156104b557600080fd5b506104c96104c43660046122b9565b611327565b6040805197151588526020880196909652948601939093526060850191909152608084015260a08301526001600160a01b031660c082015260e001610206565b34801561051557600080fd5b506102a16105243660046122d2565b611383565b34801561053557600080fd5b506102b8611537565b6102a1611544565b34801561055257600080fd5b50610245603c5481565b34801561056857600080fd5b5061057161169a565b60408051928352602083019190915201610206565b34801561059257600080fd5b506102a16105a136600461231b565b611715565b3480156105b257600080fd5b506105bb61180f565b6040516102069d9c9b9a99989796959493929190612387565b3480156105e057600080fd5b506034546101f2906001600160a01b031681565b34801561060057600080fd5b50603754603854603954603a54603b54610473949392919063ffffffff811690640100000000900460000b86565b34801561063a57600080fd5b506043546106489060ff1681565b6040519015158152602001610206565b600054610100900460ff16158080156106785750600054600160ff909116105b806106925750303b158015610692575060005460ff166001145b6106fa5760405162461bcd60e51b815260206004820152602e60248201527f496e697469616c697a61626c653a20636f6e747261637420697320616c72656160448201526d191e481a5b9a5d1a585b1a5e995960921b60648201526084015b60405180910390fd5b6000805460ff19166001179055801561071d576000805461ff0019166101001790555b6040805160c0810182528d8152602081018d90529081018b9052606081018a905260006080820181905289900b60a09091015260378c905560388b905560398a9055603a899055603b805460ff8a166401000000000264ffffffffff19909116179055603e80546001600160a01b03808a166001600160a01b031992831617909255603f80549288169290911691909117905560426107bd8385836124c3565b50604080546001600160a01b0319166001600160a01b0386161790556107e28661198d565b8015610828576000805461ff0019169055604051600181527f7f26b83ff96e1f2b6a682f133852f6798a09c465da95921460cefb38474024989060200160405180910390a15b505050505050505050505050565b604180546108439061243a565b80601f016020809104026020016040519081016040528092919081815260200182805461086f9061243a565b80156108bc5780601f10610891576101008083540402835291602001916108bc565b820191906000526020600020905b81548152906001019060200180831161089f57829003601f168201915b505050505081565b603f546001600160a01b031633146108ee5760405162461bcd60e51b81526004016106f190612584565b60435481151560ff9091161515036109635760405162461bcd60e51b815260206004820152603260248201527f636f6e74726163742064656c65746520737461746520697320616c72656164796044820152712073657420746f20746869732076616c756560701b60648201526084016106f1565b6043805460ff1916911515919091179055565b604a80546108439061243a565b6044546060908311156109965760445492505b6044546109a383856125ec565b11156109ba576044546109b79084906125ff565b91505b60008267ffffffffffffffff8111156109d5576109d5612424565b604051908082528060200260200182016040528015610a5157816020015b610a3e6040518060e00160405280600015158152602001600081526020016000815260200160008152602001600081526020016000815260200160006001600160a01b031681525090565b8152602001906001900390816109f35790505b50905060005b83811015610b36576044805482908790610a73906001906125ff565b610a7d91906125ff565b610a8791906125ff565b81548110610a9757610a97612612565b60009182526020918290206040805160e0810182526007909302909101805460ff16151583526001810154938301939093526002830154908201526003820154606082015260048201546080820152600582015460a08201526006909101546001600160a01b031660c08201528251839083908110610b1857610b18612612565b60200260200101819052508080610b2e90612628565b915050610a57565b5090505b92915050565b603d546001600160a01b0316331480610b6357506040546001600160a01b031633145b610bd55760405162461bcd60e51b815260206004820152603b60248201527f74686973206163636f756e74206973206e6f7420617574686f72697a6564207460448201527f6f207472696767657220616e206561726c7920636c6f73656f7574000000000060648201526084016106f1565b6001610bdf610d92565b6001811115610bf057610bf0611e59565b14610c0d5760405162461bcd60e51b81526004016106f190612641565b6044805460009190610c21906001906125ff565b81548110610c3157610c31612612565b600091825260208220600790910201805460ff191681554260028201559150610c586119d7565b6000603c559050610c67611a22565b603d546040516001600160a01b03909116907faadd128c35976a01ffffa9dfb8d363b3358597ce6b30248bcf25e80bd3af451290600090a27f55ba7028426dc073c5d2688d6c531f1aeeb2c89b28f341f0ed254266a0c856fd83604051610cce9190612689565b60405180910390a1610cdf81611c05565b50505050565b603d546001600160a01b03163314610d0f5760405162461bcd60e51b81526004016106f1906126a3565b6001610d19610d92565b6001811115610d2a57610d2a611e59565b14610d475760405162461bcd60e51b81526004016106f190612641565b6041610d548284836124c3565b507f2301ef7d9f42b857543faf9e285b5807e028d4ae99810ea7fe0aadda3a717e9d8282604051610d86929190612735565b60405180910390a15050565b600080603760030154603c54610da891906125ec565b905080421015610dba57600191505090565b600091505090565b603f546001600160a01b03163314610e425760405162461bcd60e51b815260206004820152603a60248201527f746869732061646472657373206973206e6f7420617070726f76656420746f2060448201527f63616c6c207468652070757263686173652066756e6374696f6e00000000000060648201526084016106f1565b6000610e4c610d92565b6001811115610e5d57610e5d611e59565b14610eb85760405162461bcd60e51b815260206004820152602560248201527f636f6e7472616374206973206e6f7420696e20616e20617661696c61626c6520604482015264737461746560d81b60648201526084016106f1565b610ec0611a22565b6040805160e081018252600181524260208201819052603a54604493830191610ee991906125ec565b8152603754602080830191909152603954604080840191909152603a546060808501919091526001600160a01b038881166080958601528654600180820189556000988952978590208751600790920201805460ff19169115159190911781559386015196840196909655908401516002830155830151600382015590820151600482015560a0820151600582015560c090910151600690910180546001600160a01b031916919092161790556041610fa38688836124c3565b50604a610fb18486836124c3565b50603d80546001600160a01b03199081166001600160a01b0385811691821790935560408054831685851617905542603c55603e5460375460348054851692909516919091179093556033805490921617905560355560405133907f0c00d1d6cea0bd55f7d3b6e92ef60237b117b050185fc2816c708fd45f45e5bb90600090a2505050505050565b6040805160c081018252600080825260208201819052918101829052606081018290526080810182905260a081018290526000806000606060008060008060456003015460001415905061108c610d92565b603c54603d54603e546043546036546040516370a0823160e01b8152306004820152603795946001600160a01b039081169481169360419360ff909116929116906370a0823190602401602060405180830381865afa1580156110f3573d6000803e3d6000fd5b505050506040513d601f19601f820116820180604052508101906111179190612751565b6040805160c08101825288548152600189015460208201526002890154918101919091526003880154606082015260049097015463ffffffff81166080890152640100000000900460000b60a08801528254899084906111769061243a565b80601f01602080910402602001604051908101604052809291908181526020018280546111a29061243a565b80156111ef5780601f106111c4576101008083540402835291602001916111ef565b820191906000526020600020905b8154815290600101906020018083116111d257829003601f168201915b5050505050935099509950995099509950995099509950995050909192939495969798565b80600003611229576112266000610b40565b50565b8060010361123957611226611544565b6002811461122657806003036112d157603e546001600160a01b031633146112c95760405162461bcd60e51b815260206004820152603d60248201527f6f6e6c79207468652073656c6c65722063616e20636c6f73656f757420414e4460448201527f20776974686472617720616674657220636f6e7472616374207465726d00000060648201526084016106f1565b611226611544565b60405162461bcd60e51b815260206004820152602560248201527f796f75206d757374206d616b6520612073656c656374696f6e2066726f6d203060448201526420746f203360d81b60648201526084016106f1565b6044818154811061133757600080fd5b6000918252602090912060079091020180546001820154600283015460038401546004850154600586015460069096015460ff909516965092949193909291906001600160a01b031687565b603f546001600160a01b031633146113ad5760405162461bcd60e51b81526004016106f190612584565b60016113b7610d92565b60018111156113c8576113c8611e59565b0361146b576040805160c0810182528681526020810186905290810184905260608101839052603b5460808201906114079063ffffffff16600161276a565b63ffffffff9081168252600084900b6020928301528251604555908201516046556040820151604755606082015160485560808201516049805460a09094015160ff166401000000000264ffffffffff199094169190921617919091179055611505565b6040805160c0810182528681526020810186905290810184905260608101839052603b5460808201906114a59063ffffffff16600161276a565b63ffffffff9081168252600084900b60209283015282516037559082015160385560408201516039556060820151603a556080820151603b805460a09094015160ff166401000000000264ffffffffff1990941691909216179190911790555b60405130907f7865b2bbe0087425b223d9cf674d8d5328e31546b364da98c36db21193c17d5590600090a25050505050565b604280546108439061243a565b603e546001600160a01b031633146115b45760405162461bcd60e51b815260206004820152602d60248201527f74686973206163636f756e74206973206e6f7420617574686f72697a6564207460448201526c6f20636c61696d2066756e647360981b60648201526084016106f1565b600060016115c0610d92565b60018111156115d1576115d1611e59565b036115e1576115de6119d7565b90505b6040517f5c6a0246cde15dcaffe4c495b5be4c3e0525a2ba9c3f03d6f32095fe118c376a90600090a1611612611a22565b603f60009054906101000a90046001600160a01b03166001600160a01b0316631088f93f346040518263ffffffff1660e01b815260040160206040518083038185885af1158015611667573d6000803e3d6000fd5b50505050506040513d601f19601f8201168201806040525081019061168c919061278e565b5061169681611c98565b5050565b60008060008060005b60445481101561170b57604481815481106116c0576116c0612612565b600091825260209091206007909102015460ff16156116eb57826116e381612628565b9350506116f9565b816116f581612628565b9250505b8061170381612628565b9150506116a3565b5090939092509050565b603d546001600160a01b0316331461173f5760405162461bcd60e51b81526004016106f1906126a3565b6001611749610d92565b600181111561175a5761175a611e59565b146117775760405162461bcd60e51b81526004016106f190612641565b604a6117848284836124c3565b5060416117928486836124c3565b507f2301ef7d9f42b857543faf9e285b5807e028d4ae99810ea7fe0aadda3a717e9d84846040516117c4929190612735565b60405180910390a17f74e9d8ab61381d8415dfd359c6404d06a0f357a5fda5f29a22fe9512e92776378484848460405161180194939291906127ab565b60405180910390a150505050565b60008060008060008060008060606000806000806000604560030154600014159050611839610d92565b603754603854603954603a54603c54603d54603e546043546036546040516370a0823160e01b81523060048201526001600160a01b03948516949384169360419360ff169216906370a0823190602401602060405180830381865afa1580156118a6573d6000803e3d6000fd5b505050506040513d601f19601f820116820180604052508101906118ca9190612751565b603b5483548d9163ffffffff169085906118e39061243a565b80601f016020809104026020016040519081016040528092919081815260200182805461190f9061243a565b801561195c5780601f106119315761010080835404028352916020019161195c565b820191906000526020600020905b81548152906001019060200180831161193f57829003601f168201915b505050505094509d509d509d509d509d509d509d509d509d509d509d509d509d5050909192939495969798999a9b9c565b600054610100900460ff166119b45760405162461bcd60e51b81526004016106f1906127dd565b603680546001600160a01b0319166001600160a01b038316179055611226611da4565b600080603c54426119e891906125ff565b603a549091508111610dba57603a54603754611a05908390612828565b611a0f919061283f565b603754611a1c91906125ff565b91505090565b60495463ffffffff1615611c03576040518060c001604052806045600001548152602001604560010154815260200160456002015481526020016045600301548152602001604560040160009054906101000a900463ffffffff1663ffffffff168152602001604560040160049054906101000a900460000b60000b81525060376000820151816000015560208201518160010155604082015181600201556060820151816003015560808201518160040160006101000a81548163ffffffff021916908363ffffffff16021790555060a08201518160040160046101000a81548160ff021916908360000b60ff1602179055509050506040518060c0016040528060008152602001600081526020016000815260200160008152602001600063ffffffff1681526020016000800b81525060456000820151816000015560208201518160010155604082015181600201556060820151816003015560808201518160040160006101000a81548163ffffffff021916908363ffffffff16021790555060a08201518160040160046101000a81548160ff021916908360000b60ff160217905550905050306001600160a01b03167f7865b2bbe0087425b223d9cf674d8d5328e31546b364da98c36db21193c17d5560405160405180910390a25b565b6000611c0f611dd3565b60365460335460405163a9059cbb60e01b81526001600160a01b0391821660048201526024810185905291169063a9059cbb906044016020604051808303816000875af1158015611c64573d6000803e3d6000fd5b505050506040513d601f19601f82011682018060405250810190611c88919061278e565b9050611c9360018055565b919050565b6000611ca2611dd3565b6036546040516370a0823160e01b815230600482015260009184916001600160a01b03909116906370a0823190602401602060405180830381865afa158015611cef573d6000803e3d6000fd5b505050506040513d601f19601f82011682018060405250810190611d139190612751565b611d1d91906125ff565b60365460345460405163a9059cbb60e01b81526001600160a01b03918216600482015260248101849052929350169063a9059cbb906044016020604051808303816000875af1158015611d74573d6000803e3d6000fd5b505050506040513d601f19601f82011682018060405250810190611d98919061278e565b915050611c9360018055565b600054610100900460ff16611dcb5760405162461bcd60e51b81526004016106f1906127dd565b611c03611e32565b600260015403611e255760405162461bcd60e51b815260206004820152601f60248201527f5265656e7472616e637947756172643a207265656e7472616e742063616c6c0060448201526064016106f1565b6002600155565b60018055565b600054610100900460ff16611e2c5760405162461bcd60e51b81526004016106f1906127dd565b634e487b7160e01b600052602160045260246000fd5b60028110611e7f57611e7f611e59565b9052565b60208101610b3a8284611e6f565b8035600081900b8114611c9357600080fd5b80356001600160a01b0381168114611c9357600080fd5b60008083601f840112611ecc57600080fd5b50813567ffffffffffffffff811115611ee457600080fd5b602083019150836020828501011115611efc57600080fd5b9250929050565b60008060008060008060008060008060006101408c8e031215611f2557600080fd5b8b359a5060208c0135995060408c0135985060608c01359750611f4a60808d01611e91565b9650611f5860a08d01611ea3565b9550611f6660c08d01611ea3565b9450611f7460e08d01611ea3565b9350611f836101008d01611ea3565b92506101208c013567ffffffffffffffff811115611fa057600080fd5b611fac8e828f01611eba565b915080935050809150509295989b509295989b9093969950565b6000815180845260005b81811015611fec57602081850181015186830182015201611fd0565b506000602082860101526020601f19601f83011685010191505092915050565b60208152600061201f6020830184611fc6565b9392505050565b801515811461122657600080fd5b60006020828403121561204657600080fd5b813561201f81612026565b6000806040838503121561206457600080fd5b50508035926020909101359150565b602080825282518282018190526000919060409081850190868401855b828110156120f357815180511515855286810151878601528581015186860152606080820151908601526080808201519086015260a0808201519086015260c0908101516001600160a01b03169085015260e09093019290850190600101612090565b5091979650505050505050565b60006020828403121561211257600080fd5b81356004811061201f57600080fd5b6000806020838503121561213457600080fd5b823567ffffffffffffffff81111561214b57600080fd5b61215785828601611eba565b90969095509350505050565b6000806000806000806080878903121561217c57600080fd5b863567ffffffffffffffff8082111561219457600080fd5b6121a08a838b01611eba565b909850965060208901359150808211156121b957600080fd5b506121c689828a01611eba565b90955093506121d9905060408801611ea3565b91506121e760608801611ea3565b90509295509295509295565b60006101c0612202838d611e6f565b8a51602084015260208b0151604084015260408b0151606084015260608b0151608084015263ffffffff60808c01511660a084015260a08b015160000b60c08401528960e084015261226061010084018a6001600160a01b03169052565b6001600160a01b0388166101208401528061014084015261228381840188611fc6565b91505061229561016083018615159052565b836101808301526122ab6101a083018415159052565b9a9950505050505050505050565b6000602082840312156122cb57600080fd5b5035919050565b600080600080600060a086880312156122ea57600080fd5b8535945060208601359350604086013592506060860135915061230f60808701611e91565b90509295509295909350565b6000806000806040858703121561233157600080fd5b843567ffffffffffffffff8082111561234957600080fd5b61235588838901611eba565b9096509450602087013591508082111561236e57600080fd5b5061237b87828801611eba565b95989497509550505050565b612391818f611e6f565b8c60208201528b60408201528a60608201528960808201528860a082015260018060a01b03881660c082015260018060a01b03871660e08201526101a061010082015260006123e46101a0830188611fc6565b90508515156101208301528461014083015283151561016083015261241261018083018463ffffffff169052565b9e9d5050505050505050505050505050565b634e487b7160e01b600052604160045260246000fd5b600181811c9082168061244e57607f821691505b60208210810361246e57634e487b7160e01b600052602260045260246000fd5b50919050565b601f8211156124be57600081815260208120601f850160051c8101602086101561249b5750805b601f850160051c820191505b818110156124ba578281556001016124a7565b5050505b505050565b67ffffffffffffffff8311156124db576124db612424565b6124ef836124e9835461243a565b83612474565b6000601f841160018114612523576000851561250b5750838201355b600019600387901b1c1916600186901b17835561257d565b600083815260209020601f19861690835b828110156125545786850135825560209485019460019092019101612534565b50868210156125715760001960f88860031b161c19848701351681555b505060018560011b0183555b5050505050565b60208082526032908201527f746869732061646472657373206973206e6f7420617070726f76656420746f2060408201527131b0b636103a3434b990333ab731ba34b7b760711b606082015260800190565b634e487b7160e01b600052601160045260246000fd5b80820180821115610b3a57610b3a6125d6565b81810381811115610b3a57610b3a6125d6565b634e487b7160e01b600052603260045260246000fd5b60006001820161263a5761263a6125d6565b5060010190565b60208082526028908201527f74686520636f6e7472616374206973206e6f7420696e207468652072756e6e696040820152676e6720737461746560c01b606082015260800190565b602081016004831061269d5761269d611e59565b91905290565b60208082526043908201527f74686973206163636f756e74206973206e6f7420617574686f72697a6564207460408201527f6f2075706461746520746865206369706865727465787420696e666f726d617460608201526234b7b760e91b608082015260a00190565b81835281816020850137506000828201602090810191909152601f909101601f19169091010190565b60208152600061274960208301848661270c565b949350505050565b60006020828403121561276357600080fd5b5051919050565b63ffffffff818116838216019080821115612787576127876125d6565b5092915050565b6000602082840312156127a057600080fd5b815161201f81612026565b6040815260006127bf60408301868861270c565b82810360208401526127d281858761270c565b979650505050505050565b6020808252602b908201527f496e697469616c697a61626c653a20636f6e7472616374206973206e6f74206960408201526a6e697469616c697a696e6760a81b606082015260800190565b8082028115828204841417610b3a57610b3a6125d6565b60008261285c57634e487b7160e01b600052601260045260246000fd5b50049056fea26469706673582212200ff13a2a93171fe9461c17ebd81421041a4992acf970d2ad77baa029de62088264736f6c63430008120033",
    "linkReferences": {},
    "deployedLinkReferences": {}
}