{
    "_format": "hh-sol-artifact-1",
    "contractName": "Lumerin",
    "sourceName": "contracts/token/LumerinToken.sol",
    "abi": [
        {
            "inputs": [],
            "stateMutability": "nonpayable",
            "type": "constructor"
        },
        {
            "anonymous": false,
            "inputs": [
                {
                    "indexed": true,
                    "internalType": "address",
                    "name": "owner",
                    "type": "address"
                },
                {
                    "indexed": true,
                    "internalType": "address",
                    "name": "spender",
                    "type": "address"
                },
                {
                    "indexed": false,
                    "internalType": "uint256",
                    "name": "value",
                    "type": "uint256"
                }
            ],
            "name": "Approval",
            "type": "event"
        },
        {
            "anonymous": false,
            "inputs": [
                {
                    "indexed": true,
                    "internalType": "address",
                    "name": "previousOwner",
                    "type": "address"
                },
                {
                    "indexed": true,
                    "internalType": "address",
                    "name": "newOwner",
                    "type": "address"
                }
            ],
            "name": "OwnershipTransferred",
            "type": "event"
        },
        {
            "anonymous": false,
            "inputs": [
                {
                    "indexed": false,
                    "internalType": "address",
                    "name": "account",
                    "type": "address"
                }
            ],
            "name": "Paused",
            "type": "event"
        },
        {
            "anonymous": false,
            "inputs": [
                {
                    "indexed": true,
                    "internalType": "address",
                    "name": "from",
                    "type": "address"
                },
                {
                    "indexed": true,
                    "internalType": "address",
                    "name": "to",
                    "type": "address"
                },
                {
                    "indexed": false,
                    "internalType": "uint256",
                    "name": "value",
                    "type": "uint256"
                }
            ],
            "name": "Transfer",
            "type": "event"
        },
        {
            "anonymous": false,
            "inputs": [
                {
                    "indexed": false,
                    "internalType": "address",
                    "name": "account",
                    "type": "address"
                }
            ],
            "name": "Unpaused",
            "type": "event"
        },
        {
            "inputs": [
                {
                    "internalType": "address",
                    "name": "owner",
                    "type": "address"
                },
                {
                    "internalType": "address",
                    "name": "spender",
                    "type": "address"
                }
            ],
            "name": "allowance",
            "outputs": [
                {
                    "internalType": "uint256",
                    "name": "",
                    "type": "uint256"
                }
            ],
            "stateMutability": "view",
            "type": "function"
        },
        {
            "inputs": [
                {
                    "internalType": "address",
                    "name": "spender",
                    "type": "address"
                },
                {
                    "internalType": "uint256",
                    "name": "amount",
                    "type": "uint256"
                }
            ],
            "name": "approve",
            "outputs": [
                {
                    "internalType": "bool",
                    "name": "",
                    "type": "bool"
                }
            ],
            "stateMutability": "nonpayable",
            "type": "function"
        },
        {
            "inputs": [
                {
                    "internalType": "address",
                    "name": "account",
                    "type": "address"
                }
            ],
            "name": "balanceOf",
            "outputs": [
                {
                    "internalType": "uint256",
                    "name": "",
                    "type": "uint256"
                }
            ],
            "stateMutability": "view",
            "type": "function"
        },
        {
            "inputs": [
                {
                    "internalType": "uint256",
                    "name": "amount",
                    "type": "uint256"
                }
            ],
            "name": "burn",
            "outputs": [],
            "stateMutability": "nonpayable",
            "type": "function"
        },
        {
            "inputs": [
                {
                    "internalType": "address",
                    "name": "account",
                    "type": "address"
                },
                {
                    "internalType": "uint256",
                    "name": "amount",
                    "type": "uint256"
                }
            ],
            "name": "burnFrom",
            "outputs": [],
            "stateMutability": "nonpayable",
            "type": "function"
        },
        {
            "inputs": [],
            "name": "decimals",
            "outputs": [
                {
                    "internalType": "uint8",
                    "name": "",
                    "type": "uint8"
                }
            ],
            "stateMutability": "view",
            "type": "function"
        },
        {
            "inputs": [
                {
                    "internalType": "address",
                    "name": "spender",
                    "type": "address"
                },
                {
                    "internalType": "uint256",
                    "name": "subtractedValue",
                    "type": "uint256"
                }
            ],
            "name": "decreaseAllowance",
            "outputs": [
                {
                    "internalType": "bool",
                    "name": "",
                    "type": "bool"
                }
            ],
            "stateMutability": "nonpayable",
            "type": "function"
        },
        {
            "inputs": [
                {
                    "internalType": "address",
                    "name": "spender",
                    "type": "address"
                },
                {
                    "internalType": "uint256",
                    "name": "addedValue",
                    "type": "uint256"
                }
            ],
            "name": "increaseAllowance",
            "outputs": [
                {
                    "internalType": "bool",
                    "name": "",
                    "type": "bool"
                }
            ],
            "stateMutability": "nonpayable",
            "type": "function"
        },
        {
            "inputs": [],
            "name": "name",
            "outputs": [
                {
                    "internalType": "string",
                    "name": "",
                    "type": "string"
                }
            ],
            "stateMutability": "view",
            "type": "function"
        },
        {
            "inputs": [],
            "name": "owner",
            "outputs": [
                {
                    "internalType": "address",
                    "name": "",
                    "type": "address"
                }
            ],
            "stateMutability": "view",
            "type": "function"
        },
        {
            "inputs": [],
            "name": "pause",
            "outputs": [],
            "stateMutability": "nonpayable",
            "type": "function"
        },
        {
            "inputs": [],
            "name": "paused",
            "outputs": [
                {
                    "internalType": "bool",
                    "name": "",
                    "type": "bool"
                }
            ],
            "stateMutability": "view",
            "type": "function"
        },
        {
            "inputs": [],
            "name": "renounceOwnership",
            "outputs": [],
            "stateMutability": "nonpayable",
            "type": "function"
        },
        {
            "inputs": [],
            "name": "symbol",
            "outputs": [
                {
                    "internalType": "string",
                    "name": "",
                    "type": "string"
                }
            ],
            "stateMutability": "view",
            "type": "function"
        },
        {
            "inputs": [],
            "name": "totalSupply",
            "outputs": [
                {
                    "internalType": "uint256",
                    "name": "",
                    "type": "uint256"
                }
            ],
            "stateMutability": "view",
            "type": "function"
        },
        {
            "inputs": [
                {
                    "internalType": "address",
                    "name": "to",
                    "type": "address"
                },
                {
                    "internalType": "uint256",
                    "name": "amount",
                    "type": "uint256"
                }
            ],
            "name": "transfer",
            "outputs": [
                {
                    "internalType": "bool",
                    "name": "",
                    "type": "bool"
                }
            ],
            "stateMutability": "nonpayable",
            "type": "function"
        },
        {
            "inputs": [
                {
                    "internalType": "address",
                    "name": "from",
                    "type": "address"
                },
                {
                    "internalType": "address",
                    "name": "to",
                    "type": "address"
                },
                {
                    "internalType": "uint256",
                    "name": "amount",
                    "type": "uint256"
                }
            ],
            "name": "transferFrom",
            "outputs": [
                {
                    "internalType": "bool",
                    "name": "",
                    "type": "bool"
                }
            ],
            "stateMutability": "nonpayable",
            "type": "function"
        },
        {
            "inputs": [
                {
                    "internalType": "address",
                    "name": "newOwner",
                    "type": "address"
                }
            ],
            "name": "transferOwnership",
            "outputs": [],
            "stateMutability": "nonpayable",
            "type": "function"
        },
        {
            "inputs": [],
            "name": "unpause",
            "outputs": [],
            "stateMutability": "nonpayable",
            "type": "function"
        }
    ],
    "bytecode": "0x608060405234801561001057600080fd5b5060405180604001604052806007815260200166263ab6b2b934b760c91b815250604051806040016040528060038152602001622626a960e91b815250816003908161005c91906102ec565b50600461006982826102ec565b50506005805460ff191690555061007f336100a7565b6100a23361008f6008600a6104a9565b61009d90633b9aca006104bf565b610101565b6104e9565b600580546001600160a01b03838116610100818102610100600160a81b031985161790945560405193909204169182907f8be0079c531659141344cd1fd0a4f28419497f9722a3daafe3b4186f6b6457e090600090a35050565b6001600160a01b03821661015c5760405162461bcd60e51b815260206004820152601f60248201527f45524332303a206d696e7420746f20746865207a65726f20616464726573730060448201526064015b60405180910390fd5b610168600083836101f1565b806002600082825461017a91906104d6565b90915550506001600160a01b038216600090815260208190526040812080548392906101a79084906104d6565b90915550506040518181526001600160a01b038316906000907fddf252ad1be2c89b69c2b068fc378daa952ba7f163c4a11628f55a4df523b3ef9060200160405180910390a35050565b60055460ff16156102375760405162461bcd60e51b815260206004820152601060248201526f14185d5cd8589b194e881c185d5cd95960821b6044820152606401610153565b6102498383836001600160e01b038416565b505050565b634e487b7160e01b600052604160045260246000fd5b600181811c9082168061027857607f821691505b60208210810361029857634e487b7160e01b600052602260045260246000fd5b50919050565b601f82111561024957806000526020600020601f840160051c810160208510156102c55750805b601f840160051c820191505b818110156102e557600081556001016102d1565b5050505050565b81516001600160401b038111156103055761030561024e565b610319816103138454610264565b8461029e565b6020601f82116001811461034d57600083156103355750848201515b600019600385901b1c1916600184901b1784556102e5565b600084815260208120601f198516915b8281101561037d578785015182556020948501946001909201910161035d565b508482101561039b5786840151600019600387901b60f8161c191681555b50505050600190811b01905550565b634e487b7160e01b600052601160045260246000fd5b6001815b60018411156103fb578085048111156103df576103df6103aa565b60018416156103ed57908102905b60019390931c9280026103c4565b935093915050565b600082610412575060016104a3565b8161041f575060006104a3565b8160018114610435576002811461043f5761045b565b60019150506104a3565b60ff841115610450576104506103aa565b50506001821b6104a3565b5060208310610133831016604e8410600b841016171561047e575081810a6104a3565b61048b60001984846103c0565b806000190482111561049f5761049f6103aa565b0290505b92915050565b60006104b860ff841683610403565b9392505050565b80820281158282048414176104a3576104a36103aa565b808201808211156104a3576104a36103aa565b610eb1806104f86000396000f3fe608060405234801561001057600080fd5b50600436106101215760003560e01c806370a08231116100ad57806395d89b411161007157806395d89b411461024b578063a457c2d714610253578063a9059cbb14610266578063dd62ed3e14610279578063f2fde38b146102b257600080fd5b806370a08231146101d6578063715018a6146101ff57806379cc6790146102075780638456cb591461021a5780638da5cb5b1461022257600080fd5b8063313ce567116100f4578063313ce5671461018c578063395093511461019b5780633f4ba83a146101ae57806342966c68146101b85780635c975abb146101cb57600080fd5b806306fdde0314610126578063095ea7b31461014457806318160ddd1461016757806323b872dd14610179575b600080fd5b61012e6102c5565b60405161013b9190610c91565b60405180910390f35b610157610152366004610cfb565b610357565b604051901515815260200161013b565b6002545b60405190815260200161013b565b610157610187366004610d25565b610371565b6040516008815260200161013b565b6101576101a9366004610cfb565b610395565b6101b66103d4565b005b6101b66101c6366004610d62565b610417565b60055460ff16610157565b61016b6101e4366004610d7b565b6001600160a01b031660009081526020819052604090205490565b6101b6610424565b6101b6610215366004610cfb565b61045e565b6101b6610477565b60055461010090046001600160a01b03166040516001600160a01b03909116815260200161013b565b61012e6104af565b610157610261366004610cfb565b6104be565b610157610274366004610cfb565b610550565b61016b610287366004610d9d565b6001600160a01b03918216600090815260016020908152604080832093909416825291909152205490565b6101b66102c0366004610d7b565b61055e565b6060600380546102d490610dd0565b80601f016020809104026020016040519081016040528092919081815260200182805461030090610dd0565b801561034d5780601f106103225761010080835404028352916020019161034d565b820191906000526020600020905b81548152906001019060200180831161033057829003601f168201915b5050505050905090565b6000336103658185856105fc565b60019150505b92915050565b60003361037f858285610721565b61038a8585856107b3565b506001949350505050565b3360008181526001602090815260408083206001600160a01b038716845290915281205490919061036590829086906103cf908790610e20565b6105fc565b6005546001600160a01b0361010090910416331461040d5760405162461bcd60e51b815260040161040490610e33565b60405180910390fd5b61041561098c565b565b6104213382610a1f565b50565b6005546001600160a01b036101009091041633146104545760405162461bcd60e51b815260040161040490610e33565b6104156000610b71565b610469823383610721565b6104738282610a1f565b5050565b6005546001600160a01b036101009091041633146104a75760405162461bcd60e51b815260040161040490610e33565b610415610bcb565b6060600480546102d490610dd0565b3360008181526001602090815260408083206001600160a01b0387168452909152812054909190838110156105435760405162461bcd60e51b815260206004820152602560248201527f45524332303a2064656372656173656420616c6c6f77616e63652062656c6f77604482015264207a65726f60d81b6064820152608401610404565b61038a82868684036105fc565b6000336103658185856107b3565b6005546001600160a01b0361010090910416331461058e5760405162461bcd60e51b815260040161040490610e33565b6001600160a01b0381166105f35760405162461bcd60e51b815260206004820152602660248201527f4f776e61626c653a206e6577206f776e657220697320746865207a65726f206160448201526564647265737360d01b6064820152608401610404565b61042181610b71565b6001600160a01b03831661065e5760405162461bcd60e51b8152602060048201526024808201527f45524332303a20617070726f76652066726f6d20746865207a65726f206164646044820152637265737360e01b6064820152608401610404565b6001600160a01b0382166106bf5760405162461bcd60e51b815260206004820152602260248201527f45524332303a20617070726f766520746f20746865207a65726f206164647265604482015261737360f01b6064820152608401610404565b6001600160a01b0383811660008181526001602090815260408083209487168084529482529182902085905590518481527f8c5be1e5ebec7d5bd14f71427d1e84f3dd0314c0f7b2291e5b200ac8c7c3b92591015b60405180910390a3505050565b6001600160a01b0383811660009081526001602090815260408083209386168352929052205460001981146107ad57818110156107a05760405162461bcd60e51b815260206004820152601d60248201527f45524332303a20696e73756666696369656e7420616c6c6f77616e63650000006044820152606401610404565b6107ad84848484036105fc565b50505050565b6001600160a01b0383166108175760405162461bcd60e51b815260206004820152602560248201527f45524332303a207472616e736665722066726f6d20746865207a65726f206164604482015264647265737360d81b6064820152608401610404565b6001600160a01b0382166108795760405162461bcd60e51b815260206004820152602360248201527f45524332303a207472616e7366657220746f20746865207a65726f206164647260448201526265737360e81b6064820152608401610404565b610884838383610c46565b6001600160a01b038316600090815260208190526040902054818110156108fc5760405162461bcd60e51b815260206004820152602660248201527f45524332303a207472616e7366657220616d6f756e7420657863656564732062604482015265616c616e636560d01b6064820152608401610404565b6001600160a01b03808516600090815260208190526040808220858503905591851681529081208054849290610933908490610e20565b92505081905550826001600160a01b0316846001600160a01b03167fddf252ad1be2c89b69c2b068fc378daa952ba7f163c4a11628f55a4df523b3ef8460405161097f91815260200190565b60405180910390a36107ad565b60055460ff166109d55760405162461bcd60e51b815260206004820152601460248201527314185d5cd8589b194e881b9bdd081c185d5cd95960621b6044820152606401610404565b6005805460ff191690557f5db9ee0a495bf2e6ff9c91a7834c1ba4fdd244a5e8aa4e537bd38aeae4b073aa335b6040516001600160a01b03909116815260200160405180910390a1565b6001600160a01b038216610a7f5760405162461bcd60e51b815260206004820152602160248201527f45524332303a206275726e2066726f6d20746865207a65726f206164647265736044820152607360f81b6064820152608401610404565b610a8b82600083610c46565b6001600160a01b03821660009081526020819052604090205481811015610aff5760405162461bcd60e51b815260206004820152602260248201527f45524332303a206275726e20616d6f756e7420657863656564732062616c616e604482015261636560f01b6064820152608401610404565b6001600160a01b0383166000908152602081905260408120838303905560028054849290610b2e908490610e68565b90915550506040518281526000906001600160a01b038516907fddf252ad1be2c89b69c2b068fc378daa952ba7f163c4a11628f55a4df523b3ef90602001610714565b600580546001600160a01b03838116610100818102610100600160a81b031985161790945560405193909204169182907f8be0079c531659141344cd1fd0a4f28419497f9722a3daafe3b4186f6b6457e090600090a35050565b60055460ff1615610c115760405162461bcd60e51b815260206004820152601060248201526f14185d5cd8589b194e881c185d5cd95960821b6044820152606401610404565b6005805460ff191660011790557f62e78cea01bee320cd4e420270b5ea74000d11b0c9f74754ebdbfc544b05a258610a023390565b60055460ff1615610c8c5760405162461bcd60e51b815260206004820152601060248201526f14185d5cd8589b194e881c185d5cd95960821b6044820152606401610404565b505050565b602081526000825180602084015260005b81811015610cbf5760208186018101516040868401015201610ca2565b506000604082850101526040601f19601f83011684010191505092915050565b80356001600160a01b0381168114610cf657600080fd5b919050565b60008060408385031215610d0e57600080fd5b610d1783610cdf565b946020939093013593505050565b600080600060608486031215610d3a57600080fd5b610d4384610cdf565b9250610d5160208501610cdf565b929592945050506040919091013590565b600060208284031215610d7457600080fd5b5035919050565b600060208284031215610d8d57600080fd5b610d9682610cdf565b9392505050565b60008060408385031215610db057600080fd5b610db983610cdf565b9150610dc760208401610cdf565b90509250929050565b600181811c90821680610de457607f821691505b602082108103610e0457634e487b7160e01b600052602260045260246000fd5b50919050565b634e487b7160e01b600052601160045260246000fd5b8082018082111561036b5761036b610e0a565b6020808252818101527f4f776e61626c653a2063616c6c6572206973206e6f7420746865206f776e6572604082015260600190565b8181038181111561036b5761036b610e0a56fea2646970667358221220d749892d278ab07fb45e98d4304a17c90f33b3d7111753f22c87a3c0b27778ca64736f6c634300081a0033",
    "linkReferences": {},
    "deployedLinkReferences": {}
}