{
    "_format": "hh-sol-artifact-1",
    "contractName": "ValidatorRegistry",
    "sourceName": "contracts/validator-registry/ValidatorRegistry.sol",
    "abi": [
        {
            "inputs": [],
            "name": "AlreadyComplained",
            "type": "error"
        },
        {
            "inputs": [],
            "name": "HostTooLong",
            "type": "error"
        },
        {
            "inputs": [],
            "name": "InsufficientStake",
            "type": "error"
        },
        {
            "inputs": [],
            "name": "InvalidInitialization",
            "type": "error"
        },
        {
            "inputs": [],
            "name": "NotInitializing",
            "type": "error"
        },
        {
            "inputs": [
                {
                    "internalType": "address",
                    "name": "owner",
                    "type": "address"
                }
            ],
            "name": "OwnableInvalidOwner",
            "type": "error"
        },
        {
            "inputs": [
                {
                    "internalType": "address",
                    "name": "account",
                    "type": "address"
                }
            ],
            "name": "OwnableUnauthorizedAccount",
            "type": "error"
        },
        {
            "inputs": [
                {
                    "internalType": "address",
                    "name": "token",
                    "type": "address"
                }
            ],
            "name": "SafeERC20FailedOperation",
            "type": "error"
        },
        {
            "inputs": [],
            "name": "Unauthorized",
            "type": "error"
        },
        {
            "inputs": [],
            "name": "ValidatorNotFound",
            "type": "error"
        },
        {
            "anonymous": false,
            "inputs": [
                {
                    "indexed": false,
                    "internalType": "uint64",
                    "name": "version",
                    "type": "uint64"
                }
            ],
            "name": "Initialized",
            "type": "event"
        },
        {
            "anonymous": false,
            "inputs": [
                {
                    "indexed": true,
                    "internalType": "address",
                    "name": "previousOwner",
                    "type": "address"
                },
                {
                    "indexed": true,
                    "internalType": "address",
                    "name": "newOwner",
                    "type": "address"
                }
            ],
            "name": "OwnershipTransferred",
            "type": "event"
        },
        {
            "anonymous": false,
            "inputs": [
                {
                    "indexed": true,
                    "internalType": "address",
                    "name": "validator",
                    "type": "address"
                },
                {
                    "indexed": true,
                    "internalType": "address",
                    "name": "complainer",
                    "type": "address"
                }
            ],
            "name": "ValidatorComplain",
            "type": "event"
        },
        {
            "anonymous": false,
            "inputs": [
                {
                    "indexed": true,
                    "internalType": "address",
                    "name": "validator",
                    "type": "address"
                }
            ],
            "name": "ValidatorDeregistered",
            "type": "event"
        },
        {
            "anonymous": false,
            "inputs": [
                {
                    "indexed": true,
                    "internalType": "address",
                    "name": "validator",
                    "type": "address"
                }
            ],
            "name": "ValidatorPunished",
            "type": "event"
        },
        {
            "anonymous": false,
            "inputs": [
                {
                    "indexed": true,
                    "internalType": "address",
                    "name": "validator",
                    "type": "address"
                }
            ],
            "name": "ValidatorRegisteredUpdated",
            "type": "event"
        },
        {
            "inputs": [],
            "name": "activeValidatorsLength",
            "outputs": [
                {
                    "internalType": "uint256",
                    "name": "",
                    "type": "uint256"
                }
            ],
            "stateMutability": "view",
            "type": "function"
        },
        {
            "inputs": [
                {
                    "internalType": "address",
                    "name": "validator",
                    "type": "address"
                }
            ],
            "name": "forceUpdateActive",
            "outputs": [],
            "stateMutability": "nonpayable",
            "type": "function"
        },
        {
            "inputs": [
                {
                    "internalType": "uint256",
                    "name": "offset",
                    "type": "uint256"
                },
                {
                    "internalType": "uint8",
                    "name": "limit",
                    "type": "uint8"
                }
            ],
            "name": "getActiveValidators",
            "outputs": [
                {
                    "internalType": "address[]",
                    "name": "",
                    "type": "address[]"
                }
            ],
            "stateMutability": "view",
            "type": "function"
        },
        {
            "inputs": [
                {
                    "internalType": "address",
                    "name": "addr",
                    "type": "address"
                }
            ],
            "name": "getValidator",
            "outputs": [
                {
                    "components": [
                        {
                            "internalType": "uint256",
                            "name": "stake",
                            "type": "uint256"
                        },
                        {
                            "internalType": "address",
                            "name": "addr",
                            "type": "address"
                        },
                        {
                            "internalType": "bool",
                            "name": "pubKeyYparity",
                            "type": "bool"
                        },
                        {
                            "internalType": "address",
                            "name": "lastComplainer",
                            "type": "address"
                        },
                        {
                            "internalType": "uint8",
                            "name": "complains",
                            "type": "uint8"
                        },
                        {
                            "internalType": "string",
                            "name": "host",
                            "type": "string"
                        },
                        {
                            "internalType": "bytes32",
                            "name": "pubKeyX",
                            "type": "bytes32"
                        }
                    ],
                    "internalType": "struct ValidatorRegistry.Validator",
                    "name": "",
                    "type": "tuple"
                }
            ],
            "stateMutability": "view",
            "type": "function"
        },
        {
            "inputs": [
                {
                    "internalType": "uint256",
                    "name": "offset",
                    "type": "uint256"
                },
                {
                    "internalType": "uint8",
                    "name": "limit",
                    "type": "uint8"
                }
            ],
            "name": "getValidators",
            "outputs": [
                {
                    "internalType": "address[]",
                    "name": "",
                    "type": "address[]"
                }
            ],
            "stateMutability": "view",
            "type": "function"
        },
        {
            "inputs": [
                {
                    "internalType": "contract IERC20",
                    "name": "_token",
                    "type": "address"
                },
                {
                    "internalType": "uint256",
                    "name": "_stakeMinimun",
                    "type": "uint256"
                },
                {
                    "internalType": "uint256",
                    "name": "_stakeRegister",
                    "type": "uint256"
                },
                {
                    "internalType": "uint256",
                    "name": "_punishAmount",
                    "type": "uint256"
                },
                {
                    "internalType": "uint8",
                    "name": "_punishThreshold",
                    "type": "uint8"
                }
            ],
            "name": "initialize",
            "outputs": [],
            "stateMutability": "nonpayable",
            "type": "function"
        },
        {
            "inputs": [],
            "name": "owner",
            "outputs": [
                {
                    "internalType": "address",
                    "name": "",
                    "type": "address"
                }
            ],
            "stateMutability": "view",
            "type": "function"
        },
        {
            "inputs": [],
            "name": "punishAmount",
            "outputs": [
                {
                    "internalType": "uint256",
                    "name": "",
                    "type": "uint256"
                }
            ],
            "stateMutability": "view",
            "type": "function"
        },
        {
            "inputs": [],
            "name": "punishThreshold",
            "outputs": [
                {
                    "internalType": "uint8",
                    "name": "",
                    "type": "uint8"
                }
            ],
            "stateMutability": "view",
            "type": "function"
        },
        {
            "inputs": [],
            "name": "renounceOwnership",
            "outputs": [],
            "stateMutability": "nonpayable",
            "type": "function"
        },
        {
            "inputs": [
                {
                    "internalType": "uint256",
                    "name": "val",
                    "type": "uint256"
                }
            ],
            "name": "setPunishAmount",
            "outputs": [],
            "stateMutability": "nonpayable",
            "type": "function"
        },
        {
            "inputs": [
                {
                    "internalType": "uint8",
                    "name": "val",
                    "type": "uint8"
                }
            ],
            "name": "setPunishThreshold",
            "outputs": [],
            "stateMutability": "nonpayable",
            "type": "function"
        },
        {
            "inputs": [
                {
                    "internalType": "uint256",
                    "name": "val",
                    "type": "uint256"
                }
            ],
            "name": "setStakeMinimum",
            "outputs": [],
            "stateMutability": "nonpayable",
            "type": "function"
        },
        {
            "inputs": [
                {
                    "internalType": "uint256",
                    "name": "val",
                    "type": "uint256"
                }
            ],
            "name": "setStakeRegister",
            "outputs": [],
            "stateMutability": "nonpayable",
            "type": "function"
        },
        {
            "inputs": [],
            "name": "stakeMinimum",
            "outputs": [
                {
                    "internalType": "uint256",
                    "name": "",
                    "type": "uint256"
                }
            ],
            "stateMutability": "view",
            "type": "function"
        },
        {
            "inputs": [],
            "name": "stakeRegister",
            "outputs": [
                {
                    "internalType": "uint256",
                    "name": "",
                    "type": "uint256"
                }
            ],
            "stateMutability": "view",
            "type": "function"
        },
        {
            "inputs": [],
            "name": "token",
            "outputs": [
                {
                    "internalType": "contract IERC20",
                    "name": "",
                    "type": "address"
                }
            ],
            "stateMutability": "view",
            "type": "function"
        },
        {
            "inputs": [],
            "name": "totalStake",
            "outputs": [
                {
                    "internalType": "uint256",
                    "name": "",
                    "type": "uint256"
                }
            ],
            "stateMutability": "view",
            "type": "function"
        },
        {
            "inputs": [
                {
                    "internalType": "address",
                    "name": "newOwner",
                    "type": "address"
                }
            ],
            "name": "transferOwnership",
            "outputs": [],
            "stateMutability": "nonpayable",
            "type": "function"
        },
        {
            "inputs": [
                {
                    "internalType": "address",
                    "name": "addr",
                    "type": "address"
                }
            ],
            "name": "validatorComplain",
            "outputs": [],
            "stateMutability": "nonpayable",
            "type": "function"
        },
        {
            "inputs": [],
            "name": "validatorDeregister",
            "outputs": [],
            "stateMutability": "nonpayable",
            "type": "function"
        },
        {
            "inputs": [
                {
                    "internalType": "uint256",
                    "name": "stake",
                    "type": "uint256"
                },
                {
                    "internalType": "bool",
                    "name": "pubKeyYparity",
                    "type": "bool"
                },
                {
                    "internalType": "bytes32",
                    "name": "pubKeyX",
                    "type": "bytes32"
                },
                {
                    "internalType": "string",
                    "name": "host",
                    "type": "string"
                }
            ],
            "name": "validatorRegister",
            "outputs": [],
            "stateMutability": "nonpayable",
            "type": "function"
        },
        {
            "inputs": [
                {
                    "internalType": "address",
                    "name": "",
                    "type": "address"
                }
            ],
            "name": "validators",
            "outputs": [
                {
                    "internalType": "uint256",
                    "name": "stake",
                    "type": "uint256"
                },
                {
                    "internalType": "address",
                    "name": "addr",
                    "type": "address"
                },
                {
                    "internalType": "bool",
                    "name": "pubKeyYparity",
                    "type": "bool"
                },
                {
                    "internalType": "address",
                    "name": "lastComplainer",
                    "type": "address"
                },
                {
                    "internalType": "uint8",
                    "name": "complains",
                    "type": "uint8"
                },
                {
                    "internalType": "string",
                    "name": "host",
                    "type": "string"
                },
                {
                    "internalType": "bytes32",
                    "name": "pubKeyX",
                    "type": "bytes32"
                }
            ],
            "stateMutability": "view",
            "type": "function"
        },
        {
            "inputs": [],
            "name": "validatorsLength",
            "outputs": [
                {
                    "internalType": "uint256",
                    "name": "",
                    "type": "uint256"
                }
            ],
            "stateMutability": "view",
            "type": "function"
        },
        {
            "inputs": [],
            "name": "withdraw",
            "outputs": [],
            "stateMutability": "nonpayable",
            "type": "function"
        }
    ],
    "bytecode": "0x6080604052348015600f57600080fd5b506118a08061001f6000396000f3fe608060405234801561001057600080fd5b50600436106101735760003560e01c806382bdad8f116100de578063cbdc17cb11610097578063f1105a7e11610071578063f1105a7e146102ff578063f2fde38b14610307578063fa52c7d81461031a578063fc0c546a1461034057600080fd5b8063cbdc17cb146102c6578063d3a9cfce146102d9578063d864b499146102ec57600080fd5b806382bdad8f146102455780638b0e9f3f146102585780638da5cb5b14610261578063941d172e14610281578063afe3749d14610294578063cb1ea725146102a757600080fd5b80633fa1b5bc116101305780633fa1b5bc146101fd5780634b6904291461020657806358ea7e601461020f578063715018a61461022257806375bac4301461022a578063799268481461023257600080fd5b80631904bb2e146101785780631aa25cda146101a15780631f99c4d6146101b8578063290d263f146101c25780633b69abbf146101e25780633ccfd60b146101f5575b600080fd5b61018b6101863660046112c6565b610353565b6040516101989190611329565b60405180910390f35b6101aa60035481565b604051908152602001610198565b6101c06104b1565b005b6101d56101d03660046113c1565b6105bc565b60405161019891906113ed565b6101c06101f03660046112c6565b6105d6565b6101c0610801565b6101aa60045481565b6101aa60025481565b6101c061021d366004611439565b610896565b6101c06108b4565b6101aa6108c8565b6101c0610240366004611454565b6108d9565b6101c06102533660046114a6565b610a2c565b6101aa60015481565b610269610a39565b6040516001600160a01b039091168152602001610198565b6101c061028f3660046114a6565b610a67565b6101d56102a23660046113c1565b610a74565b6005546102b49060ff1681565b60405160ff9091168152602001610198565b6101c06102d43660046114a6565b610a85565b6101c06102e73660046114bf565b610a92565b6101c06102fa3660046112c6565b610c01565b6101aa610c9d565b6101c06103153660046112c6565b610ca9565b61032d6103283660046112c6565b610ce9565b604051610198979695949392919061155c565b600054610269906001600160a01b031681565b6040805160e08101825260008082526020820181905291810182905260608082018390526080820183905260a082015260c08101829052908061039584610dc4565b91509150806103b75760405163580e542f60e01b815260040160405180910390fd5b6040805160e0810182528354815260018401546001600160a01b03808216602084015260ff600160a01b92839004811615159484019490945260028601549081166060840152049091166080820152600383018054849160a084019161041c906115b3565b80601f0160208091040260200160405190810160405280929190818152602001828054610448906115b3565b80156104955780601f1061046a57610100808354040283529160200191610495565b820191906000526020600020905b81548152906001019060200180831161047857829003601f168201915b5050505050815260200160048201548152505092505050919050565b336000806104be83610dc4565b91509150806104e05760405163580e542f60e01b815260040160405180910390fd5b6104eb600784610deb565b506104f7600984610deb565b5081546001805482919060009061050f908490611603565b909155505060008084556001840180546001600160a01b031916905560028401805460ff60a01b1916905560408051602081019091529081526003840190610557908261167a565b506002830180546001600160a01b03191690556040516001600160a01b038516907f51407fafe7ef9bec39c65a12a4885a274190991bf1e9057fcc384fc77ff1a7f090600090a26105b6335b6000546001600160a01b03169083610e00565b50505050565b60606105cd60098460ff8516610e5f565b90505b92915050565b60006105e133610dc4565b91505080610601576040516282b42960e81b815260040160405180910390fd5b6001600160a01b0382163303610629576040516282b42960e81b815260040160405180910390fd5b60008061063584610dc4565b91509150806106575760405163580e542f60e01b815260040160405180910390fd5b6002820154336001600160a01b0390911603610686576040516372b6713d60e11b815260040160405180910390fd5b6002820180546001600160a01b0319163317808255600191906014906106b890849060ff600160a01b90910416611739565b82546101009290920a60ff8181021990931691831602179091556005546002850154908216600160a01b9091049091161090506107c1578154600454111561071c5781546001805460009061070e908490611603565b909155505060008255610750565b600454600160008282546107309190611603565b90915550506004548254839060009061074a908490611603565b90915550505b60025482541015610777576001820154610775906009906001600160a01b0316610deb565b505b60028201805460ff60a01b1916905560018201546040516001600160a01b03909116907f8d76dace3eea3177ede619176fca83c0b96fb43118cd8c5423ff5c84fcc5d3ac90600090a25b600182015460405133916001600160a01b0316907f7f26ac01ce8cd2b3ef849663458bd3d70d7ac99342f366677ec965fe4d4617e690600090a350505050565b610809610f1e565b600154600080546040516370a0823160e01b81523060048201529192916001600160a01b03909116906370a0823190602401602060405180830381865afa158015610858573d6000803e3d6000fd5b505050506040513d601f19601f8201168201806040525081019061087c9190611752565b6108869190611603565b90506108936105a3610a39565b50565b61089e610f1e565b6005805460ff191660ff92909216919091179055565b6108bc610f1e565b6108c66000610f50565b565b60006108d46009610fc1565b905090565b7ff0c57e16840df040f15088dc2f81fe391c3923bec73e23a9662efc9c229c6a008054600160401b810460ff16159067ffffffffffffffff1660008115801561091f5750825b905060008267ffffffffffffffff16600114801561093c5750303b155b90508115801561094a575080155b156109685760405163f92ee8a960e01b815260040160405180910390fd5b845467ffffffffffffffff19166001178555831561099257845460ff60401b1916600160401b1785555b61099b33610fcb565b600080546001600160a01b0319166001600160a01b038c161790556109bf89610a67565b6109c888610a85565b6109d187610a2c565b6109da86610896565b8315610a2057845460ff60401b19168555604051600181527fc7f505b2f371ae2175ee4913f4499e1f2633a7b5936321eed1cdaeb6115181d29060200160405180910390a15b50505050505050505050565b610a34610f1e565b600455565b7f9016d09d72d40fdae2fd8ceac6b6234c7706214fd39c1cd1e609a0528c199300546001600160a01b031690565b610a6f610f1e565b600255565b60606105cd60078460ff8516610e5f565b610a8d610f1e565b600355565b33600080610a9f83610dc4565b9150915080610af557600354881015610acb576040516378de4a6960e11b815260040160405180910390fd5b6001820180546001600160a01b0319166001600160a01b038516179055610af3600784610fdc565b505b60ff841115610b17576040516316793d2d60e21b815260040160405180910390fd5b60038201610b2685878361176b565b506004820186905560018201805460ff60a01b1916600160a01b89151502179055815488908390600090610b5b90849061182b565b925050819055508760016000828254610b74919061182b565b9091555050600254825410610b9f576001820154610b9d906009906001600160a01b0316610fdc565b505b60018201546040516001600160a01b03909116907ffa8eaa9a4538bcd66427267278e2c8671fb3145b6ca6b6ac87cf3bd4ae2e066290600090a28715610bf757610bf7336000546001600160a01b031690308b610ff1565b5050505050505050565b6000610c0c82610dc4565b509050600254816000015410158015610c3c57506001810154610c3a906009906001600160a01b031661102a565b155b15610c60576001810154610c5b906009906001600160a01b0316610fdc565b505050565b6001810154610c7a906009906001600160a01b031661102a565b15610c99576001810154610c5b906009906001600160a01b0316610deb565b5050565b60006108d46007610fc1565b610cb1610f1e565b6001600160a01b038116610ce057604051631e4fbdf760e01b8152600060048201526024015b60405180910390fd5b61089381610f50565b600660205260009081526040902080546001820154600283015460038401805493946001600160a01b038085169560ff600160a01b9687900481169692861695929092049091169290610d3b906115b3565b80601f0160208091040260200160405190810160405280929190818152602001828054610d67906115b3565b8015610db45780601f10610d8957610100808354040283529160200191610db4565b820191906000526020600020905b815481529060010190602001808311610d9757829003601f168201915b5050505050908060040154905087565b6001600160a01b039081166000908152600660205260409020600181015490929116151590565b60006105cd836001600160a01b03841661104c565b6040516001600160a01b03838116602483015260448201839052610c5b91859182169063a9059cbb906064015b604051602081830303815290604052915060e01b6020820180516001600160e01b03838183161783525050505061113f565b60606000610e76610e6f86610fc1565b85856111b0565b9050610e828482611603565b67ffffffffffffffff811115610e9a57610e9a611616565b604051908082528060200260200182016040528015610ec3578160200160208202803683370190505b509150835b81811015610f1557610eda86826111db565b83610ee58784611603565b81518110610ef557610ef561183e565b6001600160a01b0390921660209283029190910190910152600101610ec8565b50509392505050565b33610f27610a39565b6001600160a01b0316146108c65760405163118cdaa760e01b8152336004820152602401610cd7565b7f9016d09d72d40fdae2fd8ceac6b6234c7706214fd39c1cd1e609a0528c19930080546001600160a01b031981166001600160a01b03848116918217845560405192169182907f8be0079c531659141344cd1fd0a4f28419497f9722a3daafe3b4186f6b6457e090600090a3505050565b60006105d0825490565b610fd36111e7565b61089381611230565b60006105cd836001600160a01b038416611238565b6040516001600160a01b0384811660248301528381166044830152606482018390526105b69186918216906323b872dd90608401610e2d565b6001600160a01b038116600090815260018301602052604081205415156105cd565b60008181526001830160205260408120548015611135576000611070600183611603565b855490915060009061108490600190611603565b90508181146110e95760008660000182815481106110a4576110a461183e565b90600052602060002001549050808760000184815481106110c7576110c761183e565b6000918252602080832090910192909255918252600188019052604090208390555b85548690806110fa576110fa611854565b6001900381819060005260206000200160009055905585600101600086815260200190815260200160002060009055600193505050506105d0565b60009150506105d0565b600080602060008451602086016000885af180611162576040513d6000823e3d81fd5b50506000513d9150811561117a578060011415611187565b6001600160a01b0384163b155b156105b657604051635274afe760e01b81526001600160a01b0385166004820152602401610cd7565b60006111bc828461182b565b9050838111156111c95750825b808311156111d45750815b9392505050565b60006105cd8383611287565b7ff0c57e16840df040f15088dc2f81fe391c3923bec73e23a9662efc9c229c6a0054600160401b900460ff166108c657604051631afcd79f60e31b815260040160405180910390fd5b610cb16111e7565b600081815260018301602052604081205461127f575081546001818101845560008481526020808220909301849055845484825282860190935260409020919091556105d0565b5060006105d0565b600082600001828154811061129e5761129e61183e565b9060005260206000200154905092915050565b6001600160a01b038116811461089357600080fd5b6000602082840312156112d857600080fd5b81356111d4816112b1565b6000815180845260005b81811015611309576020818501810151868301820152016112ed565b506000602082860101526020601f19601f83011685010191505092915050565b602081528151602082015260018060a01b03602083015116604082015260408201511515606082015260018060a01b0360608301511660808201526000608083015161137a60a084018260ff169052565b5060a083015160e060c08401526113956101008401826112e3565b905060c084015160e08401528091505092915050565b803560ff811681146113bc57600080fd5b919050565b600080604083850312156113d457600080fd5b823591506113e4602084016113ab565b90509250929050565b602080825282518282018190526000918401906040840190835b8181101561142e5783516001600160a01b0316835260209384019390920191600101611407565b509095945050505050565b60006020828403121561144b57600080fd5b6105cd826113ab565b600080600080600060a0868803121561146c57600080fd5b8535611477816112b1565b945060208601359350604086013592506060860135915061149a608087016113ab565b90509295509295909350565b6000602082840312156114b857600080fd5b5035919050565b6000806000806000608086880312156114d757600080fd5b85359450602086013580151581146114ee57600080fd5b935060408601359250606086013567ffffffffffffffff81111561151157600080fd5b8601601f8101881361152257600080fd5b803567ffffffffffffffff81111561153957600080fd5b88602082840101111561154b57600080fd5b959894975092955050506020019190565b8781526001600160a01b03878116602083015286151560408301528516606082015260ff8416608082015260e060a0820181905260009061159f908301856112e3565b90508260c083015298975050505050505050565b600181811c908216806115c757607f821691505b6020821081036115e757634e487b7160e01b600052602260045260246000fd5b50919050565b634e487b7160e01b600052601160045260246000fd5b818103818111156105d0576105d06115ed565b634e487b7160e01b600052604160045260246000fd5b601f821115610c5b57806000526020600020601f840160051c810160208510156116535750805b601f840160051c820191505b81811015611673576000815560010161165f565b5050505050565b815167ffffffffffffffff81111561169457611694611616565b6116a8816116a284546115b3565b8461162c565b6020601f8211600181146116dc57600083156116c45750848201515b600019600385901b1c1916600184901b178455611673565b600084815260208120601f198516915b8281101561170c57878501518255602094850194600190920191016116ec565b508482101561172a5786840151600019600387901b60f8161c191681555b50505050600190811b01905550565b60ff81811683821601908111156105d0576105d06115ed565b60006020828403121561176457600080fd5b5051919050565b67ffffffffffffffff83111561178357611783611616565b6117978361179183546115b3565b8361162c565b6000601f8411600181146117cb57600085156117b35750838201355b600019600387901b1c1916600186901b178355611673565b600083815260209020601f19861690835b828110156117fc57868501358255602094850194600190920191016117dc565b50868210156118195760001960f88860031b161c19848701351681555b505060018560011b0183555050505050565b808201808211156105d0576105d06115ed565b634e487b7160e01b600052603260045260246000fd5b634e487b7160e01b600052603160045260246000fdfea2646970667358221220aef7285b9bfef537eb29e8a5310f5b20b88186c6aa25118c32972a41ad02c53d64736f6c634300081a0033",
    "linkReferences": {},
    "deployedLinkReferences": {}
}