{
    "_format": "hh-sol-artifact-1",
    "contractName": "ValidatorRegistry",
    "sourceName": "contracts/validator-registry/ValidatorRegistry.sol",
    "abi": [
        {
            "inputs": [],
            "name": "AlreadyComplained",
            "type": "error"
        },
        {
            "inputs": [],
            "name": "HostTooLong",
            "type": "error"
        },
        {
            "inputs": [],
            "name": "InsufficientStake",
            "type": "error"
        },
        {
            "inputs": [],
            "name": "InvalidInitialization",
            "type": "error"
        },
        {
            "inputs": [],
            "name": "NotInitializing",
            "type": "error"
        },
        {
            "inputs": [
                {
                    "internalType": "address",
                    "name": "owner",
                    "type": "address"
                }
            ],
            "name": "OwnableInvalidOwner",
            "type": "error"
        },
        {
            "inputs": [
                {
                    "internalType": "address",
                    "name": "account",
                    "type": "address"
                }
            ],
            "name": "OwnableUnauthorizedAccount",
            "type": "error"
        },
        {
            "inputs": [
                {
                    "internalType": "address",
                    "name": "token",
                    "type": "address"
                }
            ],
            "name": "SafeERC20FailedOperation",
            "type": "error"
        },
        {
            "inputs": [],
            "name": "Unauthorized",
            "type": "error"
        },
        {
            "inputs": [],
            "name": "ValidatorNotFound",
            "type": "error"
        },
        {
            "anonymous": false,
            "inputs": [
                {
                    "indexed": false,
                    "internalType": "uint64",
                    "name": "version",
                    "type": "uint64"
                }
            ],
            "name": "Initialized",
            "type": "event"
        },
        {
            "anonymous": false,
            "inputs": [
                {
                    "indexed": true,
                    "internalType": "address",
                    "name": "previousOwner",
                    "type": "address"
                },
                {
                    "indexed": true,
                    "internalType": "address",
                    "name": "newOwner",
                    "type": "address"
                }
            ],
            "name": "OwnershipTransferred",
            "type": "event"
        },
        {
            "anonymous": false,
            "inputs": [
                {
                    "indexed": true,
                    "internalType": "address",
                    "name": "validator",
                    "type": "address"
                },
                {
                    "indexed": true,
                    "internalType": "address",
                    "name": "complainer",
                    "type": "address"
                }
            ],
            "name": "ValidatorComplain",
            "type": "event"
        },
        {
            "anonymous": false,
            "inputs": [
                {
                    "indexed": true,
                    "internalType": "address",
                    "name": "validator",
                    "type": "address"
                }
            ],
            "name": "ValidatorDeregistered",
            "type": "event"
        },
        {
            "anonymous": false,
            "inputs": [
                {
                    "indexed": true,
                    "internalType": "address",
                    "name": "validator",
                    "type": "address"
                }
            ],
            "name": "ValidatorPunished",
            "type": "event"
        },
        {
            "anonymous": false,
            "inputs": [
                {
                    "indexed": true,
                    "internalType": "address",
                    "name": "validator",
                    "type": "address"
                }
            ],
            "name": "ValidatorRegisteredUpdated",
            "type": "event"
        },
        {
            "inputs": [],
            "name": "activeValidatorsLength",
            "outputs": [
                {
                    "internalType": "uint256",
                    "name": "",
                    "type": "uint256"
                }
            ],
            "stateMutability": "view",
            "type": "function"
        },
        {
            "inputs": [
                {
                    "internalType": "address",
                    "name": "validator",
                    "type": "address"
                }
            ],
            "name": "forceUpdateActive",
            "outputs": [],
            "stateMutability": "nonpayable",
            "type": "function"
        },
        {
            "inputs": [
                {
                    "internalType": "uint256",
                    "name": "offset",
                    "type": "uint256"
                },
                {
                    "internalType": "uint8",
                    "name": "limit",
                    "type": "uint8"
                }
            ],
            "name": "getActiveValidators",
            "outputs": [
                {
                    "internalType": "address[]",
                    "name": "",
                    "type": "address[]"
                }
            ],
            "stateMutability": "view",
            "type": "function"
        },
        {
            "inputs": [
                {
                    "internalType": "address",
                    "name": "addr",
                    "type": "address"
                }
            ],
            "name": "getValidator",
            "outputs": [
                {
                    "components": [
                        {
                            "internalType": "uint256",
                            "name": "stake",
                            "type": "uint256"
                        },
                        {
                            "internalType": "address",
                            "name": "addr",
                            "type": "address"
                        },
                        {
                            "internalType": "bool",
                            "name": "pubKeyYparity",
                            "type": "bool"
                        },
                        {
                            "internalType": "address",
                            "name": "lastComplainer",
                            "type": "address"
                        },
                        {
                            "internalType": "uint8",
                            "name": "complains",
                            "type": "uint8"
                        },
                        {
                            "internalType": "string",
                            "name": "host",
                            "type": "string"
                        },
                        {
                            "internalType": "bytes32",
                            "name": "pubKeyX",
                            "type": "bytes32"
                        }
                    ],
                    "internalType": "struct ValidatorRegistry.Validator",
                    "name": "",
                    "type": "tuple"
                }
            ],
            "stateMutability": "view",
            "type": "function"
        },
        {
            "inputs": [
                {
                    "internalType": "address",
                    "name": "addr",
                    "type": "address"
                }
            ],
            "name": "getValidatorV2",
            "outputs": [
                {
                    "components": [
                        {
                            "internalType": "uint256",
                            "name": "stake",
                            "type": "uint256"
                        },
                        {
                            "internalType": "address",
                            "name": "addr",
                            "type": "address"
                        },
                        {
                            "internalType": "bool",
                            "name": "pubKeyYparity",
                            "type": "bool"
                        },
                        {
                            "internalType": "address",
                            "name": "lastComplainer",
                            "type": "address"
                        },
                        {
                            "internalType": "uint8",
                            "name": "complains",
                            "type": "uint8"
                        },
                        {
                            "internalType": "string",
                            "name": "host",
                            "type": "string"
                        },
                        {
                            "internalType": "bytes32",
                            "name": "pubKeyX",
                            "type": "bytes32"
                        }
                    ],
                    "internalType": "struct ValidatorRegistry.Validator",
                    "name": "validator",
                    "type": "tuple"
                },
                {
                    "internalType": "bool",
                    "name": "isActive",
                    "type": "bool"
                },
                {
                    "internalType": "bool",
                    "name": "isRegistered",
                    "type": "bool"
                }
            ],
            "stateMutability": "view",
            "type": "function"
        },
        {
            "inputs": [
                {
                    "internalType": "uint256",
                    "name": "offset",
                    "type": "uint256"
                },
                {
                    "internalType": "uint8",
                    "name": "limit",
                    "type": "uint8"
                }
            ],
            "name": "getValidators",
            "outputs": [
                {
                    "internalType": "address[]",
                    "name": "",
                    "type": "address[]"
                }
            ],
            "stateMutability": "view",
            "type": "function"
        },
        {
            "inputs": [
                {
                    "internalType": "contract IERC20",
                    "name": "_token",
                    "type": "address"
                },
                {
                    "internalType": "uint256",
                    "name": "_stakeMinimun",
                    "type": "uint256"
                },
                {
                    "internalType": "uint256",
                    "name": "_stakeRegister",
                    "type": "uint256"
                },
                {
                    "internalType": "uint256",
                    "name": "_punishAmount",
                    "type": "uint256"
                },
                {
                    "internalType": "uint8",
                    "name": "_punishThreshold",
                    "type": "uint8"
                }
            ],
            "name": "initialize",
            "outputs": [],
            "stateMutability": "nonpayable",
            "type": "function"
        },
        {
            "inputs": [],
            "name": "owner",
            "outputs": [
                {
                    "internalType": "address",
                    "name": "",
                    "type": "address"
                }
            ],
            "stateMutability": "view",
            "type": "function"
        },
        {
            "inputs": [],
            "name": "punishAmount",
            "outputs": [
                {
                    "internalType": "uint256",
                    "name": "",
                    "type": "uint256"
                }
            ],
            "stateMutability": "view",
            "type": "function"
        },
        {
            "inputs": [],
            "name": "punishThreshold",
            "outputs": [
                {
                    "internalType": "uint8",
                    "name": "",
                    "type": "uint8"
                }
            ],
            "stateMutability": "view",
            "type": "function"
        },
        {
            "inputs": [],
            "name": "renounceOwnership",
            "outputs": [],
            "stateMutability": "nonpayable",
            "type": "function"
        },
        {
            "inputs": [
                {
                    "internalType": "uint256",
                    "name": "val",
                    "type": "uint256"
                }
            ],
            "name": "setPunishAmount",
            "outputs": [],
            "stateMutability": "nonpayable",
            "type": "function"
        },
        {
            "inputs": [
                {
                    "internalType": "uint8",
                    "name": "val",
                    "type": "uint8"
                }
            ],
            "name": "setPunishThreshold",
            "outputs": [],
            "stateMutability": "nonpayable",
            "type": "function"
        },
        {
            "inputs": [
                {
                    "internalType": "uint256",
                    "name": "val",
                    "type": "uint256"
                }
            ],
            "name": "setStakeMinimum",
            "outputs": [],
            "stateMutability": "nonpayable",
            "type": "function"
        },
        {
            "inputs": [
                {
                    "internalType": "uint256",
                    "name": "val",
                    "type": "uint256"
                }
            ],
            "name": "setStakeRegister",
            "outputs": [],
            "stateMutability": "nonpayable",
            "type": "function"
        },
        {
            "inputs": [],
            "name": "stakeMinimum",
            "outputs": [
                {
                    "internalType": "uint256",
                    "name": "",
                    "type": "uint256"
                }
            ],
            "stateMutability": "view",
            "type": "function"
        },
        {
            "inputs": [],
            "name": "stakeRegister",
            "outputs": [
                {
                    "internalType": "uint256",
                    "name": "",
                    "type": "uint256"
                }
            ],
            "stateMutability": "view",
            "type": "function"
        },
        {
            "inputs": [],
            "name": "token",
            "outputs": [
                {
                    "internalType": "contract IERC20",
                    "name": "",
                    "type": "address"
                }
            ],
            "stateMutability": "view",
            "type": "function"
        },
        {
            "inputs": [],
            "name": "totalStake",
            "outputs": [
                {
                    "internalType": "uint256",
                    "name": "",
                    "type": "uint256"
                }
            ],
            "stateMutability": "view",
            "type": "function"
        },
        {
            "inputs": [
                {
                    "internalType": "address",
                    "name": "newOwner",
                    "type": "address"
                }
            ],
            "name": "transferOwnership",
            "outputs": [],
            "stateMutability": "nonpayable",
            "type": "function"
        },
        {
            "inputs": [
                {
                    "internalType": "address",
                    "name": "addr",
                    "type": "address"
                }
            ],
            "name": "validatorComplain",
            "outputs": [],
            "stateMutability": "nonpayable",
            "type": "function"
        },
        {
            "inputs": [],
            "name": "validatorDeregister",
            "outputs": [],
            "stateMutability": "nonpayable",
            "type": "function"
        },
        {
            "inputs": [
                {
                    "internalType": "uint256",
                    "name": "stake",
                    "type": "uint256"
                },
                {
                    "internalType": "bool",
                    "name": "pubKeyYparity",
                    "type": "bool"
                },
                {
                    "internalType": "bytes32",
                    "name": "pubKeyX",
                    "type": "bytes32"
                },
                {
                    "internalType": "string",
                    "name": "host",
                    "type": "string"
                }
            ],
            "name": "validatorRegister",
            "outputs": [],
            "stateMutability": "nonpayable",
            "type": "function"
        },
        {
            "inputs": [
                {
                    "internalType": "address",
                    "name": "",
                    "type": "address"
                }
            ],
            "name": "validators",
            "outputs": [
                {
                    "internalType": "uint256",
                    "name": "stake",
                    "type": "uint256"
                },
                {
                    "internalType": "address",
                    "name": "addr",
                    "type": "address"
                },
                {
                    "internalType": "bool",
                    "name": "pubKeyYparity",
                    "type": "bool"
                },
                {
                    "internalType": "address",
                    "name": "lastComplainer",
                    "type": "address"
                },
                {
                    "internalType": "uint8",
                    "name": "complains",
                    "type": "uint8"
                },
                {
                    "internalType": "string",
                    "name": "host",
                    "type": "string"
                },
                {
                    "internalType": "bytes32",
                    "name": "pubKeyX",
                    "type": "bytes32"
                }
            ],
            "stateMutability": "view",
            "type": "function"
        },
        {
            "inputs": [],
            "name": "validatorsLength",
            "outputs": [
                {
                    "internalType": "uint256",
                    "name": "",
                    "type": "uint256"
                }
            ],
            "stateMutability": "view",
            "type": "function"
        },
        {
            "inputs": [],
            "name": "withdraw",
            "outputs": [],
            "stateMutability": "nonpayable",
            "type": "function"
        }
    ],
    "bytecode": "0x6080604052348015600f57600080fd5b50611a788061001f6000396000f3fe608060405234801561001057600080fd5b506004361061018e5760003560e01c80638b0e9f3f116100de578063cbdc17cb11610097578063f1105a7e11610071578063f1105a7e1461033c578063f2fde38b14610344578063fa52c7d814610357578063fc0c546a1461037d57600080fd5b8063cbdc17cb14610303578063d3a9cfce14610316578063d864b4991461032957600080fd5b80638b0e9f3f146102735780638da5cb5b1461027c578063941d172e1461029c578063afe3749d146102af578063c9d8d888146102c2578063cb1ea725146102e457600080fd5b80633fa1b5bc1161014b578063715018a611610125578063715018a61461023d57806375bac43014610245578063799268481461024d57806382bdad8f1461026057600080fd5b80633fa1b5bc146102185780634b6904291461022157806358ea7e601461022a57600080fd5b80631904bb2e146101935780631aa25cda146101bc5780631f99c4d6146101d3578063290d263f146101dd5780633b69abbf146101fd5780633ccfd60b14610210575b600080fd5b6101a66101a136600461146b565b610390565b6040516101b39190611546565b60405180910390f35b6101c560035481565b6040519081526020016101b3565b6101db6104ee565b005b6101f06101eb36600461156f565b6105f9565b6040516101b3919061159b565b6101db61020b36600461146b565b610613565b6101db61083e565b6101c560045481565b6101c560025481565b6101db6102383660046115e7565b6108d3565b6101db6108f1565b6101c5610905565b6101db61025b366004611602565b610916565b6101db61026e366004611654565b610a69565b6101c560015481565b610284610a76565b6040516001600160a01b0390911681526020016101b3565b6101db6102aa366004611654565b610aa4565b6101f06102bd36600461156f565b610ab1565b6102d56102d036600461146b565b610ac2565b6040516101b39392919061166d565b6005546102f19060ff1681565b60405160ff90911681526020016101b3565b6101db610311366004611654565b610c2a565b6101db610324366004611697565b610c37565b6101db61033736600461146b565b610da6565b6101c5610e42565b6101db61035236600461146b565b610e4e565b61036a61036536600461146b565b610e8e565b6040516101b39796959493929190611734565b600054610284906001600160a01b031681565b6040805160e08101825260008082526020820181905291810182905260608082018390526080820183905260a082015260c0810182905290806103d284610f69565b91509150806103f45760405163580e542f60e01b815260040160405180910390fd5b6040805160e0810182528354815260018401546001600160a01b03808216602084015260ff600160a01b92839004811615159484019490945260028601549081166060840152049091166080820152600383018054849160a08401916104599061178b565b80601f01602080910402602001604051908101604052809291908181526020018280546104859061178b565b80156104d25780601f106104a7576101008083540402835291602001916104d2565b820191906000526020600020905b8154815290600101906020018083116104b557829003601f168201915b5050505050815260200160048201548152505092505050919050565b336000806104fb83610f69565b915091508061051d5760405163580e542f60e01b815260040160405180910390fd5b610528600784610f90565b50610534600984610f90565b5081546001805482919060009061054c9084906117db565b909155505060008084556001840180546001600160a01b031916905560028401805460ff60a01b19169055604080516020810190915290815260038401906105949082611852565b506002830180546001600160a01b03191690556040516001600160a01b038516907f51407fafe7ef9bec39c65a12a4885a274190991bf1e9057fcc384fc77ff1a7f090600090a26105f3335b6000546001600160a01b03169083610fa5565b50505050565b606061060a60098460ff8516611004565b90505b92915050565b600061061e33610f69565b9150508061063e576040516282b42960e81b815260040160405180910390fd5b6001600160a01b0382163303610666576040516282b42960e81b815260040160405180910390fd5b60008061067284610f69565b91509150806106945760405163580e542f60e01b815260040160405180910390fd5b6002820154336001600160a01b03909116036106c3576040516372b6713d60e11b815260040160405180910390fd5b6002820180546001600160a01b0319163317808255600191906014906106f590849060ff600160a01b90910416611911565b82546101009290920a60ff8181021990931691831602179091556005546002850154908216600160a01b9091049091161090506107fe57815460045411156107595781546001805460009061074b9084906117db565b90915550506000825561078d565b6004546001600082825461076d91906117db565b9091555050600454825483906000906107879084906117db565b90915550505b600254825410156107b45760018201546107b2906009906001600160a01b0316610f90565b505b60028201805460ff60a01b1916905560018201546040516001600160a01b03909116907f8d76dace3eea3177ede619176fca83c0b96fb43118cd8c5423ff5c84fcc5d3ac90600090a25b600182015460405133916001600160a01b0316907f7f26ac01ce8cd2b3ef849663458bd3d70d7ac99342f366677ec965fe4d4617e690600090a350505050565b6108466110c3565b600154600080546040516370a0823160e01b81523060048201529192916001600160a01b03909116906370a0823190602401602060405180830381865afa158015610895573d6000803e3d6000fd5b505050506040513d601f19601f820116820180604052508101906108b9919061192a565b6108c391906117db565b90506108d06105e0610a76565b50565b6108db6110c3565b6005805460ff191660ff92909216919091179055565b6108f96110c3565b61090360006110f5565b565b60006109116009611166565b905090565b7ff0c57e16840df040f15088dc2f81fe391c3923bec73e23a9662efc9c229c6a008054600160401b810460ff16159067ffffffffffffffff1660008115801561095c5750825b905060008267ffffffffffffffff1660011480156109795750303b155b905081158015610987575080155b156109a55760405163f92ee8a960e01b815260040160405180910390fd5b845467ffffffffffffffff1916600117855583156109cf57845460ff60401b1916600160401b1785555b6109d833611170565b600080546001600160a01b0319166001600160a01b038c161790556109fc89610aa4565b610a0588610c2a565b610a0e87610a69565b610a17866108d3565b8315610a5d57845460ff60401b19168555604051600181527fc7f505b2f371ae2175ee4913f4499e1f2633a7b5936321eed1cdaeb6115181d29060200160405180910390a15b50505050505050505050565b610a716110c3565b600455565b7f9016d09d72d40fdae2fd8ceac6b6234c7706214fd39c1cd1e609a0528c199300546001600160a01b031690565b610aac6110c3565b600255565b606061060a60078460ff8516611004565b6040805160e08101825260008082526020820181905291810182905260608082018390526080820183905260a082015260c08101919091526001600160a01b038083166000908152600660209081526040808320815160e0810183528154815260018201548087169482019490945260ff600160a01b948590048116151593820193909352600282015495861660608201529290940416608082015260038301805492938493909160a0840191610b789061178b565b80601f0160208091040260200160405190810160405280929190818152602001828054610ba49061178b565b8015610bf15780601f10610bc657610100808354040283529160200191610bf1565b820191906000526020600020905b815481529060010190602001808311610bd457829003601f168201915b505050918352505060049190910154602091820152600254825191830151929550111592506001600160a01b0316151590509193909250565b610c326110c3565b600355565b33600080610c4483610f69565b9150915080610c9a57600354881015610c70576040516378de4a6960e11b815260040160405180910390fd5b6001820180546001600160a01b0319166001600160a01b038516179055610c98600784611181565b505b60ff841115610cbc576040516316793d2d60e21b815260040160405180910390fd5b60038201610ccb858783611943565b506004820186905560018201805460ff60a01b1916600160a01b89151502179055815488908390600090610d00908490611a03565b925050819055508760016000828254610d199190611a03565b9091555050600254825410610d44576001820154610d42906009906001600160a01b0316611181565b505b60018201546040516001600160a01b03909116907ffa8eaa9a4538bcd66427267278e2c8671fb3145b6ca6b6ac87cf3bd4ae2e066290600090a28715610d9c57610d9c336000546001600160a01b031690308b611196565b5050505050505050565b6000610db182610f69565b509050600254816000015410158015610de157506001810154610ddf906009906001600160a01b03166111cf565b155b15610e05576001810154610e00906009906001600160a01b0316611181565b505050565b6001810154610e1f906009906001600160a01b03166111cf565b15610e3e576001810154610e00906009906001600160a01b0316610f90565b5050565b60006109116007611166565b610e566110c3565b6001600160a01b038116610e8557604051631e4fbdf760e01b8152600060048201526024015b60405180910390fd5b6108d0816110f5565b600660205260009081526040902080546001820154600283015460038401805493946001600160a01b038085169560ff600160a01b9687900481169692861695929092049091169290610ee09061178b565b80601f0160208091040260200160405190810160405280929190818152602001828054610f0c9061178b565b8015610f595780601f10610f2e57610100808354040283529160200191610f59565b820191906000526020600020905b815481529060010190602001808311610f3c57829003601f168201915b5050505050908060040154905087565b6001600160a01b039081166000908152600660205260409020600181015490929116151590565b600061060a836001600160a01b0384166111f1565b6040516001600160a01b03838116602483015260448201839052610e0091859182169063a9059cbb906064015b604051602081830303815290604052915060e01b6020820180516001600160e01b0383818316178352505050506112e4565b6060600061101b61101486611166565b8585611355565b905061102784826117db565b67ffffffffffffffff81111561103f5761103f6117ee565b604051908082528060200260200182016040528015611068578160200160208202803683370190505b509150835b818110156110ba5761107f8682611380565b8361108a87846117db565b8151811061109a5761109a611a16565b6001600160a01b039092166020928302919091019091015260010161106d565b50509392505050565b336110cc610a76565b6001600160a01b0316146109035760405163118cdaa760e01b8152336004820152602401610e7c565b7f9016d09d72d40fdae2fd8ceac6b6234c7706214fd39c1cd1e609a0528c19930080546001600160a01b031981166001600160a01b03848116918217845560405192169182907f8be0079c531659141344cd1fd0a4f28419497f9722a3daafe3b4186f6b6457e090600090a3505050565b600061060d825490565b61117861138c565b6108d0816113d5565b600061060a836001600160a01b0384166113dd565b6040516001600160a01b0384811660248301528381166044830152606482018390526105f39186918216906323b872dd90608401610fd2565b6001600160a01b0381166000908152600183016020526040812054151561060a565b600081815260018301602052604081205480156112da5760006112156001836117db565b8554909150600090611229906001906117db565b905080821461128e57600086600001828154811061124957611249611a16565b906000526020600020015490508087600001848154811061126c5761126c611a16565b6000918252602080832090910192909255918252600188019052604090208390555b855486908061129f5761129f611a2c565b60019003818190600052602060002001600090559055856001016000868152602001908152602001600020600090556001935050505061060d565b600091505061060d565b600080602060008451602086016000885af180611307576040513d6000823e3d81fd5b50506000513d9150811561131f57806001141561132c565b6001600160a01b0384163b155b156105f357604051635274afe760e01b81526001600160a01b0385166004820152602401610e7c565b60006113618284611a03565b90508381111561136e5750825b808311156113795750815b9392505050565b600061060a838361142c565b7ff0c57e16840df040f15088dc2f81fe391c3923bec73e23a9662efc9c229c6a0054600160401b900460ff1661090357604051631afcd79f60e31b815260040160405180910390fd5b610e5661138c565b60008181526001830160205260408120546114245750815460018181018455600084815260208082209093018490558454848252828601909352604090209190915561060d565b50600061060d565b600082600001828154811061144357611443611a16565b9060005260206000200154905092915050565b6001600160a01b03811681146108d057600080fd5b60006020828403121561147d57600080fd5b813561137981611456565b6000815180845260005b818110156114ae57602081850181015186830182015201611492565b506000602082860101526020601f19601f83011685010191505092915050565b8051825260018060a01b03602082015116602083015260408101511515604083015260018060a01b03606082015116606083015260006080820151611518608085018260ff169052565b5060a082015160e060a085015261153260e0850182611488565b60c093840151949093019390935250919050565b60208152600061060a60208301846114ce565b803560ff8116811461156a57600080fd5b919050565b6000806040838503121561158257600080fd5b8235915061159260208401611559565b90509250929050565b602080825282518282018190526000918401906040840190835b818110156115dc5783516001600160a01b03168352602093840193909201916001016115b5565b509095945050505050565b6000602082840312156115f957600080fd5b61060a82611559565b600080600080600060a0868803121561161a57600080fd5b853561162581611456565b945060208601359350604086013592506060860135915061164860808701611559565b90509295509295909350565b60006020828403121561166657600080fd5b5035919050565b60608152600061168060608301866114ce565b931515602083015250901515604090910152919050565b6000806000806000608086880312156116af57600080fd5b85359450602086013580151581146116c657600080fd5b935060408601359250606086013567ffffffffffffffff8111156116e957600080fd5b8601601f810188136116fa57600080fd5b803567ffffffffffffffff81111561171157600080fd5b88602082840101111561172357600080fd5b959894975092955050506020019190565b8781526001600160a01b03878116602083015286151560408301528516606082015260ff8416608082015260e060a0820181905260009061177790830185611488565b90508260c083015298975050505050505050565b600181811c9082168061179f57607f821691505b6020821081036117bf57634e487b7160e01b600052602260045260246000fd5b50919050565b634e487b7160e01b600052601160045260246000fd5b8181038181111561060d5761060d6117c5565b634e487b7160e01b600052604160045260246000fd5b601f821115610e0057806000526020600020601f840160051c8101602085101561182b5750805b601f840160051c820191505b8181101561184b5760008155600101611837565b5050505050565b815167ffffffffffffffff81111561186c5761186c6117ee565b6118808161187a845461178b565b84611804565b6020601f8211600181146118b4576000831561189c5750848201515b600019600385901b1c1916600184901b17845561184b565b600084815260208120601f198516915b828110156118e457878501518255602094850194600190920191016118c4565b50848210156119025786840151600019600387901b60f8161c191681555b50505050600190811b01905550565b60ff818116838216019081111561060d5761060d6117c5565b60006020828403121561193c57600080fd5b5051919050565b67ffffffffffffffff83111561195b5761195b6117ee565b61196f83611969835461178b565b83611804565b6000601f8411600181146119a3576000851561198b5750838201355b600019600387901b1c1916600186901b17835561184b565b600083815260209020601f19861690835b828110156119d457868501358255602094850194600190920191016119b4565b50868210156119f15760001960f88860031b161c19848701351681555b505060018560011b0183555050505050565b8082018082111561060d5761060d6117c5565b634e487b7160e01b600052603260045260246000fd5b634e487b7160e01b600052603160045260246000fdfea2646970667358221220a9cd738d81e3b872b7d87364badd45b751341542c41bd42aedc23aaf0499b2b264736f6c634300081a0033",
    "linkReferences": {},
    "deployedLinkReferences": {}
}