{
    "_format": "hh-sol-artifact-1",
    "contractName": "ValidatorRegistry",
    "sourceName": "contracts/validator-registry/ValidatorRegistry.sol",
    "abi": [
        {
            "inputs": [],
            "stateMutability": "nonpayable",
            "type": "constructor"
        },
        {
            "inputs": [
                {
                    "internalType": "address",
                    "name": "target",
                    "type": "address"
                }
            ],
            "name": "AddressEmptyCode",
            "type": "error"
        },
        {
            "inputs": [],
            "name": "AlreadyComplained",
            "type": "error"
        },
        {
            "inputs": [
                {
                    "internalType": "address",
                    "name": "implementation",
                    "type": "address"
                }
            ],
            "name": "ERC1967InvalidImplementation",
            "type": "error"
        },
        {
            "inputs": [],
            "name": "ERC1967NonPayable",
            "type": "error"
        },
        {
            "inputs": [],
            "name": "FailedCall",
            "type": "error"
        },
        {
            "inputs": [],
            "name": "HostTooLong",
            "type": "error"
        },
        {
            "inputs": [],
            "name": "InsufficientStake",
            "type": "error"
        },
        {
            "inputs": [],
            "name": "InvalidInitialization",
            "type": "error"
        },
        {
            "inputs": [],
            "name": "NotInitializing",
            "type": "error"
        },
        {
            "inputs": [
                {
                    "internalType": "address",
                    "name": "owner",
                    "type": "address"
                }
            ],
            "name": "OwnableInvalidOwner",
            "type": "error"
        },
        {
            "inputs": [
                {
                    "internalType": "address",
                    "name": "account",
                    "type": "address"
                }
            ],
            "name": "OwnableUnauthorizedAccount",
            "type": "error"
        },
        {
            "inputs": [
                {
                    "internalType": "address",
                    "name": "token",
                    "type": "address"
                }
            ],
            "name": "SafeERC20FailedOperation",
            "type": "error"
        },
        {
            "inputs": [],
            "name": "UUPSUnauthorizedCallContext",
            "type": "error"
        },
        {
            "inputs": [
                {
                    "internalType": "bytes32",
                    "name": "slot",
                    "type": "bytes32"
                }
            ],
            "name": "UUPSUnsupportedProxiableUUID",
            "type": "error"
        },
        {
            "inputs": [],
            "name": "Unauthorized",
            "type": "error"
        },
        {
            "inputs": [],
            "name": "ValidatorNotFound",
            "type": "error"
        },
        {
            "anonymous": false,
            "inputs": [
                {
                    "indexed": false,
                    "internalType": "uint64",
                    "name": "version",
                    "type": "uint64"
                }
            ],
            "name": "Initialized",
            "type": "event"
        },
        {
            "anonymous": false,
            "inputs": [
                {
                    "indexed": true,
                    "internalType": "address",
                    "name": "previousOwner",
                    "type": "address"
                },
                {
                    "indexed": true,
                    "internalType": "address",
                    "name": "newOwner",
                    "type": "address"
                }
            ],
            "name": "OwnershipTransferred",
            "type": "event"
        },
        {
            "anonymous": false,
            "inputs": [
                {
                    "indexed": true,
                    "internalType": "address",
                    "name": "implementation",
                    "type": "address"
                }
            ],
            "name": "Upgraded",
            "type": "event"
        },
        {
            "anonymous": false,
            "inputs": [
                {
                    "indexed": true,
                    "internalType": "address",
                    "name": "validator",
                    "type": "address"
                },
                {
                    "indexed": true,
                    "internalType": "address",
                    "name": "complainer",
                    "type": "address"
                }
            ],
            "name": "ValidatorComplain",
            "type": "event"
        },
        {
            "anonymous": false,
            "inputs": [
                {
                    "indexed": true,
                    "internalType": "address",
                    "name": "validator",
                    "type": "address"
                }
            ],
            "name": "ValidatorDeregistered",
            "type": "event"
        },
        {
            "anonymous": false,
            "inputs": [
                {
                    "indexed": true,
                    "internalType": "address",
                    "name": "validator",
                    "type": "address"
                }
            ],
            "name": "ValidatorPunished",
            "type": "event"
        },
        {
            "anonymous": false,
            "inputs": [
                {
                    "indexed": true,
                    "internalType": "address",
                    "name": "validator",
                    "type": "address"
                }
            ],
            "name": "ValidatorRegisteredUpdated",
            "type": "event"
        },
        {
            "inputs": [],
            "name": "UPGRADE_INTERFACE_VERSION",
            "outputs": [
                {
                    "internalType": "string",
                    "name": "",
                    "type": "string"
                }
            ],
            "stateMutability": "view",
            "type": "function"
        },
        {
            "inputs": [],
            "name": "VERSION",
            "outputs": [
                {
                    "internalType": "string",
                    "name": "",
                    "type": "string"
                }
            ],
            "stateMutability": "view",
            "type": "function"
        },
        {
            "inputs": [],
            "name": "activeValidatorsLength",
            "outputs": [
                {
                    "internalType": "uint256",
                    "name": "",
                    "type": "uint256"
                }
            ],
            "stateMutability": "view",
            "type": "function"
        },
        {
            "inputs": [
                {
                    "internalType": "address",
                    "name": "validator",
                    "type": "address"
                }
            ],
            "name": "forceUpdateActive",
            "outputs": [],
            "stateMutability": "nonpayable",
            "type": "function"
        },
        {
            "inputs": [
                {
                    "internalType": "uint256",
                    "name": "offset",
                    "type": "uint256"
                },
                {
                    "internalType": "uint8",
                    "name": "limit",
                    "type": "uint8"
                }
            ],
            "name": "getActiveValidators",
            "outputs": [
                {
                    "internalType": "address[]",
                    "name": "",
                    "type": "address[]"
                }
            ],
            "stateMutability": "view",
            "type": "function"
        },
        {
            "inputs": [
                {
                    "internalType": "address",
                    "name": "addr",
                    "type": "address"
                }
            ],
            "name": "getValidator",
            "outputs": [
                {
                    "components": [
                        {
                            "internalType": "uint256",
                            "name": "stake",
                            "type": "uint256"
                        },
                        {
                            "internalType": "address",
                            "name": "addr",
                            "type": "address"
                        },
                        {
                            "internalType": "bool",
                            "name": "pubKeyYparity",
                            "type": "bool"
                        },
                        {
                            "internalType": "address",
                            "name": "lastComplainer",
                            "type": "address"
                        },
                        {
                            "internalType": "uint8",
                            "name": "complains",
                            "type": "uint8"
                        },
                        {
                            "internalType": "string",
                            "name": "host",
                            "type": "string"
                        },
                        {
                            "internalType": "bytes32",
                            "name": "pubKeyX",
                            "type": "bytes32"
                        }
                    ],
                    "internalType": "struct ValidatorRegistry.Validator",
                    "name": "",
                    "type": "tuple"
                }
            ],
            "stateMutability": "view",
            "type": "function"
        },
        {
            "inputs": [
                {
                    "internalType": "address",
                    "name": "addr",
                    "type": "address"
                }
            ],
            "name": "getValidatorV2",
            "outputs": [
                {
                    "components": [
                        {
                            "internalType": "uint256",
                            "name": "stake",
                            "type": "uint256"
                        },
                        {
                            "internalType": "address",
                            "name": "addr",
                            "type": "address"
                        },
                        {
                            "internalType": "bool",
                            "name": "pubKeyYparity",
                            "type": "bool"
                        },
                        {
                            "internalType": "address",
                            "name": "lastComplainer",
                            "type": "address"
                        },
                        {
                            "internalType": "uint8",
                            "name": "complains",
                            "type": "uint8"
                        },
                        {
                            "internalType": "string",
                            "name": "host",
                            "type": "string"
                        },
                        {
                            "internalType": "bytes32",
                            "name": "pubKeyX",
                            "type": "bytes32"
                        }
                    ],
                    "internalType": "struct ValidatorRegistry.Validator",
                    "name": "validator",
                    "type": "tuple"
                },
                {
                    "internalType": "bool",
                    "name": "isActive",
                    "type": "bool"
                },
                {
                    "internalType": "bool",
                    "name": "isRegistered",
                    "type": "bool"
                }
            ],
            "stateMutability": "view",
            "type": "function"
        },
        {
            "inputs": [
                {
                    "internalType": "uint256",
                    "name": "offset",
                    "type": "uint256"
                },
                {
                    "internalType": "uint8",
                    "name": "limit",
                    "type": "uint8"
                }
            ],
            "name": "getValidators",
            "outputs": [
                {
                    "internalType": "address[]",
                    "name": "",
                    "type": "address[]"
                }
            ],
            "stateMutability": "view",
            "type": "function"
        },
        {
            "inputs": [
                {
                    "internalType": "contract IERC20",
                    "name": "_token",
                    "type": "address"
                },
                {
                    "internalType": "uint256",
                    "name": "_stakeMinimun",
                    "type": "uint256"
                },
                {
                    "internalType": "uint256",
                    "name": "_stakeRegister",
                    "type": "uint256"
                },
                {
                    "internalType": "uint256",
                    "name": "_punishAmount",
                    "type": "uint256"
                },
                {
                    "internalType": "uint8",
                    "name": "_punishThreshold",
                    "type": "uint8"
                }
            ],
            "name": "initialize",
            "outputs": [],
            "stateMutability": "nonpayable",
            "type": "function"
        },
        {
            "inputs": [],
            "name": "owner",
            "outputs": [
                {
                    "internalType": "address",
                    "name": "",
                    "type": "address"
                }
            ],
            "stateMutability": "view",
            "type": "function"
        },
        {
            "inputs": [],
            "name": "proxiableUUID",
            "outputs": [
                {
                    "internalType": "bytes32",
                    "name": "",
                    "type": "bytes32"
                }
            ],
            "stateMutability": "view",
            "type": "function"
        },
        {
            "inputs": [],
            "name": "punishAmount",
            "outputs": [
                {
                    "internalType": "uint256",
                    "name": "",
                    "type": "uint256"
                }
            ],
            "stateMutability": "view",
            "type": "function"
        },
        {
            "inputs": [],
            "name": "punishThreshold",
            "outputs": [
                {
                    "internalType": "uint8",
                    "name": "",
                    "type": "uint8"
                }
            ],
            "stateMutability": "view",
            "type": "function"
        },
        {
            "inputs": [],
            "name": "renounceOwnership",
            "outputs": [],
            "stateMutability": "nonpayable",
            "type": "function"
        },
        {
            "inputs": [
                {
                    "internalType": "uint256",
                    "name": "val",
                    "type": "uint256"
                }
            ],
            "name": "setPunishAmount",
            "outputs": [],
            "stateMutability": "nonpayable",
            "type": "function"
        },
        {
            "inputs": [
                {
                    "internalType": "uint8",
                    "name": "val",
                    "type": "uint8"
                }
            ],
            "name": "setPunishThreshold",
            "outputs": [],
            "stateMutability": "nonpayable",
            "type": "function"
        },
        {
            "inputs": [
                {
                    "internalType": "uint256",
                    "name": "val",
                    "type": "uint256"
                }
            ],
            "name": "setStakeMinimum",
            "outputs": [],
            "stateMutability": "nonpayable",
            "type": "function"
        },
        {
            "inputs": [
                {
                    "internalType": "uint256",
                    "name": "val",
                    "type": "uint256"
                }
            ],
            "name": "setStakeRegister",
            "outputs": [],
            "stateMutability": "nonpayable",
            "type": "function"
        },
        {
            "inputs": [],
            "name": "stakeMinimum",
            "outputs": [
                {
                    "internalType": "uint256",
                    "name": "",
                    "type": "uint256"
                }
            ],
            "stateMutability": "view",
            "type": "function"
        },
        {
            "inputs": [],
            "name": "stakeRegister",
            "outputs": [
                {
                    "internalType": "uint256",
                    "name": "",
                    "type": "uint256"
                }
            ],
            "stateMutability": "view",
            "type": "function"
        },
        {
            "inputs": [],
            "name": "token",
            "outputs": [
                {
                    "internalType": "contract IERC20",
                    "name": "",
                    "type": "address"
                }
            ],
            "stateMutability": "view",
            "type": "function"
        },
        {
            "inputs": [],
            "name": "totalStake",
            "outputs": [
                {
                    "internalType": "uint256",
                    "name": "",
                    "type": "uint256"
                }
            ],
            "stateMutability": "view",
            "type": "function"
        },
        {
            "inputs": [
                {
                    "internalType": "address",
                    "name": "newOwner",
                    "type": "address"
                }
            ],
            "name": "transferOwnership",
            "outputs": [],
            "stateMutability": "nonpayable",
            "type": "function"
        },
        {
            "inputs": [
                {
                    "internalType": "address",
                    "name": "newImplementation",
                    "type": "address"
                },
                {
                    "internalType": "bytes",
                    "name": "data",
                    "type": "bytes"
                }
            ],
            "name": "upgradeToAndCall",
            "outputs": [],
            "stateMutability": "payable",
            "type": "function"
        },
        {
            "inputs": [
                {
                    "internalType": "address",
                    "name": "addr",
                    "type": "address"
                }
            ],
            "name": "validatorComplain",
            "outputs": [],
            "stateMutability": "nonpayable",
            "type": "function"
        },
        {
            "inputs": [],
            "name": "validatorDeregister",
            "outputs": [],
            "stateMutability": "nonpayable",
            "type": "function"
        },
        {
            "inputs": [
                {
                    "internalType": "uint256",
                    "name": "stake",
                    "type": "uint256"
                },
                {
                    "internalType": "bool",
                    "name": "pubKeyYparity",
                    "type": "bool"
                },
                {
                    "internalType": "bytes32",
                    "name": "pubKeyX",
                    "type": "bytes32"
                },
                {
                    "internalType": "string",
                    "name": "host",
                    "type": "string"
                }
            ],
            "name": "validatorRegister",
            "outputs": [],
            "stateMutability": "nonpayable",
            "type": "function"
        },
        {
            "inputs": [
                {
                    "internalType": "address",
                    "name": "",
                    "type": "address"
                }
            ],
            "name": "validators",
            "outputs": [
                {
                    "internalType": "uint256",
                    "name": "stake",
                    "type": "uint256"
                },
                {
                    "internalType": "address",
                    "name": "addr",
                    "type": "address"
                },
                {
                    "internalType": "bool",
                    "name": "pubKeyYparity",
                    "type": "bool"
                },
                {
                    "internalType": "address",
                    "name": "lastComplainer",
                    "type": "address"
                },
                {
                    "internalType": "uint8",
                    "name": "complains",
                    "type": "uint8"
                },
                {
                    "internalType": "string",
                    "name": "host",
                    "type": "string"
                },
                {
                    "internalType": "bytes32",
                    "name": "pubKeyX",
                    "type": "bytes32"
                }
            ],
            "stateMutability": "view",
            "type": "function"
        },
        {
            "inputs": [],
            "name": "validatorsLength",
            "outputs": [
                {
                    "internalType": "uint256",
                    "name": "",
                    "type": "uint256"
                }
            ],
            "stateMutability": "view",
            "type": "function"
        },
        {
            "inputs": [],
            "name": "withdraw",
            "outputs": [],
            "stateMutability": "nonpayable",
            "type": "function"
        }
    ],
    "bytecode": "0x60a06040523060805234801561001457600080fd5b5061001d610022565b6100d4565b7ff0c57e16840df040f15088dc2f81fe391c3923bec73e23a9662efc9c229c6a00805468010000000000000000900460ff16156100725760405163f92ee8a960e01b815260040160405180910390fd5b80546001600160401b03908116146100d15780546001600160401b0319166001600160401b0390811782556040519081527fc7f505b2f371ae2175ee4913f4499e1f2633a7b5936321eed1cdaeb6115181d29060200160405180910390a15b50565b6080516121646100fd6000396000818161133f0152818161136801526114a901526121646000f3fe6080604052600436106101cd5760003560e01c80638b0e9f3f116100f7578063cbdc17cb11610095578063f2fde38b11610064578063f2fde38b14610514578063fa52c7d814610534578063fc0c546a14610567578063ffa1ad741461058757600080fd5b8063cbdc17cb1461049f578063d3a9cfce146104bf578063d864b499146104df578063f1105a7e146104ff57600080fd5b8063ad3cb1cc116100d1578063ad3cb1cc146103e6578063afe3749d14610424578063c9d8d88814610444578063cb1ea7251461047357600080fd5b80638b0e9f3f146103835780638da5cb5b14610399578063941d172e146103c657600080fd5b80634b6904291161016f578063715018a61161013e578063715018a61461031957806375bac4301461032e578063799268481461034357806382bdad8f1461036357600080fd5b80634b690429146102bb5780634f1ef286146102d157806352d1902d146102e457806358ea7e60146102f957600080fd5b8063290d263f116101ab578063290d263f146102435780633b69abbf146102705780633ccfd60b146102905780633fa1b5bc146102a557600080fd5b80631904bb2e146101d25780631aa25cda146102085780631f99c4d61461022c575b600080fd5b3480156101de57600080fd5b506101f26101ed366004611a32565b6105b8565b6040516101ff9190611b17565b60405180910390f35b34801561021457600080fd5b5061021e60035481565b6040519081526020016101ff565b34801561023857600080fd5b50610241610716565b005b34801561024f57600080fd5b5061026361025e366004611b40565b610800565b6040516101ff9190611b6c565b34801561027c57600080fd5b5061024161028b366004611a32565b61081a565b34801561029c57600080fd5b50610241610a45565b3480156102b157600080fd5b5061021e60045481565b3480156102c757600080fd5b5061021e60025481565b6102416102df366004611bce565b610ada565b3480156102f057600080fd5b5061021e610af9565b34801561030557600080fd5b50610241610314366004611c9a565b610b16565b34801561032557600080fd5b50610241610b34565b34801561033a57600080fd5b5061021e610b48565b34801561034f57600080fd5b5061024161035e366004611cb5565b610b59565b34801561036f57600080fd5b5061024161037e366004611d07565b610cac565b34801561038f57600080fd5b5061021e60015481565b3480156103a557600080fd5b506103ae610cb9565b6040516001600160a01b0390911681526020016101ff565b3480156103d257600080fd5b506102416103e1366004611d07565b610ce7565b3480156103f257600080fd5b50610417604051806040016040528060058152602001640352e302e360dc1b81525081565b6040516101ff9190611d20565b34801561043057600080fd5b5061026361043f366004611b40565b610cf4565b34801561045057600080fd5b5061046461045f366004611a32565b610d05565b6040516101ff93929190611d33565b34801561047f57600080fd5b5060055461048d9060ff1681565b60405160ff90911681526020016101ff565b3480156104ab57600080fd5b506102416104ba366004611d07565b610e6d565b3480156104cb57600080fd5b506102416104da366004611d5d565b610e7a565b3480156104eb57600080fd5b506102416104fa366004611a32565b610fe9565b34801561050b57600080fd5b5061021e611081565b34801561052057600080fd5b5061024161052f366004611a32565b61108d565b34801561054057600080fd5b5061055461054f366004611a32565b6110cd565b6040516101ff9796959493929190611dfa565b34801561057357600080fd5b506000546103ae906001600160a01b031681565b34801561059357600080fd5b5061041760405180604001604052806005815260200164322e302e3760d81b81525081565b6040805160e08101825260008082526020820181905291810182905260608082018390526080820183905260a082015260c0810182905290806105fa846111a8565b915091508061061c5760405163580e542f60e01b815260040160405180910390fd5b6040805160e0810182528354815260018401546001600160a01b03808216602084015260ff600160a01b92839004811615159484019490945260028601549081166060840152049091166080820152600383018054849160a084019161068190611e51565b80601f01602080910402602001604051908101604052809291908181526020018280546106ad90611e51565b80156106fa5780601f106106cf576101008083540402835291602001916106fa565b820191906000526020600020905b8154815290600101906020018083116106dd57829003601f168201915b5050505050815260200160048201548152505092505050919050565b33600080610723836111a8565b91509150806107455760405163580e542f60e01b815260040160405180910390fd5b6107506007846111cf565b5061075c6009846111cf565b50815460018054829190600090610774908490611ea1565b909155505060008084556001840180546001600160a01b0319169055604080516020810190915290815260038401906107ad9082611f02565b506040516001600160a01b038516907f51407fafe7ef9bec39c65a12a4885a274190991bf1e9057fcc384fc77ff1a7f090600090a26107fa335b6000546001600160a01b031690836111e4565b50505050565b606061081160098460ff8516611243565b90505b92915050565b6000610825336111a8565b91505080610845576040516282b42960e81b815260040160405180910390fd5b6001600160a01b038216330361086d576040516282b42960e81b815260040160405180910390fd5b600080610879846111a8565b915091508061089b5760405163580e542f60e01b815260040160405180910390fd5b6002820154336001600160a01b03909116036108ca576040516372b6713d60e11b815260040160405180910390fd5b6002820180546001600160a01b0319163317808255600191906014906108fc90849060ff600160a01b90910416611fc1565b82546101009290920a60ff8181021990931691831602179091556005546002850154908216600160a01b909104909116109050610a05578154600454111561096057815460018054600090610952908490611ea1565b909155505060008255610994565b600454600160008282546109749190611ea1565b90915550506004548254839060009061098e908490611ea1565b90915550505b600254825410156109bb5760018201546109b9906009906001600160a01b03166111cf565b505b60028201805460ff60a01b1916905560018201546040516001600160a01b03909116907f8d76dace3eea3177ede619176fca83c0b96fb43118cd8c5423ff5c84fcc5d3ac90600090a25b600182015460405133916001600160a01b0316907f7f26ac01ce8cd2b3ef849663458bd3d70d7ac99342f366677ec965fe4d4617e690600090a350505050565b610a4d611302565b600154600080546040516370a0823160e01b81523060048201529192916001600160a01b03909116906370a0823190602401602060405180830381865afa158015610a9c573d6000803e3d6000fd5b505050506040513d601f19601f82011682018060405250810190610ac09190611fda565b610aca9190611ea1565b9050610ad76107e7610cb9565b50565b610ae2611334565b610aeb826113d9565b610af582826113e1565b5050565b6000610b0361149e565b5060008051602061210f83398151915290565b610b1e611302565b6005805460ff191660ff92909216919091179055565b610b3c611302565b610b4660006114e7565b565b6000610b546009611558565b905090565b7ff0c57e16840df040f15088dc2f81fe391c3923bec73e23a9662efc9c229c6a008054600160401b810460ff16159067ffffffffffffffff16600081158015610b9f5750825b905060008267ffffffffffffffff166001148015610bbc5750303b155b905081158015610bca575080155b15610be85760405163f92ee8a960e01b815260040160405180910390fd5b845467ffffffffffffffff191660011785558315610c1257845460ff60401b1916600160401b1785555b610c1b33611562565b600080546001600160a01b0319166001600160a01b038c16179055610c3f89610ce7565b610c4888610e6d565b610c5187610cac565b610c5a86610b16565b8315610ca057845460ff60401b19168555604051600181527fc7f505b2f371ae2175ee4913f4499e1f2633a7b5936321eed1cdaeb6115181d29060200160405180910390a15b50505050505050505050565b610cb4611302565b600455565b7f9016d09d72d40fdae2fd8ceac6b6234c7706214fd39c1cd1e609a0528c199300546001600160a01b031690565b610cef611302565b600255565b606061081160078460ff8516611243565b6040805160e08101825260008082526020820181905291810182905260608082018390526080820183905260a082015260c08101919091526001600160a01b038083166000908152600660209081526040808320815160e0810183528154815260018201548087169482019490945260ff600160a01b948590048116151593820193909352600282015495861660608201529290940416608082015260038301805492938493909160a0840191610dbb90611e51565b80601f0160208091040260200160405190810160405280929190818152602001828054610de790611e51565b8015610e345780601f10610e0957610100808354040283529160200191610e34565b820191906000526020600020905b815481529060010190602001808311610e1757829003601f168201915b505050918352505060049190910154602091820152600254825191830151929550111592506001600160a01b0316151590509193909250565b610e75611302565b600355565b33600080610e87836111a8565b9150915080610edd57600354881015610eb3576040516378de4a6960e11b815260040160405180910390fd5b6001820180546001600160a01b0319166001600160a01b038516179055610edb600784611573565b505b60ff841115610eff576040516316793d2d60e21b815260040160405180910390fd5b60038201610f0e858783611ff3565b506004820186905560018201805460ff60a01b1916600160a01b89151502179055815488908390600090610f439084906120b3565b925050819055508760016000828254610f5c91906120b3565b9091555050600254825410610f87576001820154610f85906009906001600160a01b0316611573565b505b60018201546040516001600160a01b03909116907ffa8eaa9a4538bcd66427267278e2c8671fb3145b6ca6b6ac87cf3bd4ae2e066290600090a28715610fdf57610fdf336000546001600160a01b031690308b611588565b5050505050505050565b6000610ff4826111a8565b50905060025481600001541015801561102457506001810154611022906009906001600160a01b03166115c1565b155b15611048576001810154611043906009906001600160a01b0316611573565b505050565b6001810154611062906009906001600160a01b03166115c1565b15610af5576001810154611043906009906001600160a01b03166111cf565b6000610b546007611558565b611095611302565b6001600160a01b0381166110c457604051631e4fbdf760e01b8152600060048201526024015b60405180910390fd5b610ad7816114e7565b600660205260009081526040902080546001820154600283015460038401805493946001600160a01b038085169560ff600160a01b968790048116969286169592909204909116929061111f90611e51565b80601f016020809104026020016040519081016040528092919081815260200182805461114b90611e51565b80156111985780601f1061116d57610100808354040283529160200191611198565b820191906000526020600020905b81548152906001019060200180831161117b57829003601f168201915b5050505050908060040154905087565b6001600160a01b039081166000908152600660205260409020600181015490929116151590565b6000610811836001600160a01b0384166115e3565b6040516001600160a01b0383811660248301526044820183905261104391859182169063a9059cbb906064015b604051602081830303815290604052915060e01b6020820180516001600160e01b0383818316178352505050506116d6565b6060600061125a61125386611558565b8585611747565b90506112668482611ea1565b67ffffffffffffffff81111561127e5761127e611bb8565b6040519080825280602002602001820160405280156112a7578160200160208202803683370190505b509150835b818110156112f9576112be8682611772565b836112c98784611ea1565b815181106112d9576112d96120c6565b6001600160a01b03909216602092830291909101909101526001016112ac565b50509392505050565b3361130b610cb9565b6001600160a01b031614610b465760405163118cdaa760e01b81523360048201526024016110bb565b306001600160a01b037f00000000000000000000000000000000000000000000000000000000000000001614806113bb57507f00000000000000000000000000000000000000000000000000000000000000006001600160a01b03166113af60008051602061210f833981519152546001600160a01b031690565b6001600160a01b031614155b15610b465760405163703e46dd60e11b815260040160405180910390fd5b610ad7611302565b816001600160a01b03166352d1902d6040518163ffffffff1660e01b8152600401602060405180830381865afa92505050801561143b575060408051601f3d908101601f1916820190925261143891810190611fda565b60015b61146357604051634c9c8ce360e01b81526001600160a01b03831660048201526024016110bb565b60008051602061210f833981519152811461149457604051632a87526960e21b8152600481018290526024016110bb565b611043838361177e565b306001600160a01b037f00000000000000000000000000000000000000000000000000000000000000001614610b465760405163703e46dd60e11b815260040160405180910390fd5b7f9016d09d72d40fdae2fd8ceac6b6234c7706214fd39c1cd1e609a0528c19930080546001600160a01b031981166001600160a01b03848116918217845560405192169182907f8be0079c531659141344cd1fd0a4f28419497f9722a3daafe3b4186f6b6457e090600090a3505050565b6000610814825490565b61156a6117d4565b610ad78161181d565b6000610811836001600160a01b038416611825565b6040516001600160a01b0384811660248301528381166044830152606482018390526107fa9186918216906323b872dd90608401611211565b6001600160a01b03811660009081526001830160205260408120541515610811565b600081815260018301602052604081205480156116cc576000611607600183611ea1565b855490915060009061161b90600190611ea1565b905080821461168057600086600001828154811061163b5761163b6120c6565b906000526020600020015490508087600001848154811061165e5761165e6120c6565b6000918252602080832090910192909255918252600188019052604090208390555b8554869080611691576116916120dc565b600190038181906000526020600020016000905590558560010160008681526020019081526020016000206000905560019350505050610814565b6000915050610814565b600080602060008451602086016000885af1806116f9576040513d6000823e3d81fd5b50506000513d9150811561171157806001141561171e565b6001600160a01b0384163b155b156107fa57604051635274afe760e01b81526001600160a01b03851660048201526024016110bb565b600061175382846120b3565b9050838111156117605750825b8083111561176b5750815b9392505050565b60006108118383611874565b6117878261189e565b6040516001600160a01b038316907fbc7cd75a20ee27fd9adebab32041f755214dbc6bffa90cc0225b39da2e5c2d3b90600090a28051156117cc576110438282611903565b610af5611979565b7ff0c57e16840df040f15088dc2f81fe391c3923bec73e23a9662efc9c229c6a0054600160401b900460ff16610b4657604051631afcd79f60e31b815260040160405180910390fd5b6110956117d4565b600081815260018301602052604081205461186c57508154600181810184556000848152602080822090930184905584548482528286019093526040902091909155610814565b506000610814565b600082600001828154811061188b5761188b6120c6565b9060005260206000200154905092915050565b806001600160a01b03163b6000036118d457604051634c9c8ce360e01b81526001600160a01b03821660048201526024016110bb565b60008051602061210f83398151915280546001600160a01b0319166001600160a01b0392909216919091179055565b6060600080846001600160a01b03168460405161192091906120f2565b600060405180830381855af49150503d806000811461195b576040519150601f19603f3d011682016040523d82523d6000602084013e611960565b606091505b5091509150611970858383611998565b95945050505050565b3415610b465760405163b398979f60e01b815260040160405180910390fd5b6060826119ad576119a8826119f4565b61176b565b81511580156119c457506001600160a01b0384163b155b156119ed57604051639996b31560e01b81526001600160a01b03851660048201526024016110bb565b508061176b565b805115611a045780518082602001fd5b60405163d6bda27560e01b815260040160405180910390fd5b6001600160a01b0381168114610ad757600080fd5b600060208284031215611a4457600080fd5b813561176b81611a1d565b60005b83811015611a6a578181015183820152602001611a52565b50506000910152565b60008151808452611a8b816020860160208601611a4f565b601f01601f19169290920160200192915050565b8051825260018060a01b03602082015116602083015260408101511515604083015260018060a01b03606082015116606083015260006080820151611ae9608085018260ff169052565b5060a082015160e060a0850152611b0360e0850182611a73565b60c093840151949093019390935250919050565b6020815260006108116020830184611a9f565b803560ff81168114611b3b57600080fd5b919050565b60008060408385031215611b5357600080fd5b82359150611b6360208401611b2a565b90509250929050565b602080825282518282018190526000918401906040840190835b81811015611bad5783516001600160a01b0316835260209384019390920191600101611b86565b509095945050505050565b634e487b7160e01b600052604160045260246000fd5b60008060408385031215611be157600080fd5b8235611bec81611a1d565b9150602083013567ffffffffffffffff811115611c0857600080fd5b8301601f81018513611c1957600080fd5b803567ffffffffffffffff811115611c3357611c33611bb8565b604051601f8201601f19908116603f0116810167ffffffffffffffff81118282101715611c6257611c62611bb8565b604052818152828201602001871015611c7a57600080fd5b816020840160208301376000602083830101528093505050509250929050565b600060208284031215611cac57600080fd5b61081182611b2a565b600080600080600060a08688031215611ccd57600080fd5b8535611cd881611a1d565b9450602086013593506040860135925060608601359150611cfb60808701611b2a565b90509295509295909350565b600060208284031215611d1957600080fd5b5035919050565b6020815260006108116020830184611a73565b606081526000611d466060830186611a9f565b931515602083015250901515604090910152919050565b600080600080600060808688031215611d7557600080fd5b8535945060208601358015158114611d8c57600080fd5b935060408601359250606086013567ffffffffffffffff811115611daf57600080fd5b8601601f81018813611dc057600080fd5b803567ffffffffffffffff811115611dd757600080fd5b886020828401011115611de957600080fd5b959894975092955050506020019190565b8781526001600160a01b03878116602083015286151560408301528516606082015260ff8416608082015260e060a08201819052600090611e3d90830185611a73565b90508260c083015298975050505050505050565b600181811c90821680611e6557607f821691505b602082108103611e8557634e487b7160e01b600052602260045260246000fd5b50919050565b634e487b7160e01b600052601160045260246000fd5b8181038181111561081457610814611e8b565b601f82111561104357806000526020600020601f840160051c81016020851015611edb5750805b601f840160051c820191505b81811015611efb5760008155600101611ee7565b5050505050565b815167ffffffffffffffff811115611f1c57611f1c611bb8565b611f3081611f2a8454611e51565b84611eb4565b6020601f821160018114611f645760008315611f4c5750848201515b600019600385901b1c1916600184901b178455611efb565b600084815260208120601f198516915b82811015611f945787850151825560209485019460019092019101611f74565b5084821015611fb25786840151600019600387901b60f8161c191681555b50505050600190811b01905550565b60ff818116838216019081111561081457610814611e8b565b600060208284031215611fec57600080fd5b5051919050565b67ffffffffffffffff83111561200b5761200b611bb8565b61201f836120198354611e51565b83611eb4565b6000601f841160018114612053576000851561203b5750838201355b600019600387901b1c1916600186901b178355611efb565b600083815260209020601f19861690835b828110156120845786850135825560209485019460019092019101612064565b50868210156120a15760001960f88860031b161c19848701351681555b505060018560011b0183555050505050565b8082018082111561081457610814611e8b565b634e487b7160e01b600052603260045260246000fd5b634e487b7160e01b600052603160045260246000fd5b60008251612104818460208701611a4f565b919091019291505056fe360894a13ba1a3210667c828492db98dca3e2076cc3735a920a3ca505d382bbca264697066735822122093c8f0708412519d346f96c59ed8d132658784e3bac1f27113f718f4cfe9c09564736f6c634300081a0033",
    "linkReferences": {},
    "deployedLinkReferences": {}
}